:020000040800F2
:10000000A06400207D020008F56B0008C9580008B4
:10001000F16B0008ED1500080183000800000000E6
:10002000000000000000000000000000C101000806
:10003000E528000800000000150200083B760008D3
:10004000970200089702000897020008970200082C
:10005000970200089702000897020008970200081C
:100060009702000897020008512C00089702000828
:1000700097020008970200089702000897020008FC
:10008000FD26000897020008970200083D170008A7
:10009000AD1600089702000897020008692C0008B6
:1000A00097020008970200089702000897020008CC
:1000B0008977000897020008970200089702000855
:1000C00097020008970200089702000897020008AC
:1000D00097020008B18100081D82000897020008FD
:1000E000970200089702000897020008970200088C
:1000F000970200089702000897020008970200087C
:10010000970200089702000897020008970200086B
:10011000970200089702000897020008970200085B
:1001200097020008970200080D27000897020008B0
:100130009702000897020008970200083519000886
:100140008518000897020008970200089702000827
:1001500097020008970200089702000875820008BD
:10016000970200089702000897020008970200080B
:10017000970200089702000897020008000000009C
:1001800097020008970200089702000897020008EB
:1001900097020008970200089702000897020008DB
:1001A000000000000000000097020008DFF80CD0FB
:1001B00000F090FB00480047F18F0008A064002089
:1001C0002B4B19680868B0E8F04F80F30988BFF33B
:1001D0006F8F4FF0000080F311887047000000001F
:1001E00006480068006880F3088862B661B6BFF30D
:1001F0004F8FBFF36F8F00DF00BF00BF08ED00E03F
:10020000DFF80C00016841F470010160704700BF25
:1002100088ED00E0EFF30980BFF36F8F144B1A688D
:100220001EF0100F08BF20ED108A20E9F04F10607B
:1002300008B44FF0500080F31188BFF34F8FBFF325
:100240006F8F09F04DFD4FF0000080F3118808BC5E
:1002500019680868B0E8F04F1EF0100F08BFB0EC46
:10026000108A80F30988BFF36F8F704700BF00BF0B
:10027000400D0020EFF305807047000006488047DE
:1002800006480047FEE7FEE7FEE7FEE7FEE7FEE77B
:10029000FEE7FEE7FEE7FEE725770008AD01000870
:1002A0002DE9F05F0546002092469B4688460646AB
:1002B000814640241BE0284641464746224600F03E
:1002C00052FA53465A46C01A914110D31146184665
:1002D000224600F039FA2D1A67EB01084F462246F4
:1002E0000120002100F030FA17EB00094E41201EDA
:1002F000A4F10104DFDC484631462A464346BDE806
:10030000F09F40EA01039B0703D009E008C9121FD0
:1003100008C0042AFAD203E011F8013B00F8013BBF
:10032000521EF9D27047D2B201E000F8012B491EEB
:10033000FBD270470022F6E710B513460A46044682
:100340001946FFF7F0FF204610BD2DE9FE4F80460D
:1003500081EA0300C00F0C46009021F0004123F019
:100360000045B8EB0200A94105D24046214690461F
:100370001C460B46024623F00040104347D0270D91
:10038000C7F30A00C3F30A510290401A01904028B3
:100390006BDAC3F3130040F4801B0098924620B13F
:1003A0000023D2EB030A63EB0B0B01985946C0F113
:1003B0004002504600F0C8F906460D4650465946E0
:1003C000019A00F0E0F910EB08006141002487EA8F
:1003D000115284EAE7731A4340D0009A62B3019A3B
:1003E000012A4FEA075215DC001B61EB02014FF0B6
:1003F000004202EA0752CDE90042001C41F580119B
:1004000032462B4600F017FA03B0BDE8F08F4046A5
:100410002146F9E7001B61EB0201001C41F5801346
:1004200000185B412018A2F5001747EB030140EAD2
:10043000D570B6196D4111E06D084FEA360645EAF0
:10044000C0754FEA0752001B61EB0201001C41F529
:10045000801149084FEA30000019514132462B46BD
:1004600003B0BDE8F04F00F0D7B90098012240007A
:100470000023D0EB020263EBE073009821464FEAC1
:10048000E074B8EB000061EB0401E9E783F000439E
:100490005BE781F0004158E72DE9FE4F81EA030454
:1004A00004F0004421F0004100944FF0000B23F0D1
:1004B000004350EA01045ED052EA03045BD0C3F368
:1004C0000A54C1F30A552C44A4F2F3340194A0FB5E
:1004D0000254C1F3130141F48011C3F3130343F435
:1004E000801301FB024400FB034E840A970A44EA8E
:1004F000815447EA8357A4FB076802958D0A05FBE0
:1005000007854FEA932C04FB0C542705029D4FEA04
:10051000065847EA1637B5EB08056EEB070C870E51
:10052000920E47EA811742EA8312A7FB0201B6EB5B
:100530000B0164EB00042B0D43EA0C335E1844EB13
:100540001C50DA465146E7FB0201C5F313044FEA9B
:100550000B3343EA14534FEA0432019C43EA060387
:10056000A4F10C040294009CCDE900B400F063F9FE
:1005700003B0BDE8F08F00200146F9E72DE9F04D0A
:1005800081EA030404F0004B21F0004514464FF0CB
:10059000000A23F0004150EA050220D054EA01028B
:1005A0001DD0C5F30A570246C5F31303C1F3130068
:1005B000C1F30A5640F4801543F48013A7EB0608F4
:1005C000101BD64608F2FD3873EB050002D308F184
:1005D000010801E092185B41B8F1000F03DA002036
:1005E0000146BDE8F08D00204FF480110646844698
:1005F0000EE0171B73EB050705D3121B63EB050316
:1006000006434CEA010C49084FEA300092185B415E
:1006100050EA0107EDD152EA030012D082EA040049
:1006200083EA0501084305D0101BAB4106D2012225
:10063000002306E000224FF0004302E06FF00102C9
:1006400053101AEB06004CEB085110EB0A0041EB7B
:100650000B01BDE8F04D00F0DFB80EB5C10F80EA28
:10066000E0700844CA07002140F233438DE80E00D1
:100670000A460B4600F0DFF803B000BD70B5C1F3C9
:100680000A5201F000450024C1F3130140F2FF3388
:1006900041F480119A4201DA002070BD40F23343E8
:1006A0009A42A2F2334203DC524200F05CF800E0CE
:1006B00090402C43F1D0404270BD00F0004230F039
:1006C00000400AD0C10D01F56071C0F3160042EA86
:1006D0000151C2084007114370470020014670478E
:1006E00030B5041E71F1000404DB4FF000444042B9
:1006F00064EB0101141E73F1000405DB1C464FF08E
:100700000043524263EB0403994208BF904230BD5C
:1007100001F0004330B421F0004150EA010206D05C
:100720000A0DA2F56072C1F31301002A02DC30BC8D
:1007300000207047440F44EAC104C100E01830BCF7
:1007400000EBC25000F031B8202A04DB203A00FA56
:1007500002F1002070479140C2F1200320FA03F318
:10076000194390407047202A04DB203A21FA02F016
:100770000021704721FA02F3D040C2F120029140DB
:10078000084319467047202A06DBCB17203A41FA66
:1007900002F043EAE07306E041FA02F3D040C2F10E
:1007A000200291400843194670470029A8BF7047AE
:1007B000401C490008BF20F00100704710B4B0FA97
:1007C00080FC00FA0CF050EA010404BF10BC704732
:1007D00049B1CCF1200421FA04F411FA0CF118BF4C
:1007E000012121430843A3EB0C01CB1D4FEA00611B
:1007F0004FEA102042BF002010BC704700EBC350EE
:1008000010440029A4BF10BC7047401C490008BF19
:1008100020F0010010BC704710B5141E73F10004E5
:1008200008DA401C41F1000192185B411A4301D1E2
:1008300020F0010010BD2DE9F04D92469B4611B10C
:10084000B1FA81F202E0B0FA80F220329046FFF76E
:100850007BFF04460F4640EA0A0041EA0B0153467B
:100860005A46084313D0114653EA010019D0C8F183
:1008700040025046FFF777FF05460E465046594660
:100880004246FFF761FF084305D0012004E02046FF
:100890003946BDE8F08D0020054346EAE0762C435A
:1008A00037430A986305E40AA0EB08000022FD0A1A
:1008B00044EA47540A3002D500200146E9E7010521
:1008C00010196941DDE9084500196941BDE8F04D9D
:1008D000A2E70000064C074D06E0E06840F0010387
:1008E00094E8070098471034AC42F6D3FFF762FC57
:1008F000ACAB0008CCAB00080EB540F2334102911E
:100900000021CDE900110A460B46FFF794FF03B022
:1009100000BD70B58C1810F8015B15F0070301D10C
:1009200010F8013B2A1106D110F8012B03E010F852
:10093000016B01F8016B5B1EF9D12B0705D4002375
:10094000521E0DD401F8013BFAE710F8013BCB1A17
:10095000921C03E013F8015B01F8015B521EF9D50C
:10096000A142D8D3002070BD10B5C84BDA68002A68
:1009700001DB134600E05342C54CE068002801DB70
:10098000044600E04442191901EBD1735B1000EEFC
:10099000103AB8EEC00ABF4B83ED000ABE4800789B
:1009A00001287CD0BC4800780228FAD0BB480078E7
:1009B0000028F6D0BA48BB490978405C12286FD2AB
:1009C000DFE800F06E09192A3D517A8FA4E9FDFB9A
:1009D000B9D9C9FA6EF901225102B34803F0A4FC57
:1009E000B2480078401CB1490870AE480078401CFD
:1009F000AC49087039E100224FF40071AA4803F0B5
:100A000093FCAA480078401EA8490870A5480078C1
:100A1000401CA449087028E101229102A44803F077
:100A200083FC09F06DFCA3490968401AB0F57A7F90
:100A300004D99C480078401C9A49087015E10022AE
:100A40004FF480619A4803F06FFC09F059FC994912
:100A50000968401AB0F57A7F04D992480078401CA2
:100A60009049087001E19FED940A944880ED000AD6
:100A700089480078062803D087480078072808D1DD
:100A80008E4890ED000ADFED8E0A30EE200A80EDF0
:100A9000000A804890ED000ADFED8A0A01E0F3E0E9
:100AA000E2E0B4EEE00AF1EE10FA04DD7D480078F1
:100AB000401C7C490870D8E09FED830A7F4880ED98
:100AC000000A744890ED000ADFED800AB4EEE00AF7
:100AD000F1EE10FA04DD73480078401C714908708B
:100AE000C3E09FED7B0A754880ED000A694890EDF0
:100AF000000ADFED780AB4EEE00AF1EE10FA04D253
:100B000068480078401C67490870AEE09FED6A0AAB
:100B10006A4880ED000A5F4890ED000ADFED6E0A3A
:100B2000B4EEE00AF1EE10FA04D25E480078401C00
:100B30005C49087099E09FED660A684880ED000AFC
:100B40006748C068B0F5FA6F04DA56480078401C70
:100B50005449087089E09FED5E0A604880ED000A04
:100B60005F48C06810F1C80F04DD4E480078401C93
:100B70004C49087079E09FED560A584880ED000A0C
:100B80005748C06810F5C87F04DD46480078401C0F
:100B90004449087069E09FED4E0A524880ED000A12
:100BA0005148C068B0F5967F04DA3E480078401C92
:100BB0003C49087059E024E055E032E0FFE79FED42
:100BC0004B0A484880ED000A33480078062803D0D5
:100BD00031480078072808D1424890ED000ADFED3F
:100BE000440A30EE200A80ED000A3F48C06840F613
:100BF0005A21884204DD2B480078401C294908709E
:100C000033E09FED3C0A374880ED000A3648C06863
:100C1000B0F5166F04DA23480078401C21490870AB
:100C200023E09FED270A2F4880ED000A1A4800783C
:100C3000062803D018480078072808D1294890EDE5
:100C4000000ADFED2D0A30EE200A80ED000A26486A
:100C5000C06840F2A461884204DA12480078401C5F
:100C60001049087001E000E000BF00BF2348007891
:100C70000C490978884203D009F042FB0D4908600D
:100C8000084800781D49087010BD00006819002050
:100C9000541900200C0C0020480B002005000020F7
:100CA000F61A0020490B002000200240140C0020FE
:100CB00000140240180C00200080D445F00B0020E6
:100CC0000000C8440020CB450080224600D01D46CD
:100CD000000000000000964300E0DD45F40B00201A
:100CE000B8190020EC0B0020A419002000C02845F2
:100CF0000000C84300C00F45000016C4150C0020BA
:100D000010B52DED028BB948007802287DD1B84886
:100D100090ED030AB8EEC00AF0EE400AB54890ED37
:100D2000000AB1EE400AB44806F080FBB048B0F9C2
:100D30000000032190FBF1F000EE100AB8EEC00AAB
:100D4000B0EE408AAC48C06B00EE100AF0EE480AE4
:100D5000AA4806F06BFBAA4890ED030AB8EEC00A59
:100D6000F0EE400AA34890ED000AA64806F05EFBAC
:100D7000A348B0F90000032190FBF1F000EE100A47
:100D8000B8EEC00AB0EE408A9E48C06B00EE100A72
:100D9000F0EE480A9C4806F049FB9C4890ED030A97
:100DA000B8EEC00AF0EE400A9FED990A994806F0A5
:100DB0003DFB9648B0F90000032190FBF1F000EEF6
:100DC000100AB8EEC00AB0EE408A9248C06B00EE3E
:100DD000100AF0EE480A904806F028FB8F4890ED84
:100DE000030AB8EEC00AF0EE400A9FED890A8C486B
:100DF00006F01CFB8948B0F90000032190FBF1F0DC
:100E000000EE100AB8EEC00A00E00BE0B0EE408A37
:100E10008348C06B00EE100AF0EE480A814806F0E5
:100E200005FBDFE071480078012851D17048B0F926
:100E30000000032190FBF1F000EE100AB8EEC00AAA
:100E4000B0EE408AF0EE480A774890ED000A6B4811
:100E500006F0ECFA6A48B0F90000032190FBF1F0CB
:100E600000EE100AB8EEC00AB0EE408AF0EE480A72
:100E70006D4890ED000AB1EE400A634806F0D6FADC
:100E80006648B0F90000032190FBF1F000EE100A73
:100E9000B8EEC00AB0EE408AF0EE480A634890ED22
:100EA000000A604806F0C2FA5848B0F900000A216A
:100EB00090FBF1F000EE100AB8EEC00AB0EE408AE6
:100EC000F0EE480A9FED520A534806F0AFFA89E067
:100ED000474890ED030AB8EEC00AF0EE400A4548D4
:100EE00090ED000AB1EE400A434806F09FFA4048F0
:100EF000B0F90000032190FBF1F000EE100AB8EE0B
:100F0000C00AB0EE408A3C48C06B00EE100AF0EE1A
:100F1000480A3A4806F08AFA394890ED030AB8EED2
:100F2000C00AF0EE400A334890ED000A354806F05A
:100F30007DFA3348B0F90000032190FBF1F000EE98
:100F4000100AB8EEC00AB0EE408A2E48C06B00EE20
:100F5000100AF0EE480A2C4806F068FA2B4890ED8B
:100F6000030AB8EEC00AF0EE400A314890ED000ADC
:100F7000284806F05BFA2548B0F90000032190FBF1
:100F8000F1F000EE100AB8EEC00AB0EE408A214837
:100F9000C06B00EE100AF0EE480A1F4806F046FA51
:100FA0001E4890ED030AB8EEC00AF0EE400A214850
:100FB00090ED000A1A4806F039FA1848B0F9000016
:100FC000032190FBF1F000EE100AB8EEC00AB0EE7B
:100FD000408A1348C06B00EE100AF0EE480A114830
:100FE00006F024FABDEC028B10BD0000480B002077
:100FF00054190020F00B0020CA030020E401002057
:10100000681900201B04002035020020A4190020CC
:10101000000000006C040020A3060020B819002086
:10102000BD040020F4060020FC0B0020000C002072
:10103000EC0B0020F40B0020AC480068AC49886140
:10104000AC498861B2EE000A10EE100AAA49886124
:10105000AA498861AA488068AA498861AA48806824
:10106000AA498861B0EE000A10EE100AA84988610A
:10107000B2EE000A10EE100AA6498861B7EE000A27
:10108000A54880ED000AA5480078032803D0A348AE
:10109000007804287ED1A248A2490978405C09283A
:1010A00011D1A148007800280DDD97484068984983
:1010B00088619348406897498861B0EE000A964875
:1010C00080ED000A19E0964896490978405C0928A5
:1010D00013D19548007880B9B1EE040A10EE100AD9
:1010E0008B498861B2EE080A10EE100A89498861BE
:1010F000B7EE000A884880ED000A894889490978D6
:10110000405C112814D188480078012810D1B1EE34
:10111000040A10EE100A7E498861B2EE0C0A10EE45
:10112000100A7C498861B0EE000A7B4880ED000A15
:101130007B487C490978405C0B280CD17248C06818
:10114000734988616E48C06872498861B1EE000ACF
:10115000714880ED000A724872490978405C0A289B
:101160000FD17148007860B96748006868498861A4
:101170006348006867498861B7EE000A664880EDF9
:10118000000A674867490978405C0A2816D1664812
:10119000007800E013E0002810DDB1EE040A10EE44
:1011A000100A5B498861B7EE000A5B4880ED000ACF
:1011B000B2EE0E0A10EE100A564988617DE05748DB
:1011C0000078062879D1564856490978405C0928A4
:1011D00011D15548007800280DDD4B4840684C4936
:1011E0008861474840684B498861B0EE000A4A4828
:1011F00080ED000A19E04A484A490978405C09280C
:1012000013D14948007880B9B1EE040A10EE100AF3
:101210003F498861B2EE080A10EE100A3D49886124
:10122000B7EE000A3C4880ED000A3D483D49097888
:10123000405C0B2810D1B2EE000A10EE100A3449BF
:101240008861B3EE040A10EE100A32498861B2EEEA
:10125000020A314880ED000A314832490978405C81
:101260000A280FD13048007860B92748006828491B
:1012700088612348006827498861B7EE000A26483C
:1012800080ED000A264827490978405C0A2814D1D5
:1012900025480078002810DDB1EE040A10EE100A8F
:1012A0001B498861B7EE000A1B4880ED000AB2EEC8
:1012B0000E0A10EE100A174988619FED1C0A10EE05
:1012C000100A1349C8610A49C8610A49C8610F492F
:1012D000C8619FED160A10EE100A0D490862044914
:1012E0000862044908620949086270471C0C002022
:1012F00035020020E40100201B040020CA03002066
:10130000280C0020BD0400203C0C0020F406002026
:10131000A30600206C040020240C0020480B0020B1
:10132000F61A0020490B0020140C002000000000D9
:1013300010B551480078092874D2DFE800F04F5901
:10134000740510321D283C00002005E04B49095C63
:101350004B4A1154411CC8B22828F7DB8AE0002010
:1013600007E00021464A11544649095C1154411CCA
:10137000C8B22828F5DB7DE0002005E04249095C81
:101380003F4A1154411CC8B22828F7DB72E0002004
:1013900004E000213A4A1154411CC8B22828F8DB65
:1013A00068E0002004E00021354A1154411CC8B215
:1013B0002828F8DB5EE0002004E00021304A1154C8
:1013C000411CC8B22828F8DB9FED300A304880ED78
:1013D000000A40F23A702F4908604BE0002004E018
:1013E0000021274A1154411CC8B22828F8DB41E0EB
:1013F0002948B0F9080000EE100AB8EEC00A2748E4
:10140000D0ED000A20EE200A254880ED000A22488F
:10141000B0F9060000EE100AB8EEC00A214880EDCF
:10142000000A27E025E0012006F0B8F848B11A4884
:10143000407D012805D19FED150A154880ED000A71
:101440000CE0022006F0AAF840B11348407D0128C4
:1014500004D19FED150A0E4880ED000A9FED120A97
:10146000124880ED000A9FED100A114880ED000A35
:1014700000BF00BF00BF10BD480B00204A0B00207A
:10148000F61A0020720B00209A0B00200080D44531
:10149000F00B002034040140E01A0020F80B00207B
:1014A000FC0B0020000C002000000000EC0B0020D2
:1014B000F40B002010B53148C06B00EE100A304824
:1014C000D0ED000A20EE200A2E4880ED000A90EDB3
:1014D000000ADFED2D0AB4EEE00AF1EE10FA04DDA9
:1014E0009FED290A80ED000A0DE0264890ED000AE4
:1014F000DFED260AB4EEE00AF1EE10FA03D29FED1A
:10150000230A80ED000A22480078032808D02048EA
:10151000007828B11F48007810B11F48007830B912
:1015200000231A461946184600F0DCF924E01B4A4D
:10153000D26B00EE102ABDEEC00A10EE102A13B2D4
:10154000174AD26B00EE102ABDEEC00A10EE102A28
:1015500011B2144AD26B00EE102ABDEEC00A10EE92
:10156000102A10B2074A92ED000ABDEEC00A10EE32
:10157000102A12B200F0B6F910BD0000A306002038
:10158000240C0020540C002000606A4600606AC6EB
:101590000200002004000020480B0020F406002078
:1015A00035020020E401002010B504F057FF04F0DC
:1015B000DFFD04F047FE04F0AFFE05F0B7F805F0DC
:1015C00087F905F00FF905F0DDF805F0DBF905F016
:1015D0005FFA05F0CBFA05F093FA05F055F810BD67
:1015E0000149488008807047CA0A002000BFFEE712
:1015F00000B526480068401C24490860244800883B
:10160000401C2349088023480068A0F2012030B123
:10161000012818D004282AD0052834D12DE01E48EE
:101620000088401C1C49088018480068C82804D25B
:101630001A48C08800B21949488216491C31174817
:1016400007F088FC20E014484088401C124948807C
:101650000E480068C82804D21148C08800B210495A
:1016600048820C491C310E4807F074FC0CE0094913
:101670001C310C4807F06EFC06E006491C310A4894
:1016800007F068FC00E000BF00BF00BDA80A002012
:1016900062000020201B00204000002004190020D0
:1016A000181900207C1900209019002010B502485C
:1016B00001F0DEFF10BD0000601C002030B585B0D9
:1016C00004460D4640F2FF100A490860200A0876D9
:1016D00008464476290A8176C576142200F10C0169
:1016E0006846FEF70EFE03480EC8034800F051F9A5
:1016F00005B030BD441B00206813002030B585B014
:1017000004460D464FF400700A490860200A087626
:1017100008464476290A8176C576142200F10C0128
:101720006846FEF7EEFD03480EC8034800F031F9A5
:1017300005B030BD441B00206813002010B50248DE
:1017400001F096FF10BD0000601C002000B541486C
:101750000068401C3F4908603F480068A0F2012033
:10176000082873D2DFE800F004141F2A35445362BE
:101770003A480088401C3949088039480088401C94
:101780003749088034491C31364807F0E3FB5EE0F6
:1017900033484088401C324948802F491C31324828
:1017A00007F0D8FB53E02E488088401C2C498880E5
:1017B00029491C312D4807F0CDFB48E02848C08856
:1017C000401C2749C88024491C31294807F0C2FB26
:1017D0003DE020480068C82804D22648C08800B2EE
:1017E000244948821C491C31224807F0B3FB2EE0F3
:1017F00018480068C82804D21F48C08800B21E4993
:10180000488215491C311C4807F0A4FB1FE0114811
:101810000068C82804D21948C08800B21749488215
:101820000D491C31154807F095FB10E00948006888
:10183000C82804D21248C08800B21149488206491B
:101840001C310F4807F086FB01E0FFE700BF00BF37
:1018500000BD0000A80A0020841B00205E000020BC
:1018600040000020B4180020C8180020DC18002018
:10187000F01800205419002068190020A419002035
:10188000B819002010B5024801F0F2FE10BD0000AA
:10189000101C0020F0B585B004460D4616461F46C4
:1018A0004FF400700D490860200A08760846447617
:1018B000290A8176C576310A01774677390A817718
:1018C000C777142200F10C016846FEF71AFD0348A1
:1018D0000EC8034800F05DF805B0F0BDA81B00205D
:1018E000EC150020F0B585B004460D4616461F469F
:1018F00040F2FF100D490860200A08760846447639
:10190000290A8176C576310A01774677390A8177C7
:10191000C777142200F10C016846FEF7F2FC034879
:101920000EC8034800F035F805B0F0BDA81B002034
:10193000EC15002010B5024801F09AFE10BD000021
:10194000101C002030B589B004460D4620886188FF
:1019500088420CD1202101A8FEF7ECFC202201A92D
:101960002846FEF7CEFC4FF0FF3009B030BD22888C
:10197000201D00EB421120222846FEF7C2FC2088E1
:10198000401C80B22080142801DB00202080002031
:10199000EBE70FB410B504466288211D01EB42103D
:1019A000202203A9FEF7ADFC6088401C80B2608055
:1019B000142801DB0020608060882188884207D1DC
:1019C0002088401C80B22080142801DB0020208069
:1019D00010BC5DF814FB014648880B88C21A002A27
:1019E00001DB90B2704702F1140080B2FAE7000008
:1019F00010B52DED068B7B49B1F90000FEF72DFEE9
:101A000041EC1A0B9FED780B53EC102BFEF7B6FD53
:101A100041EC190BFEF77CFE08EE100A7448B0F991
:101A2000040000EE900AF8EEE00AB0EE600AF0EE74
:101A3000480A704805F0FAFC6F49B1F90000FEF75A
:101A40000CFE41EC1A0B9FED680B53EC102BFEF7CC
:101A500095FD41EC190BFEF75BFE08EE100A644899
:101A6000B0F9060000EE900AF8EEE00AB0EE600A67
:101A7000F0EE480A614805F0D9FC6149B1F900006F
:101A8000FEF7EBFD41EC1A0B9FED570B53EC102BBF
:101A9000FEF774FD41EC190BFEF73AFE08EE100A52
:101AA0005348B0F9080000EE900AF8EEE00AB0EEF4
:101AB000600AF0EE480A534805F0B8FC5249B1F903
:101AC0000000FEF7CAFD41EC1A0B9FED470B53ECEB
:101AD000102BFEF753FD41EC190BFEF719FE08EE33
:101AE000100A4348B0F90A0000EE900AF8EEE00A46
:101AF000B0EE600AF0EE480A444805F097FC3D4815
:101B0000C06B00EE100ADFED420AB4EEE00AF1EE1F
:101B100010FA10DD3748C06B00EE100ADFED3D0A09
:101B2000B4EEE00AF1EE10FA05D29FED3B0A10EE9A
:101B3000100A3049C8633148C06B00EE100ADFED6F
:101B4000340AB4EEE00AF1EE10FA10DD2B48C06B57
:101B500000EE100ADFED2F0AB4EEE00AF1EE10FA03
:101B600005D29FED2D0A10EE100A2449C8632548BE
:101B7000C06B00EE100ADFED260AB4EEE00AF1EECB
:101B800010FA10DD1F48C06B00EE100ADFED210ACD
:101B9000B4EEE00AF1EE10FA05D29FED1F0A10EE46
:101BA000100A1849C8631948C06B00EE100ADFED2F
:101BB000180AB4EEE00AF1EE10FA10DD1348C06B1B
:101BC00000EE100ADFED130AB4EEE00AF1EE10FAAF
:101BD00005D29FED110A10EE100A0C49C863BDEC46
:101BE000068B10BDB4180020000000000000244047
:101BF000CC1A00205F050020C8180020B005002086
:101C0000DC18002001060020F018002052060020F9
:101C100000002FC400002F4400000000B2EE0E0AA6
:101C200010EE100A2C4988612C48007800EE100A4A
:101C3000B8EE400A10EE100A294988612948007858
:101C400000EE100AB8EE400A10EE100A264988612C
:101C50002648007800EE100AB8EE400A10EE100A8E
:101C6000234988612348007800EE100AB8EE400A44
:101C700010EE100A204988619FED200A10EE100A2C
:101C8000C8611B49C8611849C8611549C8619FED01
:101C90001B0A10EE100A1849086215490862124919
:101CA00008620F4908629FED150A10EE100A1249EA
:101CB00008610F4908610C490861094908619FEDF5
:101CC0000F0A10EE100A0C49C8610949C86106499B
:101CD000C8610349C86170470E050020F20A002060
:101CE0005F050020F30A0020B0050020F40A002060
:101CF00001060020F50A0020520600200000000026
:101D000010B52DED068BF948007858B90020F84938
:101D100088810021F648C18101829FEDF60A80ED9D
:101D2000000AA4E1F148007801287DD1F2488088BA
:101D3000EF498881F0484188ED48C181EE49B1F909
:101D4000060000EBD0714910E94A11829FEDE90AC3
:101D5000104680ED000AE849B1F90410E74AB2F9EB
:101D60000020881A002801DB014600E04142E44AD5
:101D70001288914230DDE048B0F90400DF49B1F942
:101D8000001088420DDDDC48B0F90400002808DDB1
:101D9000DA480088DA490988084400B2D74908803F
:101DA0001EE0D548B0F90400D449B1F900108842CA
:101DB0000DDAD148B0F90400002808DACF480088CD
:101DC000CF490988401A00B2CC49088008E0CA48C7
:101DD0008088CA49088003E0C7488088C7490880CE
:101DE000C549B1F90210C74AB2F90020881A002883
:101DF00001DB014600E04142C14A1288914232DDD6
:101E0000BD48B0F90200BF49B1F9001088420FDDAA
:101E1000B948B0F9020000280ADDBA480088B8497C
:101E20000988084400B200E05FE0B64908801EE07F
:101E3000B148B0F90200B349B1F9001088420DDA97
:101E4000AD48B0F90200002808DAAE480088AC4975
:101E50000988401A00B2AB49088008E0A6484088CB
:101E6000A849088003E0A4484088A6490880A34800
:101E7000B0F90000404200EE100AB8EEC00AA248D5
:101E8000D0ED000A20EE200ABDEEC00A10EE100AC6
:101E900000B2974988819B48B0F9000000EE100A13
:101EA000B8EEC00A9848D0ED000A20EE200ABDEE38
:101EB000C00A10EE100A01B28D48C1818E49B1F9F5
:101EC000060000EBD071491000EE101AB8EEC00AFF
:101ED0008E49D1ED000A20EE200ABDEEC00A10EEB8
:101EE000101A0AB282490A82C1E0804800780228AA
:101EF00017D14FF496714FF4C87003F071FD1020A4
:101F000005F04CFB28B14FF416714FF42F7003F01D
:101F100067FD79488089C0EB001001B274480182E6
:101F2000A5E07248007803282AD16FF02700704995
:101F30008881774890F90100702808DA744890F990
:101F400001001E2803DD46216948C1818FE07048E9
:101F500090F9010010F11E0F0ADA6D4890F90100A6
:101F600010F1700F04DD6FF045016148C1817EE022
:101F70006748407800287AD100215D48C18176E029
:101F80005A48007804283CD16248008898B16248D9
:101F900090ED000ADFED610AB4EEE00AF1EE10FA0E
:101FA00009DD5F4890ED000A5E4880ED000A08F008
:101FB000A7F95D4908605D480078012806D16FF0F7
:101FC000C7004B49888100214948C18108F098F930
:101FD00055490968401A5649086008460068B0F536
:101FE000FA6F08D95048006828B100204F4908709E
:101FF0000120504908704D4890F900004E49087082
:1020000035E03A480078052826D14548D0ED000A49
:10201000444890ED000A494805F008FABDEEC00AB0
:1020200010EE100A01B2324801826FF0C700304949
:10203000888100212E48C1813C4890F90000401C55
:1020400018B964202A49888111E03848007870B9AD
:102050000020274988810AE0002025498881002145
:102060002348C18101829FED230A80ED000A2048A8
:1020700090ED000ADFED320A80EE201A11EE104AD0
:102080002046FEF71AFB41EC1A0B9FED2E0B53EC8A
:10209000102BFEF701FA41EC190BFEF739FB08EEA5
:1020A000100A1348B0F9100001EE900AF8EEE11A98
:1020B000B0EE611A0E48B0F90C0001EE900AF8EE8D
:1020C000E11AF0EE610A0A48B0F90E0001EE900A3A
:1020D000F8EEE11AB0EE610A47F23050F0EE481A1D
:1020E00000F08AF8BDEC068B10BD0000E40A002069
:1020F000CC1A002000000000E01A00200E0B002087
:10210000080B0020100B0020E80A0020EC0A002039
:10211000BC0A0020420B0020E00A002000E02B4611
:10212000E80C0020FC0A0020040B0020DC0A002040
:10213000F80A00200A0B00200B0B00200E050020DF
:102140000000344397D17E5AFB21094010B5244842
:10215000007830B123480078032802D02148007865
:1021600030B900231A4619461846FFF793FB35E0AD
:102170001D4CE46B00EE104AF7EE000A20EE200A38
:10218000BDEEC00A10EE104A23B2184CE46B00EE0C
:10219000104AF7EE000A20EE200ABDEEC00A10EE4B
:1021A000104A22B2124CE46B00EE104AF7EE000A1D
:1021B00020EE200ABDEEC00A10EE104A21B20D4CEE
:1021C000E46B00EE104AF7EE000A20EE200ABDEEA6
:1021D000C00A10EE104A20B2FFF75CFB10BD0000F1
:1021E000E40A002002000020520600200106002020
:1021F000B00500205F05002010B52DED108B8CB0D0
:10220000F0EE40AAB0EE60DAF0EE418AB0EE619AEC
:1022100004469FEDF80AB0EE408A19EE100AFEF768
:102220004CFA41EC1C0BB0EE4C0AF0EE6C0A06F0D6
:10223000A3F9B0EE40BAF0EE60BA1AEE900AFEF7DB
:102240003CFA41EC1E0B53EC1B2BFEF725F9CDE9B4
:10225000000119EE100AFEF730FA41EC1C0BB0EE4B
:102260004C0AF0EE6C0A06F017F9B0EE40EAF0EE18
:1022700060EA1DEE100AFEF720FA41EC1B0B53EC4E
:102280001E2BFEF709F941EC1F0B9DED000B53ECE3
:10229000102BFEF75AF8CDE902019DED020B51EC2F
:1022A000100BFEF735FA09EE900A19EE100AFEF748
:1022B00004FA41EC1C0BB0EE4C0AF0EE6C0A06F08E
:1022C0005BF9B0EE40BAF0EE60BA1DEE100AFEF710
:1022D000F4F941EC1E0B53EC1B2BFEF7DDF841EC3F
:1022E0001F0B19EE100AFEF7E8F941EC1B0BB0EEDC
:1022F0004B0AF0EE6B0A06F0CFF8B0EE40CAF0EEF3
:1023000060CA1AEE900AFEF7D8F941EC1E0B53ECA6
:102310001C2BFEF7C1F853EC1F2BCDE900019DEDFE
:10232000000B51EC100BFEF7B1F8CDE902019DED69
:10233000020B51EC100BFEF7EBF90AEE100AB1EEAE
:10234000690A30EE0A0A30EE280A8DED070A39EEE6
:102350008A0A30EE280A8DED080A39EECA0A30EEF4
:10236000280A8DED090AB1EE690A30EE4A0A30EE0C
:10237000280A8DED0A0A9DED070A10EE101A08468C
:10238000FEF79BF941EC1C0BB0EE4C0AF0EE6C0A28
:1023900006F0E6F8B0EE40BAF0EE60BA51EC1B0B76
:1023A000FEF7B6F908EE100A18EE100AFEF785F9E6
:1023B00041EC1B0B9DED080A10EE101A0846FEF7C3
:1023C0007CF941EC1E0BB0EE4E0AF0EE6E0A06F000
:1023D000C7F8B0EE40CAF0EE60CA53EC1B2B51ECCC
:1023E0001C0BFEF77DF918D29DED080A10EE101AAD
:1023F0000846FEF762F941EC1B0BB0EE4B0AF0EE1B
:102400006B0A06F0ADF8B0EE40CAF0EE60CA51ECCF
:102410001C0BFEF77DF908EE100A18EE100AFEF705
:102420004CF941EC1E0B9DED090A10EE101A0846FE
:10243000FEF743F941EC1C0BB0EE4C0AF0EE6C0ACF
:1024400006F08EF8B0EE40BAF0EE60BA53EC1E2BF8
:1024500051EC1B0BFEF744F918D29DED090A10EE62
:10246000101A0846FEF729F941EC1B0BB0EE4B0A97
:10247000F0EE6B0A06F074F8B0EE40CAF0EE60CAF7
:1024800051EC1C0BFEF744F908EE100A18EE100A86
:10249000FEF713F941EC1B0B9DED0A0A10EE101A22
:1024A0000846FEF70AF941EC1E0BB0EE4E0AF0EEBC
:1024B0006E0A06F055F8B0EE40CAF0EE60CA53EC72
:1024C0001B2B51EC1C0BFEF70BF918D29DED0A0AE1
:1024D00010EE101A0846FEF7F0F841EC1C0BB0EEB7
:1024E0004C0AF0EE6C0A06F03BF8B0EE40BAF0EEA3
:1024F00060BA51EC1B0BFEF70BF908EE100A00EE68
:10250000104AB8EE400AB4EEC08AF1EE10FA44DD8B
:1025100000EE104AB8EE400AC0EE080A9DED070A28
:1025200020EE800ABDEEC00A10EE100A00B2ADF82F
:10253000100000EE104AF8EE400A80EE880ADDED49
:10254000080A20EE200ABDEEC00A10EE100A00B202
:10255000ADF8120000EE104AF8EE400A80EE880A4C
:10256000DDED090A20EE200ABDEEC00A10EE100AC9
:1025700000B2ADF8140000EE104AB8EE400AC0EE0A
:10258000080A9DED0A0A20EE800ABDEEC00A10EE90
:10259000100A00B2ADF8160023E09DED070ABDEE6B
:1025A000C00A10EE100A00B2ADF810009DED080A46
:1025B000BDEEC00A10EE100A00B2ADF812009DED9B
:1025C000090ABDEEC00A10EE100A00B2ADF8140000
:1025D0009DED0A0ABDEEC00A10EE100A00B2ADF879
:1025E00016000548DDE90412C0E901120CB0BDEC8B
:1025F000108B10BD00000000CC1A002070B503F055
:1026000099F91448FFF7E7F904461348FFF7E3F98F
:10261000054612490F48FFF795F911490E48FFF793
:1026200091F901230D4A18320C490E4800F016FEAC
:1026300001230B4A18320A490B4800F00FFE0B48E1
:102640000088401C09490880074800F0F4FF084949
:10265000086070BD68130020EC150020641B00208A
:10266000C81B0020601C0020101C00205A00002005
:10267000AC0A002008B507F043FE009000BFFFF74A
:10268000BDFF03F023F903F055F90121684607F077
:1026900037FAF4E710B5FFF7C1FAFFF731FBFFF7A0
:1026A000A7F9FFF753FD10BD10B5002002490860DF
:1026B00004F0A0FF10BD00001800002010B50E4867
:1026C0000068401C0C49086004F086FA0A4800784B
:1026D00000F0030018B9FFF7DDFF03F03FFD0648E7
:1026E00000680A21B0FBF1F201FB120008B900F00A
:1026F00095FD03F039F910BD1800002010B502480F
:1027000001F0F6FA10BD00005420002010B5024878
:1027100001F0EEFA10BD0000F41F00200146087819
:1027200010381823B0FBF3F20848805CC865032A10
:1027300005D908686FF30900001D886503E0086883
:102740006FF309008865886D704700003EAA000895
:10275000014600208A6A8B69CBB932B1012A0DD0BB
:10276000022A03D0032A10D10EE000BFCB6A03F087
:102770008073B3F1807F00D1012007E0CB6AB3F111
:10278000C07F00D1012001E000E000BF34E08B6990
:10279000B3F5005F1AD132B1012A07D0022A03D063
:1027A000032A11D10AE000BF01200EE0CB6A03F03A
:1027B0008073B3F1807F00D1012006E0CB6AB3F1D2
:1027C000C07F00D1012000E000BF15E032B1012A36
:1027D00005D0022A04D0032A0CD103E000BF00BFB9
:1027E000012008E0CB6A03F08073B3F1807F00D151
:1027F000012000E000BF00BF704730B504682468C6
:1028000024F4802405682C60046863608468402C8C
:1028100004D10468A2600468E16003E00468A16078
:102820000468E26030BD000070B50446B4F80150A1
:10283000E61D607927490880A079000226490880B2
:102840000846008823490988084324490880084627
:10285000008840F20122811A904228D007DC01282A
:102860000AD002280ED0A0F2011070BB11E001299D
:1028700024D005292AD113E02A4631461848FDF70D
:1028800040FD24E02A4631461548C01CFDF739FDBD
:102890001DE02A4631461248801DFDF732FD16E044
:1028A0002A4631460E484130FDF72BFD0FE02A46FF
:1028B00031460B481130FDF724FD08E02A46314629
:1028C00007482030FDF71DFD01E0FFE700BF00BF16
:1028D00070BD0000C40A0020C20A0020C60A002001
:1028E000CC19002070470000C548007830B101289D
:1028F0000ED0022878D0032877D173E10020C14997
:102900000870C1490870C1490870C149087074E174
:102910000120BC490870BC490870BC490870BC491A
:102920000870BC48007800287AD0BA4800780B2894
:1029300077D2DFE800F08313063A2D20475B6883E7
:1029400077000020AF4908700320AF4908700020CD
:10295000AE4908700420AE49087070E00020A94913
:1029600008700320A84908700020A84908700320B7
:10297000A749087063E00020A24908700320A2491B
:1029800008700020A14908700720A149087056E08E
:1029900000209C49087003209B49087000209B4937
:1029A000087006209A49087049E00020954908708F
:1029B0000320954908700020944908700520944927
:1029C00008703CE000208F49087002208E49087092
:1029D0009FED910A914880ED000A00208B49087014
:1029E00008208B4908702AE050E0FCE0032085496C
:1029F000087004208449087003208449087000206E
:102A0000834908701BE004207E49087005207E4938
:102A1000087004207D49087000207D4908700EE090
:102A20000EE00BE00020774908700320764908701B
:102A30000020764908707649087000E000BF24E065
:102A400077480078012809D16F4908706D490870EE
:102A50006E49087000206E4908700FE070480078D9
:102A600003280BD1002067490870012066490870CF
:102A70000020664908700120654908704FF42F70E6
:102A800068490860002068490870B6E002205D4986
:102A900008705D4908705D4908705D4908705D48BF
:102AA0000078002878D05B4800780B2875D2DFE8E2
:102AB00000F08113063A2D204759668175000020E9
:102AC0005049087003205049087000204F49087091
:102AD00004204F4908706EE000204A490870032026
:102AE0004949087000204949087003204849087086
:102AF00061E000204349087003204349087000202A
:102B00004249087007204249087054E000203D49BE
:102B1000087003203C49087000203C4908700620DA
:102B20003B49087047E000203649087003203649C9
:102B300008700020354908700520354908703AE0D2
:102B400000203049087002202F4908709FED320A9A
:102B5000324880ED000A00202C49087008202C49DA
:102B6000087028E0032027490870042026490870CF
:102B70000320264908700020254908701BE0042026
:102B80002049087005202049087004201F4908705A
:102B900000201F4908700EE00EE00BE000201949EC
:102BA0000870032018490870002018490870184957
:102BB000087000E000BF14E00220124908701249BA
:102BC000087012490870124908704FF42F701549A7
:102BD00008600020144908709FED140A144880ED25
:102BE000000A0AE009E0002006490870064908705A
:102BF000064908700649087000BF00BF7047000012
:102C000004000020C80A0020E40A00203C0B002039
:102C1000480B002005000020CDCC4C3FE80A0020E6
:102C2000E01A002034040140490B0020000000009D
:102C3000F00B002008B507F063FB0090FFF734FDB0
:102C400000BFFFF73BFD0121684606F059FFF8E79A
:102C500010B5102001F040FA02480068401C0149FC
:102C6000086010BD0800002010B505480088401C11
:102C7000034908804FF4807001F02EFA10BD000067
:102C80001000002010B52DED068B3E49B1F9000073
:102C9000FDF7E3FC41EC1A0B9FED3B0B53EC102BC3
:102CA000FDF76CFC41EC190BFDF732FD08EE100A44
:102CB0003748B0F9000000EE900AF8EEE00AB0EEF6
:102CC000600AF0EE480A334804F0B0FB3249B1F92B
:102CD0000000FDF7C2FC41EC1A0B9FED2B0B53ECEF
:102CE000102BFDF74BFC41EC190BFDF711FD08EE25
:102CF000100A2748B0F9020000EE900AF8EEE00A48
:102D0000B0EE600AF0EE480A244804F08FFB214838
:102D1000C06B00EE100ADFED220AB4EEE00AF1EE1D
:102D200010FA10DD1B48C06B00EE100ADFED1D0A23
:102D3000B4EEE00AF1EE10FA05D29FED1B0A10EE98
:102D4000100A1449C8631548C06B00EE100ADFED85
:102D5000140AB4EEE00AF1EE10FA10DD0F48C06B71
:102D600000EE100ADFED0F0AB4EEE00AF1EE10FA01
:102D700005D29FED0D0A10EE100A0849C863BDEC9C
:102D8000068B10BD7C190020000000000000584098
:102D9000320B0020450700209019002096070020E4
:102DA0000000C8C30000C843000000000E480078BF
:102DB00000EE100AB8EE400A10EE100A0B498861C6
:102DC0000B4988619FED0B0A10EE100A0749C86194
:102DD0000749C8619FED070A10EE100A034908620F
:102DE00003490862704700003D0B00209607002051
:102DF000450700200000000010B543480078052872
:102E00007BD2DFE800F07503153B59003F49B1F96B
:102E1000040000EBD07149103D4A11803B49B1F9E3
:102E20000410484200EBD071491009B2518069E0AA
:102E30004FF4007004F0B2FB012809D13348007D43
:102E4000012805D1C820324908804042488014E05A
:102E50004FF4804004F0A2FB01280AD12B48007DEA
:102E6000012806D16FF0C70029490880C820488092
:102E700003E0002026490880488043E02548007888
:102E8000012807D14FF49670214908804FF6D4608D
:102E9000488010E01F4890F90000401C38B94FF6F8
:102EA000D4601B4908804FF49670488003E00020EE
:102EB00017490880488025E016480078012805D188
:102EC0007820134908804042488010E0114890F96A
:102ED0000000401C38B96FF077000D490880782059
:102EE000488004E009E0002009490880488009E0A2
:102EF000002007490880488004E000200449088039
:102F0000488000BF00BF10BD3C0B0020E01A00202D
:102F1000320B0020DC0A002070B52DED048B1E481A
:102F20000078032808D01C48007828B11B48007896
:102F300010B11B48007820B900210846FEF7BEFBFF
:102F400027E01848C16B0846FDF7B7FB41EC190BA9
:102F50009FED150B53EC102BFDF79EFA41EC180B6F
:102F6000FDF78CFB04B21248C16B0846FDF7A5FBC8
:102F700041EC190B9FED0C0B53EC102BFDF78CFA69
:102F800041EC180BFDF77AFB05B221462846FEF707
:102F900095FBBDEC048B70BD0200002004000020F6
:102FA0003C0B002096070020000000000000F83FC6
:102FB0004507002010B56D480088401C6B4908800B
:102FC0006B4890ED020A6B4880ED000A684890ED6E
:102FD000010A684880ED010A654890ED000A6548DD
:102FE00080ED020A624890ED050A624880ED040A0D
:102FF0005F4890ED040AB1EE400A5E4880ED050A94
:103000005B4890ED030AB1EE400A5A4880ED060A8B
:10301000594890ED000A594880ED000A584890ED53
:10302000000A554880ED000A90ED000A5348D0EDA3
:10303000000A30EE600ADFED530AB4EEE00AF1EE6A
:1030400010FA05DB50480068401E4F49086013E045
:10305000494890ED000A4948D0ED000A30EE600A78
:10306000DFED4A0AB4EEE00AF1EE10FA04D8464861
:103070000068401C4449086007F042F94449086070
:1030800007F03EF942F2107188426ED907F038F924
:1030900040490968401A00EE100AB8EE400A354867
:1030A000D0ED060A60EE200A9FED3B1A80EE810A01
:1030B000DFED390A80EE201A9FED380AB4EEC01A0F
:1030C000F1EE10FA02DD00203149086007F018F92E
:1030D00030490968401A00EE100AB8EE400A254847
:1030E000D0ED050A20EE200ADFED2B0A80EE201A33
:1030F0002B4890ED000A31EE000A80ED000A07F03F
:10310000FFF824490968401A00EE100AB8EE400A98
:103110001848D0ED040A20EE200ADFED1F0A80EEE9
:10312000201A204890ED000A31EE000A80ED000AD6
:1031300007F0E6F817490968401A00EE100AB8EEE1
:10314000400A0C48D0ED060A20EE200ADFED120AF4
:1031500080EE201A144890ED000A31EE000A80ED4E
:10316000000A07F0CDF80B49086010BD6A00002086
:103170006C23002098220020CC0C0020D80C0020CA
:10318000A02300200000A543F00C00200000A5C3F0
:10319000F40C0020FC0C002000007A440000C8421F
:1031A000EC0C0020E80C0020E40C002070B5034675
:1031B0004FF4FA7513B94FF6FF7070BD09E013F8BC
:1031C000014B82EA0400C0B2074E36F8100080EAD4
:1031D0002222081EA1F1010104D0281EA5F101063A
:1031E000B5B2ECDC1046E8E726A8000870B5034647
:1031F0004FF4FA7505E013F8010B80EA0204064863
:10320000025D081EA1F1010104D0281EA5F10106EE
:10321000B5B2F0DC104670BD25A7000810B5FFF769
:10322000EBFDFFF7C3FDFFF72DFDFFF775FE10BDAA
:10323000024692F82000012803D092F820000228CC
:1032400006D1106840690843136858610020704730
:10325000506A40F4802050620120F8E770B50446BF
:103260000D46A86800B900E000BF94F820000128CE
:1032700003D094F8200002287FD12068806800F0F5
:10328000806050B92068806800F0006028B920682C
:10329000806800F08050002869D020688068C0F302
:1032A0000161012088401860A86850B92E88E8683C
:1032B00040EA4656206800F5C07000EB0110066039
:1032C0000BE0D5E9016040EAC600EE6830432668AD
:1032D00006F5C07606EB011630602E69206800F511
:1032E000C07000EB01104660287D01280DD12068D8
:1032F00000F5C07000EB0110406840F48076206853
:1033000000F5C07000EB01104660D0790006967998
:1033100040EA0640567940EA0626107906432068BE
:1033200000F5C07000EB0110C660D07800069678FA
:1033300040EA0640567840EA062016783043266870
:1033400006F5C07606EB0116B060206800F5C07087
:1033500000EB0110006840F00106206800F5C07025
:1033600000EB01100660002070BD06E0FFE7606A18
:1033700040F4001060620120F6E7606A40F48020AB
:1033800060620120F0E7000070B504460A460023A1
:10339000216894F82000012803D094F82000022826
:1033A0007CD1414901F50071086840F001000860D6
:1033B000086820F47C5008600868556A40EA0520D7
:1033C0000860157D012000FA05F3C8699843C861BB
:1033D000A1F50071D069C8B9D1F80C029843C1F8C1
:1033E0000C02908880B2958940EA054501F510707D
:1033F000566940F83650108880B2158940EA054574
:1034000001F51070566900EBC6004560D0690128CF
:1034100019D1D1F80C021843C1F80C02908880B27F
:10342000158840EA054501F51070566940F8365098
:10343000908980B2158940EA054501F510705669FA
:1034400000EBC6004560906928B9D1F804029843A2
:10345000C1F8040204E0D1F804021843C1F80402E0
:10346000106928B9D1F814029843C1F8140204E095
:10347000D1F814021843C1F81402106A012804D1CB
:10348000D1F81C021843C1F81C02D1F8000220F048
:103490000100C1F80002002070BDFFE7606A40F43F
:1034A000802060620120F7E700640040704730B57B
:1034B000044694F82000012803D094F82000022844
:1034C0007DD151B92068C06800F0030090B9606AEE
:1034D00040F400106062012030BD01290AD120684B
:1034E000006900F0030028B9606A40F400106062CF
:1034F0000120F1E7206800F5D87000EB01100068AA
:1035000000F004009060906840B9206800F5D87021
:1035100000EB01100068400D106007E0206800F526
:10352000D87000EB01100068C0085060206800F5FA
:10353000D87000EB0110006800F002004008D06075
:10354000206800F5D87000EB0110406800F00F0013
:103550001061206800F5D87000EB0110406800F49D
:103560007F40000A9061206800F5D87000EB0110E0
:103570004068000C5061206800F5D87000EB011025
:1035800080681870206800F5D87000EB0110806822
:1035900000F47F40000A5870206800F5D87000EBF6
:1035A0000110806800F47F00000C9870206800F51E
:1035B000D87000EB01108068000ED87000E034E095
:1035C000206800F5D87000EB0110C0681871206801
:1035D00000F5D87000EB0110C06800F47F40000ACD
:1035E0005871206800F5D87000EB0110C06800F435
:1035F0007F00000C9871206800F5D87000EB011076
:10360000C068000ED87131B92068C06840F0200051
:103610002568E86007E0012905D12068006940F0CD
:10362000200025682861002056E7606A40F4802069
:103630006062012050E70146002091F82020012A15
:1036400003D091F82020022A11D10A68926802F072
:10365000806202B1401C0A68926802F0006202B106
:10366000401C0A68926802F0805202B1401C704708
:103670002DE9F05F04460025206846692068D0F8EF
:103680000490206887682068D0F80CA02068D0F8E3
:1036900010B02068D0F8188006F00100002855D03E
:1036A00007F00100C0B101202168886007F0020026
:1036B00018B1204600F082FA0EE007F0040010B1C5
:1036C00045F4006508E007F0080010B145F48055A6
:1036D00002E0204600F071FA07F48070C8B14FF4A0
:1036E00080702168886007F4007018B1204600F0EF
:1036F000A6FA0EE007F4806010B145F4005508E02A
:1037000007F4006010B145F4804502E0204600F067
:1037100095FA07F48030C8B14FF480302168886092
:1037200007F4003018B1204600F08BFA0EE007F4E1
:10373000802010B145F4004508E007F4002010B1E6
:1037400045F4803502E0204600F07AFA06F00800E1
:1037500038B10AF0100020B145F40075102021683E
:10376000C86006F0040040B10AF0080028B1082043
:103770002168C860204600F0C1F906F0020038B1A7
:103780002068C06800F0030010B1204600F0B8F9CE
:1037900006F0400038B10BF0100020B145F4806510
:1037A00010202168086106F0200040B10BF00800ED
:1037B00028B1082021680861204600F0CBF906F006
:1037C000100038B12068006900F0030010B12046F5
:1037D00000F0C1F906F4003040B109F0100028B142
:1037E000102021684860204600F0B6F906F48030C9
:1037F00040B109F0080028B108202168486020463F
:1038000000F020FA06F4004088B309F0040078B311
:1038100006F4807020B108F0010008B145F0010500
:1038200006F4007020B108F0020008B145F002056E
:1038300006F4806020B108F0040008B145F00405EA
:1038400006F40060A0B108F0700088B108F07000C4
:10385000402817D006DC10280BD020280CD03028A8
:1038600019D10CE0502810D0602814D110E01DE0D0
:1038700019E045F008050FE045F010050CE045F0B3
:10388000200509E045F0400506E045F0800503E02D
:1038900045F4807500E000BF00BF2068806920F01B
:1038A0007000216888610420216848602DB1606A39
:1038B000284360622046FFF7F9FDBDE8F09F70B530
:1038C000044600250CB9012070BD94F8200010B901
:1038D000204600F0AFF82068006820F00200216860
:1038E000086000F027FD05460DE000F023FD401BB9
:1038F0000A2808D9606A40F400306062052084F824
:1039000020000120E0E72068406800F00200002865
:10391000EBD12068006840F001002168086000F0E9
:1039200009FD05460DE000F005FD401B0A2808D9F9
:10393000606A40F400306062052084F820000120B5
:10394000C2E72068406800F001000028EBD0207E2C
:10395000012806D12068006840F0800021680860D6
:1039600005E02068006820F0800021680860607E23
:10397000012806D12068006840F0400021680860F6
:1039800005E02068006820F0400021680860A07E03
:10399000012806D12068006840F0200021680860F6
:1039A00005E02068006820F0200021680860E07EC3
:1039B000012806D12068006820F010002168086006
:1039C00005E02068006840F0100021680860207F52
:1039D000012806D12068006840F0080021680860CE
:1039E00005E02068006820F0080021680860607F1A
:1039F000012806D12068006840F0040021680860B2
:103A000005E02068006820F0040021680860D4E91F
:103A10000201084321690843616908436168491E3E
:103A200008432168C86100206062012084F82000FA
:103A3000002049E710B586B004462B49206888422B
:103A40001ED100BF002000902848006840F00070A0
:103A5000264908600846006800F00070009000BF2A
:103A600000BF032001900220029000200390032059
:103A700004900920059001A91D4800F03BFB31E0AE
:103A80001C49206888422DD100BF002000901748B3
:103A9000006840F08060154908600846006800F042
:103AA0008060009000BF00BF00BF0020009008466B
:103AB000006840F0007008600846006800F0007080
:103AC000009000BF00BF4FF44050019002200290D0
:103AD00000200390032004900920059001A90648C6
:103AE00000F008FB06B010BD006400404038024002
:103AF000000C0240006800400004024070470000D3
:103B000010B504460D492068884209D10C4BA3F139
:103B10001C0200210B48FFF7CAFCFDF769FD0CE011
:103B200009492068884208D1084BA3F11C020021F2
:103B30000748FFF7BCFCFDF709FE10BD006400401C
:103B40003C1B0020601C002000680040A01B0020DF
:103B5000101C002070477047704770B50446002560
:103B600094F82000012822D1022084F82000206847
:103B7000006820F001002168086000F0DBFB0546CA
:103B80000DE000F0D7FB401B0A2808D9606A40F41A
:103B900000306062052084F82000012070BD20689C
:103BA000406800F001000028EBD16062F6E7606A2F
:103BB00040F4002060620120F0E7704770B50446D1
:103BC00016492068884211D11548FDF704FF0546C3
:103BD000002D0ADD13491248FDF7B4FE0123114AF6
:103BE000183210491048FFF739FB00BF0F49206811
:103BF000884211D10E48FDF7EEFE0546002D0ADD84
:103C00000C490B48FDF79EFE01230A4A1832094968
:103C10000948FFF723FB00BF70BD000000640040AF
:103C200068130020641B0020601C00200068004016
:103C3000EC150020C81B0020101C002070477047A6
:103C400070477047704770B50446A56D00F072FB71
:103C5000064694F83500022808D08020606500BF31
:103C6000002084F8340000BF012070BD2068006887
:103C700020F01600216808602068406920F080006C
:103C800021684861206C08B9A06C28B120680068E0
:103C900020F00800216808602068006820F001001A
:103CA000216808600FE000F045FB801B05280AD959
:103CB0002020606500BF002084F8340000BF03208E
:103CC00084F83500D1E72068006800F00100002882
:103CD000E9D194F85C103F208840A86000BF002024
:103CE00084F8340000BF012084F835000020BCE7D0
:103CF000F8B50446002000908C4800684FF4165137
:103D0000B0FBF1F7A56D2E6894F85C100820884090
:103D1000304098B12068006800F0040070B120685D
:103D2000006820F004002168086094F85C10082006
:103D30008840A860606D40F00100606594F85C10F8
:103D400001208840304068B12068406900F0800060
:103D500040B194F85C1001208840A860606D40F08C
:103D60000200606594F85C1004208840304068B11F
:103D70002068006800F0020040B194F85C10042054
:103D80008840A860606D40F00400606594F85C10A5
:103D900010208840304078B32068006800F00800A8
:103DA00050B394F85C1010208840A8602068006828
:103DB00000F4802080B12068006800F4002028B959
:103DC000206CC8B12046216C884715E0A06C98B1E2
:103DD0002046A16C88470FE02068006800F48070DE
:103DE00028B92068006820F0080021680860206C6D
:103DF00010B12046216C884794F85C102020884040
:103E00003040002865D02068006800F010000028CD
:103E10005FD094F85C1020208840A86094F83500AA
:103E2000052828D12068006820F016002168086065
:103E30002068406920F0800021684861206C08B942
:103E4000A06C28B12068006820F008002168086094
:103E500094F85C103F208840A86000BF002084F8E0
:103E6000340000BF012084F83500206D10B12046D9
:103E7000216D8847F8BD2068006800F4802080B17B
:103E80002068006800F4002028B9606C10B120465A
:103E9000616C88471DE0E06BD8B12046E16B884734
:103EA00017E02068006800F4807068B92068006836
:103EB00020F010002168086000BF002084F8340062
:103EC00000BF012084F83500E06B10B12046E16BA3
:103ED0008847606D38B3606D00F00100F0B10520D7
:103EE00084F835002068006820F00100216808602F
:103EF00000BF0098401C0090B84200D905E020683F
:103F0000006800F001000028F3D100BF00BF0020CE
:103F100084F8340000BF012084F83500E06C10B153
:103F20002046E16C884700BFA4E700005C0C00203D
:103F30002DE9F0410446002500F0FCF9074614B9CC
:103F40000120BDE8F081606A00B100BF00BF002021
:103F500084F8340000BF022084F83500206800682F
:103F600020F00100216808600AE000F0E3F9C01BBE
:103F7000052805D920206065032084F83500E0E796
:103F80002068006800F001000028EED12068056874
:103F900021480540D4E901010843E168084321694B
:103FA000084361690843A1690843E1690843216A3C
:103FB00008430543606A042803D1D4E90B01084390
:103FC0000543206805602068456925F00705606A9B
:103FD0000543606A04280DD1A06A0543E06A48B130
:103FE0002046FEF7B5FB28B140206065012084F82B
:103FF0003500A6E7206845612046FEF78FFB0646A0
:1040000094F85C103F208840B0600020606501207B
:1040100084F83500002094E73F8010F02DE9F04748
:1040200004460D4616461F464FF00008D4F8589037
:1040300000BF94F83400012802D10220BDE8F087C7
:10404000012084F8340000BF94F8350001282BD1FA
:10405000022084F83500002060653B463246294640
:104060002046FEF7CAFB94F85C103F208840C9F850
:1040700008002068006840F0160021680860206889
:10408000406940F0800021684861206C28B12068B8
:10409000006840F00800216808602068006840F06F
:1040A00001002168086006E000BF002084F83400A9
:1040B00000BF4FF002084046C0E7000010B50446BC
:1040C000B4F5807F04D1012002490870FEF772FF29
:1040D00010BD00006D0C002010B5044604480068B7
:1040E000204020B1024804602046FFF7E7FF10BDE2
:1040F000143C0140F8B502460B4600250024002080
:104100000021E6E0012606FA01F51E6806EA05042C
:10411000AC4273D15E68022E02D05E68122E13D1BB
:10412000CF0802F1200656F827004E07F70E0F269B
:10413000BE40B0434F07FF0E1E69BE403043CF085C
:1041400002F1200646F8270010684F000326BE4003
:10415000B0431E7906F003064F00BE4030431060A6
:104160005E68012E08D05E68022E05D05E68112EB2
:1041700002D05E68122E13D190684F000326BE4015
:10418000B0434F00DE68BE40304390605068012667
:104190008E40B0431E79C6F300168E403043506007
:1041A000D0684F000326BE40B0434F009E68BE401B
:1041B0003043D0605E6806F08056B6F1805FA8D1CB
:1041C00000BF00260096454E366846F48046434FB1
:1041D0003E603E46366806F48046009600BF00BF4B
:1041E0003F4E8F0856F827008E07370F0F26BE4028
:1041F000B0433C4EB24202D100262EE068E03A4E77
:10420000B24201D1012628E0384EB24201D1022645
:1042100023E0374EB24201D103261EE0354EB242B2
:1042200001D1042619E0344EB24201D1052614E032
:10423000324EB24201D106260FE0314EB24201D1D8
:1042400007260AE02F4EB24201D1082605E02E4E85
:10425000B24201D1092600E00A268F073F0FBE4077
:1042600030431F4E8F0846F82700284E3068A04381
:104270005E6806F48036B6F5803F00D12043234EB9
:104280003060361D3068A0435E6806F40036B6F52F
:10429000003F00D120431D4E361D3060361D306872
:1042A000A0435E6806F48016B6F5801F00D1204357
:1042B000164E08363060361D3068A0435E6806F43E
:1042C0000016B6F5001F00D12043104E0C363060AA
:1042D000491C1029FFF416AFF8BD00004438024015
:1042E000083801400000024000040240000802407B
:1042F000000C02400010024000140240001802406E
:10430000001C02400020024000240240003C01400A
:10431000024613690B400BB1012000E000207047FA
:1043200042694A40426170470AB1816101E00B0471
:10433000836170470148006870470000100D00203D
:104340000348006803490978084401490860704738
:10435000100D0020180D002010B50D48006840F425
:1043600000700B4908600846006840F480600860EF
:104370000846006840F480700860032000F0E8F808
:10438000002000F007F800F049F8002010BD000000
:10439000003C024070B588B004460025002600228B
:1043A00021461C2000F095F81C2000F085F800BF85
:1043B000002001901648006840F001001449086090
:1043C0000846006800F00100019000BF00BF02A98C
:1043D00003A800F091F900F0B7F945000D48B5FBCE
:1043E000F0F0461E4FF080400B49086040F2E73184
:1043F0000948C160466000210161816000F0E6FD6E
:1044000020B9054800F025FE08B070BD0120FBE78B
:104410004038024040420F003C22002008B500BF57
:10442000002000902348006840F480402149086043
:104430000846006800F48040009000BF00BF00BF45
:1044400000200090081F006840F08050091F08609D
:104450000846006800F08050009000BF00BF0320B5
:1044600000F076F8002211466FF00B0000F031F8F2
:10447000002211466FF00A0000F02BF800221146CE
:104480006FF0090000F025F800221146501F00F0DF
:1044900020F800221146101F00F01BF800220F2107
:1044A000901E00F016F800220F21501E00F011F8A7
:1044B00008BD00004438024000BF00F01F02012187
:1044C00091404209920002F1E022C2F8001100BFBF
:1044D00070472DE9F05F80460D461646002702F032
:1044E0008BFB074639462A46334601F00700C0F1E8
:1044F000070ABAF1040F02D94FF0040A01E0C0F133
:10450000070AD14600F1040ABAF1070F02D24FF0B0
:10451000000A01E0A0F1030AD4464FF0010A0AFAAA
:1045200009FAAAF1010A0AEA020A0AFA0CFA4FF099
:10453000010B0BFA0CFBABF1010B0BEA030B4AEA84
:104540000B042146404602F05FFBBDE8F09F0000EF
:1045500000BF00F00702064B19684FF6FF03194031
:10456000044B0B4343EA0221014B196000BF704723
:104570000CED00E00000FA0570B504460D460CB9DC
:10458000012070BD5848006800F00F00A84209D211
:1045900055490D700846006800F00F00A84201D090
:1045A0000120EEE7207800F0020002281DD12078DB
:1045B00000F00400042805D14C48006840F4E050A5
:1045C0004A490860207800F00800082805D14748CB
:1045D000006840F46040454908604448006820F0A5
:1045E000F000A168084341490860207800F001000C
:1045F000A8B36068012807D13C4808380068C0F3B8
:104600004040B8B90120BCE76068022802D0606869
:10461000032807D1354808380068C0F3406048B91E
:104620000120AEE7314808380068C0F3400008B9FF
:104630000120A6E72D48006820F0030061680843C8
:104640002A490860FFF776FE064609E0FFF772FE8A
:10465000801B41F28831884202D9032091E707E0AC
:104660002248006800F00C006168B0EB810FEDD1CA
:104670001D48006800F00F00A84209D91A490D70C2
:104680000846006800F00F00A84201D0012078E73A
:10469000207800F00400042807D11448006820F4B2
:1046A000E050E168084311490860207800F00800F4
:1046B000082808D10D48006820F46040216940EACC
:1046C000C1000A49086000F05FF808490968C1F3B1
:1046D0000311074A515CC840064908600020FFF7F3
:1046E00059FE00204DE70000003C0240083802401F
:1046F00026AA00085C0C00200F2202600D4A1268F6
:1047000002F0030242600B4A126802F0F00282607B
:10471000084A126802F4E052C260064A126802F4C3
:104720006042D2080261044A126802F00F020A6075
:104730007047000008380240003C02400148006811
:10474000704700005C0C002000B5FFF7F7FF04493C
:104750000968C1F38221034A515CC84000BD0000D2
:104760000838024036AA000800B5FFF7E7FF044901
:104770000968C1F34231034A515CC84000BD0000E2
:104780000838024036AA00082DE9F0470024002529
:104790000026A1462548006800F00C0020B104283E
:1047A00005D008283AD105E0DFF8849039E0DFF839
:1047B000849036E01D48001F006800F03F041B484D
:1047C000001F006800F4800078B11A481749091FDB
:1047D0000968C1F38811A0FB01700146224600233D
:1047E0003846FBF75DFD05460EE011480F49091FED
:1047F0000968C1F38811A0FB01700146224600231D
:104800003846FBF74DFD05460848001F0068C0F319
:104810000140401C4600B5FBF6F902E0DFF81090BD
:1048200000BF00BF4846BDE8F087000008380240DE
:104830000024F400001BB700F8B504460CB90120B1
:10484000F8BD207800F00100002874D0F948006815
:1048500000F00C0004280DD0F648006800F00C00B1
:10486000082813D1F348001F006800F48000B0F559
:10487000800F0BD1EF4808380068C0F34040002893
:1048800059D06068002856D10120D9E700BF606880
:10489000B0F5803F08D1E7480838006840F4803020
:1048A000E449083908601EE06068B0F5A02F0DD11A
:1048B000E0480838006840F48020DE490839086084
:1048C0000846006840F4803008600CE0D948083899
:1048D000006820F48030D74908390860084600682D
:1048E00020F48020086000BF606890B1FFF722FDCF
:1048F000054606E0FFF71EFD401B642801D9032092
:104900009EE7CC4808380068C0F340400028F1D04A
:1049100011E0FFF70FFD054606E0FFF70BFD401B1A
:10492000642801D903208BE7C24808380068C0F327
:1049300040400028F1D1207800F0020002285FD129
:10494000BC48006800F00C0058B1BA48006800F09C
:104950000C0008281CD1B748001F006800F4800034
:10496000B0B9B44808380068C0F3400020B1E0682E
:10497000012801D0012063E7AE480838006820F024
:10498000F800216940EAC100AA490839086037E007
:10499000E06800B30120A8490860FFF7CBFC05469A
:1049A00006E0FFF7C7FC401B022801D9032047E7B8
:1049B000A04808380068C0F340000028F1D09D48A6
:1049C0000838006820F0F800216940EAC1009949E0
:1049D0000839086014E0002097490860FFF7AAFC36
:1049E000054606E0FFF7A6FC401B022801D903207C
:1049F00026E7904808380068C0F340000028F1D14D
:104A0000207800F0080008282CD16069A8B10120A6
:104A10008A490860FFF78EFC054606E0FFF78AFC2E
:104A2000401B022801D903200AE782486C30006845
:104A3000C0F340000028F1D014E000207F49086056
:104A4000FFF778FC054606E0FFF774FC401B0228E0
:104A500001D90320F4E677486C300068C0F34000C9
:104A60000028F1D1207800F00400042870D100263D
:104A700070483830006800F0805090B900BF0020C6
:104A800000906C483830006840F0805069493831F7
:104A900008600846006800F08050009000BF00BF2A
:104AA00001266748006800F48070B0B96448006867
:104AB00040F4807062490860FFF73CFC054606E060
:104AC000FFF738FC401B022801D90320B8E65C48F8
:104AD000006800F480700028F2D000BFA0680128B0
:104AE00008D154486830006840F0010051496831ED
:104AF00008601DE0A06805280DD14E4868300068A8
:104B000040F004004B49683108600846006840F0F6
:104B1000010008600CE047486830006820F00100A0
:104B20004449683108600846006820F004000860C5
:104B300000BFA068A8B1FFF7FDFB054609E0FFF73D
:104B4000F9FB401B41F28831884202D9032077E605
:104B500026E0384868300068C0F340000028EED0F6
:104B600013E0FFF7E7FB054608E0FFF7E3FB401B18
:104B700041F28831884201D9032061E62D4868302E
:104B80000068C0F340000028EFD1012E07D129486A
:104B90003830006820F0805026493831086000BF66
:104BA000A069B8B32348006800F00C0008285ED064
:104BB000A069022846D100201F490866FFF7BAFB0A
:104BC000054606E0FFF7B6FB401B022801D903208B
:104BD00036E6184808380068C0F340600028F1D174
:104BE000D4E907010843616A40EA81110122A06A01
:104BF000C2EB500041EA00412C20005D41EA006018
:104C00000C49091F086001200B490866FFF792FB59
:104C1000054607E02DE0FFF78DFB401B022801D978
:104C200003200DE6034808380068C0F34060002800
:104C3000F1D01EE00838024000004742800E474293
:104C40000070004000200C490866FFF773FB054622
:104C500006E0FFF76FFB401B022801D90320EFE5B8
:104C600006480068C0F340600028F2D101E001204E
:104C7000E6E50020E4E5000000004742003802407D
:104C800010B504460CB9012010BD606A00B900BF20
:104C90000021A16294F8510028B9002084F8500046
:104CA000204600F033F8022084F8510020680068A4
:104CB00020F0400021680860D4E901010843E16860
:104CC00008432169084361690843218B01F400719D
:104CD0000843E1690843216A0843A16A084321683F
:104CE00008600421A06901EA1040616A0843216854
:104CF00048602068C06920F400602168C861002015
:104D00006065012084F851000020BDE710B586B031
:104D1000044651492068884278D100BF00200090A5
:104D20004E48006840F400504C490860084600684E
:104D300000F40050009000BF00BF2020019002202E
:104D4000029000200390032004900520059001A903
:104D50004348FFF7CFF94FF48250019002200290B0
:104D600000200390032004900520059001A93C48F1
:104D7000FFF7C0F910200190032004900220029058
:104D80000120039001A93648FFF7B4F935483649A8
:104D90000860C0054860002133488160C1604FF45D
:104DA00080610161002141618161C16101624162F3
:104DB000FFF7BEF818B182212CA003F051FB00BF11
:104DC0002948E064846300BF264860302C490860AD
:104DD0004FF0206048604021294881600021C16077
:104DE0004FF480610161002141618161C161016213
:104DF0004162FFF79DF818B194211CA003F030FB2D
:104E000000BF1F48A064846323E0FFE71D492068BA
:104E100088421ED100BF002000901048006840F476
:104E200080100E4908600846006800F48010009069
:104E300000BF00BF4FF4607001900220029000207C
:104E40000390032004900520059001A90E48FFF768
:104E500051F906B010BD0000003401404438024052
:104E60000010024010640240E81C00202E2E5C530B
:104E700072635C4253505F5350492E630000000040
:104E8000481D00200050014000140240042808D1B1
:104E90004FF0E021096941F004014FF0E022116177
:104EA00007E04FF0E021096921F004014FF0E02212
:104EB0001161704770B504462546681EB0F1807FC9
:104EC00001D301200FE0681E4FF0E02148610F215F
:104ED0004FF0FF3001F098FE00204FF0E021886194
:104EE00007200861002070BD7047704710B5034669
:104EF000002200BF93F83800012801D1022010BD24
:104F0000012083F8380000BF22F0FF00CC6840EA9F
:104F1000040222F440708C6840EA040222F48060AB
:104F20004C6840EA040222F400600C6840EA040283
:104F300022F480500C6940EA040222F400504C69CB
:104F400040EA040222F480408C6940EA040222F420
:104F500000408C6940EA04021868426400BF0020E7
:104F600083F8380000BF00BFC9E7024600BF92F8CF
:104F70003800012801D102207047012082F8380052
:104F800000BF022082F839001068406820F07000ED
:104F900013685860106840680B68184313685860BD
:104FA0001068806820F0800013689860106880683E
:104FB0004B68184313689860012082F8390000BFDD
:104FC000002082F8380000BF00BFD5E710B50446C6
:104FD0000CB9012010BD94F8390028B9002084F8DC
:104FE0003800204600F00CF8022084F83900211D1A
:104FF000206802F0D1FB012084F839000020E9E7A5
:1050000008B50A4A016891420FD100BF0021009102
:105010000749096841F00201054A11601146096813
:1050200001F00201009100BF00BF08BD0004004074
:10503000403802400146022081F8390008680068C3
:1050400040F001000A681060012081F8390000205A
:10505000704701460868C06840F001000A68D060E7
:105060000868006840F001000A681060002070477E
:10507000704710B5044620680069C0F34000D8B1FD
:105080002068C068C0F34000B0B16FF00200216832
:105090000861012020762068806900F0030018B1C3
:1050A0002046FFF7E5FF05E0204600F003F9204623
:1050B00000F0D2F90020207620680069C0F380005B
:1050C000D8B12068C068C0F38000B0B16FF00400B0
:1050D00021680861022020762068806900F4407011
:1050E00018B12046FFF7C4FF05E0204600F0E2F8C3
:1050F000204600F0B1F90020207620680069C0F356
:10510000C000D8B12068C068C0F3C000B0B16FF073
:10511000080021680861042020762068C06900F03A
:10512000030018B12046FFF7A3FF05E0204600F07A
:10513000C1F8204600F090F9002020762068006930
:10514000C0F30010D8B12068C068C0F30010B0B13F
:105150006FF0100021680861082020762068C0697F
:1051600000F4407018B12046FFF782FF05E02046AA
:1051700000F0A0F8204600F06FF9002020762068AB
:10518000006900F0010058B12068C06800F001001B
:1051900030B16FF0010021680861204600F084F909
:1051A00020680069C0F3C01058B12068C068C0F31F
:1051B000C01030B16FF08000216808612046FFF711
:1051C00093FE20680069C0F3801058B12068C06861
:1051D000C0F3801030B16FF04000216808612046B4
:1051E00000F096F920680069C0F3401058B12068BB
:1051F000C068C0F3401030B16FF020002168086132
:105200002046FFF772FE10BD10B586B00446224955
:10521000206888421AD1302001900220029000209C
:10522000039004900220059001A91C48FEF762FF3C
:105230004FF44070019002200290002003900490EF
:105240000220059001A91648FEF754FF1549206871
:1052500088420ED14FF4405001900220029000206D
:10526000039004900220059001A90F48FEF742FF29
:1052700010E00E49206888420CD1E4200190022001
:1052800002900020039004900320059001A9084893
:10529000FEF730FF06B010BD0004004000040240DD
:1052A0000008024000080040000C024000040140D9
:1052B00000200240704770B504460D46164600BFF8
:1052C00094F83800012801D1022070BD012084F833
:1052D000380000BF022084F8390036B1042E1BD0FC
:1052E000082E31D00C2E5ED145E02946206802F010
:1052F000DFFA2068806940F0080021688861206832
:10530000806920F00400216888612068806929692B
:1053100008432168886147E02946206802F000FBC5
:105320002068806940F40060216888612068806995
:1053300020F480602168886120688069296940EADA
:105340000120216888612FE02946206802F024FBB3
:105350002068C06940F008002168C8612068C06901
:1053600020F004002168C8612068C06929690843E9
:105370002168C86118E02946206802F049FB2068CE
:10538000C06940F400602168C8612068C06920F4E9
:1053900080602168C8612068C069296940EA0120ED
:1053A0002168C86100E000BF00BF012084F8390017
:1053B00000BF002084F8380000BF00BF85E710B5AB
:1053C00004460CB9012010BD94F8390028B900201A
:1053D00084F83800204600F00DF8022084F83900E7
:1053E000211D206802F0D8F9012084F8390000203E
:1053F000E9E7000008B5154A016891420FD100BFE6
:10540000002100911249096841F00401104A11601D
:105410001146096801F00401009100BF15E00D4A32
:105420000168914211D100BF002100910849091D76
:10543000096841F00201064A121D1160114609680F
:1054400001F00201009100BF00BF08BD000800404C
:1054500040380240000401407047000030B5044667
:105460000D4601222946206802F008FA0C492068FE
:10547000884203D00B492068884201D1012000E016
:10548000002028B12068406C40F400402168486446
:105490002068006840F0010021680860002030BDED
:1054A000000001400004014010B504462068B0F13E
:1054B000804F01D1FEF744FF10BD70B504460D4684
:1054C00000BF94F83800012801D1022070BD0120EE
:1054D00084F8380000BF022084F8390029462046AD
:1054E00002F0C6FA2068C06820F040002168C86059
:1054F0002068C06820F480402168C860012084F8DA
:10550000390000BF002084F8380000BF00BFDDE78D
:10551000704710B504462068C06820F49070216878
:10552000C8602068406920F0010021684861206857
:10553000406900F0400068B12068406920F04000F8
:1055400021684861606B28B10020616B0865606B61
:10555000FEF779FB0020E085202084F83A00002047
:1055600010BD704710B504460CB9012010BDA069EC
:1055700000B100E000BF94F8390028B9002084F899
:105580003800204600F028F8242084F839002068EC
:10559000C06820F400502168C860204602F054FC26
:1055A0002068006920F49040216808612068406903
:1055B00020F02A00216848612068C06840F400504B
:1055C0002168C8600020E063202084F8390084F856
:1055D0003A000020CAE7000010B586B004467C49B6
:1055E000206888423FD100BF0020009079480068C1
:1055F00040F01000774908600846006800F010008D
:10560000009000BF00BF8020019002200290012086
:105610000390032004900720059001A96E48FEF72F
:1056200069FD6E486E4908604FF0006048600021D7
:105630006B488160C1604FF480610161002141616C
:1056400081614FF48071C161002101624162FEF706
:105650006FFC18B1B32163A002F002FF00BF6048E5
:1056600060638463B1E06449206888423ED100BF32
:10567000002000905748001F006840F40030554952
:10568000091F08600846006800F40030009000BF61
:1056900000BF6020019002200290012003900320AF
:1056A00004900720059001A95448FEF723FD5448B3
:1056B000544908604FF00060486000215148816003
:1056C000C1604FF480610161002141618161C1616C
:1056D00001624162FEF72CFC18B1DE2141A002F00C
:1056E000BFFE00BF4748606384636EE046492068A0
:1056F00088426AD100BF002000903648006840F020
:105700002000344908600846006800F0200000903E
:1057100000BF00BF4FF4844001900220029001209E
:105720000390032004900820059001A93748FEF754
:10573000E1FC2A4818383649086080054860002195
:1057400033488160C1604FF4806101610021416193
:105750008161C161016204214162032181620021F2
:10576000C1620163FEF7E4FB20B140F207111DA006
:1057700002F076FE00BF26486063846300BF1748CE
:105780006030244908604FF0206048604021214883
:1057900081600021C1604FF480610161002141619D
:1057A00081614FF48071C161002101620421416275
:1057B000FEF7BEFB20B14FF48D710AA002F050FE3F
:1057C00000BF14482063846300BF06B010BD000012
:1057D000001001404438024000040240406402408E
:1057E000F41F00202E2E5C5372635C4253505F55B1
:1057F000534152542E63000000440040000C02400C
:10580000886002405420002000140140001802402B
:10581000B42000201421002077B581B0044615463D
:1058200094F83A00202844D1029800B115B901201B
:1058300004B070BD00BF94F83800012801D10220E7
:10584000F6E7012084F8380000BF0298A062A58521
:105850000020E063222084F83A001748616BC86397
:105860001648616B08641648616BC8640020616B60
:10587000086502AE32682368191D2B46606BFEF77F
:10588000CDFB00BF002000902068006800902068D9
:105890004068009000BF00BF00BF002084F83800BF
:1058A00000BF2068406940F0400021684861002046
:1058B000BEE70220BCE70000C17D0008077E0008AB
:1058C000717D00087047704700BFFEE710B527E004
:1058D0001649174803F0DEFAA52821D104221349FE
:1058E000491C134803F009FB10484478052102F0D5
:1058F00029FD012813D104F1090032280FDA221DF5
:105900000A49491D0A4803F0F8FA04F10901074859
:1059100002F0F8FC012802D10448FCF785FF00BF23
:10592000034803F0FEFA3C28D2DC10BD141A002014
:10593000780F00200A48407801280CD10848807868
:1059400008490870064890F903000011487004489F
:105950000079887002E0002002494870704700001A
:10596000B40A0020BC0A002010B501210548FEF74A
:10597000CFFC0549088004210448FEF7C9FC04490E
:10598000088010BD00040240420B002000080240C5
:10599000440B002009484078012801D108490870CB
:1059A00006484078032801D105490870034840782B
:1059B000022801D10249087070470000E01A002057
:1059C000140B0020014601208840044A1268104050
:1059D00008B1012070470020FCE700001C000020F7
:1059E0002DE9F04106460F460024002534463D4689
:1059F000012001F0D3FD012817D14348407DA0B913
:105A00004148007D88B9414801698847604200EEFD
:105A1000900AF8EEE00A20EE200ABDEEC00A10EE71
:105A2000100A00B23A49888127E0022001F0B6FD51
:105A3000012818D13448407DA8B93348007D90B979
:105A4000324801698847F0EE400A00EE104AB8EE8D
:105A5000C00A20EE800ABDEEC00A10EE100A00B2A5
:105A60002B49888109E029488169884727483C21DA
:105A700042699047002026498881082001F08EFD68
:105A8000012818D12048407DA8B91F48007D90B951
:105A9000204801698847F0EE400A00EE105AB8EE3F
:105AA000C00A20EE800ABDEEC00A10EE100A01B254
:105AB0001748C18126E0042001F070FD012817D1AC
:105AC0001148407DA0B91048007D88B9114801698E
:105AD0008847684200EE900AF8EEE00A20EE200ABD
