:020000040800F2
:10000000A85600207D020008F94F0008D5460008D8
:10001000114E00084D120008B964000800000000ED
:10002000000000000000000000000000C101000806
:10003000C32300080000000015020008CB57000889
:10004000970200089702000897020008970200082C
:10005000970200089702000897020008970200081C
:100060009702000897020008E123000897020008A1
:1000700097020008970200089702000897020008FC
:1000800099220008970200089702000861120008F0
:10009000511200089702000897020008F92300088F
:1000A00097020008970200089702000897020008CC
:1000B00019590008970200089702000897020008E3
:1000C00097020008970200089702000897020008AC
:1000D00097020008A16300080D6400089702000859
:1000E000970200089702000897020008970200088C
:1000F000970200089702000897020008970200087C
:10010000970200089702000897020008970200086B
:10011000970200089702000897020008970200085B
:100120009702000897020008A92200089702000819
:10013000970200089702000897020008970200083B
:10014000970200089702000897020008970200082B
:10015000970200089702000897020008970200081B
:10016000970200089702000897020008970200080B
:10017000970200089702000897020008000000009C
:1001800097020008970200089702000897020008EB
:1001900097020008970200089702000897020008DB
:1001A000000000000000000097020008DFF80CD0FB
:1001B00000F0AAFB0048004795700008A8560020F0
:1001C0002B4B19680868B0E8F04F80F30988BFF33B
:1001D0006F8F4FF0000080F311887047000000001F
:1001E00006480068006880F3088862B661B6BFF30D
:1001F0004F8FBFF36F8F00DF00BF00BF08ED00E03F
:10020000DFF80C00016841F470010160704700BF25
:1002100088ED00E0EFF30980BFF36F8F144B1A688D
:100220001EF0100F08BF20ED108A20E9F04F10607B
:1002300008B44FF0500080F31188BFF34F8FBFF325
:100240006F8F07F08DFD4FF0000080F3118808BC20
:1002500019680868B0E8F04F1EF0100F08BFB0EC46
:10026000108A80F30988BFF36F8F704700BF00BF0B
:1002700058060020EFF305807047000006488047CD
:1002800006480047FEE7FEE7FEE7FEE7FEE7FEE77B
:10029000FEE7FEE7FEE7FEE7B5580008AD010008FF
:1002A0002DE9F05F0546002092469B4688460646AB
:1002B000814640241BE0284641464746224600F03E
:1002C0006CFA53465A46C01A914110D3114618464B
:1002D000224600F053FA2D1A67EB01084F462246DA
:1002E0000120002100F04AFA17EB00094E41201EC0
:1002F000A4F10104DFDC484631462A464346BDE806
:10030000F09F40EA01039B0703D009E008C9121FD0
:1003100008C0042AFAD203E011F8013B00F8013BBF
:10032000521EF9D27047D2B201E000F8012B491EEB
:10033000FBD270470022F6E710B513460A46044682
:100340001946FFF7F0FF204610BD2DE9FE4F80460D
:1003500081EA0300C00F0C46009021F0004123F019
:100360000045B8EB0200A94105D24046214690461F
:100370001C460B46024623F00040104347D0270D91
:10038000C7F30A00C3F30A510290401A01904028B3
:100390006BDAC3F3130040F4801B0098924620B13F
:1003A0000023D2EB030A63EB0B0B01985946C0F113
:1003B0004002504600F0E2F906460D4650465946C6
:1003C000019A00F0FAF910EB08006141002487EA75
:1003D000115284EAE7731A4340D0009A62B3019A3B
:1003E000012A4FEA075215DC001B61EB02014FF0B6
:1003F000004202EA0752CDE90042001C41F580119B
:1004000032462B4600F031FA03B0BDE8F08F40468B
:100410002146F9E7001B61EB0201001C41F5801346
:1004200000185B412018A2F5001747EB030140EAD2
:10043000D570B6196D4111E06D084FEA360645EAF0
:10044000C0754FEA0752001B61EB0201001C41F529
:10045000801149084FEA30000019514132462B46BD
:1004600003B0BDE8F04F00F0F1B900980122400060
:100470000023D0EB020263EBE073009821464FEAC1
:10048000E074B8EB000061EB0401E9E783F000439E
:100490005BE781F0004158E72DE9FE4F81EA030454
:1004A00004F0004421F0004100944FF0000B23F0D1
:1004B000004350EA01045ED052EA03045BD0C3F368
:1004C0000A54C1F30A552C44A4F2F3340194A0FB5E
:1004D0000254C1F3130141F48011C3F3130343F435
:1004E000801301FB024400FB034E840A970A44EA8E
:1004F000815447EA8357A4FB076802958D0A05FBE0
:1005000007854FEA932C04FB0C542705029D4FEA04
:10051000065847EA1637B5EB08056EEB070C870E51
:10052000920E47EA811742EA8312A7FB0201B6EB5B
:100530000B0164EB00042B0D43EA0C335E1844EB13
:100540001C50DA465146E7FB0201C5F313044FEA9B
:100550000B3343EA14534FEA0432019C43EA060387
:10056000A4F10C040294009CCDE900B400F07DF9E4
:1005700003B0BDE8F08F00200146F9E72DE9F04D0A
:1005800081EA030404F0004B21F0004514464FF0CB
:10059000000A23F0004150EA050220D054EA01028B
:1005A0001DD0C5F30A570246C5F31303C1F3130068
:1005B000C1F30A5640F4801543F48013A7EB0608F4
:1005C000101BD64608F2FD3873EB050002D308F184
:1005D000010801E092185B41B8F1000F03DA002036
:1005E0000146BDE8F08D00204FF480110646844698
:1005F0000EE0171B73EB050705D3121B63EB050316
:1006000006434CEA010C49084FEA300092185B415E
:1006100050EA0107EDD152EA030012D082EA040049
:1006200083EA0501084305D0101BAB4106D2012225
:10063000002306E000224FF0004302E06FF00102C9
:1006400053101AEB06004CEB085110EB0A0041EB7B
:100650000B01BDE8F04D00F0F9B80EB5C10F80EA0E
:10066000E0700844CA07002140F233438DE80E00D1
:100670000A460B4600F0F9F803B000BD70B5C1F3AF
:100680000A5201F000450024C1F3130140F2FF3388
:1006900041F480119A4201DA002070BD40F23343E8
:1006A0009A42A2F2334203DC524200F076F800E0B4
:1006B00090402C43F1D0404270BDC1F30A5210B5B6
:1006C000C1F3130140F2FF3341F480119A4201DA81
:1006D000002010BD40F233439A42A2F2334203DCC1
:1006E000524200F05AF810BD904010BD00F0004298
:1006F00030F000400AD0C10D01F56071C0F3160062
:1007000042EA0151C20840071143704700200146E8
:100710007047000030B5041E71F1000404DB4FF097
:100720000044404264EB0101141E73F1000405DB38
:100730001C464FF00043524263EB0403994208BF4A
:10074000904230BD01F0004330B421F0004150EA46
:10075000010206D00A0DA2F56072C1F31301002A4E
:1007600002DC30BC00207047440F44EAC104C100E1
:10077000E01830BC00EBC25000F031B8202A04DB96
:10078000203A00FA02F1002070479140C2F12003A4
:1007900020FA03F3194390407047202A04DB203AE3
:1007A00021FA02F00021704721FA02F3D040C2F191
:1007B00020029140084319467047202A06DBCB17D8
:1007C000203A41FA02F043EAE07306E041FA02F30C
:1007D000D040C2F1200291400843194670470029D9
:1007E000A8BF7047401C490008BF20F001007047B7
:1007F00010B4B0FA80FC00FA0CF050EA010404BF17
:1008000010BC704749B1CCF1200421FA04F411FA6C
:100810000CF118BF012121430843A3EB0C01CB1DB0
:100820004FEA00614FEA102042BF002010BC704721
:1008300000EBC35010440029A4BF10BC7047401CFB
:10084000490008BF20F0010010BC704710B5141E0D
:1008500073F1000408DA401C41F1000192185B4179
:100860001A4301D120F0010010BD2DE9F04D924650
:100870009B4611B1B1FA81F202E0B0FA80F2203267
:100880009046FFF77BFF04460F4640EA0A0041EA24
:100890000B0153465A46084313D0114653EA010050
:1008A00019D0C8F140025046FFF777FF05460E46C3
:1008B000504659464246FFF761FF084305D00120E4
:1008C00004E020463946BDE8F08D0020054346EAA5
:1008D000E0762C4337430A986305E40AA0EB08004E
:1008E0000022FD0A44EA47540A3002D5002001469E
:1008F000E9E7010510196941DDE908450019694179
:10090000BDE8F04DA2E70000064C074D06E0E068A8
:1009100040F0010394E8070098471034AC42F6D346
:10092000FFF748FCCC880008EC8800080EB540F2C0
:10093000334102910021CDE900110A460B46FFF731
:1009400094FF03B000BD70B58C1810F8015B15F072
:10095000070301D110F8013B2A1106D110F8012B31
:1009600003E010F8016B01F8016B5B1EF9D12B0756
:1009700005D40023521E0DD401F8013BFAE710F80C
:10098000013BCB1A921C03E013F8015B01F8015BF9
:10099000521EF9D5A142D8D3002070BD10B52DED5F
:1009A000028B184890ED100AF3EE030A80EE201A2D
:1009B000B0EE418AF0EE480A134890ED000A134861
:1009C00004F036FE1148C06B00EE100ADFED100A8D
:1009D000B4EEE00AF1EE10FA10DD0C48C06B00EE48
:1009E000100ADFED0C0AB4EEE00AF1EE10FA05D2BF
:1009F0009FED090A10EE100A0449C863BDEC028B92
:100A000010BD00008811002014060020BF02002045
:100A1000000096C3000096430000000010B500F0EF
:100A2000D1F800F055F8FFF7B9FF00F0E3F810BD7A
:100A300010B52248007877283ED020480078BB289F
:100A40003AD01E4800787B2819D14FF480611C48A9
:100A500002F046FD28B901229102194802F04CFD2E
:100A600005E000224FF48061154802F045FD0020AA
:100A70001249087013480078134908701CE00F48A9
:100A80000078EE2818D14FF40071104802F028FDCC
:100A900028B9012251020D4802F02EFD05E0002286
:100AA0004FF40071094802F027FD00200349087047
:100AB000044800780449087010BD000005060020B5
:100AC000001402406C120020F105002000200240BA
:100AD00010B533484078012860D132480078772833
:100AE00047D030480078BB283ED12F4908680968B4
:100AF000491C2D4A116000EBD0714910A0EB410157
:100B0000A9B92A4890ED100AF3EE030A80EE201AE4
:100B10009FED270A31EE400A264880ED000A07F0D3
:100B200001FC2549086001202449087014E01F4891
:100B300090ED100AF3EE030A80EE201A9FED1C0AD6
:100B400031EE000A1B4880ED000A07F0EBFB1A4962
:100B500008600120194908700020124908701048E7
:100B600000781749087004E00E4800787B2800D010
:100B700000BF07F0D7FB10490968401AB0F5FA6FBB
:100B80000CD90A4890ED100AF3EE030A80EE201A01
:100B9000084880ED001A00200849087010BD0000C8
:100BA0006C1200200506002020060020881100207D
:100BB0000000F042140600201C0600201806002049
:100BC000F10500209FED080A10EE100A0749886120
:100BD0009FED070A10EE100AC8619FED050A10EE9E
:100BE000100A08627047000000007042BF02002037
:100BF0000000000005484078022805D19FED040A56
:100C000010EE100A0349C863704700006C12002000
:100C100000000000BF02002010B52DED068B3E49FC
:100C2000B1F90000FFF719FD41EC1A0B9FED3B0BEA
:100C300053EC102BFFF7A2FC41EC190BFFF782FDE0
:100C400008EE100A3748B0F9000000EE900AF8EEFE
:100C5000E00AB0EE600AF0EE480A334804F0E8FC1F
:100C60003249B1F90000FFF7F8FC41EC1A0B9FED97
:100C70002B0B53EC102BFFF781FC41EC190BFFF70A
:100C800061FD08EE100A2748B0F9020000EE900A54
:100C9000F8EEE00AB0EE600AF0EE480A244804F0EC
:100CA000C7FC2148C06B00EE100ADFED220AB4EE4B
:100CB000E00AF1EE10FA10DD1B48C06B00EE100ADE
:100CC000DFED1D0AB4EEE00AF1EE10FA05D29FED59
:100CD0001B0A10EE100A1449C8631548C06B00EED9
:100CE000100ADFED140AB4EEE00AF1EE10FA10DD9E
:100CF0000F48C06B00EE100ADFED0F0AB4EEE00AF9
:100D0000F1EE10FA05D29FED0D0A10EE100A084917
:100D1000C863BDEC068B10BD1C1200200000000053
:100D20000000244094050020D9000020301200204B
:100D300088000020000048C4000048440000000073
:100D4000134890ED000AB8EEC00A10EE100A1149DF
:100D500088619FED110A10EE100AC8619FED0E0A1E
:100D600010EE100A08620A4890ED000AB8EEC00AB8
:100D700010EE100A094988619FED070A10EE100A6B
:100D8000C8619FED050A10EE100A08627047000066
:100D90009C0500208800002000000000D9000020F1
:100DA00010B5EB48407803287ED1E9480078032845
:100DB00011D1E749B1F9080000EBD0714910E54ABB
:100DC0001180E349B1F90810484200EBD071491095
:100DD00009B25180BBE1DE48007801287ED1DE48AF
:100DE0000078002840D1DD48008800B2D949088049
:100DF000DA480088404200B24880D948007801288B
:100E000004D1D8480088401CD6490880D5480088BD
:100E10000D280ADDD448C068D4490860D448C068A9
:100E2000D44908600020CF490880CF49C968CF4A1B
:100E30001268881A002801DB014600E0414242F2B4
:100E400028329142C6DD6420C24908804042488071
:100E5000C9480068401CC849086008460068012865
:100E6000B8D1C649087072E1BB480078012866D144
:100E7000BA480088404200B2B6490880B7480088A6
:100E800000B24880BA48C168BA480068A0F59660C8
:100E9000814207DAB448C168B448006800F596603A
:100EA000814205DCB64800E047E10068012812DB1A
:100EB000B3480068401CB249086008460068012831
:100EC00005D1B049087007F02DFAAF49086000203D
:100ED000A04908804880AB48007800E057E000282F
:100EE000C1D1A9480068B0F5FA6FBCD99B48008809
:100EF00000B29849088099480088404200B2488072
:100F00009949C968994A1268881A002801DB014684
:100F100000E0414242F228329142A4DD64208D4932
:100F200008804042488099480068401C9749086002
:100F300008460068012896D19049087007E1864864
:100F4000007802288FD185480088404200B281494C
:100F500008808248008800B248808548C06885497A
:100F60000968884205DA8048C06880490968884273
:100F700003DC874800680128E0DB85480068401CE6
:100F8000834908600020734908804880DFE070488A
:100F900000780228D2D17F48007818B901207E4914
:100FA0000870D4E07B48007801282FD16B48008876
:100FB00000B26849088069480088404200B2488011
:100FC0007648007801280AD16748C06874490860EB
:100FD0006748C0687349086000207049087062491A
:100FE000C9686F4A1268881A002801DB014600E0D0
:100FF000414242F228329142A0DD642055490880E6
:1010000040424880012068490870A0E061480078AB
:1010100002282ED151480088404200B24D49088034
:101020004E48008800B248805C48007801280AD108
:101030004D48C0685A4908604D48C0685949086021
:101040000020564908704849C968554A1268881AEC
:10105000002801DB014600E0414242F22832914281
:1010600075DD00203B490880488001204A4908700E
:101070006DE04848007803282FD13848008800B236
:101080003449088035480088404200B248804348CF
:10109000007801280AD13448C068414908603448C2
:1010A000C0684049086000203C4908702E49C96862
:1010B0003B4A1268881A002801DB014600E04142E1
:1010C00042F22832914242DD6420224908804042A7
:1010D000488001203449087039E02E4800780428FF
:1010E00035D11E480088404200B21A4908801B488A
:1010F000008800B248802948007801280AD11A489F
:10110000C068274908601A48C0682649086000205E
:10111000224908701449C968214A1268881A0028AF
:1011200001DB014600E0414242F2283291420EDDED
:10113000002008490880488009E00020064908701E
:101140000E4908700F49087002490880488010BD98
:101150006C12002094050020A2050020A0050020AC
:1011600004060020C00500201C120020B805002045
:1011700030120020BC050020C40500200606002017
:10118000C8050020DD050020E0050020CC0500207A
:10119000D0050020A3050020DE050020A4050020C6
:1011A000D4050020D80500200706002070B52DEDDD
:1011B000048B1C484078022806D100231A461946A1
:1011C000184600F05FFE29E01748C16B0846FFF79C
:1011D0008DFA41EC190B9FED150B53EC102BFFF71B
:1011E0005BF941EC180BFFF749FA05B21148C16BE6
:1011F0000846FFF77BFA41EC190B9FED0C0B53EC03
:10120000102BFFF749F941EC180BFFF737FA04B23E
:1012100000231A462946204600F034FEBDEC048B1C
:1012200070BD00006C120020D900002000000000FA
:101230000000F83F8800002010B5FFF781FDFFF7A0
:10124000AFFDFFF7E9FCFFF7B1FF10BD00BFFEE700
:1012500010B5024801F068FB10BD0000101300201B
:1012600010B5024801F060FB10BD00001013002013
:1012700030B589B004460D462088618888420CD17B
:10128000202101A8FFF756F8202201A92846FFF7E0
:1012900038F84FF0FF3009B030BD2288201D00EB38
:1012A000421120222846FFF72CF82088401C80B2EB
:1012B0002080142801DB002020800020EBE70FB401
:1012C00010B504466288211D01EB4210202203A9BB
:1012D000FFF717F86088401C80B26080142801DB9B
:1012E0000020608060882188884207D12088401CC7
:1012F00080B22080142801DB0020208010BC5DF823
:1013000014FB014648880B88C21A002A01DB90B200
:10131000704702F1140080B2FAE7000010B52DED1D
:10132000068B7B49B1F90000FFF797F941EC1A0BE6
:101330009FED780B53EC102BFFF720F941EC190BC4
:10134000FFF700FA08EE100A7448B0F9040000EE46
:10135000900AF8EEE00AB0EE600AF0EE480A704833
:1013600004F066F96F49B1F90000FFF776F941EC36
:101370001A0B9FED680B53EC102BFFF7FFF841ECB5
:10138000190BFFF7DFF908EE100A6448B0F9060000
:1013900000EE900AF8EEE00AB0EE600AF0EE480ABD
:1013A000614804F045F96149B1F90000FFF755F9CA
:1013B00041EC1A0B9FED570B53EC102BFFF7DEF8A7
:1013C00041EC190BFFF7BEF908EE100A5348B0F9CB
:1013D000080000EE900AF8EEE00AB0EE600AF0EEC7
:1013E000480A534804F024F95249B1F90000FFF7C4
:1013F00034F941EC1A0B9FED470B53EC102BFFF720
:10140000BDF841EC190BFFF79DF908EE100A4348AF
:10141000B0F90A0000EE900AF8EEE00AB0EE600AB9
:10142000F0EE480A444804F003F93D48C06B00EE72
:10143000100ADFED420AB4EEE00AF1EE10FA10DD18
:101440003748C06B00EE100ADFED3D0AB4EEE00A4B
:10145000F1EE10FA05D29FED3B0A10EE100A30496A
:10146000C8633148C06B00EE100ADFED340AB4EEF9
:10147000E00AF1EE10FA10DD2B48C06B00EE100A06
:10148000DFED2F0AB4EEE00AF1EE10FA05D29FED7F
:101490002D0A10EE100A2449C8632548C06B00EEDF
:1014A000100ADFED260AB4EEE00AF1EE10FA10DDC4
:1014B0001F48C06B00EE100ADFED210AB4EEE00A0F
:1014C000F1EE10FA05D29FED1F0A10EE100A18492E
:1014D000C8631948C06B00EE100ADFED180AB4EEBD
:1014E000E00AF1EE10FA10DD1348C06B00EE100AAE
:1014F000DFED130AB4EEE00AF1EE10FA05D29FED2B
:10150000110A10EE100A0C49C863BDEC068B10BD21
:10151000CC110020000000000000244058120020E0
:101520007B010020E0110020CC010020F4110020FC
:101530001D020020081200206E02002000002FC4AF
:1015400000002F4400000000B2EE0E0A10EE100A58
:101550001F4988619FED1F0A10EE100A1E4988611D
:101560001E4988611E4988611E4988619FED1E0AD7
:1015700010EE100A1849C8611849C8611849C861B5
:101580001849C8619FED180A10EE100A1249086246
:101590001249086212490862124908629FED120A54
:1015A00010EE100A0C4908610C4908610C490861E9
:1015B0000C4908619FED0C0A10EE100A0649C8613B
:1015C0000649C8610649C8610649C86170470000FC
:1015D0002A010020000070426E0200201D0200203F
:1015E000CC0100207B0100200000000010B52DED93
:1015F000028B95484078012803D09348407803280F
:101600007ED191488088914988818F4841888F4850
:10161000C1818D49B1F9060000EBD07149108B4AA8
:1016200011829FED8B0A104680ED000A8649B1F9C0
:101630000410884AB2F90020881A002801DB01460C
:1016400000E04142844A1288914230DD7E48B0F980
:1016500004008049B1F9001088420DDD7A48B0F9E4
:101660000400002808DD7B4800887B49098808447D
:1016700000B2784908801EE07348B0F9040075494B
:10168000B1F9001088420DDA6F48B0F90400002863
:1016900008DA7048008870490988401A00B26D491C
:1016A000088008E0684880886A49088003E0664846
:1016B0008088684908806449B1F90210674AB2F924
:1016C0000020881A002801DB014600E04142624AFE
:1016D0001288914232DD5C48B0F902005F49B1F9ED
:1016E000001088420FDD5848B0F9020000280ADDDA
:1016F0005A48008858490988084400B2574900E010
:1017000067E008801EE05048B0F902005349B1F983
:10171000001088420DDA4C48B0F90200002808DABF
:101720004E4800884C490988401A00B24B4908804D
:1017300008E0454840884949088003E0424840881D
:101740004649088043480088404200B23F498881AA
:101750004248B0F90000C8813B480078012816D102
:101760003F48007801280ED16FF0F900888106F01B
:10177000D9FD3C490968401AB0F57A7F34D9002078
:101780003749087030E00020304988812CE02E482D
:101790000078022828D134480078012815D1642027
:1017A0002A4988813148008801281DD130480088A5
:1017B000D0B900202C49087001202E4908702E480D
:1017C0000078401C2C4908700EE000201F498881D9
:1017D0000AE000201D49888100211C48C181018246
:1017E0009FED1B0A80ED000A184890ED000ADFED1E
:1017F000230A80EE201A9FED220A21EE000AB0EEA5
:10180000408AB0F9100001EE900AF8EEE11AB0EE4D
:10181000611A0E48B0F90C0001EE900AF8EEE11AD8
:10182000F0EE610A0948B0F90E0001EE900AF8EEF8
:10183000E11AB0EE610A47F23050F0EE481A00F0BB
:101840006FF8BDEC028B10BD6C1200205812002006
:1018500000000000E6050020E4050020E805002067
:10186000DD050020E0050020DE0500200E0600203A
:1018700010060020A4050020A3050020000034432A
:10188000DB0F494010B521484078022806D10023DB
:101890001A461946184600F033FB35E01C4CE46B41
:1018A00000EE104AF7EE000A20EE200ABDEEC00A54
:1018B00010EE104A23B2174CE46B00EE104AF7EE1C
:1018C000000A20EE200ABDEEC00A10EE104A22B235
:1018D000114CE46B00EE104AF7EE000A20EE200AED
:1018E000BDEEC00A10EE104A21B20C4CE46B00EEC3
:1018F000104AF7EE000A20EE200ABDEEC00A10EEF4
:10190000104A20B200F0FCFA10BD00006C1200205A
:101910006E0200201D020020CC0100207B0100206F
:1019200010B52DED108B8CB0F0EE40AAB0EE60DA61
:10193000F0EE418AB0EE619A04469FEDF80AB0EEEF
:10194000408A19EE100AFEF7D1FE41EC1C0BB0EEF6
:101950004C0AF0EE6C0A04F0A3FEB0EE40BAF0EED2
:1019600060BA1AEE900AFEF7C1FE41EC1E0B53EC72
:101970001B2BFEF791FDCDE9000119EE100AFEF7D1
:10198000B5FE41EC1C0BB0EE4C0AF0EE6C0A04F014
:1019900017FEB0EE40EAF0EE60EA1DEE100AFEF728
:1019A000A5FE41EC1B0B53EC1E2BFEF775FD41EC25
:1019B0001F0B9DED000B53EC102BFEF7C6FCCDE981
:1019C00002019DED020B51EC100BFEF7BBFE09EE80
:1019D000900A19EE100AFEF789FE41EC1C0BB0EEDE
:1019E0004C0AF0EE6C0A04F05BFEB0EE40BAF0EE8A
:1019F00060BA1DEE100AFEF779FE41EC1E0B53ECA7
:101A00001B2BFEF749FD41EC1F0B19EE100AFEF7E8
:101A10006DFE41EC1B0BB0EE4B0AF0EE6B0A04F0CE
:101A2000CFFDB0EE40CAF0EE60CA1AEE900AFEF7A3
:101A30005DFE41EC1E0B53EC1C2BFEF72DFD53EC11
:101A40001F2BCDE900019DED000B51EC100BFEF7B3
:101A50001DFDCDE902019DED020B51EC100BFEF7CF
:101A600071FE0AEE100AB1EE690A30EE0A0A30EE93
:101A7000280A8DED070A39EE8A0A30EE280A8DED24
:101A8000080A39EECA0A30EE280A8DED090AB1EECD
:101A9000690A30EE4A0A30EE280A8DED0A0A9DEDF9
:101AA000070A10EE101A0846FEF720FE41EC1C0B48
:101AB000B0EE4C0AF0EE6C0A04F0E6FDB0EE40BA6F
:101AC000F0EE60BA51EC1B0BFEF73CFE08EE100A7C
:101AD00018EE100AFEF70AFE41EC1B0B9DED080AFA
:101AE00010EE101A0846FEF701FE41EC1E0BB0EE98
:101AF0004E0AF0EE6E0A04F0C7FDB0EE40CAF0EEFA
:101B000060CA53EC1B2B51EC1C0BFEF703FE18D2E2
:101B10009DED080A10EE101A0846FEF7E7FD41ECAD
:101B20001B0BB0EE4B0AF0EE6B0A04F0ADFDB0EE0D
:101B300040CAF0EE60CA51EC1C0BFEF703FE08EE43
:101B4000100A18EE100AFEF7D1FD41EC1E0B9DEDB8
:101B5000090A10EE101A0846FEF7C8FD41EC1C0BEE
:101B6000B0EE4C0AF0EE6C0A04F08EFDB0EE40BA16
:101B7000F0EE60BA53EC1E2B51EC1B0BFEF7CAFDC6
:101B800018D29DED090A10EE101A0846FEF7AEFDB8
:101B900041EC1B0BB0EE4B0AF0EE6B0A04F074FD47
:101BA000B0EE40CAF0EE60CA51EC1C0BFEF7CAFD65
:101BB00008EE100A18EE100AFEF798FD41EC1B0B18
:101BC0009DED0A0A10EE101A0846FEF78FFD41EC53
:101BD0001E0BB0EE4E0AF0EE6E0A04F055FDB0EEAC
:101BE00040CAF0EE60CA53EC1B2B51EC1C0BFEF705
:101BF00091FD18D29DED0A0A10EE101A0846FEF764
:101C000075FD41EC1C0BB0EE4C0AF0EE6C0A04F0D2
:101C10003BFDB0EE40BAF0EE60BA51EC1B0BFEF7A4
:101C200091FD08EE100A00EE104AB8EE400AB4EE3C
:101C3000C08AF1EE10FA44DD00EE104AB8EE400A18
:101C4000C0EE080A9DED070A20EE800ABDEEC00A2C
:101C500010EE100A00B2ADF8100000EE104AF8EED7
:101C6000400A80EE880ADDED080A20EE200ABDEE6B
:101C7000C00A10EE100A00B2ADF8120000EE104AD1
:101C8000F8EE400A80EE880ADDED090A20EE200A0F
:101C9000BDEEC00A10EE100A00B2ADF8140000EE5E
:101CA000104AB8EE400AC0EE080A9DED0A0A20EE7E
:101CB000800ABDEEC00A10EE100A00B2ADF81600A0
:101CC00023E09DED070ABDEEC00A10EE100A00B237
:101CD000ADF810009DED080ABDEEC00A10EE100A26
:101CE00000B2ADF812009DED090ABDEEC00A10EE7B
:101CF000100A00B2ADF814009DED0A0ABDEEC00A4C
:101D000010EE100A00B2ADF816000548DDE9041225
:101D1000C0E901120CB0BDEC108B10BD000000003A
:101D20005812002000B535480068401C334908604F
:101D300033480088401C3249088032480068A0F2CD
:101D40000120072857D2DFE800F0040F1A25303BA6
:101D500046002D480088401C2B49088029491C3129
:101D60002A4805F051F947E027484088401C264999
:101D7000488024491C31264805F046F93CE02248B9
:101D80008088401C204988801E491C31214805F06C
:101D90003BF931E01C48C088401C1B49C8801949E8
:101DA0001C311D4805F030F926E01C480088401C15
:101DB0001A49088013491C31194805F025F91BE020
:101DC00018480088401C174908800E491C311648E5
:101DD00005F01AF910E015480088401C13490880E6
:101DE00008491C31124805F00FF906491C31114809
:101DF00000F00EFB00E000BF00BF00BD8805002022
:101E00005A0000208412002040000020CC11002045
:101E1000E0110020F4110020081200204E000020E4
:101E2000301200204A0000201C1200205200002026
:101E3000441200208811002010B50D48FFF761FA08
:101E400004460C490A48FFF713FA0123094A1832DD
:101E50000849094800F05EFB08480088401C074913
:101E60000880054800F043FD0549086010BD0000EA
:101E7000800C0020C8120020101300205600002003
:101E80008C050020F0B585B004460D4617461E4669
:101E900040F2FF1017490860200A08760846447689
:101EA000290A8176C5761448C06B00EE100ABDEE93
:101EB000C00A10EE100A010A0E4801770E48C06BE6
:101EC00000EE100ABCEEC00A10EE100AC1B20948BA
:101ED0004177310A8177C677142200F10C016846F8
:101EE000FEF70FFA03480EC80448FFF7E8F905B0FB
:101EF000F0BD0000A8120020BF020020800C0020CE
:101F0000F0B585B004460D4616461F464FF40070E6
:101F10000D490860200A087608464476290A817629
:101F2000C576310A01774677390A8177C777142257
:101F300000F10C016846FEF7E4F903480EC80348B7
:101F4000FFF7BDF905B0F0BDA8120020800C0020FD
:101F500008B506F0E7F9009000BFFFF76DFF01211B
:101F6000684605F00DFEF8E78448007830B1012896
:101F70000CD0022812D0032873D17DE002208049C2
:101F800008708049087080490870F4E000207C499E
:101F900008707C4908707C490870ECE07B48007848
:101FA00009285FD2DFE800F0550509151E2A3440E4
:101FB00049000220754908705CE0012074490870EE
:101FC00004206F49087002206E4908706E4908703D
:101FD00050E002206A4908706A49087003206A4983
:101FE000087047E001206A490870032064490870BE
:101FF000022064490870644908703BE0022060498F
:10200000087003205F49087002205F49087031E0C2
:1020100001205F490870042059490870022059497D
:1020200008705949087025E0022055490870554943
:1020300008700320544908701CE0012054490870BE
:1020400003204F49087002204E4908704E4908701D
:1020500010E002204A4908704A4908704A4908704D
:1020600008E080E002204649087046490870464969
:10207000087000BF00BF00BF464800780A2868D239
:10208000DFE800F05F0509131F28343E4A530220A1
:102090004049087065E00220394908700420394938
:1020A00008700220384908705BE001203849087048
:1020B0000420334908700220324908703249087000
:1020C0004FE002202E4908702E49087004202E4946
:1020D000087046E001202E49087003202849087046
:1020E000022028490870284908703AE00220244953
:1020F000087004202349087002202349087030E04A
:1021000001202349087004201D49087002201D4940
:1021100008701D49087024E0022019490870194907
:1021200008700420184908701BE001201849087045
:1021300003201349087002201249087012490870E0
:102140000FE002200E4908700E4908700E49087011
:1021500007E002200A4908700A4908700A49087015
:1021600000BF00BF00BF0220054908700549087084
:102170000549087000BF00BF704700000200002042
:1021800098050020DC0500200C060020030000203C
:10219000A4050020040000202448007820B1012874
:1021A00006D003283CD137E00020214908703BE0ED
:1021B00020480078012801D11D4908701D48007889
:1021C000032821D11B48B0F90800B0F5167F03DDC4
:1021D00001201949088008E01648B0F9080010F5F8
:1021E000167F02DA0120154908801348008801286B
:1021F00003D102200E49087006E01048008801282B
:1022000002D103200A4908700A480078022802D146
:1022100004200749087007E000200549087003E022
:1022200000200349087000BF00BF70470000002075
:10223000020000206C120020060000200800002090
:1022400010B5FFF781F9FFF7D1F9FFF767F8FFF74E
:1022500019FB10BD10B500200249086003F09AFA7E
:1022600010BD00001800002010B50A480068401C8E
:102270000849086002F030FA0648007800F00300D0
:1022800008B9FFF7DDFF02F0BDFD00F029F9FEF708
:10229000D3FF10BD1800002010B5024800F01EFE4C
:1022A00010BD0000B814002010B5024800F016FE62
:1022B00010BD00005814002001460878103818237B
:1022C000B0FBF3F20848805CC865032A05D90868AA
:1022D0006FF30900001D886503E008686FF30900CB
:1022E0008865886D704700006087000801460020FF
:1022F0008A6A8B69CBB932B1012A0DD0022A03D088
:10230000032A10D10EE000BFCB6A03F08073B3F153
:10231000807F00D1012007E0CB6AB3F1C07F00D1FC
:10232000012001E000E000BF34E08B69B3F5005FFD
:102330001AD132B1012A07D0022A03D0032A11D1BF
:102340000AE000BF01200EE0CB6A03F08073B3F116
:10235000807F00D1012006E0CB6AB3F1C07F00D1BD
:10236000012000E000BF15E032B1012A05D0022AA9
:1023700004D0032A0CD103E000BF00BF012008E015
:10238000CB6A03F08073B3F1807F00D1012000E0BD
:1023900000BF00BF704730B50468246824F480246F
:1023A00005682C60046863608468402C04D104686C
:1023B000A2600468E16003E00468A1600468E26070
:1023C00030BD704708B505F0ADFF0090FFF742FF44
:1023D00000BFFFF749FF0121684605F0D1FBF8E790
:1023E00010B5102000F060FF02480068401C014951
:1023F000086010BD1000002010B5202000F054FF30
:1024000002480068401C0149086010BD140000200B
:1024100070B500220023046844604C780D7844EACB
:102420000524046004684568641BC460C46814F52E
:10243000C85F07DA846B641C8463C46804F50054C5
:10244000C4610DE0C468B4F5C85F07DD846B641E29
:102450008463C468A4F50054C46101E0C468C46125
:102460000568846B05EB4434846004688569641BEB
:1024700000EE104AB8EEC00ADFED170A20EE200A7F
:102480009FED161AC0EE010A846B4FF4B4756C43CD
:1024900000EE104AB8EEC00A30EE800A80ED100A55
:1024A000C669047D651C057500F1200545F82460AA
:1024B000047D062C01D100240475002205E000F102
:1024C000200454F822402344521C062AF7DB062439
:1024D00093FBF4F4C46370BD0000B44300000046F5
:1024E00010B502F0BBFC10BD024692F82000012896
:1024F00003D092F82000022806D1106840690843F2
:102500001368586100207047506A40F48020506280
:102510000120F8E770B504460D46A86800B900E050
:1025200000BF94F82000012803D094F8200002286E
:102530007FD12068806800F0806050B92068806892
:1025400000F0006028B92068806800F08050002802
:1025500069D020688068C0F301610120884018605C
:10256000A86850B92E88E86840EA4656206800F509
:10257000C07000EB011006600BE0D5E9016040EA95
:10258000C600EE683043266806F5C07606EB0116F5
:1025900030602E69206800F5C07000EB01104660C5
:1025A000287D01280DD1206800F5C07000EB0110D6
:1025B000406840F48076206800F5C07000EB0110A0
:1025C0004660D0790006967940EA0640567940EA9E
:1025D000062610790643206800F5C07000EB011054
:1025E000C660D0780006967840EA0640567840EA01
:1025F000062016783043266806F5C07606EB0116ED
:10260000B060206800F5C07000EB0110006840F079
:102610000106206800F5C07000EB01100660002084
:1026200070BD06E0FFE7606A40F4001060620120C0
:10263000F6E7606A40F4802060620120F0E7000065
:1026400070B504460A460023216894F8200001284A
:1026500003D094F8200002287CD1414901F5007193
:10266000086840F001000860086820F47C500860A9
:102670000868556A40EA05200860157D012000FAC7
:1026800005F3C8699843C861A1F50071D069C8B95C
:10269000D1F80C029843C1F80C02908880B2958959
:1026A00040EA054501F51070566940F8365010882B
:1026B00080B2158940EA054501F51070566900EBB6
:1026C000C6004560D069012819D1D1F80C02184321
:1026D000C1F80C02908880B2158840EA054501F5E2
:1026E0001070566940F83650908980B2158940EADA
:1026F000054501F51070566900EBC600456090690C
:1027000028B9D1F804029843C1F8040204E0D1F8D2
:1027100004021843C1F80402106928B9D1F8140260
:102720009843C1F8140204E0D1F814021843C1F828
:102730001402106A012804D1D1F81C021843C1F810
:102740001C02D1F8000220F00100C1F800020020B4
:1027500070BDFFE7606A40F4802060620120F7E707
:1027600000640040704730B5044694F8200001280A
:1027700003D094F8200002287DD151B92068C068A8
:1027800000F0030090B9606A40F40010606201201C
:1027900030BD01290AD12068006900F0030028B982
:1027A000606A40F4001060620120F1E7206800F5E3
:1027B000D87000EB0110006800F004009060906891
:1027C00040B9206800F5D87000EB01100068400D9A
:1027D000106007E0206800F5D87000EB0110006879
:1027E000C0085060206800F5D87000EB0110006848
:1027F00000F002004008D060206800F5D87000EBBF
:102800000110406800F00F001061206800F5D870DA
:1028100000EB0110406800F47F40000A90612068DE
:1028200000F5D87000EB01104068000C5061206882
:1028300000F5D87000EB011080681870206800F572
:10284000D87000EB0110806800F47F40000A5870D7
:10285000206800F5D87000EB0110806800F47F005C
:10286000000C9870206800F5D87000EB01108068AB
:10287000000ED87000E034E0206800F5D87000EB5E
:102880000110C0681871206800F5D87000EB0110C5
:10289000C06800F47F40000A5871206800F5D870C5
:1028A00000EB0110C06800F47F00000C98712068F4
:1028B00000F5D87000EB0110C068000ED87131B976
:1028C0002068C06840F020002568E86007E0012922
:1028D00005D12068006940F02000256828610020AB
:1028E00056E7606A40F480206062012050E70146AC
:1028F000002091F82020012A03D091F82020022AFC
:1029000011D10A68926802F0806202B1401C0A6824
:10291000926802F0006202B1401C0A68926802F0FC
:10292000805202B1401C70472DE9F05F044600253B
:10293000206846692068D0F804902068876820687D
:10294000D0F80CA02068D0F810B02068D0F818801B
:1029500006F00100002855D007F00100C0B10120A9
:102960002168886007F0020018B1204600F042FAA2
:102970000EE007F0040010B145F4006508E007F030
:10298000080010B145F4805502E0204600F031FA0D
:1029900007F48070C8B14FF480702168886007F434
:1029A000007018B1204600F040FA0EE007F4806095
:1029B00010B145F4005508E007F4006010B145F48B
:1029C000804502E0204600F02FFA07F48030C8B1BD
:1029D0004FF480302168886007F4003018B1204639
:1029E00000F025FA0EE007F4802010B145F4004510
:1029F00008E007F4002010B145F4803502E02046DD
:102A000000F014FA06F0080038B10AF0100020B106
:102A100045F4007510202168C86006F0040040B13C
:102A20000AF0080028B108202168C860204600F09C
:102A30009BF906F0020038B12068C06800F003007E
:102A400010B1204600F092F906F0400038B10BF0CA
:102A5000100020B145F4806510202168086106F05F
:102A6000200040B10BF0080028B10820216808615F
:102A7000204600F08BF906F0100038B1206800699C
:102A800000F0030010B1204600F081F906F4003098
:102A900040B109F0100028B110202168486020469C
:102AA00000F076F906F4803040B109F0080028B152
:102AB000082021684860204600F0BAF906F400407A
:102AC00088B309F0040078B306F4807020B108F0F0
:102AD000010008B145F0010506F4007020B108F0CE
:102AE000020008B145F0020506F4806020B108F04C
:102AF000040008B145F0040506F40060A0B108F038
:102B0000700088B108F07000402817D006DC10284B
:102B10000BD020280CD0302819D10CE0502810D030
:102B2000602814D110E01DE019E045F008050FE021
:102B300045F010050CE045F0200509E045F04005A2
:102B400006E045F0800503E045F4807500E000BF35
:102B500000BF2068806920F070002168886104202F
:102B6000216848602DB1606A284360622046FFF703
:102B7000F9FDBDE8F09F70B5044600250CB90120B1
:102B800070BD94F8200010B9204600F0AFF820681E
:102B9000006820F002002168086000F0B3FC0546E0
:102BA0000DE000F0AFFC401B0A2808D9606A40F431
:102BB00000306062052084F820000120E0E72068F2
:102BC000406800F002000028EBD12068006840F067
:102BD00001002168086000F095FC05460DE000F05A
:102BE00091FC401B0A2808D9606A40F400306062FA
:102BF000052084F820000120C2E72068406800F02A
:102C000001000028EBD0207E012806D12068006852
:102C100040F080002168086005E02068006820F02E
:102C2000800021680860607E012806D12068006865
:102C300040F040002168086005E02068006820F04E
:102C4000400021680860A07E012806D12068006845
:102C500040F020002168086005E02068006820F04E
:102C6000200021680860E07E012806D12068006805
:102C700020F010002168086005E02068006840F03E
:102C8000100021680860207F012806D120680068B4
:102C900040F008002168086005E02068006820F026
:102CA000080021680860607F012806D1206800685C
:102CB00040F004002168086005E02068006820F00A
:102CC000040021680860D4E902010843216908432F
:102CD000616908436168491E08432168C861002092
:102CE0006062012084F82000002049E710B586B01A
:102CF00004461A49206888422DD100BF0020009068
:102D00001748006840F000701549086008460068E0
:102D100000F00070009000BF00BF0320019002206F
:102D2000029000200390032004900920059001A93F
:102D30000C4800F0C7FA00220521132000F0B1FC76
:102D4000132000F0A1FC00220521142000F0A9FCB2
:102D5000142000F099FC06B010BD00000064004093
:102D600040380240000C02407047000010B5044695
:102D7000044BA3F11C0200210348FFF7F4FCFEF70B
:102D8000D1FF10BDA0120020101300207047704723
:102D9000704770B50446002594F82000012822D120
:102DA000022084F820002068006820F001002168DB
:102DB000086000F0A7FB05460DE000F0A3FB401BF8
:102DC0000A2808D9606A40F400306062052084F85F
:102DD0002000012070BD2068406800F0010000283C
:102DE000EBD16062F6E7606A40F400206062012087
:102DF000F0E7704770B505460848FEF782FA0446CA
:102E0000002C0ADD06490548FEF732FA0123044A80
:102E1000183203490348FFF77DFB70BD800C00208A
:102E2000C812002010130020704770477047704789
:102E3000704770B50446A56D00F064FB064694F833
:102E40003500022808D08020606500BF002084F88B
:102E5000340000BF012070BD2068006820F016001B
:102E6000216808602068406920F08000216848617E
:102E7000206C08B9A06C28B12068006820F0080018
:102E8000216808602068006820F00100216808605F
:102E90000FE000F037FB801B05280AD92020606571
:102EA00000BF002084F8340000BF032084F8350000
:102EB000D1E72068006800F001000028E9D194F80B
:102EC0005C103F208840A86000BF002084F83400D8
:102ED00000BF012084F835000020BCE7F8B50446A7
:102EE000002000908C4800684FF41651B0FBF1F7B9
:102EF000A56D2E6894F85C1008208840304098B189
:102F00002068006800F0040070B12068006820F0BC
:102F100004002168086094F85C1008208840A860CC
:102F2000606D40F00100606594F85C1001208840FD
:102F3000304068B12068406900F0800040B194F8EA
:102F40005C1001208840A860606D40F00200606560
:102F500094F85C1004208840304068B12068006814
:102F600000F0020040B194F85C1004208840A86092
:102F7000606D40F00400606594F85C10102088409B
:102F8000304078B32068006800F0080050B394F82F
:102F90005C1010208840A8602068006800F4802041
:102FA00080B12068006800F4002028B9206CC8B106
:102FB0002046216C884715E0A06C98B12046A16C92
:102FC00088470FE02068006800F4807028B9206806
:102FD000006820F0080021680860206C10B12046CD
:102FE000216C884794F85C102020884030400028ED
:102FF00065D02068006800F0100000285FD094F8C9
:103000005C1020208840A86094F83500052828D15D
:103010002068006820F01600216808602068406978
:1030200020F0800021684861206C08B9A06C28B1AC
:103030002068006820F008002168086094F85C109F
:103040003F208840A86000BF002084F8340000BF03
:10305000012084F83500206D10B12046216D88478D
:10306000F8BD2068006800F4802080B12068006806
:1030700000F4002028B9606C10B12046616C8847CC
:103080001DE0E06BD8B12046E16B884717E020686F
:10309000006800F4807068B92068006820F01000B3
:1030A0002168086000BF002084F8340000BF0120C0
:1030B00084F83500E06B10B12046E16B8847606D05
:1030C00038B3606D00F00100F0B1052084F83500E0
:1030D0002068006820F001002168086000BF0098A7
:1030E000401C0090B84200D905E02068006800F05C
:1030F00001000028F3D100BF00BF002084F8340095
:1031000000BF012084F83500E06C10B12046E16C6E
:10311000884700BFA4E70000240600202DE9F04105
:103120000446002500F0EEF9074614B90120BDE879
:10313000F081606A00B100BF00BF002084F8340055
:1031400000BF022084F835002068006820F00100EC
:10315000216808600AE000F0D5F9C01B052805D9F0
:1031600020206065032084F83500E0E720680068CF
:1031700000F001000028EED12068056821480540D4
:10318000D4E901010843E168084321690843616902
:103190000843A1690843E1690843216A08430543DC
:1031A000606A042803D1D4E90B0108430543206871
:1031B00005602068456925F00705606A0543606A77
:1031C00004280DD1A06A0543E06A48B12046FFF704
:1031D0008DF828B140206065012084F83500A6E70D
:1031E000206845612046FFF767F8064694F85C10B2
:1031F0003F208840B06000206065012084F83500E1
:10320000002094E73F8010F02DE9F04704460D467A
:1032100016461F464FF00008D4F8589000BF94F8A7
:103220003400012802D10220BDE8F087012084F893
:10323000340000BF94F8350001282BD1022084F817
:103240003500002060653B46324629462046FFF7A0
:10325000A2F894F85C103F208840C9F80800206864
:10326000006840F01600216808602068406940F05E
:10327000800021684861206C28B12068006840F017
:103280000800216808602068006840F0010021689B
:10329000086006E000BF002084F8340000BF4FF053
:1032A00002084046C0E7704710B50446044800686D
:1032B000204020B1024804602046FFF7F4FF10BD13
:1032C000143C0140F8B502460B46002500240020BE
:1032D0000021E6E0012606FA01F51E6806EA05046B
:1032E000AC4273D15E68022E02D05E68122E13D1FA
:1032F000CF0802F1200656F827004E07F70E0F26DA
:10330000BE40B0434F07FF0E1E69BE403043CF089A
:1033100002F1200646F8270010684F000326BE4041
:10332000B0431E7906F003064F00BE4030431060E4
:103330005E68012E08D05E68022E05D05E68112EF0
:1033400002D05E68122E13D190684F000326BE4053
:10335000B0434F00DE68BE403043906050680126A5
:103360008E40B0431E79C6F300168E403043506045
:10337000D0684F000326BE40B0434F009E68BE4059
:103380003043D0605E6806F08056B6F1805FA8D109
:1033900000BF00260096454E366846F48046434FEF
:1033A0003E603E46366806F48046009600BF00BF89
:1033B0003F4E8F0856F827008E07370F0F26BE4066
:1033C000B0433C4EB24202D100262EE068E03A4EB5
:1033D000B24201D1012628E0384EB24201D1022684
:1033E00023E0374EB24201D103261EE0354EB242F1
:1033F00001D1042619E0344EB24201D1052614E071
:10340000324EB24201D106260FE0314EB24201D116
:1034100007260AE02F4EB24201D1082605E02E4EC3
:10342000B24201D1092600E00A268F073F0FBE40B5
:1034300030431F4E8F0846F82700284E3068A043BF
:103440005E6806F48036B6F5803F00D12043234EF7
:103450003060361D3068A0435E6806F40036B6F56D
:10346000003F00D120431D4E361D3060361D3068B0
:10347000A0435E6806F48016B6F5801F00D1204395
:10348000164E08363060361D3068A0435E6806F47C
:103490000016B6F5001F00D12043104E0C363060E8
:1034A000491C1029FFF416AFF8BD00004438024053
:1034B00008380140000002400004024000080240B9
:1034C000000C0240001002400014024000180240AC
:1034D000001C02400020024000240240003C014049
:1034E000024613690B400BB1012000E00020704739
:1034F00042694A40426170470AB1816101E00B04B0
:10350000836170470148006870470000280600206A
:103510000348006803490978084401490860704776
:10352000280600203006002010B50D48006840F441
:1035300000700B4908600846006840F4806008602D
:103540000846006840F480700860032000F0E8F846
:10355000002000F007F800F049F8002010BD00003E
:10356000003C024070B588B00446002500260022C9
:1035700021461C2000F095F81C2000F085F800BFC3
:10358000002001901648006840F0010014490860CE
:103590000846006800F00100019000BF00BF02A9CA
:1035A00003A800F091F900F0B7F945000D48B5FB0C
:1035B000F0F0461E4FF080400B49086040F2E731C2
:1035C0000948C160466000210161816000F0A1FCF2
:1035D00020B9054800F0E1FC08B070BD0120FBE710
:1035E0004038024040420F007C15002008B500BF63
:1035F000002000902348006840F480402149086082
:103600000846006800F48040009000BF00BF00BF83
:1036100000200090081F006840F08050091F0860DB
:103620000846006800F08050009000BF00BF0320F3
:1036300000F076F8002211466FF00B0000F031F830
:10364000002211466FF00A0000F02BF8002211460C
:103650006FF0090000F025F800221146501F00F01D
:1036600020F800221146101F00F01BF800220F2145
:10367000901E00F016F800220F21501E00F011F8E5
:1036800008BD00004438024000BF00F01F020121C5
:1036900091404209920002F1E022C2F8001100BFFD
:1036A00070472DE9F05F80460D461646002701F071
:1036B000A5FC074639462A46334601F00700C0F10B
:1036C000070ABAF1040F02D94FF0040A01E0C0F171
:1036D000070AD14600F1040ABAF1070F02D24FF0EF
:1036E000000A01E0A0F1030AD4464FF0010A0AFAE9
:1036F00009FAAAF1010A0AEA020A0AFA0CFA4FF0D8
:10370000010B0BFA0CFBABF1010B0BEA030B4AEAC2
:103710000B042146404601F079FCBDE8F09F000013
:1037200000BF00F00702064B19684FF6FF0319406F
:10373000044B0B4343EA0221014B196000BF704761
:103740000CED00E00000FA0570B504460D460CB91A
:10375000012070BD5848006800F00F00A84209D24F
:1037600055490D700846006800F00F00A84201D0CE
:103770000120EEE7207800F0020002281DD1207819
:1037800000F00400042805D14C48006840F4E050E3
:103790004A490860207800F00800082805D1474809
:1037A000006840F46040454908604448006820F0E3
:1037B000F000A168084341490860207800F001004A
:1037C000A8B36068012807D13C4808380068C0F3F6
:1037D0004040B8B90120BCE76068022802D06068A8
:1037E000032807D1354808380068C0F3406048B95D
:1037F0000120AEE7314808380068C0F3400008B93E
:103800000120A6E72D48006820F003006168084306
:103810002A490860FFF776FE064609E0FFF772FEC8
:10382000801B41F28831884202D9032091E707E0EA
:103830002248006800F00C006168B0EB810FEDD108
:103840001D48006800F00F00A84209D91A490D7000
:103850000846006800F00F00A84201D0012078E778
:10386000207800F00400042807D11448006820F4F0
:10387000E050E168084311490860207800F0080032
:10388000082808D10D48006820F46040216940EA0A
:10389000C1000A49086000F05FF808490968C1F3EF
:1038A0000311074A515CC840064908600020FFF731
:1038B00059FE00204DE70000003C0240083802405D
:1038C00048870008240600200F2202600D4A126873
:1038D00002F0030242600B4A126802F0F0028260BA
:1038E000084A126802F4E052C260064A126802F402
:1038F0006042D2080261044A126802F00F020A60B4
:103900007047000008380240003C0240014800684F
:10391000704700002406002000B5FFF7F7FF0449B8
:103920000968C1F38221034A515CC84000BD000010
:10393000083802405887000800B5FFF7E7FF044940
:103940000968C1F34231034A515CC84000BD000020
:1039500008380240588700082DE9F0470024002568
:103960000026A1462548006800F00C0020B104287C
:1039700005D008283AD105E0DFF8849039E0DFF877
:10398000849036E01D48001F006800F03F041B488B
:10399000001F006800F4800078B11A481749091F19
:1039A0000968C1F38811A0FB01700146224600237B
:1039B0003846FCF775FC05460EE011480F49091F13
:1039C0000968C1F38811A0FB01700146224600235B
:1039D0003846FCF765FC05460848001F0068C0F340
:1039E0000140401C4600B5FBF6F902E0DFF81090FC
:1039F00000BF00BF4846BDE8F0870000083802401D
:103A00000024F400001BB700F8B504460CB90120EF
:103A1000F8BD207800F00100002874D0F948006853
:103A200000F00C0004280DD0F648006800F00C00EF
:103A3000082813D1F348001F006800F48000B0F597
:103A4000800F0BD1EF4808380068C0F340400028D1
:103A500059D06068002856D10120D9E700BF6068BE
:103A6000B0F5803F08D1E7480838006840F480305E
:103A7000E449083908601EE06068B0F5A02F0DD158
:103A8000E0480838006840F48020DE4908390860C2
:103A90000846006840F4803008600CE0D9480838D7
:103AA000006820F48030D74908390860084600686B
:103AB00020F48020086000BF606890B1FFF722FD0D
:103AC000054606E0FFF71EFD401B642801D90320D0
:103AD0009EE7CC4808380068C0F340400028F1D089
:103AE00011E0FFF70FFD054606E0FFF70BFD401B59
:103AF000642801D903208BE7C24808380068C0F366
:103B000040400028F1D1207800F0020002285FD167
:103B1000BC48006800F00C0058B1BA48006800F0DA
:103B20000C0008281CD1B748001F006800F4800072
:103B3000B0B9B44808380068C0F3400020B1E0686C
:103B4000012801D0012063E7AE480838006820F062
:103B5000F800216940EAC100AA490839086037E045
:103B6000E06800B30120A8490860FFF7CBFC0546D8
:103B700006E0FFF7C7FC401B022801D9032047E7F6
:103B8000A04808380068C0F340000028F1D09D48E4
:103B90000838006820F0F800216940EAC10099491E
:103BA0000839086014E0002097490860FFF7AAFC74
:103BB000054606E0FFF7A6FC401B022801D90320BA
:103BC00026E7904808380068C0F340000028F1D18B
:103BD000207800F0080008282CD16069A8B10120E5
:103BE0008A490860FFF78EFC054606E0FFF78AFC6D
:103BF000401B022801D903200AE782486C30006884
:103C0000C0F340000028F1D014E000207F49086094
:103C1000FFF778FC054606E0FFF774FC401B02281E
:103C200001D90320F4E677486C300068C0F3400007
:103C30000028F1D1207800F00400042870D100267B
:103C400070483830006800F0805090B900BF002004
:103C500000906C483830006840F080506949383135
:103C600008600846006800F08050009000BF00BF68
:103C700001266748006800F48070B0B964480068A5
:103C800040F4807062490860FFF73CFC054606E09E
:103C9000FFF738FC401B022801D90320B8E65C4836
:103CA000006800F480700028F2D000BFA0680128EE
:103CB00008D154486830006840F00100514968312B
:103CC00008601DE0A06805280DD14E4868300068E6
:103CD00040F004004B49683108600846006840F035
:103CE000010008600CE047486830006820F00100DF
:103CF0004449683108600846006820F00400086004
:103D000000BFA068A8B1FFF7FDFB054609E0FFF77B
:103D1000F9FB401B41F28831884202D9032077E643
:103D200026E0384868300068C0F340000028EED034
:103D300013E0FFF7E7FB054608E0FFF7E3FB401B56
:103D400041F28831884201D9032061E62D4868306C
:103D50000068C0F340000028EFD1012E07D12948A8
:103D60003830006820F0805026493831086000BFA4
:103D7000A069B8B32348006800F00C0008285ED0A2
:103D8000A069022846D100201F490866FFF7BAFB48
:103D9000054606E0FFF7B6FB401B022801D90320C9
:103DA00036E6184808380068C0F340600028F1D1B2
:103DB000D4E907010843616A40EA81110122A06A3F
:103DC000C2EB500041EA00412C20005D41EA006056
:103DD0000C49091F086001200B490866FFF792FB98
:103DE000054607E02DE0FFF78DFB401B022801D9B7
:103DF00003200DE6034808380068C0F3406000283F
:103E0000F1D01EE00838024000004742800E4742D1
:103E10000070004000200C490866FFF773FB054660
:103E200006E0FFF76FFB401B022801D90320EFE5F6
:103E300006480068C0F340600028F2D101E001208C
:103E4000E6E50020E4E500000000474200380240BB
:103E5000042808D14FF0E021096941F004014FF036
:103E6000E022116107E04FF0E021096921F004012F
:103E70004FF0E0221161704770B504462546681E78
:103E8000B0F1807F01D301200FE0681E4FF0E021E8
:103E900048610F214FF0FF3001F0B8F800204FF0DB
:103EA000E021886107200861002070BD70477047DD
:103EB000024600BF92F83800012801D10220704765
:103EC000012082F8380000BF022082F83900106813
:103ED000406820F0700013685860106840680B68F4
:103EE0001843136858601068806820F080001368D9
:103EF0009860106880684B681843136898600120C8
:103F000082F8390000BF002082F8380000BF00BFEF
:103F1000D5E710B504460CB9012010BD94F839005E
:103F200028B9002084F83800204600F00DF802205F
:103F300084F83900211D206801F0F6FC012084F886
:103F400039000020E9E7000008B50A4A01689142FB
:103F50000FD100BF002100910749096841F002011B
:103F6000054A11601146096801F00201009100BF85
:103F700000BF08BD00040040403802400146022056
:103F800081F839000868006840F001000A68106094
:103F9000012081F839000020704701460868C06898
:103FA00040F001000A68D0600868006840F0010035
:103FB0000A68106000207047704710B504462068FA
:103FC0000069C0F34000D8B12068C068C0F3400069
:103FD000B0B16FF0020021680861012020762068EE
:103FE000806900F0030018B12046FFF7E5FF05E007
:103FF000204600F0EDF8204600F0A4F900202076DD
:1040000020680069C0F38000D8B12068C068C0F3A0
:104010008000B0B16FF004002168086102202076B2
:104020002068806900F4407018B12046FFF7C4FF93
:1040300005E0204600F0CCF8204600F083F900208F
:10404000207620680069C0F3C000D8B12068C0683D
:10405000C0F3C000B0B16FF008002168086104200F
:1040600020762068C06900F0030018B12046FFF7F1
:10407000A3FF05E0204600F0ABF8204600F062F90F
:104080000020207620680069C0F30010D8B12068B5
:10409000C068C0F30010B0B16FF010002168086173
:1040A000082020762068C06900F4407018B12046CE
:1040B000FFF782FF05E0204600F08AF8204600F076
:1040C00041F9002020762068006900F0010058B115
:1040D0002068C06800F0010030B16FF00100216875
:1040E0000861204600F056F920680069C0F3C0104E
:1040F00058B12068C068C0F3C01030B16FF08000C4
:10410000216808612046FFF7D1FE20680069C0F3EE
:10411000801058B12068C068C0F3801030B16FF0D3
:10412000400021680861204600F068F920680069B5
:10413000C0F3401058B12068C068C0F3401030B1DF
:104140006FF02000216808612046FFF7B0FE10BD27
:1041500010B586B004461949206888421AD130202B
:10416000019002200290002003900490022005900C
:1041700001A91348FFF7A6F84FF440700190022000
:1041800002900020039004900220059001A90D48A0
:10419000FFF798F80C49206888420DD14FF4405041
:1041A00001900220029000200390049002200590CC
:1041B00001A90648FFF786F806B010BD00040040CC
:1041C000000402400008024000080040000C0240C9
:1041D000704770B504460D46164600BF94F8380087
:1041E000012801D1022070BD012084F8380000BFF1
:1041F000022084F8390036B1042E1BD0082E31D0AD
:104200000C2E5ED145E02946206801F019FC20689B
:10421000806940F00800216888612068806920F08A
:104220000400216888612068806929690843216841
:10423000886147E02946206801F03AFC20688069DF
:1042400040F40060216888612068806920F4806003
:104250002168886120688069296940EA0120216815
:1042600088612FE02946206801F05EFC2068C06963
:1042700040F008002168C8612068C06920F004008F
:104280002168C8612068C069296908432168C8613C
:1042900018E02946206801F083FC2068C06940F4DA
:1042A00000602168C8612068C06920F480602168CE
:1042B000C8612068C069296940EA01202168C86195
:1042C00000E000BF00BF012084F8390000BF0020DB
:1042D00084F8380000BF00BF85E710B504460CB96C
:1042E000012010BD94F8390028B9002084F8380066
:1042F000204600F00DF8022084F83900211D2068C6
:1043000001F012FB012084F839000020E9E70000E9
:1043100008B50A4A016891420FD100BF00210091FF
:104320000749096841F00401054A1160114609680E
:1043300001F00401009100BF00BF08BD000800406B
:10434000403802407047000030B504460D46012257
:104350002946206801F05AFB0C492068884203D0A6
:104360000B492068884201D1012000E0002028B1DB
:104370002068406C40F40040216848642068006870
:1043800040F0010021680860002030BD00000140BD
:104390000004014010B504462068B0F1804F01D1FF
:1043A000FFF7B6F810BD70B504460D4600BF94F88F
:1043B0003800012801D1022070BD012084F83800A6
:1043C00000BF022084F839002946204601F018FC7D
:1043D0002068C06820F040002168C8602068C0687C
:1043E00020F480402168C860012084F8390000BFB3
:1043F000002084F8380000BF00BFDDE7704710B52B
:1044000004462068C06820F490702168C860206865
:10441000406920F00100216848612068406900F08F
:10442000400068B12068406920F040002168486180
:10443000606B28B10020616B0865606BFEF7F9FCCA
:104440000020E085202084F83A00002010BD70474D
:1044500010B504460CB9012010BDA06900B100E000
:1044600000BF94F8390028B9002084F838002046AD
:1044700000F028F8242084F839002068C06820F46F
:1044800000502168C860204601F0D6FD2068006910
:1044900020F49040216808612068406920F02A00DB
:1044A000216848612068C06840F400502168C860F5
:1044B0000020E063202084F8390084F83A000020CE
:1044C000CAE7000010B586B0044648492068884213
:1044D0003FD100BF002000904548006840F0100028
:1044E000434908600846006800F01000009000BFD3
:1044F00000BF802001900220029001200390032041
:1045000004900720059001A93A48FEF7DBFE3A48DF
:104510003A4908604FF000604860002137488160E8
:10452000C1604FF4806101610021416181614FF4FC
:104530008071C161002101624162FEF7EFFD18B197
:104540009E212FA002F020F800BF2C4860638463F6
:104550004AE030492068884246D100BF00200090E0
:104560002348001F006840F400302149091F0860FB
:104570000846006800F40030009000BF00BF6020D3
:104580000190022002900120039003200490072054
:10459000059001A92048FEF795FE204820490860B3
:1045A0004FF00060486000211D488160C1604FF4F9
:1045B00080610161002141618161C16101624162EB
:1045C000FEF7ACFD18B1C9210DA001F0DDFF00BF61
:1045D00013486063846300BF002205212620FFF793
:1045E00060F82620FFF750F806B010BD001001401B
:1045F0004438024000040240406402405814002045
:104600002E2E5C5372635C4253505F55534152549B
:104610002E63000000440040000C0240886002400D
:10462000B814002077B581B00446154694F83A00D6
:10463000202844D1029800B115B9012004B070BD02
:1046400000BF94F83800012801D10220F6E70120CC
:1046500084F8380000BF0298A062A5850020E063BE
:10466000222084F83A001748616BC8631648616BD2
:1046700008641648616BC8640020616B086502AE6F
:1046800032682368191D2B46606BFEF7BDFD00BF25
:10469000002000902068006800902068406800902A
:1046A00000BF00BF00BF002084F8380000BF2068B2
:1046B000406940F04000216848610020BEE70220C8
:1046C000BCE70000B15F0008F75F0008615F000809
:1046D0007047704700BFFEE710B501210548FEF79F
:1046E000FFFE0549088004210448FEF7F9FE04494D
:1046F000088010BD000402400E06002000080240A1
:10470000100600200A484078012802D100200949FB
:10471000087007484078032802D101200549087035
:1047200003484078022802D10320024908707047EC
:104730006C120020F0050020014601208840044A48
:104740001268104008B1012070470020FCE700000B
:104750001C00002008B503F0E5FD009000BF4FF4F9
:1047600080410448FEF7C4FE6421684603F008FA5D
:10477000F5E700000014024010B5284828490860F9
:1047800003204860002126488160C1604FF4002169
:1047900001614FF440114161002101760121417610
:1047A000002181760121C176002101774177FEF752
:1047B000E2F918B15C211BA001F0E6FE1848FEF7F3
:1047C000E8FA01201C49086200204861086108607D
:1047D000486088618860C8600120C8610820174966
:1047E000086100208860C860082015490861002021
:1047F0008860C8600820134908610020C86088608C
:104800000D490748FDF71CFF02210548FDF76CFE26
:1048100001210348FDF768FE10BD00000064004060
:10482000101300202E2E5C5372635C4253505F4382
:10483000414E2E6300000000E8120020A812002064
:10484000C81200208412002008B500BF002000908C
:104850001A48006840F400101849086008460068CB
:1048600000F40010009000BF00BF00BF00200090C7
:104870000846006840F4800008600846006800F4BC
:104880008000009000BF00BF002205211020FEF72D
:1048900008FF1020FEF7F8FE012211463A20FEF72D
:1048A00000FF3A20FEF7F0FE002211462520FEF719
:1048B000F8FE2520FEF7E8FE08BD00003038024073
:1048C00000B59DB000201C901CA802F01EFC2549DC
:1048D00008601422244917A8FBF713FD002117A82C
:1048E00002F021FC2149086014221F49143112A84A
:1048F000FBF707FD002112A802F015FC1C49086017
:104900001422194928310DA8FBF7FBFC00210DA842
:1049100002F009FC17490860142213493C3108A829
:10492000FBF7EFFC002108A802F0FDFB124908602C
:1049300014220D49503103A8FBF7E3FC002103A822
:1049400002F0F1FB0D4908600749643103C9CDE964
:104950000101002101A802F0CFFB094908601DB048
:1049600000BD000084000020DC8600086C000020F0
:104970007000002074000020780000207C000020DF
:104980008000002000B587B000BF00200190914852
:10499000006840F002008F4908600846006800F097
:1049A0000200019000BF00BF00BF00200190084638
:1049B000006840F0040008600846006800F0040049
:1049C000019000BF00BF00BF0020019008460068B2
:1049D00040F0080008600846006800F008000190F8
:1049E00000BF00BF00BF002001900846006840F0F3
:1049F000800008600846006800F08000019000BF59
:104A000000BF00BF002001900846006840F0100081
:104A100008600846006800F01000019000BF00BF69
:104A200000BF002001900846006840F020000860A8
:104A30000846006800F02000019000BF00BF00BFE2
:104A4000002001900846006840F480700860084625
:104A5000006800F48070019000BF00BF00BF00201C
:104A600001900846006840F00100086008460068B0
:104A700000F00100019000BF00BF00BF00200190C6
:104A80000846006840F0400008600846006800F0F2
:104A90004000019000BF00BF0022C9144E48FEF73D
:104AA0002BFD00224FF480414C48FEF725FD0122EA
:104AB0003C214B48FEF720FD012203214748FEF729
:104AC0001BFD4FF400600290012003900020049031
:104AD000059002A94048FEF7F5FB4FF48040029094
:104AE0000120039000200490059002A93B48FEF7A6
:104AF000E9FB3C20029001200390002004900590E7
:104B000002A93748FEF7DEFB032002900120039044
:104B100000200490059002A93048FEF7D3FB302016
:104B20000290304803900020049002A92A48FEF722
:104B3000C9FB002211460A20FEF7B3FD0A20FEF74A
:104B4000A3FD002211461720FEF7ABFD1720FEF74C
:104B50009BFD00224FF482511F48FEF7CDFC4FF41D
:104B6000825002900120039000200490059002A939
:104B70001948FEF7A7FB0420029000200390049040
:104B800002A91948FEF79EFB012002900020039025
:104B9000049002A91548FEF795FB4FF400700290AF
:104BA00001200390022004900020059002A91048E3
:104BB000FEF788FB4FF480600290012003900220F2
:104BC00004900020059002A90448FEF77BFB07B083
:104BD00000BD0000303802400010024000140240C6
:104BE000001C0240000011100008024000040240B6
:104BF0000020024000B58FB03248334908600020E1
:104C00004860002130488160C1600161FFF781F98F
:104C100018B14B212DA001F0B7FC2B48FFF75DFB2D
:104C200018B1502129A001F0AFFC07200A90002004
:104C30000B900AA92448FFF7B6FB18B1572123A00F
:104C400001F0A2FC00200890099008A91E48FFF777
:104C50002FF918B15E211DA001F096FC6020019093
:104C60000020029003900590002201A91648FFF74A
:104C7000B0FA18B1672115A001F086FC042201A941
:104C80001148FFF7A6FA18B16C2110A001F07CFCC6
:104C9000082201A90C48FFF79CFA18B171210BA05A
:104CA00001F072FC0C2201A90748FFF792FA18B133
:104CB000762106A001F068FC0348FFF749FA0FB01F
:104CC00000BD000000040040381300202E2E5C536D
:104CD00072635C4253505F54494D2E6300000000E4
:104CE00000B589B024482549086029204860002182
:104CF000224881606421C16000210161FFF7EDFA63
:104D000018B189211EA001F03FFC002007900890F7
:104D100007A91A48FFF7CCF818B1902118A001F0A4
:104D200033FC60200090002001900290049000224B
:104D300069461248FFF74DFA18B1992110A001F009
:104D400023FC042269460D48FFF743FA18B19E215F
:104D50000BA001F019FC0948FFF7FAF90748FFF723
:104D60000DF900210548FFF7EFFA04210348FFF78A
:104D7000EBFA09B000BD00000008004074130020E9
:104D80002E2E5C5372635C4253505F54494D2E6328
:104D90000000000010B5124812490860124848602F
:104DA000002110488160C16001610421416100213E
:104DB0008161C161FFF74CFB18B15E210BA001F0CE
:104DC000E3FB08480068C06840F010000549096826
:104DD000C86064220A490348FFF724FC10BD0000A4
:104DE00000100140D8130020A08601002E2E5C5335
:104DF00072635C4253505F55534152542E6300001E
:104E00001815002010B5FBF713FEFBF707FE10BDC9
:104E100000BFFEE710B5002202210448FEF76CFB3C
:104E2000012211460148FEF767FB10BD0014024045
:104E300010B501224FF482510648FEF75DFB0122B6
:104E400002210548FEF758FB002201210248FEF727
:104E500053FB10BD001002400014024010B52DEDB0
:104E6000068B5448407803283FD101224FF48251E9
:104E70005148FEF741FB4F48B0F90400002802DD1D
:104E8000FFF7D6FF06E04B48B0F90400002801DA2E
:104E9000FFF7C0FF4748B0F90440002C01DB214672
:104EA00000E061420846FBF7D8FB41EC1A0B9FED8E
:104EB000430B53EC102BFBF761FB41EC190B9FEDFF
:104EC000410B53EC102BFBF7E4FA41EC180BFBF70A
:104ED000F4FB3E490880084600883D49096848635C
:104EE0003A4801883A48006881633A4800780128C6
:104EF00029D101224FF482512F48FEF7FDFA3220CA
:104F00003349096848633221314800688163324877
:104F10000068324909680844B0F5FA6F47D90020A3
:104F20002E4908602C49086000224FF48251224823
:104F3000FEF7E2FA00202749087029480078401C53
:104F40002749087033E027480078012829D1012239
:104F50004FF482511848FEF7CFFAFFF75BFF32207B
:104F60001B490968486332211948006881631E485B
:104F7000008801281BD11D480088012817D1002076
:104F80001849087000224FF482510B48FEF7B4FA1A
:104F900001201749087017480078401C154908700F
:104FA00005E000224FF482510348FEF7A5FABDEC5C
:104FB000068B10BD6C1200200010024052B81E85F6
:104FC000EB511D4000000000000059400A0600207F
:104FD000741300200606002010000020140000209A
:104FE000A2050020070600200E0600201006002063
:104FF000A4050020A30500207047000002480068B7
:10500000C0F30220704700000CED00E010B500284E
:1050100007DA0A07140E054A00F00F031B1FD454C9
:1050200003E00A07130E024A135410BD18ED00E006
:1050300000E400E001694161C1680161016800EEBE
:10504000101A416800EE901A30EE600A10EE101A45
:10505000C160816800EE101AC16800EE901A30EE4F
:10506000200A10EE101A816090F8481000297CD1B7
:10507000816900EE101AC16800EE901A20EE200A35
:1050800010EE101A4162C16900EE101A016900EEBB
:10509000901A20EE200A10EE101A8162C16800EE0C
:1050A000101A816800EE901A70EE600A016A00EE34
:1050B000101A20EE800A10EE101AC162416A00EE4A
:1050C000101A016B00EE901AF1EE600AB4EEE00ADD
:1050D000F1EE10FA08D8016B00EE101AB1EE400A9A
:1050E00010EE101A41620CE0416A00EE101A016BDA
:1050F00000EE901AB4EEE00AF1EE10FA01DB016B5B
:105100004162816A00EE101A416B00EE901AF1EED6
:10511000600AB4EEE00AF1EE10FA08D8416B00EE36
:10512000101AB1EE400A10EE101A81620CE0816A8A
:1051300000EE101A416B00EE901AB4EEE00AF1EEA8
:1051400010FA01DB416B8162C16A00EE101A816BBB
:1051500000EE901AF1EE600AB4EEE00AF1EE10FAF9
:105160000AD8816B00EE101A00E023E0B1EE400A8D
:1051700010EE101AC1620CE0C16A00EE101A816BC9
:1051800000EE901AB4EEE00AF1EE10FA01DB816B4A
:10519000C162416A00EE101A816A00EE901A70EE48
:1051A000200AC16A00EE101A30EE800A10EE101AC2
:1051B000C163E8E190F8481001292BD1C16800EEE5
:1051C000101A016900EE901A70EE600A816900EE13
:1051D000101A20EE800AC16901EE101AC16800EEB3
:1051E000901A01EE200A00EE901A016901EE101AE1
:1051F000F0EE001A41EEC10A416901EE101A30EEDC
:10520000811A016A00EE901A00EE810A10EE101A5F
:10521000C163B8E190F8481002297DD1016900EE20
:10522000101AC16800EE901A30EE600AE84981ED6C
:10523000000AC168E74A1160E54991ED000AE649B4
:10524000D1ED000AB4EEE00AF1EE10FA05DDE04916
:1052500091ED000AE04981ED000ADE4991ED000A76
:10526000DE49D1ED000AB4EEE00AF1EE10FA05DDF8
:10527000D84991ED000AD94981ED000AD44991ED50
:10528000000AD749D1ED000AB4EEE00AF1EE10FAB7
:1052900005D2CF4991ED000AD14981ED000ACD49EF
:1052A00091ED000ACF49D1ED000AB4EEE00AF1EE2B
:1052B00010FA05D2C74991ED000ACA4981ED000AEA
:1052C000816900EE101AC849D1ED000A30EE200ABB
:1052D00010EE101A8161C16900EE101AC349D1EDB8
:1052E000000A30EE200A10EE101AC161016A00EEC9
:1052F000101ABF49D1ED000A30EE200A10EE101A44
:105300000162816900EE101AC16800EE901A20EE69
:10531000200A10EE101A00E095E04162C16900EE2B
:10532000101A016900EE901A20EE200A10EE101AF1
:105330008162C16800EE101A816800EE901A70EE6A
:10534000600A016A00EE101A20EE800A10EE101AB0
:10535000C162416A00EE101A016B00EE901AF1EE84
:10536000600AB4EEE00AF1EE10FA08D8016B00EE24
:10537000101AB1EE400A10EE101A41620CE0416AB8
:1053800000EE101A016B00EE901AB4EEE00AF1EE96
:1053900010FA01DB016B4162816A00EE101A416B69
:1053A00000EE901AF1EE600AB4EEE00AF1EE10FAA7
:1053B00008D8416B00EE101AB1EE400A10EE101A38
:1053C00081620CE0816A00EE101A416B00EE901AC7
:1053D000B4EEE00AF1EE10FA01DB416B8162C16AC2
:1053E00000EE101A816B00EE901AF1EE600AB4EE36
:1053F000E00AF1EE10FA08D8816B00EE101AB1EE57
:10540000400A10EE101AC1620CE0C16A00EE101AD8
:10541000816B00EE901AB4EEE00AF1EE10FA01DBB7
:10542000816BC162416A00EE101A816A00EE901A27
:1054300070EE200AC16A00EE101A30EE800A10EEFB
:10544000101AC1639FE0624991ED000A6249D1EDF3
:10545000000AB4EEE00AF1EE10FA05DD5C4991EDC8
:10546000000A5D4981ED000A5A4991ED000A5B4945
:10547000D1ED000AB4EEE00AF1EE10FA05DD55496F
:1054800091ED000A554981ED000A514991ED000A5C
:105490005349D1ED000AB4EEE00AF1EE10FA05D25C
:1054A0004B4991ED000A4E4981ED000A494991EDC1
:1054B000000A4C49D1ED000AB4EEE00AF1EE10FA10
:1054C00005D2444991ED000A464981ED000A016880
:1054D00000EE101AB2EE041AC0EE010AC16800EE26
:1054E000101AF4EEC00AF1EE10FA05D29FED410A4F
:1054F00010EE101A816019E0C16800EE101A016800
:1055000000EE901A80EE201AB7EE000A30EE410A43
:1055100010EE101A4164816800EE101A416C00EE22
:10552000901A20EE200A10EE101A8160C16800EE79
:10553000101AB5EEC00AF1EE10FA04D29FED2D0A52
:1055400010EE101AC160816900EE101AC16800EEF9
:10555000901A20EE200AC16900EE901A016901EE4E
:10556000101A00EE810AC16800EE901A816801EEFF
:10557000101A30EEC11A016A00EE901A00EE810A8C
:1055800010EE101AC163C16B00EE101A016C00EE30
:10559000901AF1EE600AB4EEE00AF1EE10FA08D8C3
:1055A000016C00EE101AB1EE400A10EE101AC16341
:1055B0000CE0C16B00EE101A016C00EE901AB4EE14
:1055C000E00AF1EE10FA01DB016CC16370470000E4
:1055D0005C05002060050020700500206C0500209F
:1055E00078050020740500207C050020800500203F
:1055F00084050020000000009FED0C0A10EE101A38
:1056000081609FED0A0A10EE101AC1609FED070A33
:1056100010EE101A01619FED050A10EE101A41619B
:105620009FED020A10EE101AC163704700000000DF
:1056300010B52DED028B0446B0EE408AF0EE608A84
:1056400018EE100A206018EE900A6060D4F8491035
:1056500020468847E06B00EE100ABDEC028B10BDBF
:1056600010B5044604B910BD2078617840EA0120E5
:10567000C0F30A00314948806078C010A17840EA40
:105680004110C0F30A002D498880A0788011E1788C
:1056900040EA8100217940EA8120C0F30A002749CD
:1056A000C88020794010617940EAC110C0F30A0037
:1056B0002249088108464088A0F5806000B24880F1
:1056C00008468088A0F5806000B288800846C088BF
:1056D000A0F5806000B2C88008460089A0F580600F
:1056E00000B2088160790011800808706079C0F309
:1056F00001104870A079E17940EA012000B20F4919
:105700008881207A617A40EA012001B20B48C18188
:10571000A07AE17A40EA012001B208480182217BA7
:105720000175617B4175A07BE17B40EA0120034963
:10573000488102F0B1F800BF95E700006C1200202C
:1057400000200349888100210148C18101827047FE
:105750005812002001218140024A12688A430149FF
:105760000A6070471C00002001218140024A126833
:105770001143014A116070471C00002008B502F077
:10578000D1FD009000BF00F00FF80121684602F043
:10579000F7F9F8E700B500200249087000F06CFE48
:1057A00000BD00000000002010B5FEF7ABFF00F0C8
:1057B00085FEFCF7F1FCFCF7D7FB10BD08B502F045
:1057C000B1FD009000BF00F099FA10B501F0A3FC04
:1057D00010BD000010B592B000BF002000902F480F
:1057E000006840F080502D4908600846006800F0CD
:1057F0008050009000BF00BF00BF002000902848EC
:10580000006840F44040264908600846006800F4FB
:105810004040009000BF00BF0120069000040790A8
:1058200002200C9041050D910C210E914FF4A871AE
:105830000F91022110910421119106A8FEF7E4F8BE
:1058400018B1C72117A000F09FFE0F200190022081
:105850000290002003904FF4A05004904FF4805029
:105860000590052101A8FDF76FFF18B1D5210DA006
:1058700000F08AFEFEF74AF84FF47A71B0FBF1F4BB
:105880002046FEF7F9FA0420FEF7E2FA00220F2183
:10589000501EFDF706FF12B010BD00004038024058
:1058A000007000402E2E2F5372632F6D61696E2E93
:1058B000630000001448006840F47000124908605A
:1058C0001248006840F001001049086000200F49AC
:1058D000083108600D4800680D4908400B49086010
:1058E0000C48091D0860081F006820F48020091F6B
:1058F0000860002005490C3108604FF00060024943
:10590000803908607047000088ED00E000380240F0
:10591000FFFFF6FE1030002410B50248FEF74DFBE5
:1059200010BD00007C150020002202682C4B98421C
:105930000ED0B0F1804F0BD02A4B984208D02A4BA2
:10594000984205D0294B984202D0294B984201D168
:10595000012300E000231BB122F070024B681A43C0
:105960001F4B984220D0B0F1804F1DD01D4B984264
:105970001AD01D4B984217D01C4B984214D01C4B88
:10598000984211D01B4B98420ED01B4B98420BD023
:105990001A4B984208D01A4B984205D0194B98429E
:1059A00002D0194B984201D1012300E000231BB122
:1059B00022F44072CB681A4302608B68C3620B68A2
:1059C0008362074B984202D0094B984201D10123D0
:1059D00000E000230BB10B690363012343617047AF
:1059E000000001400004004000080040000C00409E
:1059F00000040140004001400044014000480140D3
:105A000000180040001C00400020004030B500237A
:105A1000012404FA01F3046A9C430462046A02FA52
:105A200001F52C43046230BD30B50C46002181687D
:105A300021F47F4142EA032525432943816030BD9B
:105A400030B5002400220023056A25F00105056217
:105A5000026A4368846924F0700424F003040D682A
:105A60002C4322F002028D682A430F4DA84202D037
:105A70000E4DA84201D1012500E000256DB122F0B4
:105A80000802CD682A4322F0040223F4807323F431
:105A900000734D692B438D692B43436084614D68CE
:105AA0004563026230BD0000000001400004014077
:105AB00030B5002400220023056A25F01005056298
:105AC000026A4368846924F4E04424F440740D6855
:105AD00044EA052422F020028D6842EA0512104DA6
