:020000040800F2
:10000000E84500207D02000867200008111D000857
:100010006520000889030008052900080000000089
:10002000000000000000000000000000C101000806
:100030007D04000800000000150200088920000867
:10004000970200089702000897020008970200082C
:10005000970200089702000897020008970200081C
:10006000970200089702000897020008970200080C
:1000700097020008970200089702000897020008FC
:10008000CD030008970200089702000897020008B5
:1000900097020008970200089702000897020008DC
:1000A00097020008970200089702000897020008CC
:1000B00081210008970200089702000897020008B3
:1000C00097020008970200089702000897020008AC
:1000D0009702000897020008F92800089702000814
:1000E000970200089702000897020008970200088C
:1000F000970200089702000897020008970200087C
:10010000970200089702000897020008970200086B
:10011000970200089702000897020008970200085B
:10012000970200089702000897020008970200084B
:10013000970200089702000897020008970200083B
:10014000970200089702000897020008970200082B
:10015000970200089702000897020008970200081B
:10016000970200089702000897020008970200080B
:10017000970200089702000897020008000000009C
:1001800097020008970200089702000897020008EB
:1001900097020008970200089702000897020008DB
:1001A000000000000000000097020008DFF80CD0FB
:1001B00000F0D8F80048004759290008E845002019
:1001C0002B4B19680868B0E8F04F80F30988BFF33B
:1001D0006F8F4FF0000080F311887047000000001F
:1001E00006480068006880F3088862B661B6BFF30D
:1001F0004F8FBFF36F8F00DF00BF00BF08ED00E03F
:10020000DFF80C00016841F470010160704700BF25
:1002100088ED00E0EFF30980BFF36F8F144B1A688D
:100220001EF0100F08BF20ED108A20E9F04F10607B
:1002300008B44FF0500080F31188BFF34F8FBFF325
:100240006F8F02F025FF4FF0000080F3118808BC8B
:1002500019680868B0E8F04F1EF0100F08BFB0EC46
:10026000108A80F30988BFF36F8F704700BF00BF0B
:1002700048000020EFF305807047000006488047E3
:1002800006480047FEE7FEE7FEE7FEE7FEE7FEE77B
:10029000FEE7FEE7FEE7FEE72D210008AD010008BE
:1002A0002DE9F05F0546002092469B4688460646AB
:1002B000814640241BE0284641464746224600F03E
:1002C00041F853465A46C01A914110D31146184678
:1002D000224600F028F82D1A67EB01084F46224607
:1002E0000120002100F01FF817EB00094E41201EED
:1002F000A4F10104DFDC484631462A464346BDE806
:10030000F09F40EA01039B0703D009E008C9121FD0
:1003100008C0042AFAD203E011F8013B00F8013BBF
:10032000521EF9D27047202A04DB203A00FA02F16B
:10033000002070479140C2F1200320FA03F31943D3
:1003400090407047202A04DB203A21FA02F0002175
:10035000704721FA02F3D040C2F1200291400843D5
:1003600019467047064C074D06E0E06840F001036F
:1003700094E8070098471034AC42F6D3FFF71AFF11
:100380006434000884340008FEE7000008B502F079
:100390006DFF0C4C009000210B4800F00BF9208001
:1003A000094800F019F960800121074800F067F85A
:1003B0000221054800F063F80121684602F0E6FDDD
:1003C000E9E7000008000020AC000020014800F030
:1003D0001DBA00006002002001681823CAB2103A5A
:1003E000B2FBF3F2054B6FF30901032A9B5CC36573
:1003F00000D9091D81650846704700002C340008AB
:1004000010B5014600208B698A6A4FF0C07453B161
:10041000B3F5005F15D072B1012A0CD0022A0AD0C0
:10042000032A09D104E01AB1012A06D0022A03D115
:10043000C96AC90100D5012010BDC96AA142FAD01C
:1004400010BD002AF7D0012AF2D0022AF3D0032AE5
:10045000F3D010BD30B50468256825F480252560EB
:10046000046863608368402B036803D09960006868
:10047000C26030BD9A600068C16030BD704790F8BE
:100480002020012A09D090F82020022A05D0416AB4
:1004900041F48021416201207047006842690A43AB
:1004A000426100207047000010B590F82020012A1A
:1004B00009D090F82020022A05D0416A41F4802119
:1004C0004162012010BD3A48D0F8002242F00102FA
:1004D000C0F80022D0F8002222F47C52C0F800229A
:1004E000D0F800224B6A42EA0322C0F800220B7DBA
:1004F00001229A40D0F81C329343C0F81C32CB69D9
:10050000B3B9D0F80C329343C0F80C328C894B68E5
:1005100064F31F434C6900EBC404C4F840320C89F7
:100520000B6864F31F434C6900EBC404C4F8443205
:10053000CB69012B16D1D0F80C321343C0F80C3222
:100540000C884B6864F31F434C6900EBC404C4F887
:1005500040320C89CB6864F31F434C6900EBC40440
:10056000C4F844328B69002BD0F804320ED0134308
:10057000C0F804320B69002BD0F8143208D01343B2
:10058000C0F81432096A012904D008E09343EFE768
:100590009343F5E7D0F81C121143C0F81C12D0F8B1
:1005A000001221F00101C0F80012002010BD00006F
:1005B0000064004090F820300022012B03D090F816
:1005C0002030022B04D1006821B1006900F0030241
:1005D00010467047C068F9E70146002091F82020D6
:1005E000012A03D091F82020022A0CD109688A68D8
:1005F000520100D501208A68120100D5401C89688B
:10060000C90000D5401C704770B5040003D094F8B1
:10061000200010B104E0012070BD204600F082F8F7
:100620002068016821F00201016000F04FFB0546DF
:10063000052604E000F04AFB401B0A2811D8206878
:1006400040688007F6D42068016841F0010101602C
:1006500000F03CFB05460BE000F038FB401B0A288D
:1006600006D9606A40F40030606284F82060D2E706
:1006700020684068C007EFD0207E0128206801680C
:100680003DD021F080010160607E01282068016872
:1006900038D021F040010160A07E01282068016867
:1006A00033D021F020010160E07E0128206801683C
:1006B0002ED041F010010160207F012820680168E0
:1006C00029D021F008010160607F012820680168BD
:1006D00024D021F004010160D4E902010843D4E9E7
:1006E0000412114308436168491E08432168C86128
:1006F00000206062012084F82000002070BD41F0DD
:100700008001C0E741F04001C5E741F02001CAE7A0
:1007100021F01001CFE741F00801D4E741F00401D6
:10072000D9E7000000B50068164987B0884227D194
:1007300015480021026842F000720260006800F073
:10074000007005904FF4407000900220CDE9010147
:10075000032003900920049069460C4800F0CCF96E
:1007600000220521132000F00BFC132000F0FCFBFD
:1007700000220521142000F003FC142000F0F4FBFB
:1007800007B000BD00640040403802400004024051
:1007900070B5044690F82000012804D0606A40F447
:1007A0000020606218E0022084F8200020680168C0
:1007B00021F00101016000F089FA05460EE000BF5A
:1007C00000F084FA401B0A2808D9606A40F400301F
:1007D0006062052084F82000012070BD2068406818
:1007E000C007EDD1606270BD90F83510022903D0CA
:1007F0008021416501207047052180F8351000688F
:10080000016821F001010160002070472DE9F843E3
:1008100004464FF00009CDF8009063484FF416519C
:10082000A56D0068B0FBF1F72E6894F85C10082005
:1008300000FA01F131420FD021680A6852070BD546
:100840000A6822F004020A6094F85C108840A860EC
:10085000606D40F00100606594F85C104FF0010895
:1008600008FA01F0304208D021684969090604D528
:10087000A860606D40F00200606594F85C10042090
:100880008840304208D021680968890704D5A860EB
:10089000606D40F00400606594F85C1010208840A2
:1008A000304218D021680968090714D5A86020686B
:1008B0000168490304D50068000308D5A16C07E06E
:1008C0000168C90503D4016821F008010160216CA9
:1008D00009B12046884794F85C10202088403042B7
:1008E00031D021680968C9062DD5A86094F8350073
:1008F00005282068016806D0490347D50068000331
:100900001DD4616C1CE021F0160101602068416972
:1009100021F080014161206C08B9A06C20B12068F1
:10092000016821F00801016094F85C103F208840C4
:10093000A86084F8349084F83580216D1FE0E16B65
:1009400009B120468847606D00282BD0606DC00734
:1009500014D0052084F835002068016821F00101D9
:1009600001600098401C0090B84203D820680068DD
:10097000C007F6D184F8349084F83580E16C002902
:1009800010D001B02046BDE8F04308470168C90512
:10099000D5D4016821F01001016084F8349084F806
:1009A0003580CCE7BDE8F883200000202DE9F04138
:1009B000044600F08BF906465CB1002584F83450FB
:1009C000022084F835002068016821F001010160EF
:1009D0000DE00120BDE8F08100F078F9801B0528CA
:1009E00005D920206065032084F83500F2E72068EF
:1009F0000068C007F0D12268116820480140D4E99E
:100A000001031843D4E90336334318436369184399
:100A1000A3691843E3691843236A18430843616ACA
:100A2000042903D1D4E90B1319430843106020684B
:100A30004069666A20F0070130460E43012704280A
:100A40000CD1A06A0643E06A40B12046FFF7D8FC0B
:100A500020B14020606584F83570BAE720684661AF
:100A60002046FFF7B9FC94F85C203F21914081605B
:100A7000656584F835700020ACE700003F8010F019
:100A80002DE9F0410446866D90F8340000250128D8
:100A90000DD0012084F8340094F835700020012F27
:100AA00007D084F8340002252846BDE8F0810220F2
:100AB000FBE7022784F8357060652046FFF7CAFC23
:100AC00094F85C103F208840B0602068016841F0D5
:100AD000160101602068416941F080014161206C8C
:100AE00020B12068016841F00801016020680168B8
:100AF00041F001010160D7E72DE9F84FDFF890B12F
:100B000000224FF001084FF0030A4FF00F090BF1DC
:100B1000040E00BF0B6808FA02F42340A3426ED112
:100B20004D68022D01D0122D0ED1D50800EB850C99
:100B3000DCF820505607F70E09FA07F6B5430E69A0
:100B4000BE402E43CCF82060066855000F790AFAA3
:100B500005FC07F0030726EA0C06AF4037430760A1
:100B60004E68012E05D0022E03D0112E01D0122E78
:100B70000ED18768CE6827EA0C07AE403E438660F8
:100B80004668A6430C79C4F300149440344344608F
:100B9000C4688E6824EA0C04AE402643C6604C68E4
:100BA000E4006FD53B4C256845F4804525602468FA
:100BB00022F0030504F480440094374C2E19D6F833
:100BC000084895072F0F09FA07F5AC43334DA842A3
:100BD00001D100252EE0324DA84201D1012529E0A6
:100BE000304DA84201D1022524E02F4DA84201D169
:100BF00003251FE02D4DA84202D104251AE041E053
:100C00002B4DA84201D1052514E02A4DA84201D15F
:100C100006250FE0284DA84201D107250AE0274DFF
:100C2000A84201D1082505E0254DA84201D109259A
:100C300000E00A25BD402543C6F80858DBF800400F
:100C40005D464E689C43F60300D51C432C60DEF8DD
:100C5000004075464E689C43B60300D51C432C608B
:100C60000B4D08352C684E689C43F60200D51C439A
:100C70002C60074D0C352C684E689C43B60200D59D
:100C80001C432C60521C102AFFF444AFBDE8F88FBF
:100C9000003C014044380240003001400000024066
:100CA0000004024000080240000C02400010024014
:100CB0000014024000180240001C024000200240C4
:100CC0000024024042694A404261704701488068FE
:100CD000704700001400002070B5040004D094F8A0
:100CE0003D00002510B106E0012070BD84F83C50A5
:100CF000204600F075F8242084F83D002068016843
:100D000021F00101016000F02BFA33492268B0FBA9
:100D1000F1F15160314A6368934206D94FF49673FA
:100D200059434FF47A73B1FBF3F12368491C1962FC
:100D3000616891420BD84900B0FBF1F2C2F30B029B
:100D4000042A01D2042019E0B0FBF1F016E0A368F8
:100D50009BB301EBC10202EB0112B0FBF2F242F4D1
:100D60008042120530D04BB301EBC10202EB0111FE
:100D7000B0FBF1F040F4804040F400402168C861CD
:100D8000D4E90701084321680860D4E90310084347
:100D900021688860D4E9050108432168C86020689B
:100DA000016841F0010101602564202084F83D00C4
:100DB000256384F83E50002070BD00E006E001EBA2
:100DC0004102B0FBF2F2CCE70120D7E701EB410191
:100DD000B0FBF1F0D0E7000040420F00A086010018
:100DE00000B500680E4987B0884216D1C020009037
:100DF000122001900120029003200390042004900F
:100E000069460848FFF778FE0748016841F4001179
:100E10000160006800F40010059007B000BD0000FC
:100E200000540040000402404038024002488168FB
:100E30000278114481607047140000200B4810B5FF
:100E4000016841F400710160016841F48061016052
:100E5000016841F480710160032000F0B1F80020C6
:100E600000F006F800F03EF8002010BD003C024003
:100E700010B5014688B000221C2000F081F81C202B
:100E800000F072F814480024016841F0010101608B
:100E9000006805A900F001000690684600F03AF9E4
:100EA00000F05EF90D494000B0FBF1F10C484FF045
:100EB0008042491E026040F2E732C0E90324C0E9E3
:100EC000011400F0DDFB10B1012008B010BD044892
:100ED00000F006FCF9E700004038024040420F00F5
:100EE000C00200201F4808B5016841F4804101603C
:100EF000006800F4804000901A48001F016841F02B
:100F000080510160006800F080500090032000F0E4
:100F100057F8002211466FF00B0000F031F8002264
:100F200011466FF00A0000F02BF8002211466FF016
:100F3000090000F025F800221146501F00F020F8AB
:100F400000221146101F00F01BF800220F21901EF6
:100F500000F016F800220F21BDE80840501E00F0F6
:100F60000FB800004438024000F01F0201219140F8
:100F70004009800000F1E020C0F800117047000037
:100F8000F0B40E4B1B680C46C3F30223C3F10705F4
:100F9000042D00D90425191D072901D2002300E0E2
:100FA000DB1E012606FA05F1491E214099409E40AC
:100FB000761E16403143F0BC01F056B80CED00E04F
:100FC000064900F0070208684FF6FF03184040EAA0
:100FD0000220034A10430860704700000CED00E057
:100FE0000000FA052DE9F0470E46050065D0DFF850
:100FF0001481D8F80000F7B200F00F00B04207D219
:1010000088F80070D8F8000000F00F00B04254D10A
:1010100028683D4C810712D5400703D5206840F46D
:10102000E05020602878000703D5206840F4604035
:1010300020602068A96820F0F0000843206028782C
:10104000C0072DD0304968680839012812D002281D
:1010500013D0032811D00968890700292DDA2168E7
:1010600021F0030101432160FFF730FE814641F288
:10107000883A0EE009688903EFE709688901ECE71F
:10108000FFF724FEA0EB0901514502D90320BDE87A
:10109000F0872068696800F00C00B0EB810FEFD199
:1010A000D8F80010404601F00F01B14207D907708F
:1010B000006800F00F00B04201D00120E7E7287877
:1010C000400705D52068E96820F4E0500843206017
:1010D0002878000706D52068296920F4604040EA96
:1010E000C100206000F05CF82168084AC1F30311D8
:1010F000515CC840064908600020FFF7B9FE002097
:10110000C5E70000003C02400838024034340008C3
:10111000200000200F2202600C4A136803F0030332
:101120004360136803F0F0038360136803F4E05333
:10113000C36012684FF4E05303EAD202026104482C
:10114000006800F00F000860704700000838024097
:10115000003C024001480068704700002000002069
:101160000448054900680968044AC1F38221515CBA
:10117000C84070472000002008380240443400086E
:101180000448054900680968044AC1F34231515CCA
:10119000C84070472000002008380240443400084E
:1011A000154810B5006810F00C02144813D014490B
:1011B000042A0FD0082A0ED10F4C241F226823685E
:1011C00002F03F025B0207D52068C0F38810A0FB45
:1011D000010106E0084610BD2168C1F38811A1FB9A
:1011E00000010023FFF75CF82168C1F30141491CAD
:1011F0004900B0FBF1F010BD083802400024F400B3
:10120000001BB7002DE9F84F050076D02878DFF8ED
:10121000F8B2BE4CC00749D0DBF800105846C1F305
:101220008101012908D00068C0F3810002280AD199
:10123000201D0068400206D52068800336D5686806
:101240000028E2D032E06868B0F5803F10D0B0F5F9
:10125000A02F206810D020F480302060206820F477
:10126000802020606868A0B1FFF730FD06460CE0E2
:10127000206840F48030F4E740F480202060F7E7F5
:10128000FFF724FD801B642873D820688003F7D5FE
:101290000CE0FFF71BFD064605E000BFFFF716FD5B
:1012A000801B6428F0D820688003F7D42878DFF802
:1012B000608280074FF000093ED5DBF800105846E9
:1012C00011F00C0F09D00068C0F3810002280BD187
:1012D0008D48001F0068400206D42068800715D59D
:1012E000E868012809D111E0E868B8B10120C8F820
:1012F0000000FFF7EBFC064605E002E1FFF7E6FC25
:10130000801B0228C0D820688007F7D5206829698B
:1013100020F0F80040EAC10020600DE0C8F800901D
:10132000FFF7D4FC064604E0FFF7D0FC801B022840
:101330001FD820688007F7D42878000722D5724E7E
:10134000744869696C3671B101210160FFF7BEFC18
:10135000074604E0FFF7BAFCC01B022809D8306832
:101360008007F7D50EE0C0F80090FFF7AFFC074606
:1013700005E083E0FFF7AAFCC01B02287ED8306896
:101380008007F7D42878400768D5DFF87CA10027CC
:101390000AF1380ADAF80000C0000BD4DAF80010BD
:1013A00041F08051CAF80010DAF80000012700F07F
:1013B00080500090584E3068C00510D4306840F41A
:1013C00080703060FFF782FC009005E0FFF77EFC44
:1013D0000099401A022851D83068C005F6D54A4E07
:1013E000A868683601280FD00528306810D020F092
:1013F00001003060306820F004003060A868B8B1A7
:10140000FFF764FC00900FE0306840F00100F4E763
:1014100040F004003060F7E7FFF758FC0099411AEC
:1014200041F28830814264D830688007F4D50EE0FC
:10143000FFF74CFC009007E0FFF748FC0099411AC9
:1014400041F28830814254D830688007F4D42FB1FB
:10145000DAF8001021F08051CAF80010A869C0B372
:10146000DBF80010C1F3810102294AD00228484666
:1014700007D0C8F86000FFF729FC00E039E0054616
:101480003AE04746C8F86000FFF720FC064604E053
:10149000FFF71CFC801B02282BD820688001F7D4A2
:1014A000D5E907010843A96A1C4A490802EB014132
:1014B0006A6A41EA8211084395F82C1040EA0161FA
:1014C0001148001F016001203866FFF7FFFB054649
:1014D00005E014E0FFF7FAFB401B022809D820685A
:1014E0008001F7D50BE000BFFFF7F0FB401B02289F
:1014F00002D90320BDE8F88F20688001F4D40020D1
:10150000F8E70120F6E70000083802400038024002
:1015100000004742800E4742007000400000FFFF7D
:1015200070B5040005D00025A56294F8510010B1F3
:1015300006E0012070BD84F85050204600F030F8DD
:10154000022084F851002068016821F04001016008
:10155000D4E901010843D4E9031211430843616946
:101560000843218B01F400710843E1690843216AB3
:101570000843A16A084321680860A069042101EAC0
:101580001040616A0843216848602068C16921F4FD
:101590000061C1616565012084F85100002070BDC3
:1015A00000B500680E4987B0884216D10D48002169
:1015B000026842F400520260006800F40050059096
:1015C000642000900220CDE9010103200390052052
:1015D000049069460448FFF78FFA07B000BD000089
:1015E0000034014044380240001002404FF0E02136
:1015F0000428086903D020F004000861704740F017
:101600000400FAE710B5401EB0F1807F01D301203D
:1016100010BD4FF0E02460610F21601700F024FD41
:101620000020A06107202061002010BD7047704796
:1016300030B590F83820012A20D0012280F83820D7
:10164000022380F8393003685C6824F070045C6021
:1016500003685C680D682C435C6003689C6824F038
:1016600080049C6003689C6849680C439C6080F817
:101670003920002180F83810084630BD022030BDE6
:1016800010B5040003D094F8390010B107E0012030
:1016900010BD002084F83800204600F00DF802202C
:1016A00084F83900211D206800F070FD012084F8C5
:1016B0003900002010BD000008B5006806498842C6
:1016C00008D10648016841F002010160006800F09D
:1016D0000200009008BD00000004004040380240B5
:1016E0000168CA6842F00102CA600068016841F0FE
:1016F0000101016000207047704770B50446006822
:1017000001694FF00005C943890715D4C168C94371
:10171000890711D4E91E01610120207620688069C3
:101720008007204602D0FFF7E7FF04E000F0BCF896
:10173000204600F03EF9257620680169C943490733
:1017400017D4C168C943490713D46FF0040101617C
:10175000022020762068806910F4407F204602D065
:10176000FFF7CAFF04E000F09FF8204600F021F9DF
:10177000257620680169C943090716D4C168C943A1
:10178000090712D46FF00801016104202076206857
:10179000C0698007204602D0FFF7AEFF04E000F0EA
:1017A00083F8204600F005F9257620680169C943D1
:1017B000C90617D4C168C943C90613D46FF0100114
:1017C0000161082020762068C06910F4407F20461F
:1017D00002D0FFF791FF04E000F066F8204600F029
:1017E000E8F8257620680169C943C90708D1C168AE
:1017F000C943C90704D1891E0161204600F0DAF807
:1018000020680169C943090609D4C168C9430906AA
:1018100005D46FF0800101612046FFF707FF2068C3
:101820000169C943490609D4C168C943490605D4B9
:101830006FF040010161204600F0E4F82068016982
:10184000C94389060BD4C168C943890607D46FF020
:10185000200101612046BDE87040FFF7E8BE70BD81
:1018600030B500680D4985B0884214D1302002247B
:1018700000258DE83100CDE9035469460848FFF79B
:101880003BF94FF440708DE83100CDE903546946CF
:101890000448FFF731F905B030BD000000040040F6
:1018A0000004024000080240704770B5044690F8FA
:1018B00038000D4601280DD0012684F8386002203A
:1018C00084F8390042B1042A18D0082A2AD00C2AF8
:1018D0004DD139E0022070BD206800F0C1FC2068C5
:1018E000816941F0080181612068816921F004016A
:1018F0008161206881692A69114311E0206800F044
:10190000DBFC2068816941F40061816120688169A4
:1019100021F480618161206881692A6941EA02219C
:10192000816124E0206800F0F9FC2068C16941F081
:101930000801C1612068C16921F00401C16120680A
:10194000C1692A69114311E0206800F017FD206881
:10195000C16941F40061C1612068C16921F48061FD
:10196000C1612068C1692A6941EA0221C16184F824
:101970003960002084F8380070BD10B5040003D031
:1019800094F8390010B107E0012010BD002084F860
:101990003800204600F00CF8022084F83900211DA0
:1019A000206800F0F3FB012084F83900002010BD0E
:1019B000704770470068B0F1804F01D1FFF736BA29
:1019C000704770B5044690F83800012818D00125FA
:1019D00084F83850022084F83900204600F0F6FCE4
:1019E0002068C16821F04001C1602068C16821F40D
:1019F0008041C16084F83950002084F8380070BDFF
:101A0000022070BD7047704770B5026804461068C8
:101A1000D168536910F00F0F50D003F0010501F4A5
:101A2000907635435DD0C20705D0CA0503D5E26B79
:101A300042F00102E263420705D5DA0703D0E26B08
:101A400042F00202E263820705D5DA0703D0E26BB7
:101A500042F00402E263020705D5DA0703D0E26B25
:101A600042F00802E263E26B002A33D0800604D51C
:101A7000880602D5204600F071FD20684069E16BC0
:101A8000C0F38010090700D428B3204600F04FFDB2
:101A90002068416949061AD5416921F04001416138
:101AA000606BA0B11B490165606BFEF79DFE0028CD
:101AB00010D0606B016DBDE870400847830610D5FB
:101AC0008B060ED52046BDE8704000F047BD20468D
:101AD000FFF799FF70BD2046FFF795FF0020E063F8
:101AE00070BD030606D50B0604D52046BDE8704040
:101AF00000F0D0BE4006F3D54806F1D5D1682046A7
:101B000021F04001D160202184F8391000F0FFF865
:101B100070BD00008F24000870B5040004D094F854
:101B20003900002510B106E0012070BD84F838505E
:101B3000204600F023F8242084F839002068C1688A
:101B400021F40051C160204600F04EFD206801697B
:101B500021F4904101612068416921F02A0141612D
:101B60002068C16841F40051C160E563202084F819
:101B7000390084F83A00002070BD000070B50646B8
:101B800000681F4986B0884238D11E480025016888
:101B900041F4003101600068694600F400300590AE
:101BA0006020009002200190012002900320039009
:101BB000072004901448FEF79FFF154C134820603F
:101BC0004FF00060C4E901054014C4E903506561A9
:101BD000A561E561256220466562FEF7E7FE18B162
:101BE00078210CA000F08FFE7463002205212620CE
:101BF000A663FFF7C5F92620FFF7B6F906B070BD5A
:101C00000044004040380240000C0240886002401E
:101C1000600200202E2E2F5372632F757361727431
:101C20002E630000F8B5044690F83A0020283CD115
:101C3000C1B3BAB394F83800012836D0012084F833
:101C40003800A162A2850025E563222084F83A00CD
:101C5000636B1748D863636B16481864636B164848
:101C6000D864606B134605650846666B21680246BA
:101C70003046091DFEF704FF2068016841680091A5
:101C800084F83850C16841F48071C16020684169AE
:101C900041F0010141612068416941F04001416129
:101CA0000020F8BDFFE70120FBE70220F9E7000074
:101CB000E9240008252500089F24000870B5006865
:101CC0000D49884216D10D48006840680024C0F1D3
:101CD000640085B20A4E04E0315D0A4800F023FE3C
:101CE000641CAC42F8DBBDE870401222044906488F
:101CF000FFF798BF70BD0000004400406002002064
:101D0000BC010020FC020020200200207047704728
:101D1000FEE7000008B501F0A9FA064D4FF4804433
:101D2000009021462846FEF7CDFF6421684601F069
:101D30002DF9F6E70014024070B51B48194900243C
:101D400001600321C0E901144FF40021C0E90341FF
:101D50004FF4401141610476012545768476C576BD
:101D600004774477FEF750FC18B152210FA000F021
:101D7000CAFD0D48002128384461046104604460B4
:101D8000846184600562C561C4602830FEF78CFB05
:101D90000548FEF7FDFCBDE8704002210248FEF751
:101DA0006EBB000000640040AC0000202E2E2F53BC
:101DB00072632F63616E2E6300000000094808B54E
:101DC000016841F4001101600068002200F4001075
:101DD000009005211020FFF7D3F8BDE8084010203F
:101DE000FFF7C2B83038024010B58AB014220B4950
:101DF0006846FEF786FA0021684600F0D9FD084CD7
:101E0000064914222060143105A8FEF77AFA002151
:101E100005A800F0CDFD60600AB010BD04340008D4
:101E200000000020194808B5016841F01001016068
:101E3000016801F010010091016841F002010160A8
:101E4000016801F002010091016841F001010160A7
:101E5000016801F001010091016841F00801016091
:101E6000016801F008010091016841F0040101607E
:101E7000016801F004010091016841F080010160F6
:101E8000006800F08000009008BD0000303802407B
:101E90000E4810B50C4901600D49416000214FF416
:101EA00080428160C0E9031241618161C1610162C8
:101EB000FEF712FF002805D0BDE810404C2105A018
:101EC00000F021BD10BD000000540040D4000020EF
:101ED000A08601002E2E2F5372632F6932632E636A
:101EE00000000000104810B50E4901604FF48271E7
:101EF000416000218160C1604FF400720161C0E95E
:101F00000512C1610162416281620A21C162FFF76B
:101F100007FB002805D0BDE810404F2103A000F0CA
:101F2000F2BC10BD00340140280100202E2E2F539A
:101F300072632F7370692E630000000010B5314882
:101F40008EB02F490024C0E900148460C46004618D
:101F5000FFF796FB18B149212BA000F0D4FC2948CB
:101F6000FFF70BFD18B14E2127A000F0CCFC072095
:101F7000CDE9070407A92348FFF723FD18B1552130
:101F800021A000F0C0FC0C940CA91E480D94FFF792
:101F90004FFB18B15C211CA000F0B5FC6020CDE91E
:101FA000000402940022694616480494FFF77DFC61
:101FB00018B1652114A000F0A6FC0422694611485E
:101FC000FFF773FC18B16A210FA000F09CFC0822F7
:101FD00069460C48FFF769FC18B16F210AA000F0B0
:101FE00092FC0C2269460748FFF75FFC18B1742188
:101FF00005A000F088FC0348FFF732FC0EB010BDCE
:1020000000040040800100202E2E2F5372632F7495
:10201000696D2E63000000000D4810B50B4901608A
:102020004FF4E1314160002181600C22C160C0E9C0
:1020300004128161C161FFF76FFD002805D0BDE882
:1020400010404E2103A000F05EBC10BD00440040D3
:10205000200200202E2E2F5372632F75736172742D
:102060002E630000FEE770470907090E002806DA14
:1020700000F00F0000F1E02080F8141D704700F11F
:10208000E02080F80014704700F088BC30B5254887
:1020900093B00025016841F080510160006800F0B4
:1020A000805011902048016841F44041016000686F
:1020B000022400F44040119001200090000401909F
:1020C0008001CDE906400C2008904FF4A870CDE9BE
:1020D000090404200B906846FFF794F800B1FEE76E
:1020E0000CA90F2081E831004FF4A0500F904FF45D
:1020F0008050109005210CA8FEF774FF00B1FEE798
:10210000FFF728F84FF47A71B0FBF1F0FFF77AFA95
:102110000420FFF76BFA00220F21501EFEF730FF5C
:1021200013B030BD403802400070004010480168D4
:1021300041F4700101600F48016841F00101016044
:102140000C4A00210832116002680B4B1A400260F1
:10215000031D0A4A1A60026822F4802202600548C0
:102160000C30016002495806803908607047000051
:1021700088ED00E000380240FFFFF6FE103000243A
:102180000148FFF7BABA0000C0020020F0B50268AB
:10219000234B244D244E254F254C4FF0804C984224
:1021A00009D0604507D0A84205D0B04203D0B8425C
:1021B00001D0A04204D122F0700E4A6842EA0E0219
:1021C00098421BD0604519D0A84217D0B04215D014
:1021D000B84213D0A04211D0164DA8420ED0164DD1
:1021E000A8420BD0154DA84208D0154DA84205D0E5
:1021F000144DA84202D0144DA84203D122F44075D8
:10220000CA682A4302608A68C2620A688262984287
:1022100001D0A04201D10969016301214161F0BDF2
:10222000000001400004004000080040000C004095
:1022300000040140004001400044014000480140CA
:1022400000180040001C00400020004010B58468C9
:1022500042EA032224F47F440A432243826010BDF1
:1022600030B5026A22F001020262026A43688469A0
:102270000D6824F07304254322F002048A68224387
:102280000B4CA04202D00B4CA0420BD122F0080410
:10229000CA6823F4407322434C6922F004021C43B1
:1022A0008B6923434360856149684163026230BDA5
:1022B000000001400004014030B5026A22F0100223
:1022C0000262026A436884690D6824F4E64444EAC1
:1022D00005248D6822F0200242EA05120D4DA84225
:1022E00002D00D4DA8420ED1CD6822F0800242EA04
:1022F00005124D6923F4406343EA85038D6922F09A
:10230000400243EA85034360846149688163026255
:1023100030BD0000000001400004014030B5026AF9
:1023200022F480720262036A4268C46923F4007373
:1023300024F073050C682C438D6843EA05230D4D8A
:10234000A84202D00C4DA8420ED1CD6823F4006300
:1023500043EA05234D6922F4405242EA05128D6991
:1023600023F4806342EA05124260C4614968C16394
:10237000036230BD000001400004014030B5026A34
:1023800022F480520262046A4268C3690D6823F431
:10239000E64343EA05238D6824F4005444EA0534F7
:1023A000084DA84202D0084DA84204D14D6922F43C
:1023B000804242EA85124260C36149680164046256
:1023C00030BD0000000001400004014030B403684B
:1023D0009A6822F070044A68224322F007040A68CF
:1023E00022439A604A6812F00F0F1FD11211082A77
:1023F0001CD2DFE802F01B1B1B1B0B1D23040B6907
:10240000D1E90221006830BCFFF720BF0268136ADF
:10241000146A24F00104146202689469096924F0C2
:10242000F00444EA011191610068036230BC704716
:102430000A698968006830BC00F006B80A698968D2
:10244000006830BC00F011B810B5036A046A24F0CB
:1024500001040462846924F0F00444EA021423F0C5
:102460000A020A438461026210BD10B5036A23F0B8
:10247000100303628369046A23F4704343EA02325F
:1024800024F0A00343EA01118261016210BD10B57E
:10249000806B0021C185C184FFF7B5FA10BD70B50E
:1024A000846B2068406994F83910C0F3C01000258F
:1024B000212904D118B1E584204600F046F82068AF
:1024C000406994F83A10C0F38010222904D118B161
:1024D000E585204600F02BF8E06B40F01000E0634B
:1024E0002046FFF790FA70BD10B50146806B096871
:1024F0000968C90513D40021C1850168CA6822F49E
:102500008072CA6001684A6922F001024A6101686A
:102510004A6922F040024A61202180F83A10FFF710
:10252000CDFB10BD10B5806BFFF7F0FB10BD01684F
:10253000CA6822F49072CA6001684A6922F00102F6
:102540004A61202180F83A1070470168CA6822F079
:10255000C002CA60202180F83910704710B590F889
:102560003A10222901D0022010BD8168B1F5805FA8
:1025700011D00169002901681FD0496801F07F036B
:10258000816A4A1C82620B70C18D491E0904090CC4
:10259000C18518D026E00269816A002A0268526863
:1025A00005D0D2B20A80816A491C8162ECE7C2F38D
:1025B00008020A80816A891CF7E74A68816A4B1C15
:1025C00083620A70E0E70168CA6822F49072CA6008
:1025D00001684A6922F001024A61202180F83A101C
:1025E000FFF76CFB002010BD2DE9F04104460068A8
:1025F000016921F44052E168114301612168C86812
:1026000049F20C6290432369A268E5691A43636941
:102610002B431A430243CA602168486920F4407280
:10262000A06910434861E1696425B1F5004F9748FE
:10263000974A21684FF032083FD0914201D0814241
:102640007CD1FEF79DFD00EBC00101EB001061683D
:102650008900B0FBF1F6FEF793FD00EBC00101EB42
:10266000001061688900B0FBF1F0B0FBF5F06FF08D
:102670001801484306EB800108EB0110B0FBF5F0B0
:1026800000F0F006FEF77CFD00EBC00101EB00104E
:1026900061688900B0FBF1F0B0FBF5F006EB0016C5
:1026A000FEF76EFD00EBC00101EB001061688900D0
:1026B000B0FBF1F7FEF764FDD2E0914201D0814218
:1026C0003DD1FEF75DFD00EBC00101EB001061683C
:1026D0004900B0FBF1F0B0FBF5F00601FEF750FD4C
:1026E00000EBC00101EB001061684900B0FBF1F79D
:1026F000FEF746FD00EBC00101EB001061684900E8
:10270000B0FBF1F0B0FBF5F06FF01801484307EBB8
:10271000800108EBC100B0FBF5F000F0F80006EB1B
:102720004006FEF72DFD00EBC00101EB00106168D3
:102730004900B0FBF1F7FEF723FD3CE055E0FEF762
:102740000FFD00EBC00101EB001061684900B0FB18
:10275000F1F0B0FBF5F00601FEF702FD00EBC00161
:1027600001EB001061684900B0FBF1F7FEF7F8FCDF
:1027700000EBC00101EB001061684900B0FBF1F013
:10278000B0FBF5F06FF01801484307EB800108EB50
:10279000C100B0FBF5F000F0F80006EB4006FEF7D4
:1027A000DFFC00EBC00101EB001061684900B0FBE9
:1027B000F1F7FEF7D5FC00EBC00101EB00106168FA
:1027C0004900B0FBF1F0B0FBF5F06FF018014843A1
:1027D00007EB800108EBC100B0FBF5F000F007004B
:1027E000216830448860BDE8F081FEF7B9FC00EB59
:1027F000C00101EB001061688900B0FBF1F6FEF743
:10280000AFFC00EBC00101EB001061688900B0FB78
:10281000F1F0B0FBF5F06FF01801484306EB8001D2
:1028200008EB0110B0FBF5F000F0F006FEF798FCA5
:1028300000EBC00101EB001061688900B0FBF1F012
:10284000B0FBF5F006EB0016FEF78AFC00EBC001CA
:1028500001EB001061688900B0FBF1F7FEF780FC26
:1028600000EBC00101EB001061688900B0FBF1F0E2
:10287000B0FBF5F06FF01801484307EB800108EB5F
:102880000110B0FBF5F000F00F00A9E700140140C3
:102890000010014090F83910212901D00220704722
:1028A0008168B1F5805F016A0BD04A1C0262026840
:1028B00009785160C18C491E0904090CC1840ED0ED
:1028C00017E009880268C1F3080151600169002915
:1028D000016A02D0491C0162ECE7891CFBE7016830
:1028E000CA6822F08002CA600068C16841F04001F5
:1028F000C1600020704700000148FFF785B8000064
:1029000020020020FEE7FEE702E008C8121F08C10F
:10291000002AFAD170477047002001E001C1121F60
:10292000002AFBD1704710B54388021D9954418895
:102930004FF4FA73491C89B200224180994200D3B6
:102940004280448801888C4205D1491C89B20180AB
:10295000994200D3028010BDFEF770FAFFF796FB94
:10296000FFF760FAFFF72AFAFFF7E6F9FFF754FBE3
:10297000FFF7B8FAFFF7E2FAFFF78AFAFFF734FA3F
:1029800000F007F8FEE701460020842900D0C81CAB
:10299000704710B500F040FB002010BD10B500F0EE
:1029A00057FC012803D0BDE8104000F00FBC10BD5B
:1029B0003EB504460D46B0F90800FFF7E4FF02A952
:1029C000CDE90001208A2B4682B2D4E9001000F044
:1029D00013FC012801D000203EBD02983EBD00003E
:1029E0002DE9F041184C0F460546E6682068001DA9
:1029F00000F016FA38B9206890F82C1001208840B1
:102A0000216981432161681C07D137B12168BDE884
:102A1000F0410E48091D00F03BBA20683544B5422C
:102A20004560216805D2A06BBDE8F041091D00F0AA
:102A300017BA606B091D00F013FAA06A854200D234
:102A4000A562BDE8F081000048000020D0410020D0
:102A50002DE9F041054600F027FA2E4CA068401CF5
:102A6000A06020682C4F10B1606940B32DE0256054
:102A7000A068012829D1002606EB860007EB80001C
:102A800000F0E0F9761C072EF6D323488C3000F0D6
:102A9000D9F92148A03000F0D5F91F48B43000F032
:102AA000D1F91D48C83000F0CDF91B48DC3000F0EA
:102AB000C9F919488C3060631430A06305E02068C0
:102AC000E96AC06A884200D82560606A401C60627A
:102AD000E96A0120226988401043206101EB8100EE
:102AE00007EB8000291D00F0D3F900F0FDF96069C3
:102AF00000280CD02068E96AC06A884207D20749DA
:102B00004FF080500860BFF34F8FBFF36F8FBDE869
:102B1000F081000048000020F440002004ED00E0B7
:102B200070B5114E114C17E000F0AAFA3068B8B138
:102B300000F006FC00F0B8F9F068C568281D00F048
:102B40006FF9A068401EA0606068401E606000F0E1
:102B5000CBF9284600F00CF860680028E4D170BD7D
:102B600000F0EEFBF8E70000BC4100204800002028
:102B700010B50446006B00F0CBF92046BDE81040CC
:102B800000F0C6B910484FF47051420706D0C01D7E
:102B90000D4920F00700411AC1F570510B4A00237E
:102BA0000144C2E900030839103A21F0070111601D
:102BB0004B600B600B1AC0E9001393604FF00040AC
:102BC0005360D06070470000F404002034000020FF
:102BD000074C4FF08056074DFFF7A2FF20680128F1
:102BE000FAD92E60BFF34F8FBFF36F8FF4E7000069
:102BF000F440002004ED00E02DE9F0479A46DDE9BD
:102C0000098481466FF00303206B03EB82021044BA
:102C1000089D20F00706700707D0502080F3118828
:102C2000BFF34F8FBFF36F8FFEE723180A5C83F863
:102C300034200A5C12B1401C1028F6D3002784F817
:102C40004370072D00D30625E562C4E91157201D06
:102C500000F003F904F1180000F0FFF82461C5F159
:102C600007006462A061E76484F8507052464946E8
:102C7000304600F0BFF82060B8F1000F01D0C8F86E
:102C80000040BDE8F087000030B5114900E0114672
:102C90000A688242FBD34B685C18844203D14068C7
:102CA00018444860084643681C18944209D1084CEF
:102CB000103C2468A24209D052681A4442600A6853
:102CC00012680260814200D0086030BD0460F9E7FC
:102CD000340000200648416B096829B1416BC9687E
:102CE000C9684968816270474FF0FF31FAE7000018
:102CF0004800002008484068401C4FF0500080F316
:102D0000118804D0BFF34F8FBFF36F8FFEE7BFF37F
:102D10004F8FBFF36F8FFEE73C0000202DE9F0419D
:102D20000546002700F0ACF9314E306808B9FFF7CE
:102D300029FFF06805424BD1C5B3083568070ED0AE
:102D400005F00700C0F108000544680707D05020CF
:102D500080F31188BFF34F8FBFF36F8FFEE72DB362
:102D60007068854234D82248103001460C6801E072
:102D700020460C466168A94202D221680029F7D199
:102D800031688C4224D00768216801606068083788
:102D9000411B10290FD96019420708D0502080F339
:102DA0001188BFF34F8FBFF36F8FFEE710E04160D4
:102DB0006560FFF769FF61687068401A7060B2680B
:102DC000904200D2B060F06801430020C4E90001E5
:102DD00000F0B6FA780707D0502080F31188BFF3CF
:102DE0004F8FBFF36F8FFEE73846BDE8F0810000DC
:102DF0002400002010B5031F4FF080741C601B1FBF
:102E000021F001011960191F044B0B6014390A608D
:102E1000091F6FF0020244380A6010BDF52C00084B
:102E2000D0E9013201699A60D0E901235A604A6809
:102E3000824201D182684A60002202610868401E15
:102E40000860704700F108014FF0FF32C0E901123D
:102E5000C16001610021016070470021016170477C
:102E600030B50B685A1C02D000F1080202E002697A
:102E700004E02246546825689D42FAD953684B60A5
:102E800099608A60516008610168491C016030BD29
:102E900042684A6093688B609368596091600861EA
:102EA0000168491C01607047502080F31188BFF30E
:102EB0004F8FBFF36F8F0A494868401C4860012854
:102EC0000CD10848006810F0FF0F07D0502080F3A5
:102ED0001188BFF34F8FBFF36F8FFEE7704700007D
:102EE0003C00002004ED00E00849486828B1401E7D
:102EF000486001D180F311887047502080F3118819
:102F0000BFF34F8FBFF36F8FFEE700003C00002040
:102F100070B5002827D0144DA0F108046168E86856
:102F2000014207D1502080F31188BFF34F8FBFF3C8
:102F30006F8FFEE722683AB1502080F31188BFF30B
:102F40004F8FBFF36F8FFEE78143616000F098F809
:102F500060686968084468602046FFF795FEBDE830
:102F6000704000F0EDB970BD2400002006484FF419
:102F70007A710068B0FBF1F14FF0E020491E416129
:102F800007210161704700002000002070B50D4648
:102F900004000BD095B11E4A106BB8B1502080F3DD
:102FA0001188BFF34F8FBFF36F8FFEE7502080F380
:102FB0001188BFF34F8FBFF36F8FFEE7502080F370
:102FC0001188BFF34F8FBFF36F8FFEE700F058F803
:102FD000D26823685919934204D98B420AD9914285
:102FE00002D807E08B42FAD9881A21600021FFF746
:102FF000F7FC00E0216000F0A3F9002807D10549A3
:103000004FF080500860BFF34F8FBFF36F8F70BDDC
:103010004800002004ED00E01CB515480024CDE96F
:1030200000402346802213A1144800F0E5F801284F
:1030300009D0401C1AD1502080F31188BFF34F8F64
:10304000BFF36F8FFEE7502080F31188BFF34F8FDF
:10305000BFF36F8F06484FF0FF312C38816201219A
:103060004161C460BDE81C4000F040B81CBD0000D8
:103070007400002049444C4500000000D12B00089A
:103080000248016B491C01637047000048000020A2
:103090001448016B11B10121C16170470021C16168
:1030A0000169B1FA81F1C1F11F0101EB81020E4901
:1030B00051F822306BB101EB820101F108034A683B
:1030C00052684A609A4201D152684A60D1680160F0
:1030D0007047502080F31188BFF34F8FBFF36F8F7D
:1030E000FEE7000048000020F44000201CB53248F4
:1030F0000168324A914207D1502080F31188BFF312
:103100004F8FBFF36F8FFEE700682C49491E88423E
:1031100007D1502080F31188BFF34F8FBFF36F8F1B
:10312000FEE7274908780190FF20087008788DF89D
:1031300000009DF800009DF8002000F0F000904293
:1031400007D0502080F31188BFF34F8FBFF36F8FEC
:10315000FEE79DF800001B4A00F0500010700720A9
:10316000906005E09DF800305B008DF80030401E57
:103170009DF800301B06F5D4000200F4E06090607A
:10318000019808700C482030016841F4700101601A
:10319000016841F070410160FFF7E8FE00205060D7
:1031A000FDF72EF80848016841F040410160FDF745
:1031B00017F800201CBD000000ED00E071C20F41B7
:1031C00000E400E03C00002034EF00E010B55020A7
:1031D00080F31188BFF34F8FBFF36F8F00F04CF86F
:1031E00018B104494FF080500860002080F3118826
:1031F00010BD000004ED00E02DE9FF5F8346DDE92E
:103200000E87994616468A469000FFF787FD05000F
:103210001AD05420FFF782FD040012D0256300214C
:10322000CDE90241CDE900874B463246514658462A
:10323000FFF7E2FC2046FFF70BFC012004B0BDE8DD
:10324000F09F2846FFF764FE4FF0FF30F6E70000DE
:103250000548416919B1006B18B100207047012081
:103260007047022070470000480000200148C068F5
:1032700070470000480000202DE9F0412E4C002747
:10328000206B40B1A069401CA061E06900B101273A
:103290003846BDE8F081E668761CE66013D1606BC5
:1032A000006838B1502080F31188BFF34F8FBFF30F
:1032B0006F8FFEE7606BA16B6163A063206A401CA7
:1032C0002062FFF707FDA06ADFF87080864209D30D
:1032D000606B006880B1606BC068C56868688642D2
:1032E0000DD2A0622068C06A00EB800158F821006E
:1032F0000128CAD90127C8E74FF0FF30F1E7281DA0
:10330000FFF78EFDA86A18B105F11800FFF788FDD8
:10331000E86A0121226981401143216100EB8001AB
:1033200008EB8100291DFFF7B3FDE86A2168C96A2F
:103330008842CDD30127CBE748000020F44000208D
:103340002DE9F0472C4D00242746286B38B1FFF7B4
:10335000ABFD286B401E2863286B40B146E050202F
:1033600080F31188BFF34F8FBFF36F8FFEE7A9681B
:10337000224E0120D1B3A6F1B40980463068E8B1ED
:10338000F068C46804F11800FFF74AFD201DFFF73C
:1033900047FDE06A2A6908FA00F11143296100EB50
:1033A000800109EB8100211DFFF772FDE06A2968A9
:1033B000C96A8842E2D3C5F81C80DFE70CB1FFF789
:1033C00089FCAC6944B14646FFF756FF00B1EE6197
:1033D000641EF9D10020A861E86938B108490127C5
:1033E00038070860BFF34F8FBFF36F8FFFF77CFD87
:1033F0003846BDE8F087000048000020A8410020C2
:1034000004ED00E058340008151D0008000000001D
:1034100000000000800000004C3400088D0300080C
:10342000FDFF000000000000000100000006101673
:103430000006101600000000000000000102030456
:1034400006070809000000000102030443616E5FE3
:1034500053656E64000000004C65645F546F6767DD
:103460006C65000084340008000000208400000027
:103470000829000808350008840000206445000081
:1034800018290008000000000000000000000000F3
:10349000000000000000000001000000100000001B
:1034A000000000000024F400000000000000000004
:1034B000000000000000000000000000000000000C
:1034C00000000000AAAAAAAA000000000000000054
:1034D00000000000000000000000000000000000EC
:1034E00000000000000000000000000000000000DC
:1034F00000000000000000000000000000000000CC
:083500000000000000000000C3
:04000005080001AD41
:00000001FF
