:020000040800F2
:10000000E06400207D02000869940008AD620008E9
:1000100065940008A119000871AD000800000000F7
:10002000000000000000000000000000C101000806
:10003000F12F00080000000015020008ABA0000826
:10004000970200089702000897020008970200082C
:10005000970200089702000897020008970200081C
:100060009702000897020008513300089702000821
:1000700097020008970200089702000897020008FC
:10008000092E00089702000897020008F11A0008DC
:10009000611A0008970200089702000869330008F7
:1000A00097020008970200089702000897020008CC
:1000B000F9A10008970200089702000897020008BB
:1000C00097020008970200089702000897020008AC
:1000D0009702000821AC00088DAC000897020008C8
:1000E000970200089702000897020008970200088C
:1000F000970200089702000897020008970200087C
:10010000970200089702000897020008970200086B
:10011000970200089702000897020008970200085B
:100120009702000897020008192E0008970200089D
:10013000970200089702000897020008E91C0008CF
:10014000391C00089702000897020008970200086F
:10015000970200089702000897020008E5AC000823
:10016000970200089702000897020008970200080B
:10017000970200089702000897020008000000009C
:1001800097020008970200089702000897020008EB
:1001900097020008970200089702000897020008DB
:1001A000000000000000000097020008DFF80CD0FB
:1001B00000F0E0FB0048004765C30008E064002051
:1001C0002B4B19680868B0E8F04F80F30988BFF33B
:1001D0006F8F4FF0000080F311887047000000001F
:1001E00006480068006880F3088862B661B6BFF30D
:1001F0004F8FBFF36F8F00DF00BF00BF08ED00E03F
:10020000DFF80C00016841F470010160704700BF25
:1002100088ED00E0EFF30980BFF36F8F144B1A688D
:100220001EF0100F08BF20ED108A20E9F04F10607B
:1002300008B44FF0500080F31188BFF34F8FBFF325
:100240006F8F0CF053FF4FF0000080F3118808BC53
:1002500019680868B0E8F04F1EF0100F08BFB0EC46
:10026000108A80F30988BFF36F8F704700BF00BF0B
:10027000700D0020EFF305807047000006488047AE
:1002800006480047FEE7FEE7FEE7FEE7FEE7FEE77B
:10029000FEE7FEE7FEE7FEE795A10008AD010008D6
:1002A0002DE9F05F0546002092469B4688460646AB
:1002B000814640241BE0284641464746224600F03E
:1002C00052FA53465A46C01A914110D31146184665
:1002D000224600F039FA2D1A67EB01084F462246F4
:1002E0000120002100F030FA17EB00094E41201EDA
:1002F000A4F10104DFDC484631462A464346BDE806
:10030000F09F40EA01039B0703D009E008C9121FD0
:1003100008C0042AFAD203E011F8013B00F8013BBF
:10032000521EF9D27047D2B201E000F8012B491EEB
:10033000FBD270470022F6E710B513460A46044682
:100340001946FFF7F0FF204610BD2DE9FE4F80460D
:1003500081EA0300C00F0C46009021F0004123F019
:100360000045B8EB0200A94105D24046214690461F
:100370001C460B46024623F00040104347D0270D91
:10038000C7F30A00C3F30A510290401A01904028B3
:100390006BDAC3F3130040F4801B0098924620B13F
:1003A0000023D2EB030A63EB0B0B01985946C0F113
:1003B0004002504600F0C8F906460D4650465946E0
:1003C000019A00F0E0F910EB08006141002487EA8F
:1003D000115284EAE7731A4340D0009A62B3019A3B
:1003E000012A4FEA075215DC001B61EB02014FF0B6
:1003F000004202EA0752CDE90042001C41F580119B
:1004000032462B4600F017FA03B0BDE8F08F4046A5
:100410002146F9E7001B61EB0201001C41F5801346
:1004200000185B412018A2F5001747EB030140EAD2
:10043000D570B6196D4111E06D084FEA360645EAF0
:10044000C0754FEA0752001B61EB0201001C41F529
:10045000801149084FEA30000019514132462B46BD
:1004600003B0BDE8F04F00F0D7B90098012240007A
:100470000023D0EB020263EBE073009821464FEAC1
:10048000E074B8EB000061EB0401E9E783F000439E
:100490005BE781F0004158E72DE9FE4F81EA030454
:1004A00004F0004421F0004100944FF0000B23F0D1
:1004B000004350EA01045ED052EA03045BD0C3F368
:1004C0000A54C1F30A552C44A4F2F3340194A0FB5E
:1004D0000254C1F3130141F48011C3F3130343F435
:1004E000801301FB024400FB034E840A970A44EA8E
:1004F000815447EA8357A4FB076802958D0A05FBE0
:1005000007854FEA932C04FB0C542705029D4FEA04
:10051000065847EA1637B5EB08056EEB070C870E51
:10052000920E47EA811742EA8312A7FB0201B6EB5B
:100530000B0164EB00042B0D43EA0C335E1844EB13
:100540001C50DA465146E7FB0201C5F313044FEA9B
:100550000B3343EA14534FEA0432019C43EA060387
:10056000A4F10C040294009CCDE900B400F063F9FE
:1005700003B0BDE8F08F00200146F9E72DE9F04D0A
:1005800081EA030404F0004B21F0004514464FF0CB
:10059000000A23F0004150EA050220D054EA01028B
:1005A0001DD0C5F30A570246C5F31303C1F3130068
:1005B000C1F30A5640F4801543F48013A7EB0608F4
:1005C000101BD64608F2FD3873EB050002D308F184
:1005D000010801E092185B41B8F1000F03DA002036
:1005E0000146BDE8F08D00204FF480110646844698
:1005F0000EE0171B73EB050705D3121B63EB050316
:1006000006434CEA010C49084FEA300092185B415E
:1006100050EA0107EDD152EA030012D082EA040049
:1006200083EA0501084305D0101BAB4106D2012225
:10063000002306E000224FF0004302E06FF00102C9
:1006400053101AEB06004CEB085110EB0A0041EB7B
:100650000B01BDE8F04D00F0DFB80EB5C10F80EA28
:10066000E0700844CA07002140F233438DE80E00D1
:100670000A460B4600F0DFF803B000BD70B5C1F3C9
:100680000A5201F000450024C1F3130140F2FF3388
:1006900041F480119A4201DA002070BD40F23343E8
:1006A0009A42A2F2334203DC524200F05CF800E0CE
:1006B00090402C43F1D0404270BD00F0004230F039
:1006C00000400AD0C10D01F56071C0F3160042EA86
:1006D0000151C2084007114370470020014670478E
:1006E00030B5041E71F1000404DB4FF000444042B9
:1006F00064EB0101141E73F1000405DB1C464FF08E
:100700000043524263EB0403994208BF904230BD5C
:1007100001F0004330B421F0004150EA010206D05C
:100720000A0DA2F56072C1F31301002A02DC30BC8D
:1007300000207047440F44EAC104C100E01830BCF7
:1007400000EBC25000F031B8202A04DB203A00FA56
:1007500002F1002070479140C2F1200320FA03F318
:10076000194390407047202A04DB203A21FA02F016
:100770000021704721FA02F3D040C2F120029140DB
:10078000084319467047202A06DBCB17203A41FA66
:1007900002F043EAE07306E041FA02F3D040C2F10E
:1007A000200291400843194670470029A8BF7047AE
:1007B000401C490008BF20F00100704710B4B0FA97
:1007C00080FC00FA0CF050EA010404BF10BC704732
:1007D00049B1CCF1200421FA04F411FA0CF118BF4C
:1007E000012121430843A3EB0C01CB1D4FEA00611B
:1007F0004FEA102042BF002010BC704700EBC350EE
:1008000010440029A4BF10BC7047401C490008BF19
:1008100020F0010010BC704710B5141E73F10004E5
:1008200008DA401C41F1000192185B411A4301D1E2
:1008300020F0010010BD2DE9F04D92469B4611B10C
:10084000B1FA81F202E0B0FA80F220329046FFF76E
:100850007BFF04460F4640EA0A0041EA0B0153467B
:100860005A46084313D0114653EA010019D0C8F183
:1008700040025046FFF777FF05460E465046594660
:100880004246FFF761FF084305D0012004E02046FF
:100890003946BDE8F08D0020054346EAE0762C435A
:1008A00037430A986305E40AA0EB08000022FD0A1A
:1008B00044EA47540A3002D500200146E9E7010521
:1008C00010196941DDE9084500196941BDE8F04D9D
:1008D000A2E72DE9F04D00231A461B1A8A4103DBDB
:1008E00000200146BDE8F08DC1F30A52C1F31301A7
:1008F00041F480154FF0000BD10702D100186D4173
:10090000521E0027044640F2FF11384601EB620AEE
:100910003E468046024600204FF48011FFF723FF39
:10092000C2197141BB1846EB0100B4EB030C75EB27
:10093000000C04D3E41A65EB000517460E46241993
:1009400008F101006D4180463428E3DDF91946EBDA
:100950000600091BA84103D24FF0FF32134601E005
:10096000002213461BEB070046EB0A51BDE8F04D91
:10097000FFF752BF064C074D06E0E06840F0010368
:1009800094E8070098471034AC42F6D3FFF712FC06
:10099000C4E00008E4E000080EB540F233410291E3
:1009A0000021CDE900110A460B46FFF744FF03B0D2
:1009B00000BD70B58C1810F8015B15F0070301D16C
:1009C00010F8013B2A1106D110F8012B03E010F8B2
:1009D000016B01F8016B5B1EF9D12B0705D40023D5
:1009E000521E0DD401F8013BFAE710F8013BCB1A77
:1009F000921C03E013F8015B01F8015B521EF9D56C
:100A0000A142D8D3002070BD70B505460C46002623
:100A10000DB1022C00D870BDA11E064802882846E0
:100A200002F092FF0646A01E2E54310A601E295481
:100A300000BFF0E7C00A002070B505460C4600264E
:100A40000DB1022C00D870BD611EFF22284602F0B5
:100A50009BFF0646601E2E5400BFF4E770B5FE4BA8
:100A6000DA68002A01DB134600E05342FB4CE068E1
:100A7000002801DB044600E04442191901EBD17360
:100A80005B1000EE103AB8EEC00AF54B83ED000A99
:100A9000F448007801286ED0F24800780228FAD095
:100AA000F14800780028F6D0F048F1490978405C18
:100AB000182875D2DFE800F0740C244C6075D2F56C
:100AC000F4F3F2F1F0EFEEED7474ECF6EAE9E8E736
:100AD00001225102E74804F009F8E7480078401C79
:100AE000E54908700CF012FEE4490968401AB0F5B7
:100AF000FA7F04D9DE480078401CDD49087027E2FF
:100B000000224FF40071DB4803F0F0FFDA48007870
:100B1000401ED9490870D348007806280BD10CF044
:100B2000F5FDD6490968401A11D0D1480078401C1B
:100B3000CF4908700BE00CF0E9FDD0490968401A74
:100B4000C82804D9CA480078401CC9490870FFE188
:100B500001229102CA4803F0C9FF0CF0D7FDC74932
:100B60000968401AB0F5487F04D9C1480078401C94
:100B7000BF490870ECE1FAE100224FF48061C048FF
:100B800003F0B4FF0CF0C2FDBC490968401AB0F58F
:100B9000487F04D9B6480078401CB5490870D7E1B1
:100BA000D5E1B84DEC68002C01DB254600E065423C
:100BB000B54EF368002B01DB1E4600E05E422E447A
:100BC000B24DEA68002A01DB154600E055422E448A
:100BD000AF4DE968002901DB0D4600E04D42701978
:100BE000C51700EB9575AD10AA4E35609FEDAA0AAA
:100BF000AA4880ED000A9B480078072803D099484E
:100C00000078052808D1A54890ED000ADFEDA40A78
:100C100030EE200A80ED000A92480078062808D1BC
:100C20009E4890ED000ADFED9F0A30EE200A80ED2D
:100C3000000A9A4890ED000ADFED9B0A30EE600A48
:100C40008748D0ED000AB4EEE00AF1EE10FA04D2C3
:100C500087480078401C8649087079E19FED930A27
:100C60008E4880ED000A7E4890ED000ADFED900A84
:100C7000B4EEE00AF1EE10FA04DD7D480078401C85
:100C80007B49087064E1A3E060E1BAE050E109E06B
:100C900045E143E146E055E043E0CBE063E052E06C
:100CA0002AE014E09FED830A7C4880ED000A6C483E
:100CB00090ED000ADFED800AB4EEE00AF1EE10FAE2
:100CC00004D26B480078401C6949087040E19FEDF0
:100CD000750A724880ED000A614890ED000ADFED68
:100CE000770AB4EEE00AF1EE10FA04D26048007818
:100CF000401C5F4908702BE19FED670A674880ED53
:100D0000000A574890ED000ADFED6D0AB4EEE00AE4
:100D1000F1EE10FA04D256480078401C544908708D
:100D200016E115E19FED5F0A664880ED000A66480E
:100D3000C06810F1C80F04DD4D480078401C4C49D4
:100D4000087005E104E19FED570A604880ED000A54
:100D50005F48C068B0F5967F04DA45480078401CCB
:100D600043490870F4E09FED5B0A584880ED000AA3
:100D70003C480078062803D03A480078072808D174
:100D8000524890ED000ADFED540A30EE200A80ED63
:100D9000000A4F4890ED030AB8EEC00A4B48D0ED68
:100DA000000A9FED4D1A70EEC10AB4EEE00AF1EEB2
:100DB00010FA0CDD0CF0AAFC30490968401AB0F5B5
:100DC000167F04D92A480078401C29490870BFE0E2
:100DD0009FED420A3D4880ED000A3D48C06840F65C
:100DE0005A2188420CDD0CF091FC24490968401A14
:100DF000B0F5C87F04D91E480078401C1C49087013
:100E0000A6E09FED370A314880ED000A3048C068FF
:100E100040F6165188420CDD0CF078FC1749096841
:100E2000401AB0F5167F04D911480078401C1049CB
:100E300008708DE09FED2B0A244880ED000A0948D8
:100E40000078062803D007480078072852D11F48A9
:100E500090ED000A48E00000981900208419002055
:100E6000280C0020600B002005000020361B00200D
:100E7000610B002000200240300C0020340C0020C8
:100E800000140240E4180020F81800200C1900207B
:100E9000201900201C0C00200090C945080C0020DF
:100EA00000A00C450000000000007A4300800946C5
:100EB00000D004460050C3450070C645000096436C
:100EC00000F0D2450C0C0020E8190020040C002092
:100ED000D419002000204B450000C84200C028451E
:100EE000008054450000AF445FED120A30EE200A46
:100EF00080ED000A1E48C06840F2DC5188420CDADE
:100F00000CF004FC1B490968401AB0F5FA7F04D9BB
:100F100019480078401C1849087019E018E00020B2
:100F200015490870154908700220154908700FE02E
:100F30000CF0ECFB0F490968401AB0F5E17F04D9C9
:100F40000D480078401C0C49087001E000E000BF2B
:100F500000BF0C48007808490978884203D00CF09B
:100F6000D5FB04490860044800780649087070BD44
:100F7000D4190020340C0020610B00200500002053
:100F8000600B0020310C002010B52DED028BB9480C
:100F9000007802287DD1B84890ED030AB8EEC00A67
:100FA000F0EE400AB54890ED000AB1EE400AB448B0
:100FB00008F0A4FEB048B0F90000032190FBF1F066
:100FC00000EE100AB8EEC00AB0EE408AAC48C06B22
:100FD00000EE100AF0EE480AAA4808F08FFEAA4870
:100FE00090ED030AB8EEC00AF0EE400AA34890ED77
:100FF000000AA64808F082FEA348B0F900000321C9
:1010000090FBF1F000EE100AB8EEC00AB0EE408A94
:101010009E48C06B00EE100AF0EE480A9C4808F0AB
:101020006DFE9C4890ED030AB8EEC00AF0EE400A4F
:101030009FED990A994808F061FE9648B0F90000C2
:10104000032190FBF1F000EE100AB8EEC00AB0EEFA
:10105000408A9248C06B00EE100AF0EE480A9048B1
:1010600008F04CFE8F4890ED030AB8EEC00AF0EE8F
:10107000400A9FED890A8C4808F040FE8948B0F983
:101080000000032190FBF1F000EE100AB8EEC00A58
:1010900000E00BE0B0EE408A8348C06B00EE100A1F
:1010A000F0EE480A814808F029FEDFE07148007838
:1010B000012851D17048B0F90000032190FBF1F0F4
:1010C00000EE100AB8EEC00AB0EE408AF0EE480A10
:1010D000774890ED000A6B4808F010FE6A48B0F9B6
:1010E0000000032190FBF1F000EE100AB8EEC00AF8
:1010F000B0EE408AF0EE480A6D4890ED000AB1EE7D
:10110000400A634808F0FAFD6648B0F90000032180
:1011100090FBF1F000EE100AB8EEC00AB0EE408A83
:10112000F0EE480A634890ED000A604808F0E6FDDA
:101130005848B0F900000A2190FBF1F000EE100AC7
:10114000B8EEC00AB0EE408AF0EE480A9FED520AAF
:10115000534808F0D3FD89E0474890ED030AB8EE04
:10116000C00AF0EE400A454890ED000AB1EE400A90
:10117000434808F0C3FD4048B0F90000032190FB4C
:10118000F1F000EE100AB8EEC00AB0EE408A3C481A
:10119000C06B00EE100AF0EE480A3A4808F0AEFDC7
:1011A000394890ED030AB8EEC00AF0EE400A334821
:1011B00090ED000A354808F0A1FD3348B0F9000071
:1011C000032190FBF1F000EE100AB8EEC00AB0EE79
:1011D000408A2E48C06B00EE100AF0EE480A2C48F8
:1011E00008F08CFD2B4890ED030AB8EEC00AF0EE33
:1011F000400A314890ED000A284808F07FFD254854
:10120000B0F90000032190FBF1F000EE100AB8EEF7
:10121000C00AB0EE408A2148C06B00EE100AF0EE22
:10122000480A1F4808F06AFD1E4890ED030AB8EE10
:10123000C00AF0EE400A214890ED000A1A4808F072
:101240005DFD1848B0F90000032190FBF1F000EEBD
:10125000100AB8EEC00AB0EE408A1348C06B00EE28
:10126000100AF0EE480A114808F048FDBDEC028B68
:1012700010BD0000600B002084190020080C002025
:10128000CA030020E4010020981900201B0400205C
:1012900035020020D4190020000000006C0400205A
:1012A000A3060020E8190020BD040020F406002059
:1012B000140C0020180C0020040C00200C0C002042
:1012C000D2480068D2498861D2498861B2EE000AEA
:1012D00010EE100AD0498861D0498861D0488068F2
:1012E000D0498861D0488068D0498861B0EE000A52
:1012F00010EE100ACE498861B2EE000A10EE100A14
:10130000CC498861B7EE000ACB4880ED000ACB4893
:101310000078032803D0C948007804287ED1C84843
:10132000C8490978405C092811D1C74800780028CD
:101330000DDDBD484068BE498861B9484068BD4977
:101340008861B0EE000ABC4880ED000A19E0BC4894
:10135000BC490978405C092813D1BB48007880B9A2
:10136000B1EE040A10EE100AB1498861B2EE080A23
:1013700010EE100AAF498861B7EE000AAE4880ED62
:10138000000AAF48AF490978405C172810D1B1EE88
:10139000040A10EE100AA6498861B7EE000AA648B2
:1013A00080ED000AB2EE000A10EE100AA149886131
:1013B000A348A4490978405C112814D1A2480078B8
:1013C000012810D1B1EE040A10EE100A9849886184
:1013D000B2EE0C0A10EE100A96498861B0EE000ACF
:1013E000954880ED000A964896490978405C0B289C
:1013F0000CD18D48C0688E4988618948C0688D4984
:101400008861B0EE000A8C4880ED000A8C488D4956
:101410000978405C0A2811D18B4800E02AE0007866
:1014200060B981480068824988617D4800688149C7
:101430008861B7EE000A804880ED000A8048814943
:101440000978405C0A2814D17F480078002810DD14
:10145000B1EE040A10EE100A75498861B7EE000A71
:10146000754880ED000AB2EE000A10EE100A7149CC
:10147000886196E07148007806287DD170487149EE
:101480000978405C092811D16F48007800280DDDEB
:101490006548406866498861614840686549886177
:1014A000B0EE000A644880ED000A19E0644865491E
:1014B0000978405C092813D16348007880B9B1EEFF
:1014C000040A10EE100A5A498861B2EE080A10EEBA
:1014D000100A58498861B7EE000A574880ED000AA3
:1014E000574858490978405C0B2810D1B2EE000AE1
:1014F00010EE100A4E498861B3EE040A10EE100A8D
:101500004C498861B2EE020A4B4880ED000A4C4813
:101510004C490978405C172810D1B1EE040A10EE4E
:10152000100A43498861B7EE000A434880ED000A7B
:10153000B2EE000A10EE100A3E4988614048414967
:101540000978405C0A280FD13F48007860B93648D6
:101550000068374988613248006836498861B7EECB
:10156000000A354880ED000A354836490978405C64
:101570000A2816D1344800E013E00078002810DD76
:10158000B1EE0C0A10EE100A29498861B0EE000A8B
:10159000294880ED000AB2EE0E0A10EE100A254925
:1015A0008861274827490978405C0A2805D02448E3
:1015B00024490978405C15280FD12348007860B988
:1015C000194800681A4988611548006819498861F6
:1015D000B7EE000A184880ED000A9FED1C0A10EED5
:1015E000100A1349C8610A49C8610A49C8610F490C
:1015F000C8619FED160A10EE100A0D4908620449F1
:10160000086204490862094908627047380C0020E2
:1016100035020020E40100201B040020CA03002042
:10162000440C0020BD040020580C0020F4060020CB
:10163000A30600206C040020400C0020600B00205A
:10164000361B0020610B0020300C00200000000041
:1016500010B572480078082871D2DFE800F03E48E3
:1016600062040F311C27002005E06D49095C6D4ABA
:101670001154411CC8B22828F7DBCCE0002007E059
:101680000021684A11546849095C1154411CC8B2D0
:101690002828F5DBBFE0002005E06449095C614AC9
:1016A0001154411CC8B22828F7DBB4E0002004E044
:1016B00000215C4A1154411CC8B22828F8DBAAE07A
:1016C000002007E00021574A11545949095C115480
:1016D000411CC8B22828F5DB9DE0002004E0002171
:1016E000504A1154411CC8B22828F8DB93E05148F5
:1016F000B0F9080000EE100AB8EEC00A4E48D0ED6E
:10170000000A20EE200A4D4880ED000A4948B0F951
:10171000060000EE100AB8EEC00A494880ED000A43
:1017200079E0012008F0A2FB50B14248407D012839
:1017300006D19FED440A444880ED000A0DE069E0BF
:10174000022008F093FB40B13A48407D012804D1C3
:101750009FED3E0A3C4880ED000A9FED3C0A3C4864
:1017600080ED000A9FED390A3A4880ED000A4FF4F7
:10177000807008F07BFB20B32E48407D08BB2D48CD
:10178000007D01281DD1304890ED000AB5EEC00A59
:10179000F1EE10FA03D10BF0B9FF2F4908609FED6D
:1017A0002F0A294880ED000A0BF0B0FF2A4909688A
:1017B000401AB0F57A7F04D901221021284803F09D
:1017C00095F94FF4807008F051FB10B31948407D33
:1017D00001281ED11748007DD8B91021204803F0F8
:1017E00079F9012803D10BF091FF1E49086000220E
:1017F00010211B4803F07AF90BF088FF194909689A
:10180000401AB0F5C87F04D99FED100A0E4880ED4C
:10181000000A00BF00BF00BF10BD0000600B002029
:10182000620B0020361B00208A0B0020DA0B002000
:10183000B20B0020201B0020100C0020140C0020F4
:10184000180C00200090C945080C00200000000082
:10185000040C00200C0C0020780C002000A0254671
:10186000000002407C0C002010B53148C06B00EE37
:10187000100A3048D0ED000A20EE200A2E4880EDF4
:10188000000A90ED000ADFED2D0AB4EEE00AF1EE59
:1018900010FA04DD9FED290A80ED000A0DE02648CC
:1018A00090ED000ADFED260AB4EEE00AF1EE10FA40
:1018B00003D29FED230A80ED000A22480078032816
:1018C00008D02048007828B11F48007810B11F4880
:1018D000007830B900231A461946184600F0DCF9A2
:1018E00024E01B4AD26B00EE102ABDEEC00A10EEB7
:1018F000102A13B2174AD26B00EE102ABDEEC00AAE
:1019000010EE102A11B2144AD26B00EE102ABDEE6E
:10191000C00A10EE102A10B2074A92ED000ABDEE7E
:10192000C00A10EE102A12B200F0B6F910BD000085
:10193000A3060020400C0020700C002000606A46C6
:1019400000606AC60200002004000020600B002036
:10195000F406002035020020E401002010B507F055
:10196000AFF907F037F807F09FF807F007F907F02D
:101970000FFB07F0DFFB07F067FB07F035FB07F015
:1019800033FC07F0BFFC07F02BFD07F0F3FC07F07A
:10199000ADFA10BD0149488008807047CE0A00208A
:1019A00000BFFEE700B526480068401C24490860D7
:1019B00024480088401C2349088023480068A0F27E
:1019C000012030B1012818D004282AD0052834D1AC
:1019D0002DE01E480088401C1C49088018480068FB
:1019E000C82804D21A48C08800B21949488216494A
:1019F0001C3117480AF04AFC20E014484088401C7B
:101A0000124948800E480068C82804D21148C0888E
:101A100000B2104948820C491C310E480AF036FCCD
:101A20000CE009491C310C480AF030FC06E006497C
:101A30001C310A480AF02AFC00E000BF00BF00BDCC
:101A4000A80A002062000020601B00204000002047
:101A50003419002048190020AC190020C0190020BA
:101A600010B5024802F0D2F910BD0000A01C002001
:101A700030B585B004460D4640F2FF100A490860B3
:101A8000200A087608464476290A8176C57614220B
:101A900000F10C016846FEF734FC03480EC8034809
:101AA00000F051F905B030BD841B002098130020D0
:101AB00030B585B004460D464FF400700A49086001
:101AC000200A087608464476290A8176C5761422CB
:101AD00000F10C016846FEF714FC03480EC80348E9
:101AE00000F031F905B030BD841B002098130020B0
:101AF00010B5024802F08AF910BD0000A01C0020B9
:101B000000B541480068401C3F4908603F480068F4
:101B1000A0F20120082873D2DFE800F004141F2A85
:101B2000354453623A480088401C39490880394896
:101B30000088401C3749088034491C3136480AF077
:101B4000A5FB5EE033484088401C324948802F495D
:101B50001C3132480AF09AFB53E02E488088401C22
:101B60002C49888029491C312D480AF08FFB48E018
:101B70002848C088401C2749C88024491C3129486E
:101B80000AF084FB3DE020480068C82804D22648BB
:101B9000C08800B2244948821C491C3122480AF0FE
:101BA00075FB2EE018480068C82804D21F48C0887A
:101BB00000B21E49488215491C311C480AF066FBD8
:101BC0001FE011480068C82804D21948C08800B234
:101BD000174948820D491C3115480AF057FB10E09F
:101BE00009480068C82804D21248C08800B21149C8
:101BF000488206491C310F480AF048FB01E0FFE724
:101C000000BF00BF00BD0000A80A0020C41B0020C8
:101C10005E00002040000020E4180020F81800209A
:101C20000C19002020190020841900209819002088
:101C3000D4190020E819002010B5024802F0E6F897
:101C400010BD0000501C0020F0B585B004460D46C4
:101C500016461F464FF400700D490860200A0876AA
:101C600008464476290A8176C576310A0177467797
:101C7000390A8177C777142200F10C016846FEF714
:101C800040FB03480EC8034800F05DF805B0F0BD06
:101C9000E81B00201C160020F0B585B004460D4658
:101CA00016461F4640F2FF100D490860200A0876CC
:101CB00008464476290A8176C576310A0177467747
:101CC000390A8177C777142200F10C016846FEF7C4
:101CD00018FB03480EC8034800F035F805B0F0BD06
:101CE000E81B00201C16002010B5024802F08EF8F8
:101CF00010BD0000501C002030B589B004460D46D0
:101D00002088618888420CD1202101A8FEF712FBAF
:101D1000202201A92846FEF7F4FA4FF0FF3009B05F
:101D200030BD2288201D00EB421120222846FEF7FC
:101D3000E8FA2088401C80B22080142801DB0020B3
:101D400020800020EBE70FB410B504466288211D07
:101D500001EB4210202203A9FEF7D3FA6088401C51
:101D600080B26080142801DB0020608060882188B8
:101D7000884207D12088401C80B22080142801DBD3
:101D80000020208010BC5DF814FB014648880B88B9
:101D9000C21A002A01DB90B2704702F1140080B22F
:101DA000FAE7000010B52DED068BEE49B1F9000001
:101DB000FEF753FC41EC1A0B9FEDEB0B53EC102B91
:101DC000FEF7DCFB41EC190BFEF7A2FC08EE100A53
:101DD000E748B0F9040000EE900AF8EEE00AB0EE31
:101DE000600AF0EE480AE34807F088FFE249B1F9DB
:101DF0000000FEF732FC41EC1A0B9FEDDB0B53ECBD
:101E0000102BFEF7BBFB41EC190BFEF781FC08EE33
:101E1000100AD748B0F9060000EE900AF8EEE00A82
:101E2000B0EE600AF0EE480AD44807F067FFD449E4
:101E3000B1F90000FEF711FC41EC1A0B9FEDCA0B43
:101E400053EC102BFEF79AFB41EC190BFEF760FCEC
:101E500008EE100AC648B0F9080000EE900AF8EE45
:101E6000E00AB0EE600AF0EE480AC64807F046FF06
:101E7000C549B1F90000FEF7F0FB41EC1A0B9FEDEC
:101E8000BA0B53EC102BFEF779FB41EC190BFEF764
:101E90003FFC08EE100AB648B0F90A0000EE900ABE
:101EA000F8EEE00AB0EE600AF0EE480AB74807F034
:101EB00025FF012007F0DAFF40B2B5490870B548A8
:101EC000007802287ED1B44890F9000091F9001002
:101ED000884206D0AE48007818B90120AF49087092
:101EE0001FE0AB480078012818D0042007F0BEFF9F
:101EF000012813D0022007F0B9FF01280ED00820D6
:101F000007F0B4FF012809D0A548B0F90C40002C17
:101F100001DB204600E060420A2802DD00209F49E4
:101F200008709E48007818B10021914801814181D4
:101F30009048C06B00EE100ADFED9A0AB4EEE00A9A
:101F4000F1EE10FA10DD8B48C06B00EE100ADFEDE9
:101F5000960AB4EEE00AF1EE10FA05D29FED930A6C
:101F600010EE100A8349C8638448C06B00EE100A63
:101F7000DFED8C0AB4EEE00AF1EE10FA10DD7F48D6
:101F8000C06B00EE100ADFED880AB4EEE00AF1EE55
:101F900010FA05D29FED850A10EE100A7749C86342
:101FA0007848C06B00EE100ADFED7E0AB4EEE00A5E
:101FB000F1EE10FA12DD7348C06B00EE100ADFED8F
:101FC0007A0A00E053E0B4EEE00AF1EE10FA05D22E
:101FD0009FED760A10EE100A6A49C8636B48C06B21
:101FE00000EE100ADFED6F0AB4EEE00AF1EE10FA2F
:101FF00010DD6648C06B00EE100ADFED6B0AB4EE30
:10200000E00AF1EE10FA05D29FED680A10EE100A10
:102010005E49C86361480078002858D05C48007861
:10202000002854D1042007F021FF00284FD10220BE
:1020300007F01CFF00284AD1082007F017FF0028EE
:1020400045D15748B0F90C000A2801DA012000E018
:102050000020E0B39FED550A10EE100A4549C86311
:102060009FED520A10EE100A4449C86371E04148DE
:10207000C06B00EE100ADFED4B0AB4EEE00AF1EEA1
:1020800010FA10DD3B48C06B00EE100ADFED460A87
:10209000B4EEE00AF1EE10FA05D29FED440A10EE1C
:1020A000100A3449C8633548C06B00EE100ADFEDF2
:1020B0003D0AB4EEE00AF1EE10FA12DD2F48C06BD3
:1020C00000EE100ADFED380AB4EEE00A00E040E06E
:1020D000F1EE10FA05D29FED350A10EE100A2749ED
:1020E000C8632848C06B00EE100ADFED2E0AB4EE7C
:1020F000E00AF1EE10FA10DD2248C06B00EE100A83
:10210000DFED290AB4EEE00AF1EE10FA05D29FEDF8
:10211000270A10EE100A1B49C8631C48C06B00EE6A
:10212000100ADFED200AB4EEE00AF1EE10FA10DD3D
:102130001648C06B00EE100ADFED1B0AB4EEE00A91
:10214000F1EE10FA05D29FED190A10EE100A0F49B0
:10215000C8630F4890F900000F490870BDEC068B6A
:1021600010BD0000E4180020000000000000244022
:102170000C1B00205F050020F8180020B00500208F
:102180000C19002001060020201900205206002012
:10219000000B0020EC0A0020FF0A0020080B0020A2
:1021A000201B002000002FC400002F44000000006E
:1021B000B2EE0E0A10EE100A2C4988612C48007805
:1021C00000EE100AB8EE400A10EE100A29498861A4
:1021D0002948007800EE100AB8EE400A10EE100A06
:1021E000264988612648007800EE100AB8EE400AB9
:1021F00010EE100A234988612348007800EE100A87
:10220000B8EE400A10EE100A204988619FED200ABE
:1022100010EE100AC8611B49C8611849C861154908
:10222000C8619FED1B0A10EE100A18490862154993
:102230000862124908620F4908629FED150A10EE04
:10224000100A124908610F4908610C4908610949DF
:1022500008619FED0F0A10EE100A0C49C861094988
:10226000C8610649C8610349C86170470E0500206E
:10227000FA0A00205F050020FB0A0020B0050020BC
:10228000FC0A002001060020FD0A00205206002062
:10229000000000002DE9F0412DED068BFE4800788E
:1022A00058B90020FD4988810021FC48C181018284
:1022B0009FEDFB0A80ED000A6FE2F74800780128E5
:1022C0007ED1F8488088F5498881F6484188F348EE
:1022D000C181F449B1F9060000EBD0714910EF4A11
:1022E00011829FEDEF0A104680ED000AED49B1F929
:1022F0000410ED4AB2F90020881A002801DB0146DB
:1023000000E04142E94A1288914230DDE548B0F9E7
:102310000400E549B1F9001088420DDDE148B0F94B
:102320000400002808DDE0480088E04909880844E6
:1023300000B2DD4908801EE0DA48B0F90400DA494D
:10234000B1F9001088420DDAD648B0F9040000282F
:1023500008DAD5480088D5490988401A00B2D24920
:10236000088008E0CF488088CF49088003E0CD4846
:102370008088CD490880CB49B1F90210CC4AB2F926
:102380000020881A002801DB014600E04142C74ACC
:102390001288914232DDC348B0F90200C449B1F954
:1023A000001088420FDDBF48B0F9020000280ADDA6
:1023B000BF480088BD490988084400B2BC4900E014
:1023C0005DE008801EE0B748B0F90200B849B1F9F5
:1023D000001088420DDAB348B0F90200002808DA8C
:1023E000B3480088B1490988401A00B2B049088052
:1023F00008E0AC484088AE49088003E0A94840881E
:10240000AB490880A848B0F9000000EE100AB8EE09
:10241000C00AA848D0ED000A20EE200ABDEEC00A8E
:1024200010EE100A00B29D498881A148B0F9000061
:1024300000EE100AB8EEC00A9E48D0ED000A20EE69
:10244000200ABDEEC00A10EE100A01B29348C18105
:102450009449B1F9060000EBD071491000EE101A52
:10246000B8EEC00A9449D1ED000A20EE200ABDEE74
:10247000C00A10EE101A0AB288490A828DE1864815
:102480000078022861D14FF496714FF4C87004F0BF
:10249000DBFE102007F0EAFC30B14FF416714FF468
:1024A0002F7004F0D1FE07E0202007F0DFFC18B108
:1024B000B421084604F0C8FE7A488089C0EB0010B9
:1024C00001B2764801827D4800680321B0FBF1F239
:1024D00001FB12000028D1D078480068B0FBF1F26F
:1024E00001FB1200012810D16C48008A404201B261
:1024F0006A480182C089404200B27149088008469A
:10250000B0F900106548C18147E16C4800680321BB
:10251000B0FBF1F201FB12000228AFD15F48C08985
:10252000404200B2664908805C488089404200B25F
:10253000644908806248B0F900105848C181614878
:10254000B0F900005549888127E1534800780328F5
:102550007DD15D485D490978405C142808D15C480C
:102560000078052804D16FF031004C49888102E0E1
:1025700000204A498881544854490978405C16280B
:10258000C2D1534800780428BED1524EF568002DC0
:1025900001DB2E4600E06E424F4FFC68002C01DB51
:1025A000274600E0674237444C4EF368002B01DBBE
:1025B0001E4600E05E423744494EF268002A01DBC5
:1025C000164600E05642B919CE1701EB9676454FF4
:1025D0003F68C7EBA600002801DB064600E0464244
:1025E00041F21537BE4203DA64212C48C181D4E0A0
:1025F00036480078401C3549087000212748C181C1
:10260000344DEC68002C01DB254600E06542324E7B
:10261000F368002B01DB1E4600E05E422E442F4D86
:10262000EA68002A01DB154600E055422E442C4D95
:10263000E968002902DB0D4601E008E04D4270190F
:10264000C51700EB9575AD10264E3560A5E0124814
:102650000078042868D12448008868B1234890EDA8
:10266000000ADFED230AB4EEE00AF1EE10FA03DD12
:102670000BF04CF81F4908601F480078012805D16D
:1026800082200649888100210448C1810BF03EF870
:1026900018490968401A31E0EC0A00200C1B0020A0
:1026A00000000000201B0020220B00201C0B00203B
:1026B000240B0020F00A0020F40A0020800C0020E7
:1026C000260B0020280B0020361B0020610B002069
:1026D000600B0020E4180020F81800200C190020DE
:1026E000201900201C0C00205A0B0020E40A0020B6
:1026F00000C02846180B0020E00A00204649086068
:1027000008460068B0F52F6F08D94448006828B122
:10271000002043490870012042490870404890F960
:1027200000004149087038E040480078052829D168
:102730003F48D0ED000A3F4890ED000A3E4807F0C0
:10274000DDFAB1EE400ABDEEC00A10EE100A01B289
:102750003A4801826FF09500384988810021374856
:10276000C1812F4890F90000401C20B96FF04F0044
:102770003249888111E02A48007870B900202F4939
:1027800088810AE000202D49888100212B48C181E1
:1027900001821FED3D0A80ED000A284890ED000AF5
:1027A000DFED270A80EE201A11EE104A2046FDF7D1
:1027B00084FF41EC1A0B9FED230B53EC102BFDF71C
:1027C0006BFE41EC190BFDF7A3FF08EE100A1B4846
:1027D000B0F9100001EE900AF8EEE11AB0EE611ABD
:1027E0001648B0F90C0001EE900AF8EEE11AF0EE8E
:1027F000610A1248B0F90E0001EE900AF8EEE11AF3
:10280000B0EE610A47F23050F0EE481A00F074F86A
:10281000BDEC068BBDE8F081040B0020180B0020F6
:10282000E00A00201E0B00201F0B0020EC0A0020F5
:10283000180D0020100B00200E0500200C1B00209E
:102840000000344397D17E5AFB21094010B524483B
:10285000007830B123480078032802D0214800785E
:1028600030B900231A4619461846FFF7EDF935E04E
:102870001D4CE46B00EE104AF7EE000A20EE200A31
:10288000BDEEC00A10EE104A23B2184CE46B00EE05
:10289000104AF7EE000A20EE200ABDEEC00A10EE44
:1028A000104A22B2124CE46B00EE104AF7EE000A16
:1028B00020EE200ABDEEC00A10EE104A21B20D4CE7
:1028C000E46B00EE104AF7EE000A20EE200ABDEE9F
:1028D000C00A10EE104A20B2FFF7B6F910BD000092
:1028E000EC0A002002000020520600200106002011
:1028F000B00500205F05002010B52DED108B8CB0C9
:10290000F0EE40AAB0EE60DAF0EE418AB0EE619AE5
:1029100004469FEDF80AB0EE408A19EE100AFDF762
:10292000CCFE41EC1C0BB0EE4C0AF0EE6C0A08F049
:102930006FFFB0EE40BAF0EE60BA1AEE900AFDF703
:10294000BCFE41EC1E0B53EC1B2BFDF7A5FDCDE9A6
:10295000000119EE100AFDF7B0FE41EC1C0BB0EEC1
:102960004C0AF0EE6C0A08F0E3FEB0EE40EAF0EE3E
:1029700060EA1DEE100AFDF7A0FE41EC1B0B53ECC4
:102980001E2BFDF789FD41EC1F0B9DED000B53EC59
:10299000102BFDF7DAFCCDE902019DED020B51ECA5
:1029A000100BFDF7B5FE09EE900A19EE100AFDF7BF
:1029B00084FE41EC1C0BB0EE4C0AF0EE6C0A08F001
:1029C00027FFB0EE40BAF0EE60BA1DEE100AFDF738
:1029D00074FE41EC1E0B53EC1B2BFDF75DFD41EC2F
:1029E0001F0B19EE100AFDF768FE41EC1B0BB0EE51
:1029F0004B0AF0EE6B0A08F09BFEB0EE40CAF0EE18
:102A000060CA1AEE900AFDF758FE41EC1E0B53EC1B
:102A10001C2BFDF741FD53EC1F2BCDE900019DED73
:102A2000000B51EC100BFDF731FDCDE902019DEDDE
:102A3000020B51EC100BFDF76BFE0AEE100AB1EE23
:102A4000690A30EE0A0A30EE280A8DED070A39EEDF
:102A50008A0A30EE280A8DED080A39EECA0A30EEED
:102A6000280A8DED090AB1EE690A30EE4A0A30EE05
:102A7000280A8DED0A0A9DED070A10EE101A084685
:102A8000FDF71BFE41EC1C0BB0EE4C0AF0EE6C0A9D
:102A900008F0B2FEB0EE40BAF0EE60BA51EC1B0B9B
:102AA000FDF736FE08EE100A18EE100AFDF705FED7
:102AB00041EC1B0B9DED080A10EE101A0846FDF7BD
:102AC000FCFD41EC1E0BB0EE4E0AF0EE6E0A08F073
:102AD00093FEB0EE40CAF0EE60CA53EC1B2B51ECF3
:102AE0001C0BFDF7FDFD18D29DED080A10EE101A23
:102AF0000846FDF7E2FD41EC1B0BB0EE4B0AF0EE91
:102B00006B0A08F079FEB0EE40CAF0EE60CA51ECF4
:102B10001C0BFDF7FDFD08EE100A18EE100AFDF77C
:102B2000CCFD41EC1E0B9DED090A10EE101A084673
:102B3000FDF7C3FD41EC1C0BB0EE4C0AF0EE6C0A45
:102B400008F05AFEB0EE40BAF0EE60BA53EC1E2B1D
:102B500051EC1B0BFDF7C4FD18D29DED090A10EED8
:102B6000101A0846FDF7A9FD41EC1B0BB0EE4B0A0D
:102B7000F0EE6B0A08F040FEB0EE40CAF0EE60CA1C
:102B800051EC1C0BFDF7C4FD08EE100A18EE100AFC
:102B9000FDF793FD41EC1B0B9DED0A0A10EE101A98
:102BA0000846FDF78AFD41EC1E0BB0EE4E0AF0EE32
:102BB0006E0A08F021FEB0EE40CAF0EE60CA53EC97
:102BC0001B2B51EC1C0BFDF78BFD18D29DED0A0A57
:102BD00010EE101A0846FDF770FD41EC1C0BB0EE2C
:102BE0004C0AF0EE6C0A08F007FEB0EE40BAF0EEC8
:102BF00060BA51EC1B0BFDF78BFD08EE100A00EEDE
:102C0000104AB8EE400AB4EEC08AF1EE10FA44DD84
:102C100000EE104AB8EE400AC0EE080A9DED070A21
:102C200020EE800ABDEEC00A10EE100A00B2ADF828
:102C3000100000EE104AF8EE400A80EE880ADDED42
:102C4000080A20EE200ABDEEC00A10EE100A00B2FB
:102C5000ADF8120000EE104AF8EE400A80EE880A45
:102C6000DDED090A20EE200ABDEEC00A10EE100AC2
:102C700000B2ADF8140000EE104AB8EE400AC0EE03
:102C8000080A9DED0A0A20EE800ABDEEC00A10EE89
:102C9000100A00B2ADF8160023E09DED070ABDEE64
:102CA000C00A10EE100A00B2ADF810009DED080A3F
:102CB000BDEEC00A10EE100A00B2ADF812009DED94
:102CC000090ABDEEC00A10EE100A00B2ADF81400F9
:102CD0009DED0A0ABDEEC00A10EE100A00B2ADF872
:102CE00016000548DDE90412C0E901120CB0BDEC84
:102CF000108B10BD000000000C1B002070B504F00C
:102D0000EDF91448FFF741F804461348FFF73DF882
:102D1000054612490F48FEF7EFFF11490E48FEF72E
:102D2000EBFF01230D4A18320C490E4800F064FEF7
:102D300001230B4A18320A490B4800F05DFE0B488C
:102D40000088401C09490880074801F042F80849FA
:102D5000086070BD981300201C160020A41B0020E2
:102D6000081C0020A01C0020501C00205A0000203D
:102D7000AC0A002008B50AF0C9FC009000BFFFF7BC
:102D8000BDFF04F077F904F0C3F904F0A7F90121BD
:102D900068460AF0BBF8F2E710B5FFF709FAFFF74B
:102DA00079FAFEF7FFFFFFF751FD10BD10B50020C7
:102DB0000249086007F0F0F810BD0000180000207C
:102DC00010B510480068401C0E49086006F03EFB34
:102DD0000C48007800F0030018B9FFF7DDFF05F09C
:102DE000D7FB084800680A21B0FBF1F201FB120092
:102DF00008B900F0E1FD04F0EBF904F037F903F055
:102E00009FFF10BD1800002010B5024801F03EFBE6
:102E100010BD00009420002010B5024801F036FBE0
:102E200010BD000034200020014608781038182317
:102E3000B0FBF3F20848805CC865032A05D908682E
:102E40006FF30900001D886503E008686FF309004F
:102E50008865886D7047000062DE0008014600202A
:102E60008A6A8B69CBB932B1012A0DD0022A03D00C
:102E7000032A10D10EE000BFCB6A03F08073B3F1D8
:102E8000807F00D1012007E0CB6AB3F1C07F00D181
:102E9000012001E000E000BF34E08B69B3F5005F82
:102EA0001AD132B1012A07D0022A03D0032A11D144
:102EB0000AE000BF01200EE0CB6A03F08073B3F19B
:102EC000807F00D1012006E0CB6AB3F1C07F00D142
:102ED000012000E000BF15E032B1012A05D0022A2E
:102EE00004D0032A0CD103E000BF00BF012008E09A
:102EF000CB6A03F08073B3F1807F00D1012000E042
:102F000000BF00BF704730B50468246824F48024F3
:102F100005682C60046863608468402C04D10468F0
:102F2000A2600468E16003E00468A1600468E260F4
:102F300030BD000070B50446B4F80150E61D60795C
:102F400027490880A07900022649088008460088A1
:102F5000234909880843244908800846008840F22C
:102F60000122811A904228D007DC01280AD00228C9
:102F70000ED0A0F2011070BB11E0012924D0052968
:102F80002AD113E02A4631461848FDF7BAF924E061
:102F90002A4631461548C01CFDF7B3F91DE02A4604
:102FA00031461248801DFDF7ACF916E02A4631463D
:102FB0000E484130FDF7A5F90FE02A4631460B488F
:102FC0001130FDF79EF908E02A46314607482030C7
:102FD000FDF797F901E0FFE700BF00BF70BD0000FB
:102FE000C40A0020C20A0020C60A0020FC190020E2
:102FF0007047000010B5C448007830B1012813D0E4
:1030000002287DD003287CD170E10020BF490870E0
:10301000BF490870BF490870BF49087000221021DD
:10302000BE4801F063FD6CE10120B8490870B84961
:103030000870B8490870B8490870B9480078002885
:103040007AD0B74800780B2877D2DFE800F08313F6
:10305000063A2D20475B688377000120AB49087052
:103060000320AB4908700020AA4908700420AA492F
:10307000087070E00020A54908700320A44908707A
:103080000020A44908700320A349087063E00120D0
:103090009E49087003209E49087000209D490870D1
:1030A00007209D49087056E00020984908700320C9
:1030B00097490870002097490870062096490870C3
:1030C00049E00020914908700320914908700020D0
:1030D000904908700520904908703CE000208B4919
:1030E000087002208A4908709FED8E0A8E4880ED94
:1030F000000A0020874908700820874908702AE0E4
:1031000051E0F4E0032081490870042080490870F0
:1031100003208049087000207F4908701BE00420CC
:103120007A49087005207A490870042079490870A6
:103130000020794908700EE00EE00BE00020734992
:1031400008700320724908700020724908707249A3
:10315000087000E000BF25E074480078012809D11C
:103160006B490870694908706A49087000206A490B
:1031700008700FE06D48007803280BD100206349E8
:10318000087001206249087000206249087001201F
:103190006149087000221021604801F0A7FC00205E
:1031A00063490870ADE0022058490870584908701A
:1031B000584908705849087059480078002878D054
:1031C000574800780B2875D2DFE800F08113063AE3
:1031D0002D2047596681750002204C490870032054
:1031E0004B49087000204B49087004204A49087078
:1031F0006EE0002045490870032045490870002012
:103200004449087003204449087061E002203F49A6
:10321000087003203E49087000203E4908700720CE
:103220003D49087054E000203849087003203849AF
:10323000087000203749087006203749087047E0B9
:1032400000203249087003203149087000203149BC
:1032500008700520304908703AE000202B490870BA
:1032600002202B4908709FED2F0A2F4880ED000A9D
:1032700000202849087008202749087028E003200A
:10328000224908700420224908700320214908704F
:103290000020214908701BE004201C49087005200B
:1032A0001B49087004201B49087000201A49087047
:1032B0000EE00EE00BE000201449087003201449D2
:1032C00008700020134908701349087000E000BF1F
:1032D0000BE002200D4908700D4908700D49087077
:1032E0000D4908700020124908700AE009E000202A
:1032F00006490870064908700649087006490870B2
:1033000000BF00BF10BD000004000020CC0A002058
:10331000EC0A0020540B0020600B0020000002404B
:1033200005000020CDCC4C3FF00A0020201B0020DF
:10333000610B002008B50AF0E9F90090FFF736FDAF
:1033400000BFFFF73DFD0121684609F0DFFDF8E70A
:1033500010B5102001F0A2FA02480068401C014993
:10336000086010BD0800002010B505480088401C0A
:10337000034908804FF4807001F090FA10BD0000FE
:103380001000002010B52DED068B3E49B1F900006C
:10339000FDF763F941EC1A0B9FED3B0B53EC102B3F
:1033A000FDF7ECF841EC190BFDF7B2F908EE100A45
:1033B0003748B0F9000000EE900AF8EEE00AB0EEEF
:1033C000600AF0EE480A334806F098FC3249B1F939
:1033D0000000FDF742F941EC1A0B9FED2B0B53EC6B
:1033E000102BFDF7CBF841EC190BFDF791F908EE26
:1033F000100A2748B0F9020000EE900AF8EEE00A41
:10340000B0EE600AF0EE480A244806F077FC214846
:10341000C06B00EE100ADFED220AB4EEE00AF1EE16
:1034200010FA10DD1B48C06B00EE100ADFED1D0A1C
:10343000B4EEE00AF1EE10FA05D29FED1B0A10EE91
:10344000100A1449C8631548C06B00EE100ADFED7E
:10345000140AB4EEE00AF1EE10FA10DD0F48C06B6A
:1034600000EE100ADFED0F0AB4EEE00AF1EE10FAFA
:1034700005D29FED0D0A10EE100A0849C863BDEC95
:10348000068B10BDAC190020000000000000584061
:103490004A0B002045070020C01900209607002095
:1034A0000000C8C30000C843000000000E480078B8
:1034B00000EE100AB8EE400A10EE100A0B498861BF
:1034C0000B4988619FED0B0A10EE100A0749C8618D
:1034D0000749C8619FED070A10EE100A0349086208
:1034E0000349086270470000550B00209607002032
:1034F000450700200000000010B54248007805286C
:1035000078D2DFE800F07203153B56003E49B1F96E
:10351000040000EBD07149103C4A11803A49B1F9DE
:103520000410484200EBD071491009B2518066E0A6
:103530004FF4007006F09AFC012809D13248007D52
:10354000012805D1C820314908804042488014E054
:103550004FF4804006F08AFC01280AD12A48007DF9
:10356000012806D16FF0C70028490880C82048808C
:1035700003E0002025490880488040E02448007886
:10358000012805D1782021490880404248800FE079
:103590001F4890F90000401C30B96FF077001B49BC
:1035A00008807820488003E000201849088048807F
:1035B00025E017480078012805D1462013490880E6
:1035C000404248800FE0124890F90000401C30B99A
:1035D0006FF045000D4908804620488003E0002038
:1035E0000A49088048800AE004E000200749088072
:1035F000488004E0002005490880488000BF00BFE3
:1036000010BD0000540B0020201B00204A0B00209E
:10361000E00A002070B52DED048B1E4800780328C9
:1036200008D01C48007828B11B48007810B11B480E
:10363000007820B900210846FEF71AFA27E018485A
:10364000C16B0846FDF739F841EC190B9FED150BDE
:1036500053EC102BFCF720FF41EC180BFDF70EF894
:1036600004B21248C16B0846FDF727F841EC190B6C
:103670009FED0C0B53EC102BFCF70EFF41EC180BDD
:10368000FCF7FCFF05B221462846FEF7F1F9BDEC38
:10369000048B70BD0200002004000020540B0020A9
:1036A00096070020000000000000F83F45070020BA
:1036B00010B592480088401C90490880904890EDD1
:1036C000020A904880ED000A8D4890ED010A8D486D
:1036D00080ED010A8A4890ED000A8A4880ED020ACE
:1036E000874890ED050A874880ED040A844890EDEC
:1036F000040AB1EE400A834880ED050A804890ED47
:10370000030AB1EE400A7F4880ED060A7E4890ED3C
:10371000000A7E4880ED000A7D4890ED000A7A4854
:1037200080ED000A90ED000A7848D0ED000A30EEF6
:10373000600ADFED780AB4EEE00AF1EE10FA05DB7C
:1037400075480068401E7449086013E06E4890EDAB
:10375000000A6E48D0ED000A30EE600ADFED6F0A15
:10376000B4EEE00AF1EE10FA04D86B480068401C91
:103770006949086009F0CAFF6949086009F0C6FF95
:10378000B0F57A7F7ED909F0C1FF66490968401A11
:1037900000EE100AB8EE400A5A48D0ED060A20EEB4
:1037A000200A9FED611AC0EE010A9FED5F0A80EECC
:1037B000801A9FED5E0AB4EEC01AF1EE10FA02DD37
:1037C00000205749086009F0A1FF56490968401ACE
:1037D00000EE100AB8EE400A4A48D0ED050A20EE85
:1037E000200A9FED511AC0EE010A514890ED000ADF
:1037F00030EE800A80ED000A09F088FF4949096827
:10380000401A00EE100AB8EE400A3E48D0ED040A15
:1038100020EE200ADFED440A80EE201A454890EDA4
:10382000000A31EE000A80ED000A09F06FFF3D4901
:103830000968401A00EE100AB8EE400A3148D0ED8F
:10384000060A20EE200ADFED380A80EE201A3A48F8
:1038500090ED000A31EE000A80ED000A344890ED48
:10386000000ADFED360AB4EEE00AF1EE10FA08DCE9
:1038700090ED000ADFED320AB4EEE00AF1EE10FA44
:1038800006D200E038E09FED2F0A294880ED000ABB
:10389000284890ED000ADFED290AB4EEE00AF1EEC7
:1038A00010FA08DC90ED000ADFED250AB4EEE00A1C
:1038B000F1EE10FA04D29FED230A1E4880ED000AB3
:1038C0001D4890ED000ADFED1D0AB4EEE00AF1EEAE
:1038D00010FA08DC90ED000ADFED190AB4EEE00AF8
:1038E000F1EE10FA04D29FED170A134880ED000A9A
:1038F00009F00CFF0B49086010BD00006A000020B1
:10390000AC230020D8220020FC0C0020080D002051
:10391000E02300200000A543200D00200000A5C3E7
:10392000240D00202C0D002000007A440000C84225
:103930001C0D0020180D0020140D00200000B443C1
:103940000000B4C30000000070B503464FF4FA75E0
:1039500013B94FF6FF7070BD09E013F8014B82EA0E
:103960000400C0B2074E36F8100080EA2222081E7A
:10397000A1F1010104D0281EA5F10106B5B2ECDCCD
:103980001046E8E732DC000870B503464FF4FA75DC
:1039900005E013F8010B80EA02040648025D081EE8
:1039A000A1F1010104D0281EA5F10106B5B2F0DC99
:1039B000104670BD31DB000810B5FFF79DFDFFF725
:1039C00075FDFFF7DFFCFFF725FE10BD024692F8FC
:1039D0002000012803D092F82000022806D11068A8
:1039E000406908431368586100207047506A40F4EA
:1039F000802050620120F8E770B504460D46A868A3
:103A000000B900E000BF94F82000012803D094F82A
:103A1000200002287FD12068806800F0806050B9C3
:103A20002068806800F0006028B92068806800F095
:103A30008050002869D020688068C0F301610120AF
:103A400088401860A86850B92E88E86840EA465651
:103A5000206800F5C07000EB011006600BE0D5E9AE
:103A6000016040EAC600EE683043266806F5C0767D
:103A700006EB011630602E69206800F5C07000EB7F
:103A800001104660287D01280DD1206800F5C07026
:103A900000EB0110406840F48076206800F5C070AB
:103AA00000EB01104660D0790006967940EA0640A6
:103AB000567940EA062610790643206800F5C07062
:103AC00000EB0110C660D0780006967840EA064008
:103AD000567840EA062016783043266806F5C07608
:103AE00006EB0116B060206800F5C07000EB011015
:103AF000006840F00106206800F5C07000EB01107E
:103B00000660002070BD06E0FFE7606A40F4001028
:103B100060620120F6E7606A40F480206062012064
:103B2000F0E7000070B504460A460023216894F8C7
:103B30002000012803D094F8200002287CD14149BC
:103B400001F50071086840F001000860086820F481
:103B50007C5008600868556A40EA05200860157DB9
:103B6000012000FA05F3C8699843C861A1F5007106
:103B7000D069C8B9D1F80C029843C1F80C029088FA
:103B800080B2958940EA054501F51070566940F804
:103B90003650108880B2158940EA054501F510704D
:103BA000566900EBC6004560D069012819D1D1F8EB
:103BB0000C021843C1F80C02908880B2158840EAC4
:103BC000054501F51070566940F83650908980B26D
:103BD000158940EA054501F51070566900EBC600ED
:103BE0004560906928B9D1F804029843C1F80402ED
:103BF00004E0D1F804021843C1F80402106928B99E
:103C0000D1F814029843C1F8140204E0D1F8140268
:103C10001843C1F81402106A012804D1D1F81C021B
:103C20001843C1F81C02D1F8000220F00100C1F8CD
:103C30000002002070BDFFE7606A40F480206062EF
:103C40000120F7E700640040704730B5044694F85F
:103C50002000012803D094F8200002287DD151B91A
:103C60002068C06800F0030090B9606A40F400105A
:103C70006062012030BD01290AD12068006900F08E
:103C8000030028B9606A40F4001060620120F1E787
:103C9000206800F5D87000EB0110006800F0040007
:103CA0009060906840B9206800F5D87000EB011072
:103CB0000068400D106007E0206800F5D87000EB48
:103CC00001100068C0085060206800F5D87000EB53
:103CD0000110006800F002004008D060206800F584
:103CE000D87000EB0110406800F00F0010612068F0
:103CF00000F5D87000EB0110406800F47F40000A26
:103D00009061206800F5D87000EB01104068000C4D
:103D10005061206800F5D87000EB011080681870C1
:103D2000206800F5D87000EB0110806800F47F4037
:103D3000000A5870206800F5D87000EB0110806808
:103D400000F47F00000C9870206800F5D87000EB3C
:103D500001108068000ED87000E034E0206800F5A3
:103D6000D87000EB0110C0681871206800F5D87099
:103D700000EB0110C06800F47F40000A5871206811
:103D800000F5D87000EB0110C06800F47F00000C53
:103D90009871206800F5D87000EB0110C068000E23
:103DA000D87131B92068C06840F020002568E8600B
:103DB00007E0012905D12068006940F0200025684E
:103DC0002861002056E7606A40F48020606201208C
:103DD00050E70146002091F82020012A03D091F8F5
:103DE0002020022A11D10A68926802F0806202B192
:103DF000401C0A68926802F0006202B1401C0A6826
:103E0000926802F0805202B1401C70472DE9F05FC9
:103E100004460025206846692068D0F80490206890
:103E200087682068D0F80CA02068D0F810B020680F
:103E3000D0F8188006F00100002855D007F00100E6
:103E4000C0B101202168886007F0020018B1204647
:103E500000F082FA0EE007F0040010B145F40065AE
:103E600008E007F0080010B145F4805502E0204654
:103E700000F071FA07F48070C8B14FF480702168C7
:103E8000886007F4007018B1204600F0A6FA0EE032
:103E900007F4806010B145F4005508E007F40060B5
:103EA00010B145F4804502E0204600F095FA07F491
:103EB0008030C8B14FF480302168886007F400304A
:103EC00018B1204600F08BFA0EE007F4802010B104
:103ED00045F4004508E007F4002010B145F48035B2
:103EE00002E0204600F07AFA06F0080038B10AF045
:103EF000100020B145F4007510202168C86006F05C
:103F0000040040B10AF0080028B108202168C86008
:103F1000204600F0C1F906F0020038B12068C06800
:103F200000F0030010B1204600F0B8F906F04000A0
:103F300038B10BF0100020B145F4806510202168E5
:103F4000086106F0200040B10BF0080028B10820FD
:103F500021680861204600F0CBF906F0100038B166
:103F60002068006900F0030010B1204600F0C1F99C
:103F700006F4003040B109F0100028B1102021688B
:103F80004860204600F0B6F906F4803040B109F0F0
:103F9000080028B1082021684860204600F020FA77
:103FA00006F4004088B309F0040078B306F480708A
:103FB00020B108F0010008B145F0010506F40070D9
:103FC00020B108F0020008B145F0020506F4806057
:103FD00020B108F0040008B145F0040506F40060C3
:103FE000A0B108F0700088B108F07000402817D028
:103FF00006DC10280BD020280CD0302819D10CE07A
:10400000502810D0602814D110E01DE019E045F0D0
:1040100008050FE045F010050CE045F0200509E02B
:1040200045F0400506E045F0800503E045F4807565
:1040300000E000BF00BF2068806920F070002168A8
:1040400088610420216848602DB1606A284360625D
:104050002046FFF7F9FDBDE8F09F70B50446002546
:104060000CB9012070BD94F8200010B9204600F072
:10407000AFF82068006820F002002168086000F0B6
:104080003BFD05460DE000F037FD401B0A2808D92E
:10409000606A40F400306062052084F8200001204E
:1040A000E0E72068406800F002000028EBD12068BB
:1040B000006840F001002168086000F01DFD054621
:1040C0000DE000F019FD401B0A2808D9606A40F491
:1040D00000306062052084F820000120C2E72068DB
:1040E000406800F001000028EBD0207E012806D1B6
:1040F0002068006840F080002168086005E02068C2
:10410000006820F0800021680860607E012806D1E8
:104110002068006840F040002168086005E02068E1
:10412000006820F0400021680860A07E012806D1C8
:104130002068006840F020002168086005E02068E1
:10414000006820F0200021680860E07E012806D188
:104150002068006820F010002168086005E02068F1
:10416000006840F0100021680860207F012806D117
:104170002068006840F008002168086005E02068B9
:10418000006820F0080021680860607F012806D1DF
:104190002068006840F004002168086005E020689D
:1041A000006820F0040021680860D4E90201084397
:1041B00021690843616908436168491E0843216811
:1041C000C86100206062012084F82000002049E7D7
:1041D00010B586B004462B49206888421ED100BF26
:1041E000002000902848006840F0007026490860D0
:1041F0000846006800F00070009000BF00BF032078
:1042000001900220029000200390032004900920D6
:10421000059001A91D4800F04FFB31E01C492068C2
:1042200088422DD100BF002000901748006840F060
:104230008060154908600846006800F080600090C2
:1042400000BF00BF00BF002000900846006840F09B
:10425000007008600846006800F00070009000BF21
:1042600000BF4FF4405001900220029000200390C4
:10427000032004900920059001A9064800F01CFBCA
:1042800006B010BD0064004040380240000C0240FF
:1042900000680040000402407047000010B504466A
:1042A0000D492068884209D10C4BA3F11C02002162
:1042B0000B48FFF7CAFCFDF775FB0CE009492068C5
:1042C000884208D1084BA3F11C0200210748FFF7E0
:1042D000BCFCFDF715FC10BD006400407C1B0020F9
:1042E000A01C002000680040E01B0020501C0020A3
:1042F00070477047704770B50446002594F8200059
:10430000012822D1022084F820002068006820F0D3
:1043100001002168086000F0EFFB05460DE000F0A9
:10432000EBFB401B0A2808D9606A40F40030606249
:10433000052084F82000012070BD2068406800F04E
:1043400001000028EBD16062F6E7606A40F40020CB
:1043500060620120F0E7704770B504461649206896
:10436000884211D11548FDF710FD0546002D0ADDE4
:1043700013491248FDF7C0FC0123114A18321049B5
:104380001048FFF739FB00BF0F492068884211D160
:104390000E48FDF7FAFC0546002D0ADD0C490B48D6
:1043A000FDF7AAFC01230A4A183209490948FFF718
:1043B00023FB00BF70BD0000006400409813002084
:1043C000A41B0020A01C0020006800401C16002038
:1043D000081C0020501C0020704770477047704731
:1043E000704770B50446A56D00F086FB064694F84C
:1043F0003500022808D08020606500BF002084F8C6
:10440000340000BF012070BD2068006820F0160055
:10441000216808602068406920F0800021684861B8
:10442000206C08B9A06C28B12068006820F0080052
:10443000216808602068006820F001002168086099
:104440000FE000F059FB801B05280AD92020606589
:1044500000BF002084F8340000BF032084F835003A
:10446000D1E72068006800F001000028E9D194F845
:104470005C103F208840A86000BF002084F8340012
:1044800000BF012084F835000020BCE7F8B50446E1
:10449000002000908C4800684FF41651B0FBF1F7F3
:1044A000A56D2E6894F85C1008208840304098B1C3
:1044B0002068006800F0040070B12068006820F0F7
:1044C00004002168086094F85C1008208840A86007
:1044D000606D40F00100606594F85C100120884038
:1044E000304068B12068406900F0800040B194F825
:1044F0005C1001208840A860606D40F0020060659B
:1045000094F85C1004208840304068B1206800684E
:1045100000F0020040B194F85C1004208840A860CC
:10452000606D40F00400606594F85C1010208840D5
:10453000304078B32068006800F0080050B394F869
:104540005C1010208840A8602068006800F480207B
:1045500080B12068006800F4002028B9206CC8B140
:104560002046216C884715E0A06C98B12046A16CCC
:1045700088470FE02068006800F4807028B9206840
:10458000006820F0080021680860206C10B1204607
:10459000216C884794F85C10202088403040002827
:1045A00065D02068006800F0100000285FD094F803
:1045B0005C1020208840A86094F83500052828D198
:1045C0002068006820F016002168086020684069B3
:1045D00020F0800021684861206C08B9A06C28B1E7
:1045E0002068006820F008002168086094F85C10DA
:1045F0003F208840A86000BF002084F8340000BF3E
:10460000012084F83500206D10B12046216D8847C7
:10461000F8BD2068006800F4802080B12068006840
:1046200000F4002028B9606C10B12046616C884706
:104630001DE0E06BD8B12046E16B884717E02068A9
:10464000006800F4807068B92068006820F01000ED
:104650002168086000BF002084F8340000BF0120FA
:1046600084F83500E06B10B12046E16B8847606D3F
:1046700038B3606D00F00100F0B1052084F835001A
:104680002068006820F001002168086000BF0098E1
:10469000401C0090B84200D905E02068006800F096
:1046A00001000028F3D100BF00BF002084F83400CF
:1046B00000BF012084F83500E06C10B12046E16CA9
:1046C000884700BFA4E700008C0C00202DE9F041D2
:1046D0000446002500F010FA074614B90120BDE891
:1046E000F081606A00B100BF00BF002084F8340090
:1046F00000BF022084F835002068006820F0010027
:10470000216808600AE000F0F7F9C01B052805D908
:1047100020206065032084F83500E0E72068006809
:1047200000F001000028EED120680568214805400E
:10473000D4E901010843E16808432169084361693C
:104740000843A1690843E1690843216A0843054316
:10475000606A042803D1D4E90B01084305432068AB
:1047600005602068456925F00705606A0543606AB1
:1047700004280DD1A06A0543E06A48B12046FEF73F
:104780006DFB28B140206065012084F83500A6E764
:10479000206845612046FEF747FB064694F85C100A
:1047A0003F208840B06000206065012084F835001B
:1047B000002094E73F8010F02DE9F04704460D46B5
:1047C00016461F464FF00008D4F8589000BF94F8E2
:1047D0003400012802D10220BDE8F087012084F8CE
:1047E000340000BF94F8350001282BD1022084F852
:1047F0003500002060653B46324629462046FEF7DC
:1048000082FB94F85C103F208840C9F808002068BB
:10481000006840F01600216808602068406940F098
:10482000800021684861206C28B12068006840F051
:104830000800216808602068006840F001002168D5
:10484000086006E000BF002084F8340000BF4FF08D
:1048500002084046C0E7000070B5044600F04CF97D
:1048600006462546681C10B104480078054400BF80
:1048700000F042F9801BA842FAD370BD480D002019
:1048800010B50446B4F5807F04D1012002490870B8
:10489000FEF70EFF10BD00009D0C002010B5044671
:1048A00004480068204020B1024804602046FFF719
:1048B000E7FF10BD143C0140F8B502460B46002549
:1048C000002400200021E6E0012606FA01F51E681A
:1048D00006EA0504AC4273D15E68022E02D05E681F
:1048E000122E13D1CF0802F1200656F827004E07EA
:1048F000F70E0F26BE40B0434F07FF0E1E69BE40A5
:104900003043CF0802F1200646F8270010684F0018
:104910000326BE40B0431E7906F003064F00BE409A
:10492000304310605E68012E08D05E68022E05D00C
:104930005E68112E02D05E68122E13D190684F006F
:104940000326BE40B0434F00DE68BE403043906057
:10495000506801268E40B0431E79C6F300168E4083
:1049600030435060D0684F000326BE40B0434F0034
:104970009E68BE403043D0605E6806F08056B6F157
:10498000805FA8D100BF00260096454E366846F4E9
:104990008046434F3E603E46366806F480460096A9
:1049A00000BF00BF3F4E8F0856F827008E07370F15
:1049B0000F26BE40B0433C4EB24202D100262EE04C
:1049C00068E03A4EB24201D1012628E0384EB242A8
:1049D00001D1022623E0374EB24201D103261EE068
:1049E000354EB24201D1042619E0344EB24201D113
:1049F000052614E0324EB24201D106260FE0314EB8
:104A0000B24201D107260AE02F4EB24201D1082658
:104A100005E02E4EB24201D1092600E00A268F079A
:104A20003F0FBE4030431F4E8F0846F82700284EE8
:104A30003068A0435E6806F48036B6F5803F00D14A
:104A40002043234E3060361D3068A0435E6806F474
:104A50000036B6F5003F00D120431D4E361D3060B4
:104A6000361D3068A0435E6806F48016B6F5801FD8
:104A700000D12043164E08363060361D3068A04302
:104A80005E6806F40016B6F5001F00D12043104EF4
:104A90000C363060491C1029FFF416AFF8BD000039
:104AA000443802400838014000000240000402403F
:104AB00000080240000C02400010024000140240B6
:104AC00000180240001C0240002002400024024066
:104AD000003C0140024613690B400BB1012000E08D
:104AE0000020704742694A40426170470AB18161C3
:104AF00001E00B04836170470148006870470000C3
:104B0000400D002003480068034909780844014922
:104B100008607047400D0020480D002010B50D487A
:104B2000006840F400700B4908600846006840F4D3
:104B3000806008600846006840F4807008600320C8
:104B400000F0E8F8002000F007F800F049F8002035
:104B500010BD0000003C024070B588B0044600253E
:104B60000026002221461C2000F095F81C2000F0B1
:104B700085F800BF002001901648006840F0010051
:104B8000144908600846006800F00100019000BF69
:104B900000BF02A903A800F091F900F0B7F94500A1
:104BA0000D48B5FBF0F0461E4FF080400B49086001
:104BB00040F2E7310948C16046600021016181602F
:104BC00000F0F5FE20B9054800F035FF08B070BDD3
:104BD0000120FBE74038024040420F007C220020C9
:104BE00008B500BF002000902348006840F48040D2
:104BF000214908600846006800F48040009000BF2A
:104C000000BF00BF00200090081F006840F08050E7
:104C1000091F08600846006800F08050009000BF3F
:104C200000BF032000F076F8002211466FF00B0061
:104C300000F031F8002211466FF00A0000F02BF866
:104C4000002211466FF0090000F025F800221146FD
:104C5000501F00F020F800221146101F00F01BF832
:104C600000220F21901E00F016F800220F21501E86
:104C700000F011F808BD00004438024000BF00F009
:104C80001F02012191404209920002F1E022C2F884
:104C9000001100BF70472DE9F05F80460D461646B3
:104CA000002704F0E3FB074639462A46334601F065
:104CB0000700C0F1070ABAF1040F02D94FF0040A45
:104CC00001E0C0F1070AD14600F1040ABAF1070F6A
:104CD00002D24FF0000A01E0A0F1030AD4464FF0DF
:104CE000010A0AFA09FAAAF1010A0AEA020A0AFA08
:104CF0000CFA4FF0010B0BFA0CFBABF1010B0BEABA
:104D0000030B4AEA0B042146404604F0B7FBBDE81A
:104D1000F09F000000BF00F00702064B19684FF635
:104D2000FF031940044B0B4343EA0221014B196076
:104D300000BF70470CED00E00000FA0570B50446B6
:104D40000D460CB9012070BD5848006800F00F00F6
:104D5000A84209D255490D700846006800F00F00BE
:104D6000A84201D00120EEE7207800F002000228DE
:104D70001DD1207800F00400042805D14C480068BB
:104D800040F4E0504A490860207800F00800082804
:104D900005D14748006840F46040454908604448F0
:104DA000006820F0F000A1680843414908602078BD
:104DB00000F00100A8B36068012807D13C4808381A
:104DC0000068C0F34040B8B90120BCE76068022821
:104DD00002D06068032807D1354808380068C0F35E
:104DE000406048B90120AEE7314808380068C0F398
:104DF000400008B90120A6E72D48006820F0030014
:104E0000616808432A490860FFF776FE064609E014
:104E1000FFF772FE801B41F28831884202D90320DD
:104E200091E707E02248006800F00C006168B0EBF1
:104E3000810FEDD11D48006800F00F00A84209D98C
:104E40001A490D700846006800F00F00A84201D012
:104E5000012078E7207800F00400042807D11448E6
:104E6000006820F4E050E1680843114908602078A8
:104E700000F00800082808D10D48006820F46040C0
:104E8000216940EAC1000A49086000F05FF808495A
:104E90000968C1F30311074A515CC840064908601C
:104EA0000020FFF759FE00204DE70000003C0240C3
:104EB0000838024032DE00088C0C00200F2202600D
:104EC0000D4A126802F0030242600B4A126802F0B7
:104ED000F0028260084A126802F4E052C260064A98
:104EE000126802F46042D2080261044A126802F0B9
:104EF0000F020A607047000008380240003C024080
:104F000001480068704700008C0C002000B5FFF7D6
:104F1000F7FF04490968C1F38221034A515CC84084
:104F200000BD00000838024042DE000800B5FFF76F
:104F3000E7FF04490968C1F34231034A515CC840A4
:104F400000BD00000838024042DE00082DE9F047AD
:104F5000002400250026A1462548006800F00C002A
:104F600020B1042805D008283AD105E0DFF8849064
:104F700039E0DFF8849036E01D48001F006800F03B
:104F80003F041B48001F006800F4800078B11A48F5
:104F90001749091F0968C1F38811A0FB0170014678
:104FA000224600233846FBF77BF905460EE0114800
:104FB0000F49091F0968C1F38811A0FB0170014660
:104FC000224600233846FBF76BF905460848001FC8
:104FD0000068C0F30140401C4600B5FBF6F902E052
:104FE000DFF8109000BF00BF4846BDE8F087000022
:104FF000083802400024F400001BB700F8B504464E
:105000000CB90120F8BD207800F00100002874D010
:10501000F948006800F00C0004280DD0F64800683C
:1050200000F00C00082813D1F348001F006800F4BA
:105030008000B0F5800F0BD1EF4808380068C0F34E
:105040004040002859D06068002856D10120D9E797
:1050500000BF6068B0F5803F08D1E74808380068B5
:1050600040F48030E449083908601EE06068B0F51B
:10507000A02F0DD1E0480838006840F48020DE49B8
:10508000083908600846006840F4803008600CE089
:10509000D9480838006820F48030D74908390860BA
:1050A0000846006820F48020086000BF606890B166
:1050B000FFF722FD054606E0FFF71EFD401B6428B2
:1050C00001D903209EE7CC4808380068C0F340406F
:1050D0000028F1D011E0FFF70FFD054606E0FFF7CD
:1050E0000BFD401B642801D903208BE7C248083818
:1050F0000068C0F340400028F1D1207800F00200A1
:1051000002285FD1BC48006800F00C0058B1BA48D2
:10511000006800F00C0008281CD1B748001F006888
:1051200000F48000B0B9B44808380068C0F340000B
:1051300020B1E068012801D0012063E7AE480838BB
:10514000006820F0F800216940EAC100AA49083946
:10515000086037E0E06800B30120A8490860FFF765
:10516000CBFC054606E0FFF7C7FC401B022801D92F
:10517000032047E7A04808380068C0F34000002833
:10518000F1D09D480838006820F0F800216940EA15
:10519000C10099490839086014E000209749086067
:1051A000FFF7AAFC054606E0FFF7A6FC401B022815
:1051B00001D9032026E7904808380068C0F3400072
:1051C0000028F1D1207800F0080008282CD160696F
:1051D000A8B101208A490860FFF78EFC054606E069
:1051E000FFF78AFC401B022801D903200AE7824806
:1051F0006C300068C0F340000028F1D014E00020BB
:105200007F490860FFF778FC054606E0FFF774FC6D
:10521000401B022801D90320F4E677486C3000686F
:10522000C0F340000028F1D1207800F004000428E9
:1052300070D1002670483830006800F0805090B976
:1052400000BF002000906C483830006840F080506B
:105250006949383108600846006800F080500090C5
:1052600000BF00BF01266748006800F48070B0B935
:105270006448006840F4807062490860FFF73CFCB5
:10528000054606E0FFF738FC401B022801D9032041
:10529000B8E65C48006800F480700028F2D000BFD7
:1052A000A068012808D154486830006840F0010027
:1052B0005149683108601DE0A06805280DD14E48AD
:1052C0006830006840F004004B49683108600846C7
:1052D000006840F0010008600CE047486830006852
:1052E00020F001004449683108600846006820F059
:1052F0000400086000BFA068A8B1FFF7FDFB0546E9
:1053000009E0FFF7F9FB401B41F28831884202D9DE
:10531000032077E626E0384868300068C0F3400094
:105320000028EED013E0FFF7E7FB054608E0FFF7A3
:10533000E3FB401B41F28831884201D9032061E63A
:105340002D4868300068C0F340000028EFD1012EDE
:1053500007D129483830006820F08050264938317C
:10536000086000BFA069B8B32348006800F00C00D3
:1053700008285ED0A069022846D100201F4908668F
:10538000FFF7BAFB054606E0FFF7B6FB401B022815
:1053900001D9032036E6184808380068C0F3406099
:1053A0000028F1D1D4E907010843616A40EA81117C
:1053B0000122A06AC2EB500041EA00412C20005DAE
:1053C00041EA00600C49091F086001200B4908668A
:1053D000FFF792FB054607E02DE0FFF78DFB401B32
:1053E000022801D903200DE6034808380068C0F3FD
:1053F00040600028F1D01EE008380240000047421B
:10540000800E47420070004000200C490866FFF7FC
:1054100073FB054606E0FFF76FFB401B022801D92E
:105420000320EFE506480068C0F340600028F2D191
:1054300001E00120E6E50020E4E50000000047422D
:105440000038024010B504460CB9012010BD606A56
:1054500000B900BF0021A16294F8510028B90020D2
:1054600084F85000204600F033F8022084F8510000
:105470002068006820F0400021680860D4E901013C
:105480000843E16808432169084361690843218BA7
:1054900001F400710843E1690843216A0843A16AE5
:1054A0000843216808600421A06901EA1040616A8C
:1054B0000843216848602068C06920F400602168C2
:1054C000C86100206065012084F851000020BDE71C
:1054D00010B586B0044651492068884278D100BF93
:1054E000002000904E48006840F400504C4908608D
:1054F0000846006800F40050009000BF00BF202064
:1055000001900220029000200390032004900520C7
:10551000059001A94348FFF7CFF94FF4825001905D
:1055200002200290002003900320049005200590A3
:1055300001A93C48FFF7C0F9102001900320049016
:10554000022002900120039001A93648FFF7B4F928
:10555000354836490860C0054860002133488160FD
:10556000C1604FF480610161002141618161C161CD
:1055700001624162FFF7AAF818B182212CA005F060
:10558000A7FC00BF2948E064846300BF2648603060
:105590002C4908604FF02060486040212948816014
:1055A0000021C1604FF4806101610021416181618E
:1055B000C16101624162FFF789F818B194211CA012
:1055C00005F086FC00BF1F48A064846323E0FFE76A
:1055D0001D49206888421ED100BF0020009010485D
:1055E000006840F480100E4908600846006800F426
:1055F0008010009000BF00BF4FF460700190022047
:10560000029000200390032004900520059001A93A
:105610000E48FFF751F906B010BD000000340140FC
:10562000443802400010024010640240281D00204F
:105630002E2E5C5372635C4253505F5350492E636D
:1056400000000000881D00200050014000140240AE
:105650002DE9FE4F04460D4616461F46DDF8308004
:105660004FF0000A0020029081464FF0010B01909C
:1056700000BF94F85000012802D10220BDE8FE8F3F
:10568000012084F8500000BFFFF736FA814694F8F5
:1056900051A060680290BAF1010F0BD00298B0F5EA
:1056A000827F04D1A06810B9BAF1040F02D00220A1
:1056B0000190D2E00DB106B117B901200190CCE004
:1056C00094F85100012802D1052084F851000020EF
:1056D0006065A663E787A7872563E786A7862064BA
:1056E00060642068006800F04000402805D0206811
:1056F000006840F0400021680860E068B0F5006F85
:1057000043D1606810B1E08E012806D12888216855
:10571000C860AD1CE08E401EE0862FE0BBF1000F9C
:1057200010D0E08E70B12068806800F0020002287E
:1057300008D128882168C860AD1CE08E401EE08634
:105740004FF0000BE08F68B12068806800F0010026
:1057500040B12068C0683080B61CE08F401EE087F2
:105760004FF0010B08F1010040B1FFF7C5F9A0EBC4
:105770000900404502D3032001906EE0E08E00282E
:10578000CCD1E08F0028C9D142E0606810B1E08E32
:10579000012806D12878216808736D1CE08E401E10
:1057A000E0862FE0BBF1000F10D0E08E70B12068D2
:1057B000806800F00200022808D115F8010B21686A
:1057C0000873E08E401EE0864FF0000BE08F68B15A
:1057D0002068806800F0010040B12068C06806F8C9
:1057E000010BE08F401EE0874FF0010B08F1010034
:1057F00040B1FFF781F9A0EB0900404502D3032037
:1058000001902AE0E08E0028CCD1E08F0028C9D199
:105810004346012202212046CDF8009004F050FBBF
:1058200010B10320019018E04A464146204604F09A
:1058300033FB20B101200190202060650DE0A068BD
:1058400050B900BF002000902068C0680090206818
:105850008068009000BF00BF00BF012084F85100A5
:1058600000BF002084F8500000BF019806E704281C
:1058700008D14FF0E021096941F004014FF0E02226
:10588000116107E04FF0E021096921F004014FF0B8
:10589000E0221161704770B504462546681EB0F1DC
:1058A000807F01D301200FE0681E4FF0E0214861A6
:1058B0000F214FF0FF3003F0E1FD00204FF0E02119
:1058C000886107200861002070BD7047704710B5DF
:1058D0000346002200BF93F83800012801D10220BE
:1058E00010BD012083F8380000BF22F0FF00CC6813
:1058F00040EA040222F440708C6840EA040222F478
:1059000080604C6840EA040222F400600C6840EABF
:10591000040222F480500C6940EA040222F4005090
:105920004C6940EA040222F480408C6940EA040297
:1059300022F400408C6940EA04021868426400BF07
:10594000002083F8380000BF00BFC9E7024600BF4F
:1059500092F83800012801D102207047012082F816
:10596000380000BF022082F839001068406820F03B
:10597000700013685860106840680B68184313681B
:1059800058601068806820F0800013689860106884
:1059900080684B68184313689860012082F83900CA
:1059A00000BF002082F8380000BF00BFD5E710B567
:1059B00004460CB9012010BD94F8390028B9002024
:1059C00084F83800204600F00DF8022084F83900F1
:1059D000211D206804F018FC012084F83900002003
:1059E000E9E7000008B50A4A016891420FD100BFFB
:1059F000002100910749096841F00201054A116040
:105A00001146096801F00201009100BF00BF08BD06
:105A100000040040403802400146022081F839006D
:105A20000868006840F001000A681060012081F8F1
:105A300039000020704701460868C06840F0010046
:105A40000A68D0600868006840F001000A681060C9
:105A500000207047704710B5044620680069C0F305
:105A60004000D8B12068C068C0F34000B0B16FF00A
:105A7000020021680861012020762068806900F01A
:105A8000030018B12046FFF7E5FF05E0204600F0CF
:105A900003F9204600F0D2F9002020762068006942
:105AA000C0F38000D8B12068C068C0F38000B0B1F6
:105AB0006FF0040021680861022020762068806968
:105AC00000F4407018B12046FFF7C4FF05E02046FF
:105AD00000F0E2F8204600F0B1F9002020762068BE
