:020000040800F2
:10000000986400207D020008956E0008715A00086F
:10001000916E0008311700081D86000800000000DE
:10002000000000000000000000000000C101000806
:10003000A12A0008000000001502000857790008F6
:10004000970200089702000897020008970200082C
:10005000970200089702000897020008970200081C
:100060009702000897020008F92D0008970200087F
:1000700097020008970200089702000897020008FC
:10008000B9280008970200089702000881180008A4
:10009000F11700089702000897020008112E0008C7
:1000A00097020008970200089702000897020008CC
:1000B000A57A000897020008970200089702000836
:1000C00097020008970200089702000897020008AC
:1000D00097020008CD8400083985000897020008BF
:1000E000970200089702000897020008970200088C
:1000F000970200089702000897020008970200087C
:10010000970200089702000897020008970200086B
:10011000970200089702000897020008970200085B
:100120009702000897020008C928000897020008F3
:10013000970200089702000897020008791A000841
:10014000C9190008970200089702000897020008E2
:10015000970200089702000897020008918500089E
:10016000970200089702000897020008970200080B
:10017000970200089702000897020008000000009C
:1001800097020008970200089702000897020008EB
:1001900097020008970200089702000897020008DB
:1001A000000000000000000097020008DFF80CD0FB
:1001B00000F090FB00480047099300089864002075
:1001C0002B4B19680868B0E8F04F80F30988BFF33B
:1001D0006F8F4FF0000080F311887047000000001F
:1001E00006480068006880F3088862B661B6BFF30D
:1001F0004F8FBFF36F8F00DF00BF00BF08ED00E03F
:10020000DFF80C00016841F470010160704700BF25
:1002100088ED00E0EFF30980BFF36F8F144B1A688D
:100220001EF0100F08BF20ED108A20E9F04F10607B
:1002300008B44FF0500080F31188BFF34F8FBFF325
:100240006F8F09F0D9FE4FF0000080F3118808BCD1
:1002500019680868B0E8F04F1EF0100F08BFB0EC46
:10026000108A80F30988BFF36F8F704700BF00BF0B
:100270002C0D0020EFF305807047000006488047F2
:1002800006480047FEE7FEE7FEE7FEE7FEE7FEE77B
:10029000FEE7FEE7FEE7FEE7417A0008AD01000851
:1002A0002DE9F05F0546002092469B4688460646AB
:1002B000814640241BE0284641464746224600F03E
:1002C00052FA53465A46C01A914110D31146184665
:1002D000224600F039FA2D1A67EB01084F462246F4
:1002E0000120002100F030FA17EB00094E41201EDA
:1002F000A4F10104DFDC484631462A464346BDE806
:10030000F09F40EA01039B0703D009E008C9121FD0
:1003100008C0042AFAD203E011F8013B00F8013BBF
:10032000521EF9D27047D2B201E000F8012B491EEB
:10033000FBD270470022F6E710B513460A46044682
:100340001946FFF7F0FF204610BD2DE9FE4F80460D
:1003500081EA0300C00F0C46009021F0004123F019
:100360000045B8EB0200A94105D24046214690461F
:100370001C460B46024623F00040104347D0270D91
:10038000C7F30A00C3F30A510290401A01904028B3
:100390006BDAC3F3130040F4801B0098924620B13F
:1003A0000023D2EB030A63EB0B0B01985946C0F113
:1003B0004002504600F0C8F906460D4650465946E0
:1003C000019A00F0E0F910EB08006141002487EA8F
:1003D000115284EAE7731A4340D0009A62B3019A3B
:1003E000012A4FEA075215DC001B61EB02014FF0B6
:1003F000004202EA0752CDE90042001C41F580119B
:1004000032462B4600F017FA03B0BDE8F08F4046A5
:100410002146F9E7001B61EB0201001C41F5801346
:1004200000185B412018A2F5001747EB030140EAD2
:10043000D570B6196D4111E06D084FEA360645EAF0
:10044000C0754FEA0752001B61EB0201001C41F529
:10045000801149084FEA30000019514132462B46BD
:1004600003B0BDE8F04F00F0D7B90098012240007A
:100470000023D0EB020263EBE073009821464FEAC1
:10048000E074B8EB000061EB0401E9E783F000439E
:100490005BE781F0004158E72DE9FE4F81EA030454
:1004A00004F0004421F0004100944FF0000B23F0D1
:1004B000004350EA01045ED052EA03045BD0C3F368
:1004C0000A54C1F30A552C44A4F2F3340194A0FB5E
:1004D0000254C1F3130141F48011C3F3130343F435
:1004E000801301FB024400FB034E840A970A44EA8E
:1004F000815447EA8357A4FB076802958D0A05FBE0
:1005000007854FEA932C04FB0C542705029D4FEA04
:10051000065847EA1637B5EB08056EEB070C870E51
:10052000920E47EA811742EA8312A7FB0201B6EB5B
:100530000B0164EB00042B0D43EA0C335E1844EB13
:100540001C50DA465146E7FB0201C5F313044FEA9B
:100550000B3343EA14534FEA0432019C43EA060387
:10056000A4F10C040294009CCDE900B400F063F9FE
:1005700003B0BDE8F08F00200146F9E72DE9F04D0A
:1005800081EA030404F0004B21F0004514464FF0CB
:10059000000A23F0004150EA050220D054EA01028B
:1005A0001DD0C5F30A570246C5F31303C1F3130068
:1005B000C1F30A5640F4801543F48013A7EB0608F4
:1005C000101BD64608F2FD3873EB050002D308F184
:1005D000010801E092185B41B8F1000F03DA002036
:1005E0000146BDE8F08D00204FF480110646844698
:1005F0000EE0171B73EB050705D3121B63EB050316
:1006000006434CEA010C49084FEA300092185B415E
:1006100050EA0107EDD152EA030012D082EA040049
:1006200083EA0501084305D0101BAB4106D2012225
:10063000002306E000224FF0004302E06FF00102C9
:1006400053101AEB06004CEB085110EB0A0041EB7B
:100650000B01BDE8F04D00F0DFB80EB5C10F80EA28
:10066000E0700844CA07002140F233438DE80E00D1
:100670000A460B4600F0DFF803B000BD70B5C1F3C9
:100680000A5201F000450024C1F3130140F2FF3388
:1006900041F480119A4201DA002070BD40F23343E8
:1006A0009A42A2F2334203DC524200F05CF800E0CE
:1006B00090402C43F1D0404270BD00F0004230F039
:1006C00000400AD0C10D01F56071C0F3160042EA86
:1006D0000151C2084007114370470020014670478E
:1006E00030B5041E71F1000404DB4FF000444042B9
:1006F00064EB0101141E73F1000405DB1C464FF08E
:100700000043524263EB0403994208BF904230BD5C
:1007100001F0004330B421F0004150EA010206D05C
:100720000A0DA2F56072C1F31301002A02DC30BC8D
:1007300000207047440F44EAC104C100E01830BCF7
:1007400000EBC25000F031B8202A04DB203A00FA56
:1007500002F1002070479140C2F1200320FA03F318
:10076000194390407047202A04DB203A21FA02F016
:100770000021704721FA02F3D040C2F120029140DB
:10078000084319467047202A06DBCB17203A41FA66
:1007900002F043EAE07306E041FA02F3D040C2F10E
:1007A000200291400843194670470029A8BF7047AE
:1007B000401C490008BF20F00100704710B4B0FA97
:1007C00080FC00FA0CF050EA010404BF10BC704732
:1007D00049B1CCF1200421FA04F411FA0CF118BF4C
:1007E000012121430843A3EB0C01CB1D4FEA00611B
:1007F0004FEA102042BF002010BC704700EBC350EE
:1008000010440029A4BF10BC7047401C490008BF19
:1008100020F0010010BC704710B5141E73F10004E5
:1008200008DA401C41F1000192185B411A4301D1E2
:1008300020F0010010BD2DE9F04D92469B4611B10C
:10084000B1FA81F202E0B0FA80F220329046FFF76E
:100850007BFF04460F4640EA0A0041EA0B0153467B
:100860005A46084313D0114653EA010019D0C8F183
:1008700040025046FFF777FF05460E465046594660
:100880004246FFF761FF084305D0012004E02046FF
:100890003946BDE8F08D0020054346EAE0762C435A
:1008A00037430A986305E40AA0EB08000022FD0A1A
:1008B00044EA47540A3002D500200146E9E7010521
:1008C00010196941DDE9084500196941BDE8F04D9D
:1008D000A2E70000064C074D06E0E06840F0010387
:1008E00094E8070098471034AC42F6D3FFF762FC57
:1008F000C4AE0008E4AE00080EB540F233410291E8
:100900000021CDE900110A460B46FFF794FF03B022
:1009100000BD70B58C1810F8015B15F0070301D10C
:1009200010F8013B2A1106D110F8012B03E010F852
:10093000016B01F8016B5B1EF9D12B0705D4002375
:10094000521E0DD401F8013BFAE710F8013BCB1A17
:10095000921C03E013F8015B01F8015B521EF9D50C
:10096000A142D8D3002070BD70B505460C460026C4
:100970000DB1022C00D870BDA11E06480288284681
:1009800002F0E8FC0646A01E2E54310A601E2954CF
:1009900000BFF0E7C00A002070B505460C460026EF
:1009A0000DB1022C00D870BD611EFF22284602F056
:1009B000F1FC0646601E2E5400BFF4E710B5EF4B65
:1009C000DA68002A01DB134600E05342EC4CE06891
:1009D000002801DB044600E04442191901EBD17301
:1009E0005B1000EE103AB8EEC00AE64B83ED000A49
:1009F000E548007801287CD0E34800780228FAD046
:100A0000E24800780028F6D0E148E2490978405CE5
:100A100014286FD2DFE800F06E0A2246596F95BFA6
:100A2000D4F1F0EFF2EDECEB6EEAE9AA012251020B
:100A3000D94803F04DFDD9480078401CD7490870CB
:100A400009F0EAFDD6490968401AB0F5C87F04D913
:100A5000D0480078401CCF4908707EE100224FF456
:100A60000071CD4803F034FDCC480078401ECB49DE
:100A70000870C548007806280ED109F0CDFDC84998
:100A80000968401A40F6B83188420AD9C14800784E
:100A9000401CC049087004E0BE480078401CBD49B5
:100AA00008705AE101229102BE4803F011FD09F0DD
:100AB000B3FDBB490968401AB0F57A7F04D9B5483F
:100AC0000078401CB349087047E100224FF4806170
:100AD000B44803F0FDFC09F09FFDB1490968401AD4
:100AE000B0F57A7F04D9AB480078401CA94908705A
:100AF00033E141E130E19FEDAC0AAC4880ED000A02
:100B0000A1480078062803D09F480078072808D11C
:100B1000A64890ED000ADFEDA60A30EE200A80ED2F
:100B2000000A984890ED000ADFEDA20AB4EEE00A50
:100B3000F1EE10FA04DD97480078401C95490870E2
:100B40000BE19FED9D0A994880ED000A8D4890EDDC
:100B5000000ADFED9A0AB4EEE00AF1EE10FA04DDC5
:100B60008C480078401C8B490870F6E09FED940A91
:100B70008E4880ED000A834890ED000ADFED910A6F
:100B8000B4EEE00AF1EE10FA04D282480078401C7C
:100B900080490870E1E09FED8C0A844880ED000AEE
:100BA000784890ED000ADFED890AB4EEE00AF1EE34
:100BB00010FA04D277480078401C76490870CCE0DF
:100BC0009FED790A794880ED000A6E4890ED000AA1
:100BD000DFED7F0AB4EEE00AF1EE10FA04D26D48C0
:100BE0000078401C6B490870B7E0ACE070E0A9E009
:100BF00014E023E002E07BE040E02FE09FED720A8A
:100C0000744880ED000A7448C068B0F5FA6F04DAE1
:100C100060480078401C5F4908709EE09FED6A0ABA
:100C20006C4880ED000A6C48C06810F1C80F04DD04
:100C300058480078401C574908708EE09FED620AC2
:100C4000644880ED000A6448C06810F5C87F04DD80
:100C500050480078401C4F4908707EE09FED5A0ACA
:100C60005E4880ED000A5E48C068B0F5967F04DA01
:100C700048480078401C474908706EE09FED590ACB
:100C8000564880ED000A40480078062803D03E48C8
:100C90000078072808D1514890ED000ADFED4A0A94
:100CA00030EE200A80ED000A4D48C06840F64E4103
:100CB00088420CDD09F0B0FC39490968401AB0F5EA
:100CC000FA7F04D933480078401C3249087044E068
:100CD0009FED450A414880ED000A4148C068B0F5E3
:100CE000166F04DA2B480078401C2A49087034E05B
:100CF0009FED3E0A394880ED000A23480078062817
:100D000003D021480078072808D1344890ED000A24
:100D1000DFED370A30EE200A80ED000A3048C06867
:100D200040F2DC5188420CDA09F076FC1C49096873
:100D3000401AB0F5FA7F04D916480078401C1549CE
:100D400008700AE009E00020124908700F49087095
:100D500002200D49087000E000BF00BF2548007860
:100D60000C490978884203D009F056FC0C49086008
:100D7000084800781F49087010BD00005419002071
:100D800040190020E80B00204C0B0020050000203B
:100D9000F21A00204D0B002000200240F00B002032
:100DA000F40B00200014024000A0BE45CC0B002034
:100DB0000080ED440040B545004003460020FD455D
:100DC0000060B8450080BB4500000000000096436D
:100DD0000000C845D00B0020A4190020C80B00203B
:100DE000901900200000484500C00F450000AF44A6
:100DF000000016C4F10B002010B52DED028BB94890
:100E0000007802287DD1B84890ED030AB8EEC00AF8
:100E1000F0EE400AB54890ED000AB1EE400AB44841
:100E200006F03CFCB048B0F90000032190FBF1F063
:100E300000EE100AB8EEC00AB0EE408AAC48C06BB3
:100E400000EE100AF0EE480AAA4806F027FCAA486D
:100E500090ED030AB8EEC00AF0EE400AA34890ED08
:100E6000000AA64806F01AFCA348B0F900000321C6
:100E700090FBF1F000EE100AB8EEC00AB0EE408A26
:100E80009E48C06B00EE100AF0EE480A9C4806F03F
:100E900005FC9C4890ED030AB8EEC00AF0EE400A4B
:100EA0009FED990A994806F0F9FB9648B0F90000C1
:100EB000032190FBF1F000EE100AB8EEC00AB0EE8C
:100EC000408A9248C06B00EE100AF0EE480A904843
:100ED00006F0E4FB8F4890ED030AB8EEC00AF0EE8E
:100EE000400A9FED890A8C4806F0D8FB8948B0F982
:100EF0000000032190FBF1F000EE100AB8EEC00AEA
:100F000000E00BE0B0EE408A8348C06B00EE100AB0
:100F1000F0EE480A814806F0C1FBDFE07148007836
:100F2000012851D17048B0F90000032190FBF1F085
:100F300000EE100AB8EEC00AB0EE408AF0EE480AA1
:100F4000774890ED000A6B4806F0A8FB6A48B0F9B4
:100F50000000032190FBF1F000EE100AB8EEC00A89
:100F6000B0EE408AF0EE480A6D4890ED000AB1EE0E
:100F7000400A634806F092FB6648B0F9000003217E
:100F800090FBF1F000EE100AB8EEC00AB0EE408A15
:100F9000F0EE480A634890ED000A604806F07EFBD8
:100FA0005848B0F900000A2190FBF1F000EE100A59
:100FB000B8EEC00AB0EE408AF0EE480A9FED520A41
:100FC000534806F06BFB89E0474890ED030AB8EE02
:100FD000C00AF0EE400A454890ED000AB1EE400A22
:100FE000434806F05BFB4048B0F90000032190FB4A
:100FF000F1F000EE100AB8EEC00AB0EE408A3C48AC
:10100000C06B00EE100AF0EE480A3A4806F046FBC4
:10101000394890ED030AB8EEC00AF0EE400A3348B2
:1010200090ED000A354806F039FB3348B0F900006E
:10103000032190FBF1F000EE100AB8EEC00AB0EE0A
:10104000408A2E48C06B00EE100AF0EE480A2C4889
:1010500006F024FB2B4890ED030AB8EEC00AF0EE30
:10106000400A314890ED000A284806F017FB254851
:10107000B0F90000032190FBF1F000EE100AB8EE89
:10108000C00AB0EE408A2148C06B00EE100AF0EEB4
:10109000480A1F4806F002FB1E4890ED030AB8EE0E
:1010A000C00AF0EE400A214890ED000A1A4806F006
:1010B000F5FA1848B0F90000032190FBF1F000EEBA
:1010C000100AB8EEC00AB0EE408A1348C06B00EEBA
:1010D000100AF0EE480A114806F0E0FABDEC028B67
:1010E00010BD00004C0B002040190020CC0B00204C
:1010F000CA030020E4010020541900201B04002032
:101100003502002090190020000000006C0400202F
:10111000A3060020A4190020BD040020F40600202E
:10112000D80B0020DC0B0020C80B0020D00B0020C7
:10113000AC480068AC498861AC498861B2EE000AED
:1011400010EE100AAA498861AA498861AA488068F5
:10115000AA498861AA488068AA498861B0EE000A55
:1011600010EE100AA8498861B2EE000A10EE100ACB
:10117000A6498861B7EE000AA54880ED000AA54897
:101180000078032803D0A348007804287ED1A24821
:10119000A2490978405C092811D1A14800780028AB
:1011A0000DDD9748406898498861934840689749A1
:1011B0008861B0EE000A964880ED000A19E0964872
:1011C00096490978405C092813D19548007880B980
:1011D000B1EE040A10EE100A8B498861B2EE080ADB
:1011E00010EE100A89498861B7EE000A884880ED40
:1011F000000A894889490978405C112814D1884837
:101200000078012810D1B1EE040A10EE100A7E49D0
:101210008861B2EE0C0A10EE100A7C498861B0EECB
:10122000000A7B4880ED000A7B487C490978405CD5
:101230000B280CD17248C068734988616E48C06839
:1012400072498861B0EE000A714880ED000A724868
:1012500072490978405C0A280FD17148007860B95A
:101260006748006868498861634800686749886121
:10127000B7EE000A664880ED000A674867490978BA
:10128000405C0A2816D16648007800E013E0002888
:1012900010DDB1EE040A10EE100A5B498861B7EE6A
:1012A000000A5B4880ED000AB2EE000A10EE100A58
:1012B000564988617DE057480078062879D156481C
:1012C00056490978405C092811D155480078002812
:1012D0000DDD4B4840684C498861474840684B49A0
:1012E0008861B0EE000A4A4880ED000A19E04A48D9
:1012F0004A490978405C092813D14948007880B9E7
:10130000B1EE040A10EE100A3F498861B2EE080AF5
:1013100010EE100A3D498861B7EE000A3C4880EDA6
:10132000000A3D483D490978405C0B2810D1B2EED7
:10133000000A10EE100A34498861B3EE040A10EE78
:10134000100A32498861B2EE020A314880ED000A83
:10135000314832490978405C0A280FD1304800787A
:1013600060B92748006828498861234800682749F0
:101370008861B7EE000A264880ED000A2648274912
:101380000978405C0A2814D125480078002810DD2F
:10139000B1EE0C0A10EE100A1B498861B0EE000A8B
:1013A0001B4880ED000AB2EE0E0A10EE100A174933
:1013B00088619FED1C0A10EE100A1349C8610A49A2
:1013C000C8610A49C8610F49C8619FED160A10EE4D
:1013D000100A0D4908620449086204490862094973
:1013E00008627047F80B002035020020E40100205D
:1013F0001B040020CA030020040C0020BD040020B0
:10140000180C0020F4060020A30600206C04002025
:10141000000C00204C0B0020F21A00204D0B002085
:10142000F00B00200000000010B56248007808288A
:101430007ED2DFE800F03B455F040F311C2700201F
:1014400005E05D49095C5D4A1154411CC8B2282879
:10145000F7DBADE0002007E00021584A115458495D
:10146000095C1154411CC8B22828F5DBA0E000201B
:1014700005E05449095C514A1154411CC8B228285E
:10148000F7DB95E0002004E000214C4A1154411C98
:10149000C8B22828F8DB8BE0002004E00021474A8E
:1014A0001154411CC8B22828F8DB81E0002004E078
:1014B0000021424A1154411CC8B22828F8DB77E0C9
:1014C0004148B0F9080000EE100AB8EEC00A3F48E3
:1014D000D0ED000A20EE200A3D4880ED000A3A488F
:1014E000B0F9060000EE100AB8EEC00A394880EDE7
:1014F000000A5DE0012006F089F948B13248407DDC
:10150000012805D19FED340A344880ED000A0CE033
:10151000022006F07BF940B12B48407D012804D120
:101520009FED2F0A2D4880ED000A9FED2D0A00E067
:101530003DE02C4880ED000A9FED290A2A4880ED05
:10154000000A4FF4806006F061F958B11E48007D32
:1015500040B99FED260A214880ED000A40F6C410EC
:10156000234908604FF4806006F050F9F0B1164846
:10157000007D01281AD11E48006840F6C411884237
:1015800003D109F049F81B4908604FF496601849E7
:10159000086009F041F817490968401AB0F5FA7F68
:1015A00004D99FED0F0A0D4880ED000A00BF00BF6F
:1015B00000BF10BD4C0B00204E0B0020F21A002083
:1015C000760B00209E0B0020DC1A0020D40B00209C
:1015D000D80B0020DC0B002000A0BE45CC0B002067
:1015E00000000000C80B0020D00B00200040034684
:1015F00034040140380C002010B53148C06B00EEB7
:10160000100A3048D0ED000A20EE200A2E4880ED66
:10161000000A90ED000ADFED2D0AB4EEE00AF1EECB
:1016200010FA04DD9FED290A80ED000A0DE026483E
:1016300090ED000ADFED260AB4EEE00AF1EE10FAB2
:1016400003D29FED230A80ED000A22480078032888
:1016500008D02048007828B11F48007810B11F48F2
:10166000007830B900231A461946184600F0DCF914
:1016700024E01B4AD26B00EE102ABDEEC00A10EE29
:10168000102A13B2174AD26B00EE102ABDEEC00A20
:1016900010EE102A11B2144AD26B00EE102ABDEEE1
:1016A000C00A10EE102A10B2074A92ED000ABDEEF1
:1016B000C00A10EE102A12B200F0B6F910BD0000F8
:1016C000A3060020000C0020300C002000606A46B9
:1016D00000606AC602000020040000204C0B0020BD
:1016E000F406002035020020E401002010B504F0CB
:1016F000FDFF04F085FE04F0EDFE04F055FF05F05B
:101700005DF905F02DFA05F0B5F905F083F905F05E
:1017100081FA05F00DFB05F079FB05F041FB05F0C2
:10172000FBF810BD0149488008807047CE0A0020B0
:1017300000BFFEE700B526480068401C2449086049
:1017400024480088401C2349088023480068A0F2F0
:10175000012030B1012818D004282AD0052834D11E
:101760002DE01E480088401C1C490880184800686D
:10177000C82804D21A48C08800B2194948821649BC
:101780001C31174807F072FD20E014484088401CC7
:10179000124948800E480068C82804D21148C08801
:1017A00000B2104948820C491C310E4807F05EFD1A
:1017B0000CE009491C310C4807F058FD06E00649C9
:1017C0001C310A4807F052FD00E000BF00BF00BD19
:1017D000A80A0020620000201C1B002040000020FE
:1017E000F018002004190020681900207C1900203E
:1017F00010B5024802F010F810BD00005C1C00207B
:1018000030B585B004460D4640F2FF100A49086025
:10181000200A087608464476290A8176C57614227D
:1018200000F10C016846FEF76CFD03480EC8034842
:1018300000F051F905B030BD401B002054130020CA
:1018400030B585B004460D464FF400700A49086073
:10185000200A087608464476290A8176C57614223D
:1018600000F10C016846FEF74CFD03480EC8034822
:1018700000F031F905B030BD401B002054130020AA
:1018800010B5024801F0C8FF10BD00005C1C00202C
:1018900000B541480068401C3F4908603F48006867
:1018A000A0F20120082873D2DFE800F004141F2AF8
:1018B000354453623A480088401C39490880394809
:1018C0000088401C3749088034491C31364807F0ED
:1018D000CDFC5EE033484088401C324948802F49A7
:1018E0001C31324807F0C2FC53E02E488088401C6F
:1018F0002C49888029491C312D4807F0B7FC48E065
:101900002848C088401C2749C88024491C312948E0
:1019100007F0ACFC3DE020480068C82804D2264807
:10192000C08800B2244948821C491C31224807F073
:101930009DFC2EE018480068C82804D21F48C088C3
:1019400000B21E49488215491C311C4807F08EFC24
:101950001FE011480068C82804D21948C08800B2A6
:10196000174948820D491C31154807F07FFC10E0EB
:1019700009480068C82804D21248C08800B211493A
:10198000488206491C310F4807F070FC01E0FFE770
:1019900000BF00BF00BD0000A80A0020801B00207F
:1019A0005E00002040000020A0180020B418002095
:1019B000C8180020DC18002040190020541900200D
:1019C00090190020A419002010B5024801F024FF4E
:1019D00010BD00000C1C0020F0B585B004460D467B
:1019E00016461F464FF400700D490860200A08761D
:1019F00008464476290A8176C576310A017746770A
:101A0000390A8177C777142200F10C016846FEF786
:101A100078FC03480EC8034800F05DF805B0F0BD3F
:101A2000A41B0020D8150020F0B585B004460D4653
:101A300016461F4640F2FF100D490860200A08763E
:101A400008464476290A8176C576310A01774677B9
:101A5000390A8177C777142200F10C016846FEF736
:101A600050FC03480EC8034800F035F805B0F0BD3F
:101A7000A41B0020D815002010B5024801F0CCFEB0
:101A800010BD00000C1C002030B589B004460D4686
:101A90002088618888420CD1202101A8FEF74AFCE9
:101AA000202201A92846FEF72CFC4FF0FF3009B098
:101AB00030BD2288201D00EB421120222846FEF76F
:101AC00020FC2088401C80B22080142801DB0020EC
:101AD00020800020EBE70FB410B504466288211D7A
:101AE00001EB4210202203A9FEF70BFC6088401C8A
:101AF00080B26080142801DB00206080608821882B
:101B0000884207D12088401C80B22080142801DB45
:101B10000020208010BC5DF814FB014648880B882B
:101B2000C21A002A01DB90B2704702F1140080B2A1
:101B3000FAE7000010B52DED068B7B49B1F90000E6
:101B4000FEF78BFD41EC1A0B9FED780B53EC102B3D
:101B5000FEF714FD41EC190BFEF7DAFD08EE100A52
:101B60007448B0F9040000EE900AF8EEE00AB0EE16
:101B7000600AF0EE480A704805F090FD6F49B1F92F
:101B80000000FEF76AFD41EC1A0B9FED680B53EC69
:101B9000102BFEF7F3FC41EC190BFEF7B9FD08EE34
:101BA000100A6448B0F9060000EE900AF8EEE00A68
:101BB000B0EE600AF0EE480A614805F06FFD614939
:101BC000B1F90000FEF749FD41EC1A0B9FED570BF0
:101BD00053EC102BFEF7D2FC41EC190BFEF798FDED
:101BE00008EE100A5348B0F9080000EE900AF8EE2B
:101BF000E00AB0EE600AF0EE480A534805F04EFDE8
:101C00005249B1F90000FEF728FD41EC1A0B9FED97
:101C1000470B53EC102BFEF7B1FC41EC190BFEF710
:101C200077FD08EE100A4348B0F90A0000EE900A6A
:101C3000F8EEE00AB0EE600AF0EE480A444805F01B
:101C40002DFD3D48C06B00EE100ADFED420AB4EEF8
:101C5000E00AF1EE10FA10DD3748C06B00EE100A12
:101C6000DFED3D0AB4EEE00AF1EE10FA05D29FED89
:101C70003B0A10EE100A3049C8633148C06B00EED1
:101C8000100ADFED340AB4EEE00AF1EE10FA10DDCE
:101C90002B48C06B00EE100ADFED2F0AB4EEE00A0D
:101CA000F1EE10FA05D29FED2D0A10EE100A24492C
:101CB000C8632548C06B00EE100ADFED260AB4EEBB
:101CC000E00AF1EE10FA10DD1F48C06B00EE100ABA
:101CD000DFED210AB4EEE00AF1EE10FA05D29FED35
:101CE0001F0A10EE100A1849C8631948C06B00EEAD
:101CF000100ADFED180AB4EEE00AF1EE10FA10DD7A
:101D00001348C06B00EE100ADFED130AB4EEE00AD0
:101D1000F1EE10FA05D29FED110A10EE100A0C49EF
:101D2000C863BDEC068B10BDA018002000000000A9
:101D300000002440C81A00205F050020B4180020CD
:101D4000B0050020C818002001060020DC18002083
:101D50005206002000002FC400002F4400000000A5
:101D6000B2EE0E0A10EE100A2C4988612C48007859
:101D700000EE100AB8EE400A10EE100A29498861F8
:101D80002948007800EE100AB8EE400A10EE100A5A
:101D9000264988612648007800EE100AB8EE400A0D
:101DA00010EE100A234988612348007800EE100ADB
:101DB000B8EE400A10EE100A204988619FED200A13
:101DC00010EE100AC8611B49C8611849C86115495D
:101DD000C8619FED1B0A10EE100A184908621549E8
:101DE0000862124908620F4908629FED150A10EE59
:101DF000100A124908610F4908610C490861094934
:101E000008619FED0F0A10EE100A0C49C8610949DC
:101E1000C8610649C8610349C86170470E050020C2
:101E2000F60A00205F050020F70A0020B005002018
:101E3000F80A002001060020F90A002052060020BE
:101E40000000000010B52DED068BFE48007858B953
:101E50000020FD4988810021FB48C18101829FED5E
:101E6000FB0A80ED000AD7E1F648007801287DD111
:101E7000F7488088F4498881F5484188F248C18153
:101E8000F349B1F9060000EBD0714910EE4A118216
:101E90009FEDEE0A104680ED000AED49B1F90410FD
:101EA000EC4AB2F90020881A002801DB014600E064
:101EB0004142E94A1288914230DDE548B0F9040018
:101EC000E449B1F9001088420DDDE148B0F90400A1
:101ED000002808DDDF480088DF490988084400B28F
:101EE000DC4908801EE0DA48B0F90400D949B1F9AC
:101EF000001088420DDAD648B0F90400002808DA4C
:101F0000D4480088D4490988401A00B2D1490880D1
:101F100008E0CF488088CF49088003E0CC4880881B
:101F2000CC490880CA49B1F90210CC4AB2F9002064
:101F3000881A002801DB014600E04142C64A1288A7
:101F4000914232DDC248B0F90200C449B1F9001033
:101F500088420FDDBE48B0F9020000280ADDBF4804
:101F60000088BD490988084400B200E05EE0BB4932
:101F700008801EE0B648B0F90200B849B1F9001077
:101F800088420DDAB248B0F90200002808DAB348F6
:101F90000088B1490988401A00B2B049088008E0B9
:101FA000AB484088AD49088003E0A9484088AB4968
:101FB0000880A848B0F9000000EE100AB8EEC00A88
:101FC000A748D0ED000A20EE200ABDEEC00A10EEB0
:101FD000100A00B29C498881A048B0F9000000EEC8
:101FE000100AB8EEC00A9E48D0ED000A20EE200A82
:101FF000BDEEC00A10EE100A01B29348C1819449A7
:10200000B1F9060000EBD071491000EE101AB8EEDD
:10201000C00A9449D1ED000A20EE200ABDEEC00AA4
:1020200010EE101A0AB288490A82F5E08548007855
:1020300002284CD14FF496714FF4C87003F008FE9B
:10204000102005F0E3FB30B14FF416714FF42F7000
:1020500003F0FEFD07E0202005F0D8FB18B1DC21DD
:10206000084603F0F5FD7A488089C0EB001001B204
:10207000754801827C4800680321B0FBF1F201FB46
:1020800012000028D1D078480068B0FBF1F201FBC3
:102090001200012806D16C48C089404201B26A484A
:1020A000C181B9E0704800680321B0FBF1F201FB87
:1020B00012000228B9D16448C089404201B2624886
:1020C000C1818089404200B25F498881A4E05D48B7
:1020D0000078032829D128205B498881634890F93A
:1020E0000100702808DA614890F901001E2803DD1C
:1020F00046215548C1818FE05C4890F9010010F1FC
:102100001E0F0ADA594890F9010010F1700F04DD32
:102110006FF045014C48C1817EE05448407800286A
:102120007AD100214848C18176E0464800780428E9
:102130003CD14F48008898B14E4890ED000ADFED41
:102140004E0AB4EEE00AF1EE10FA09DD4B4890EDCC
:10215000000A4B4880ED000A08F05EFA4949086021
:1021600049480078012806D16FF0C70036498881B8
:1021700000213548C18108F04FFA42490968401AE8
:102180004249086008460068B0F5FA6F08D93D4832
:10219000006828B100203C49087001203C490870C3
:1021A000394890F900003B49087035E0254800782F
:1021B000052826D13148D0ED000A314890ED000ABB
:1021C000354805F06BFABDEEC00A10EE100A01B2F8
:1021D0001D4801826FF0C7001B49888100211A4801
:1021E000C181294890F90000401C18B964201649A3
:1021F000888111E02448007870B900201249888154
:102200000AE000201049888100210F48C181018225
:102210009FED0E0A80ED000A0B4890ED000ADFEDFD
:102220001F0A80EE201A11EE104A2046FEF745FAEA
:1022300041EC1A0B9FED1A0B53EC102BFEF72CF907
:1022400032E00000E80A0020C81A00200000000068
:10225000DC1A0020120B00200C0B0020140B0020B5
:10226000EC0A0020F00A00203C0C0020BC0A0020F0
:10227000460B0020E40A002000E02B46D40C00208E
:10228000000B0020080B0020E00A0020FC0A0020C0
:102290000E0B00200F0B00200E0500200000344321
:1022A00097D17E5AFB21094041EC190BFEF730FA19
:1022B00008EE100A1148B0F9100001EE900AF8EE8D
:1022C000E11AB0EE611A0D48B0F90C0001EE900A67
:1022D000F8EEE11AF0EE610A0848B0F90E0001EEDE
:1022E000900AF8EEE11AB0EE610A47F23050F0EED3
:1022F000481A00F05BF8BDEC068B10BDC81A002030
:1023000010B52448007830B123480078032802D063
:102310002148007830B900231A4619461846FFF7BD
:102320005BFB35E01D4CE46B00EE104AF7EE000A53
:1023300020EE200ABDEEC00A10EE104A23B2184C5F
:10234000E46B00EE104AF7EE000A20EE200ABDEE24
:10235000C00A10EE104A22B2124CE46B00EE104A92
:10236000F7EE000A20EE200ABDEEC00A10EE104A79
:1023700021B20D4CE46B00EE104AF7EE000A20EE9D
:10238000200ABDEEC00A10EE104A20B2FFF724FB6F
:1023900010BD0000E80A00200200002052060020C4
:1023A00001060020B00500205F05002010B52DEDCE
:1023B000108B8CB0F0EE40AAB0EE60DAF0EE418AFD
:1023C000B0EE619A04469FEDF80AB0EE408A19EE2D
:1023D000100AFEF772F941EC1C0BB0EE4C0AF0EE5D
:1023E0006C0A06F055FAB0EE40BAF0EE60BA1AEE9A
:1023F000900AFEF762F941EC1E0B53EC1B2BFEF723
:102400004BF8CDE9000119EE100AFEF756F941EC40
:102410001C0BB0EE4C0AF0EE6C0A06F0C9F9B0EEF7
:1024200040EAF0EE60EA1DEE100AFEF746F941ECD4
:102430001B0B53EC1E2BFEF72FF841EC1F0B9DEDF1
:10244000000B53EC102BFDF780FFCDE902019DED51
:10245000020B51EC100BFEF75BF909EE900A19EE36
:10246000100AFEF72AF941EC1C0BB0EE4C0AF0EE14
:102470006C0A06F00DFAB0EE40BAF0EE60BA1DEE4E
:10248000100AFEF71AF941EC1E0B53EC1B2BFEF75A
:1024900003F841EC1F0B19EE100AFEF70EF941ECA0
:1024A0001B0BB0EE4B0AF0EE6B0A06F081F9B0EEB2
:1024B00040CAF0EE60CA1AEE900AFEF7FEF841EC50
:1024C0001E0B53EC1C2BFDF7E7FF53EC1F2BCDE944
:1024D00000019DED000B51EC100BFDF7D7FFCDE98E
:1024E00002019DED020B51EC100BFEF711F90AEE03
:1024F000100AB1EE690A30EE0A0A30EE280A8DEDB4
:10250000070A39EE8A0A30EE280A8DED080A39EEFC
:10251000CA0A30EE280A8DED090AB1EE690A30EEDA
:102520004A0A30EE280A8DED0A0A9DED070A10EEE0
:10253000101A0846FEF7C1F841EC1C0BB0EE4C0A2D
:10254000F0EE6C0A06F098F9B0EE40BAF0EE60BA20
:1025500051EC1B0BFEF7DCF808EE100A18EE100A1F
:10256000FEF7ABF841EC1B0B9DED080A10EE101ABC
:102570000846FEF7A2F841EC1E0BB0EE4E0AF0EE54
:102580006E0A06F079F9B0EE40CAF0EE60CA53EC7C
:102590001B2B51EC1C0BFEF7A3F818D29DED080A7B
:1025A00010EE101A0846FEF788F841EC1B0BB0EE4F
:1025B0004B0AF0EE6B0A06F05FF9B0EE40CAF0EE9F
:1025C00060CA51EC1C0BFEF7A3F808EE100A18EED7
:1025D000100AFEF772F841EC1E0B9DED090A10EE91
:1025E000101A0846FEF769F841EC1C0BB0EE4C0AD5
:1025F000F0EE6C0A06F040F9B0EE40BAF0EE60BAC8
:1026000053EC1E2B51EC1B0BFEF76AF818D29DED14
:10261000090A10EE101A0846FEF74FF841EC1B0BA2
:10262000B0EE4B0AF0EE6B0A06F026F9B0EE40CAA7
:10263000F0EE60CA51EC1C0BFEF76AF808EE100AC7
:1026400018EE100AFEF739F841EC1B0B9DED0A0A53
:1026500010EE101A0846FEF730F841EC1E0BB0EEF3
:102660004E0AF0EE6E0A06F007F9B0EE40CAF0EE40
:1026700060CA53EC1B2B51EC1C0BFEF731F818D23F
:102680009DED0A0A10EE101A0846FEF716F841EC06
:102690001C0BB0EE4C0AF0EE6C0A06F0EDF8B0EE52
:1026A00040BAF0EE60BA51EC1B0BFEF731F808EEC1
:1026B000100A00EE104AB8EE400AB4EEC08AF1EEFD
:1026C00010FA44DD00EE104AB8EE400AC0EE080AE7
:1026D0009DED070A20EE800ABDEEC00A10EE100A3A
:1026E00000B2ADF8100000EE104AF8EE400A80EE9D
:1026F000880ADDED080A20EE200ABDEEC00A10EEC1
:10270000100A00B2ADF8120000EE104AF8EE400ACE
:1027100080EE880ADDED090A20EE200ABDEEC00A2F
:1027200010EE100A00B2ADF8140000EE104AB8EE38
:10273000400AC0EE080A9DED0A0A20EE800ABDEEAE
:10274000C00A10EE100A00B2ADF8160023E09DEDAD
:10275000070ABDEEC00A10EE100A00B2ADF8100074
:102760009DED080ABDEEC00A10EE100A00B2ADF8E9
:1027700012009DED090ABDEEC00A10EE100A00B26B
:10278000ADF814009DED0A0ABDEEC00A10EE100A65
:1027900000B2ADF816000548DDE90412C0E90112E7
:1027A0000CB0BDEC108B10BD00000000C81A00205A
:1027B00070B503F097F91448FFF7AFF904461348D2
:1027C000FFF7ABF9054612490F48FFF75DF91149CC
:1027D0000E48FFF759F901230D4A18320C490E48EB
:1027E00000F010FE01230B4A18320A490B4800F092
:1027F00009FE0B480088401C09490880074800F082
:10280000EEFF0849086070BD54130020D815002061
:10281000601B0020C41B00205C1C00200C1C00203E
:102820005A000020AC0A002008B507F0F5FE009021
:1028300000BFFFF7BDFF03F021F903F06DF903F0CE
:1028400051F90121684607F0E7FAF2E710B5FFF702
:1028500087FAFFF7F7FAFFF76DF9FFF751FD10BDA3
:1028600010B500200249086004F0FCFF10BD000014
:102870001800002010B50F480068401C0D49086082
:1028800004F0FAFA0B48007800F0030018B9FFF7DB
:10289000DDFF03F0ABFD074800680A21B0FBF1F251
:1028A00001FB120008B900F08DFD03F095F903F06B
:1028B000E1F810BD1800002010B5024801F0ECFA54
:1028C00010BD00005020002010B5024801F0E4FACD
:1028D00010BD0000F01F00200146087810381823B2
:1028E000B0FBF3F20848805CC865032A05D9086884
:1028F0006FF30900001D886503E008686FF30900A5
:102900008865886D7047000056AD000801460020BC
:102910008A6A8B69CBB932B1012A0DD0022A03D061
:10292000032A10D10EE000BFCB6A03F08073B3F12D
:10293000807F00D1012007E0CB6AB3F1C07F00D1D6
:10294000012001E000E000BF34E08B69B3F5005FD7
:102950001AD132B1012A07D0022A03D0032A11D199
:102960000AE000BF01200EE0CB6A03F08073B3F1F0
:10297000807F00D1012006E0CB6AB3F1C07F00D197
:10298000012000E000BF15E032B1012A05D0022A83
:1029900004D0032A0CD103E000BF00BF012008E0EF
:1029A000CB6A03F08073B3F1807F00D1012000E097
:1029B00000BF00BF704730B50468246824F4802449
:1029C00005682C60046863608468402C04D1046846
:1029D000A2600468E16003E00468A1600468E2604A
:1029E00030BD000070B50446B4F80150E61D6079B2
:1029F00027490880A07900022649088008460088F7
:102A0000234909880843244908800846008840F281
:102A10000122811A904228D007DC01280AD002281E
:102A20000ED0A0F2011070BB11E0012924D00529BD
:102A30002AD113E02A4631461848FDF762FC24E00B
:102A40002A4631461548C01CFDF75BFC1DE02A46AE
:102A500031461248801DFDF754FC16E02A463146E7
:102A60000E484130FDF74DFC0FE02A4631460B4839
:102A70001130FDF746FC08E02A4631460748203071
:102A8000FDF73FFC01E0FFE700BF00BF70BD0000A5
:102A9000C40A0020C20A0020C60A0020B81900207B
:102AA00070470000C248007830B1012812D00228D7
:102AB0007CD003287BD16EE10020BE490870BE495E
:102AC0000870BE490870BE4908704FF49660BD4951
:102AD00008606BE10120B7490870B7490870B74931
:102AE0000870B7490870B848007800287AD0B6480E
:102AF00000780B2877D2DFE800F08313063A2D2008
:102B0000475B688377000020AA4908700320AA4920
:102B100008700020A94908700420A949087070E0D5
:102B20000020A44908700320A34908700020A3498D
:102B300008700320A249087063E000209D490870D6
:102B400003209D49087000209C49087007209C497B
:102B5000087056E0002097490870032096490870D5
:102B600000209649087006209549087049E0002029
:102B70009049087003209049087000208F49087020
:102B800005208F4908703CE000208A490870022027
:102B9000894908709FED8D0A8D4880ED000A00205C
:102BA000864908700820864908702AE050E0F3E062
:102BB00003208049087004207F49087003207F4962
:102BC000087000207E4908701BE0042079490870D5
:102BD0000520794908700420784908700020784958
:102BE00008700EE00EE00BE0002072490870032030
:102BF000714908700020714908707149087000E03F
:102C000000BF24E073480078012809D16A490870A0
:102C100068490870694908700020694908700FE028
:102C20006C48007803280BD100206249087001200D
:102C300061490870002061490870012060490870EE
:102C40004FF496605F490860002063490870ADE06A
:102C50000220584908705849087058490870584966
:102C6000087059480078002878D0574800780B2819
:102C700075D2DFE800F08113063A2D2047596681AE
:102C8000750000204B49087003204B490870002054
:102C90004A49087004204A4908706EE000204549FE
:102CA000087003204449087000204449087003203C
:102CB0004349087061E000203E49087003203E4906
:102CC000087000203D49087007203D49087054E015
:102CD0000020384908700320374908700020374920
:102CE000087006203649087047E000203149087016
:102CF0000320314908700020304908700520304910
:102D000008703AE000202B49087002202A49087018
:102D10009FED2E0A2E4880ED000A002027490870FA
:102D200008202749087028E0032022490870042061
:102D300021490870032021490870002020490870AB
:102D40001BE004201B49087005201B490870042063
:102D50001A49087000201A4908700EE00EE00BE0D6
:102D600000201449087003201349087000201349FB
:102D700008701349087000E000BF0BE002200D4905
:102D800008700D4908700D4908700D490870002041
:102D9000114908700AE009E0002006490870064958
:102DA0000870064908700649087000BF00BF7047E8
:102DB00004000020CC0A0020E80A0020400B00207C
:102DC0004C0B00203404014005000020CDCC4C3FCA
:102DD000EC0A0020DC1A00204D0B002008B507F09B
:102DE0001BFC0090FFF73CFD00BFFFF743FD0121F6
:102DF000684607F011F8F8E710B5102001F040FA26
:102E000002480068401C0149086010BD080000200D
:102E100010B505480088401C034908804FF48070B5
:102E200001F02EFA10BD00001000002010B52DEDAD
:102E3000068B3E49B1F90000FDF70FFC41EC1A0B7F
:102E40009FED3B0B53EC102BFDF798FB41EC190B5E
:102E5000FDF75EFC08EE100A3748B0F9000000EEFE
:102E6000900AF8EEE00AB0EE600AF0EE480A334845
:102E700004F014FC3249B1F90000FDF7EEFB41EC1F
:102E80001A0B9FED2B0B53EC102BFDF777FB41EC4E
:102E9000190BFDF73DFC08EE100A2748B0F90200B7
:102EA00000EE900AF8EEE00AB0EE600AF0EE480A92
:102EB000244804F0F3FB2148C06B00EE100ADFED5C
:102EC000220AB4EEE00AF1EE10FA10DD1B48C06BE6
:102ED00000EE100ADFED1D0AB4EEE00AF1EE10FA82
:102EE00005D29FED1B0A10EE100A1449C86315485D
:102EF000C06B00EE100ADFED140AB4EEE00AF1EE4A
:102F000010FA10DD0F48C06B00EE100ADFED0F0A5B
:102F1000B4EEE00AF1EE10FA05D29FED0D0A10EEC4
:102F2000100A0849C863BDEC068B10BD6819002063
:102F30000000000000005840360B0020450700202C
:102F40007C190020960700200000C8C30000C84379
:102F5000000000000E48007800EE100AB8EE400AAB
:102F600010EE100A0B4988610B4988619FED0B0A2E
:102F700010EE100A0749C8610749C8619FED070AAA
:102F800010EE100A03490862034908627047000006
:102F9000410B00209607002045070020000000009C
:102FA00010B54348007805287BD2DFE800F07503B0
:102FB000153B59003F49B1F9040000EBD0714910AD
:102FC0003D4A11803B49B1F90410484200EBD071F1
:102FD000491009B2518069E04FF4007004F016FC0A
:102FE000012809D13348007D012805D1C820324984
:102FF00008804042488014E04FF4804004F006FC12
:1030000001280AD12B48007D012806D16FF0C700A6
:1030100029490880C820488003E00020264908800C
:10302000488043E025480078012807D14FF4967086
:10303000214908804FF6D460488010E01F4890F97D
:103040000000401C38B94FF6D4601B4908804FF48B
:103050009670488003E0002017490880488025E0EA
:1030600016480078012805D178201349088040428D
:10307000488010E0114890F90000401C38B96FF00A
:1030800077000D4908807820488004E009E000209E
:1030900009490880488009E00020074908804880E5
:1030A00004E0002004490880488000BF00BF10BD34
:1030B000400B0020DC1A0020360B0020E00A002024
:1030C00070B52DED048B1E480078032808D01C48ED
:1030D000007828B11B48007810B11B48007820B94F
:1030E00000210846FEF78CFB27E01848C16B084614
:1030F000FDF7E3FA41EC190B9FED150B53EC102B88
:10310000FDF7CAF941EC180BFDF7B8FA04B2124802
:10311000C16B0846FDF7D1FA41EC190B9FED0C0B82
:1031200053EC102BFDF7B8F941EC180BFDF7A6FA9C
:1031300005B221462846FEF763FBBDEC048B70BD4B
:103140000200002004000020400B00209607002011
:10315000000000000000F83F4507002010B56D4852
:103160000088401C6B4908806B4890ED020A6B4850
:1031700080ED000A684890ED010A684880ED010A78
:10318000654890ED000A654880ED020A624890EDBE
:10319000050A624880ED040A5F4890ED040AB1EE2A
:1031A000400A5E4880ED050A5B4890ED030AB1EEE7
:1031B000400A5A4880ED060A594890ED000A5948DD
:1031C00080ED000A584890ED000A554880ED000A4D
:1031D00090ED000A5348D0ED000A30EE600ADFEDB2
:1031E000530AB4EEE00AF1EE10FA05DB504800682D
:1031F000401E4F49086013E0494890ED000A4948D5
:10320000D0ED000A30EE600ADFED4A0AB4EEE00AC3
:10321000F1EE10FA04D846480068401C44490860A2
:1032200007F0FAF94449086007F0F6F942F2107124
:1032300088426ED907F0F0F940490968401A00EE5B
:10324000100AB8EE400A3548D0ED060A60EE200AB2
:103250009FED3B1A80EE810ADFED390A80EE201ADD
:103260009FED380AB4EEC01AF1EE10FA02DD00202C
:103270003149086007F0D0F930490968401A00EE7A
:10328000100AB8EE400A2548D0ED050A20EE200AC3
:10329000DFED2B0A80EE201A2B4890ED000A31EE6C
:1032A000000A80ED000A07F0B7F924490968401ABE
:1032B00000EE100AB8EE400A1848D0ED040A20EEDD
:1032C000200ADFED1F0A80EE201A204890ED000A48
:1032D00031EE000A80ED000A07F09EF917490968EF
:1032E000401A00EE100AB8EE400A0C48D0ED060A6B
:1032F00020EE200ADFED120A80EE201A144890ED2D
:10330000000A31EE000A80ED000A07F085F90B494A
:10331000086010BD6A00002068230020942200206D
:10332000B80C0020C40C00209C2300200000A54302
:10333000DC0C00200000A5C3E00C0020E80C0020FD
:1033400000007A440000C842D80C0020D40C0020B1
:10335000D00C002070B503464FF4FA7513B94FF640
:10336000FF7070BD09E013F8014B82EA0400C0B29F
:10337000074E36F8100080EA2222081EA1F1010152
:1033800004D0281EA5F10106B5B2ECDC1046E8E732
:103390003EAB000870B503464FF4FA7505E013F82C
:1033A000010B80EA02040648025D081EA1F101013A
:1033B00004D0281EA5F10106B5B2F0DC104670BDA0
:1033C0003DAA000810B5FFF7EBFDFFF7C3FDFFF7BF
:1033D0002DFDFFF775FE10BD024692F82000012872
:1033E00003D092F82000022806D1106840690843F3
:1033F0001368586100207047506A40F48020506282
:103400000120F8E770B504460D46A86800B900E051
:1034100000BF94F82000012803D094F8200002286F
:103420007FD12068806800F0806050B92068806893
:1034300000F0006028B92068806800F08050002803
:1034400069D020688068C0F301610120884018605D
:10345000A86850B92E88E86840EA4656206800F50A
:10346000C07000EB011006600BE0D5E9016040EA96
:10347000C600EE683043266806F5C07606EB0116F6
:1034800030602E69206800F5C07000EB01104660C6
:10349000287D01280DD1206800F5C07000EB0110D7
:1034A000406840F48076206800F5C07000EB0110A1
:1034B0004660D0790006967940EA0640567940EA9F
:1034C000062610790643206800F5C07000EB011055
:1034D000C660D0780006967840EA0640567840EA02
:1034E000062016783043266806F5C07606EB0116EE
:1034F000B060206800F5C07000EB0110006840F07B
:103500000106206800F5C07000EB01100660002085
:1035100070BD06E0FFE7606A40F4001060620120C1
:10352000F6E7606A40F4802060620120F0E7000066
:1035300070B504460A460023216894F8200001284B
:1035400003D094F8200002287CD1414901F5007194
:10355000086840F001000860086820F47C500860AA
:103560000868556A40EA05200860157D012000FAC8
:1035700005F3C8699843C861A1F50071D069C8B95D
:10358000D1F80C029843C1F80C02908880B295895A
:1035900040EA054501F51070566940F8365010882C
:1035A00080B2158940EA054501F51070566900EBB7
:1035B000C6004560D069012819D1D1F80C02184322
:1035C000C1F80C02908880B2158840EA054501F5E3
:1035D0001070566940F83650908980B2158940EADB
:1035E000054501F51070566900EBC600456090690D
:1035F00028B9D1F804029843C1F8040204E0D1F8D4
:1036000004021843C1F80402106928B9D1F8140261
:103610009843C1F8140204E0D1F814021843C1F829
:103620001402106A012804D1D1F81C021843C1F811
:103630001C02D1F8000220F00100C1F800020020B5
:1036400070BDFFE7606A40F4802060620120F7E708
:1036500000640040704730B5044694F8200001280B
:1036600003D094F8200002287DD151B92068C068A9
:1036700000F0030090B9606A40F40010606201201D
:1036800030BD01290AD12068006900F0030028B983
:10369000606A40F4001060620120F1E7206800F5E4
:1036A000D87000EB0110006800F004009060906892
:1036B00040B9206800F5D87000EB01100068400D9B
:1036C000106007E0206800F5D87000EB011000687A
:1036D000C0085060206800F5D87000EB0110006849
:1036E00000F002004008D060206800F5D87000EBC0
:1036F0000110406800F00F001061206800F5D870DC
:1037000000EB0110406800F47F40000A90612068DF
:1037100000F5D87000EB01104068000C5061206883
:1037200000F5D87000EB011080681870206800F573
:10373000D87000EB0110806800F47F40000A5870D8
:10374000206800F5D87000EB0110806800F47F005D
:10375000000C9870206800F5D87000EB01108068AC
:10376000000ED87000E034E0206800F5D87000EB5F
:103770000110C0681871206800F5D87000EB0110C6
:10378000C06800F47F40000A5871206800F5D870C6
:1037900000EB0110C06800F47F00000C98712068F5
:1037A00000F5D87000EB0110C068000ED87131B977
:1037B0002068C06840F020002568E86007E0012923
:1037C00005D12068006940F02000256828610020AC
:1037D00056E7606A40F480206062012050E70146AD
:1037E000002091F82020012A03D091F82020022AFD
:1037F00011D10A68926802F0806202B1401C0A6826
:10380000926802F0006202B1401C0A68926802F0FD
:10381000805202B1401C70472DE9F05F044600253C
:10382000206846692068D0F804902068876820687E
:10383000D0F80CA02068D0F810B02068D0F818801C
:1038400006F00100002855D007F00100C0B10120AA
:103850002168886007F0020018B1204600F082FA63
:103860000EE007F0040010B145F4006508E007F031
:10387000080010B145F4805502E0204600F071FACE
:1038800007F48070C8B14FF480702168886007F435
:10389000007018B1204600F0A6FA0EE007F4806030
:1038A00010B145F4005508E007F4006010B145F48C
:1038B000804502E0204600F095FA07F48030C8B158
:1038C0004FF480302168886007F4003018B120463A
:1038D00000F08BFA0EE007F4802010B145F40045AB
:1038E00008E007F4002010B145F4803502E02046DE
:1038F00000F07AFA06F0080038B10AF0100020B1A2
:1039000045F4007510202168C86006F0040040B13D
:103910000AF0080028B108202168C860204600F09D
:10392000C1F906F0020038B12068C06800F0030059
:1039300010B1204600F0B8F906F0400038B10BF0A5
:10394000100020B145F4806510202168086106F060
:10395000200040B10BF0080028B108202168086160
:10396000204600F0CBF906F0100038B1206800695D
:1039700000F0030010B1204600F0C1F906F4003059
:1039800040B109F0100028B110202168486020469D
:1039900000F0B6F906F4803040B109F0080028B113
:1039A000082021684860204600F020FA06F4004014
:1039B00088B309F0040078B306F4807020B108F0F1
:1039C000010008B145F0010506F4007020B108F0CF
:1039D000020008B145F0020506F4806020B108F04D
:1039E000040008B145F0040506F40060A0B108F039
:1039F000700088B108F07000402817D006DC10284D
:103A00000BD020280CD0302819D10CE0502810D031
:103A1000602814D110E01DE019E045F008050FE022
:103A200045F010050CE045F0200509E045F04005A3
:103A300006E045F0800503E045F4807500E000BF36
:103A400000BF2068806920F0700021688861042030
:103A5000216848602DB1606A284360622046FFF704
:103A6000F9FDBDE8F09F70B5044600250CB90120B2
:103A700070BD94F8200010B9204600F0AFF820681F
:103A8000006820F002002168086000F027FD05466C
:103A90000DE000F023FD401B0A2808D9606A40F4BD
:103AA00000306062052084F820000120E0E72068F3
:103AB000406800F002000028EBD12068006840F068
:103AC00001002168086000F009FD05460DE000F0E6
:103AD00005FD401B0A2808D9606A40F40030606286
:103AE000052084F820000120C2E72068406800F02B
:103AF00001000028EBD0207E012806D12068006854
:103B000040F080002168086005E02068006820F02F
:103B1000800021680860607E012806D12068006866
:103B200040F040002168086005E02068006820F04F
:103B3000400021680860A07E012806D12068006846
:103B400040F020002168086005E02068006820F04F
:103B5000200021680860E07E012806D12068006806
:103B600020F010002168086005E02068006840F03F
:103B7000100021680860207F012806D120680068B5
:103B800040F008002168086005E02068006820F027
:103B9000080021680860607F012806D1206800685D
:103BA00040F004002168086005E02068006820F00B
:103BB000040021680860D4E9020108432169084330
:103BC000616908436168491E08432168C861002093
:103BD0006062012084F82000002049E710B586B01B
:103BE00004462B49206888421ED100BF0020009067
:103BF0002848006840F000702649086008460068C0
:103C000000F00070009000BF00BF03200190022070
:103C1000029000200390032004900920059001A940
:103C20001D4800F03BFB31E01C49206888422DD143
:103C300000BF002000901748006840F080601549E0
:103C400008600846006800F08060009000BF00BF78
:103C500000BF002000900846006840F00070086037
:103C60000846006800F00070009000BF00BF4FF4ED
:103C70004050019002200290002003900320049005
:103C80000920059001A9064800F008FB06B010BD08
:103C90000064004040380240000C024000680040D0
:103CA000000402407047000010B504460D4920682A
:103CB000884209D10C4BA3F11C0200210B48FFF7ED
:103CC000CAFCFDF737FD0CE009492068884208D19D
:103CD000084BA3F11C0200210748FFF7BCFCFDF7CD
:103CE000D7FD10BD00640040381B00205C1C002084
:103CF000006800409C1B00200C1C0020704770478F
:103D0000704770B50446002594F82000012822D1A0
:103D1000022084F820002068006820F0010021685B
:103D2000086000F0DBFB05460DE000F0D7FB401B10
:103D30000A2808D9606A40F400306062052084F8DF
:103D40002000012070BD2068406800F001000028BC
:103D5000EBD16062F6E7606A40F400206062012007
:103D6000F0E7704770B5044616492068884211D1C3
:103D70001548FDF7D2FE0546002D0ADD134912480D
:103D8000FDF782FE0123114A183210491048FFF74F
:103D900039FB00BF0F492068884211D10E48FDF75A
:103DA000BCFE0546002D0ADD0C490B48FDF76CFEF4
:103DB00001230A4A183209490948FFF723FB00BFCB
:103DC00070BD00000064004054130020601B002000
:103DD0005C1C002000680040D8150020C41B002097
:103DE0000C1C00207047704770477047704770B5D3
:103DF0000446A56D00F072FB064694F835000228D3
:103E000008D08020606500BF002084F8340000BF27
:103E1000012070BD2068006820F01600216808604D
:103E20002068406920F0800021684861206C08B952
:103E3000A06C28B12068006820F0080021680860A4
:103E40002068006820F00100216808600FE000F0A1
:103E500045FB801B05280AD92020606500BF002093
:103E600084F8340000BF032084F83500D1E72068CF
:103E7000006800F001000028E9D194F85C103F20B0
:103E80008840A86000BF002084F8340000BF0120F3
:103E900084F835000020BCE7F8B504460020009007
:103EA0008C4800684FF41651B0FBF1F7A56D2E68F1
:103EB00094F85C1008208840304098B12068006871
:103EC00000F0040070B12068006820F00400216850
:103ED000086094F85C1008208840A860606D40F08D
:103EE0000100606594F85C1001208840304068B1A2
:103EF0002068406900F0800040B194F85C10012017
:103F00008840A860606D40F00200606594F85C1025
:103F100004208840304068B12068006800F002004A
:103F200040B194F85C1004208840A860606D40F0B7
:103F30000400606594F85C1010208840304078B32D
:103F40002068006800F0080050B394F85C1010205E
:103F50008840A8602068006800F4802080B1206854
:103F6000006800F4002028B9206CC8B12046216CFC
:103F7000884715E0A06C98B12046A16C88470FE0F7
:103F80002068006800F4807028B92068006820F07C
:103F9000080021680860206C10B12046216C884719
:103FA00094F85C10202088403040002865D02068BC
:103FB000006800F0100000285FD094F85C1020200A
:103FC0008840A86094F83500052828D1206800684A
:103FD00020F01600216808602068406920F0800009
:103FE00021684861206C08B9A06C28B1206800687D
:103FF00020F008002168086094F85C103F20884099
:10400000A86000BF002084F8340000BF012084F8BD
:104010003500206D10B12046216D8847F8BD20681D
:10402000006800F4802080B12068006800F400205F
:1040300028B9606C10B12046616C88471DE0E06BC8
:10404000D8B12046E16B884717E02068006800F48B
:10405000807068B92068006820F01000216808604E
:1040600000BF002084F8340000BF012084F8350030
:10407000E06B10B12046E16B8847606D38B3606D2E
:1040800000F00100F0B1052084F8350020680068D8
:1040900020F001002168086000BF0098401C0090DB
:1040A000B84200D905E02068006800F0010000284F
:1040B000F3D100BF00BF002084F8340000BF01200E
:1040C00084F83500E06C10B12046E16C884700BFF1
:1040D000A4E70000480C00202DE9F041044600252B
:1040E00000F0FCF9074614B90120BDE8F081606AD0
:1040F00000B100BF00BF002084F8340000BF0220E0
:1041000084F835002068006820F00100216808600C
:104110000AE000F0E3F9C01B052805D920206065FE
:10412000032084F83500E0E72068006800F0010013
:104130000028EED12068056821480540D4E9010136
:104140000843E16808432169084361690843A1699C
:104150000843E1690843216A08430543606A04286B
:1041600003D1D4E90B0108430543206805602068AA
:10417000456925F00705606A0543606A04280DD18A
:10418000A06A0543E06A48B12046FEF7BFFB28B1AC
:1041900040206065012084F83500A6E7206845616D
:1041A0002046FEF799FB064694F85C103F208840B5
:1041B000B06000206065012084F83500002094E79D
:1041C0003F8010F02DE9F04704460D4616461F4685
:1041D0004FF00008D4F8589000BF94F8340001283C
:1041E00002D10220BDE8F087012084F8340000BF2E
:1041F00094F8350001282BD1022084F835000020E6
:1042000060653B46324629462046FEF7D4FB94F8CB
:104210005C103F208840C9F808002068006840F022
:104220001600216808602068406940F0800021681D
:104230004861206C28B12068006840F008002168BF
:1042400008602068006840F001002168086006E00E
:1042500000BF002084F8340000BF4FF00208404641
:10426000C0E7000010B50446B4F5807F04D10120FA
:1042700002490870FEF772FF10BD0000590C0020C3
:1042800010B5044604480068204020B1024804608C
:104290002046FFF7E7FF10BD143C0140F8B5024689
:1042A0000B460025002400200021E6E0012606FA46
:1042B00001F51E6806EA0504AC4273D15E68022E61
:1042C00002D05E68122E13D1CF0802F1200656F8F4
:1042D00027004E07F70E0F26BE40B0434F07FF0ED4
:1042E0001E69BE403043CF0802F1200646F8270081
:1042F00010684F000326BE40B0431E7906F0030647
:104300004F00BE40304310605E68012E08D05E68EA
:10431000022E05D05E68112E02D05E68122E13D1D7
:1043200090684F000326BE40B0434F00DE68BE4099
:1043300030439060506801268E40B0431E79C6F32A
:1043400000168E4030435060D0684F000326BE40B8
:10435000B0434F009E68BE403043D0605E6806F0B8
:104360008056B6F1805FA8D100BF00260096454E6A
:10437000366846F48046434F3E603E46366806F453
:104380008046009600BF00BF3F4E8F0856F82700BA
:104390008E07370F0F26BE40B0433C4EB24202D1CB
:1043A00000262EE068E03A4EB24201D1012628E014
:1043B000384EB24201D1022623E0374EB24201D13B
:1043C00003261EE0354EB24201D1042619E0344ED8
:1043D000B24201D1052614E0324EB24201D1062686
:1043E0000FE0314EB24201D107260AE02F4EB24211
:1043F00001D1082605E02E4EB24201D1092600E087
:104400000A268F073F0FBE4030431F4E8F0846F8E5
:104410002700284E3068A0435E6806F48036B6F563
:10442000803F00D12043234E3060361D3068A043CA
:104430005E6806F40036B6F5003F00D120431D4EFD
:10444000361D3060361D3068A0435E6806F4801665
:10445000B6F5801F00D12043164E08363060361D59
:104460003068A0435E6806F40016B6F5001F00D160
:104470002043104E0C363060491C1029FFF416AF53
:10448000F8BD0000443802400838014000000240F6
:104490000004024000080240000C024000100240EC
:1044A0000014024000180240001C0240002002409C
:1044B00000240240003C0140024613690B400BB14E
:1044C000012000E00020704742694A404261704785
:1044D0000AB1816101E00B04836170470148006803
:1044E00070470000FC0C002003480068034909786D
:1044F0000844014908607047FC0C0020040D0020AE
:1045000010B50D48006840F400700B49086008467B
:10451000006840F4806008600846006840F48070DD
:104520000860032000F0E8F8002000F007F800F031
:1045300049F8002010BD0000003C024070B588B072
:10454000044600250026002221461C2000F095F894
:104550001C2000F085F800BF00200190164800687C
:1045600040F00100144908600846006800F00100AE
:10457000019000BF00BF02A903A800F091F900F06C
:10458000B7F945000D48B5FBF0F0461E4FF08040EE
:104590000B49086040F2E7310948C16046600021DC
:1045A0000161816000F0E6FD20B9054800F025FEBC
:1045B00008B070BD0120FBE74038024040420F00C8
:1045C0003822002008B500BF002000902348006872
:1045D00040F48040214908600846006800F48040AB
:1045E000009000BF00BF00BF00200090081F0068BF
:1045F00040F08050091F08600846006800F08050B5
:10460000009000BF00BF032000F076F800221146A2
:104610006FF00B0000F031F8002211466FF00A0035
:1046200000F02BF8002211466FF0090000F025F889
:1046300000221146501F00F020F800221146101FE2
:1046400000F01BF800220F21901E00F016F8002247
:104650000F21501E00F011F808BD00004438024040
:1046600000BF00F01F02012191404209920002F1B7
:10467000E022C2F8001100BF70472DE9F05F8046CC
:104680000D461646002702F007FC074639462A4623
:10469000334601F00700C0F1070ABAF1040F02D94E
:1046A0004FF0040A01E0C0F1070AD14600F1040A04
:1046B000BAF1070F02D24FF0000A01E0A0F1030A9D
:1046C000D4464FF0010A0AFA09FAAAF1010A0AEAE5
:1046D000020A0AFA0CFA4FF0010B0BFA0CFBABF1D1
:1046E000010B0BEA030B4AEA0B042146404602F099
:1046F000DBFBBDE8F09F000000BF00F00702064BA7
:1047000019684FF6FF031940044B0B4343EA02219B
:10471000014B196000BF70470CED00E00000FA0586
:1047200070B504460D460CB9012070BD58480068AC
:1047300000F00F00A84209D255490D7008460068E4
:1047400000F00F00A84201D00120EEE7207800F031
:10475000020002281DD1207800F00400042805D1B1
:104760004C48006840F4E0504A490860207800F066
:104770000800082805D14748006840F460404549D2
:1047800008604448006820F0F000A16808434149EF
:104790000860207800F00100A8B36068012807D104
:1047A0003C4808380068C0F34040B8B90120BCE775
:1047B0006068022802D06068032807D135480838AD
:1047C0000068C0F3406048B90120AEE731480838BE
:1047D0000068C0F3400008B90120A6E72D48006832
:1047E00020F00300616808432A490860FFF776FE5D
:1047F000064609E0FFF772FE801B41F288318842CD
:1048000002D9032091E707E02248006800F00C007D
:104810006168B0EB810FEDD11D48006800F00F001A
:10482000A84209D91A490D700846006800F00F0027
:10483000A84201D0012078E7207800F00400042885
:1048400007D11448006820F4E050E168084311499A
:104850000860207800F00800082808D10D4800689A
:1048600020F46040216940EAC1000A49086000F074
:104870005FF808490968C1F30311074A515CC84051
:10488000064908600020FFF759FE00204DE70000B0
:10489000003C0240083802403EAD0008480C0020B1
:1048A0000F2202600D4A126802F0030242600B4AB6
:1048B000126802F0F0028260084A126802F4E052C4
:1048C000C260064A126802F46042D2080261044AD9
:1048D000126802F00F020A607047000008380240B8
:1048E000003C02400148006870470000480C00206E
:1048F00000B5FFF7F7FF04490968C1F38221034AB5
:10490000515CC84000BD0000083802404EAD0008B0
:1049100000B5FFF7E7FF04490968C1F34231034AD4
:10492000515CC84000BD0000083802404EAD000890
:104930002DE9F047002400250026A14625480068FF
:1049400000F00C0020B1042805D008283AD105E079
:10495000DFF8849039E0DFF8849036E01D48001FCE
:10496000006800F03F041B48001F006800F480004E
:1049700078B11A481749091F0968C1F38811A0FBCB
:1049800001700146224600233846FBF789FC0546A4
:104990000EE011480F49091F0968C1F38811A0FBF7
:1049A00001700146224600233846FBF779FC054694
:1049B0000848001F0068C0F30140401C4600B5FBDA
:1049C000F6F902E0DFF8109000BF00BF4846BDE8EE
:1049D000F0870000083802400024F400001BB700F4
:1049E000F8B504460CB90120F8BD207800F00100AC
:1049F000002874D0F948006800F00C0004280DD09D
:104A0000F648006800F00C00082813D1F348001F96
:104A1000006800F48000B0F5800F0BD1EF48083833
:104A20000068C0F34040002859D06068002856D183
:104A30000120D9E700BF6068B0F5803F08D1E748A2
:104A40000838006840F48030E449083908601EE006
:104A50006068B0F5A02F0DD1E0480838006840F438
:104A60008020DE49083908600846006840F480303C
:104A700008600CE0D9480838006820F48030D74935
:104A8000083908600846006820F48020086000BFEC
:104A9000606890B1FFF722FD054606E0FFF71EFDB6
:104AA000401B642801D903209EE7CC4808380068E1
:104AB000C0F340400028F1D011E0FFF70FFD05469C
:104AC00006E0FFF70BFD401B642801D903208BE7AC
:104AD000C24808380068C0F340400028F1D120786F
:104AE00000F0020002285FD1BC48006800F00C0012
:104AF00058B1BA48006800F00C0008281CD1B7482B
:104B0000001F006800F48000B0B9B448083800689D
:104B1000C0F3400020B1E068012801D0012063E724
:104B2000AE480838006820F0F800216940EAC1006A
:104B3000AA490839086037E0E06800B30120A849B5
:104B40000860FFF7CBFC054606E0FFF7C7FC401BFB
:104B5000022801D9032047E7A04808380068C0F3BD
:104B600040000028F1D09D480838006820F0F80087
:104B7000216940EAC10099490839086014E0002021
:104B800097490860FFF7AAFC054606E0FFF7A6FC78
:104B9000401B022801D9032026E790480838006806
:104BA000C0F340000028F1D1207800F00800082868
:104BB0002CD16069A8B101208A490860FFF78EFCFA
:104BC000054606E0FFF78AFC401B022801D90320B6
:104BD0000AE782486C300068C0F340000028F1D03A
:104BE00014E000207F490860FFF778FC054606E0E6
:104BF000FFF774FC401B022801D90320F4E6774834
:104C00006C300068C0F340000028F1D1207800F03B
:104C10000400042870D1002670483830006800F085
:104C2000805090B900BF002000906C483830006878
:104C300040F080506949383108600846006800F04B
:104C40008050009000BF00BF01266748006800F454
:104C50008070B0B96448006840F4807062490860B0
:104C6000FFF73CFC054606E0FFF738FC401B022836
:104C700001D90320B8E65C48006800F48070002881
:104C8000F2D000BFA068012808D1544868300068FD
:104C900040F001005149683108601DE0A068052816
:104CA0000DD14E486830006840F004004B4968312F
:104CB00008600846006840F0010008600CE04748C2
:104CC0006830006820F001004449683108600846F7
:104CD000006820F00400086000BFA068A8B1FFF7DA
:104CE000FDFB054609E0FFF7F9FB401B41F2883167
:104CF000884202D9032077E626E038486830006809
:104D0000C0F340000028EED013E0FFF7E7FB0546B4
:104D100008E0FFF7E3FB401B41F28831884201D9EC
:104D2000032061E62D4868300068C0F34000002889
:104D3000EFD1012E07D129483830006820F080508B
:104D400026493831086000BFA069B8B3234800681D
:104D500000F00C0008285ED0A069022846D100208F
:104D60001F490866FFF7BAFB054606E0FFF7B6FBEA
:104D7000401B022801D9032036E61848083800688D
:104D8000C0F340600028F1D1D4E907010843616A0B
:104D900040EA81110122A06AC2EB500041EA0041C1
:104DA0002C20005D41EA00600C49091F08600120C9
:104DB0000B490866FFF792FB054607E02DE0FFF779
:104DC0008DFB401B022801D903200DE6034808385B
:104DD0000068C0F340600028F1D01EE008380240AF
:104DE00000004742800E47420070004000200C49FE
:104DF0000866FFF773FB054606E0FFF76FFB401BF5
:104E0000022801D90320EFE506480068C0F340609E
:104E10000028F2D101E00120E6E50020E4E50000F1
:104E2000000047420038024010B504460CB901208A
:104E300010BD606A00B900BF0021A16294F8510062
:104E400028B9002084F85000204600F033F80220F2
:104E500084F851002068006820F040002168086054
:104E6000D4E901010843E168084321690843616905
:104E70000843218B01F400710843E1690843216A6A
:104E80000843A16A0843216808600421A06901EA77
:104E90001040616A0843216848602068C06920F4B6
:104EA00000602168C86100206065012084F851001D
:104EB0000020BDE710B586B00446514920688842FD
:104EC00078D100BF002000904E48006840F40050A8
:104ED0004C4908600846006800F40050009000BF8C
:104EE00000BF2020019002200290002003900320A8
:104EF00004900520059001A94348FFF7CFF94FF42E
:104F00008250019002200290002003900320049020
:104F10000520059001A93C48FFF7C0F91020019039
:104F200003200490022002900120039001A936483A
:104F3000FFF7B4F9354836490860C00548600021DC
:104F400033488160C1604FF480610161002141619B
:104F50008161C16101624162FFF7BEF818B182212F
:104F60002CA003F00BFC00BF2948E064846300BF61
:104F7000264860302C4908604FF02060486040218E
:104F8000294881600021C1604FF4806101610021E6
:104F900041618161C16101624162FFF79DF818B111
:104FA00094211CA003F0EAFB00BF1F48A0648463A7
:104FB00023E0FFE71D49206888421ED100BF002082
:104FC00000901048006840F480100E4908600846C0
:104FD000006800F48010009000BF00BF4FF46070C4
:104FE00001900220029000200390032004900520ED
:104FF000059001A90E48FFF751F906B010BD000059
:105000000034014044380240001002401064024065
:10501000E41C00202E2E5C5372635C4253505F539D
:1050200050492E6300000000441D00200050014044
:1050300000140240042808D14FF0E021096941F032
:1050400004014FF0E022116107E04FF0E02109690F
:1050500021F004014FF0E0221161704770B5044661
:105060002546681EB0F1807F01D301200FE0681E45
:105070004FF0E02148610F214FF0FF3001F014FFA5
:1050800000204FF0E021886107200861002070BDFA
:105090007047704710B50346002200BF93F83800F0
:1050A000012801D1022010BD012083F8380000BF83
:1050B00022F0FF00CC6840EA040222F440708C68C1
:1050C00040EA040222F480604C6840EA040222F4C0
:1050D00000600C6840EA040222F480500C6940EA47
:1050E000040222F400504C6940EA040222F4804099
:1050F0008C6940EA040222F400408C6940EA040210
:105100001868426400BF002083F8380000BF00BF69
:10511000C9E7024600BF92F83800012801D10220F9
:105120007047012082F8380000BF022082F8390061
:105130001068406820F0700013685860106840687C
:105140000B681843136858601068806820F080006E
:1051500013689860106880684B68184313689860FB
:10516000012082F8390000BF002082F8380000BF1B
:1051700000BFD5E710B504460CB9012010BD94F866
:10518000390028B9002084F83800204600F00CF8D7
:10519000022084F83900211D206802F08BFC0120D8
:1051A00084F839000020E9E708B50A4A016891420D
:1051B0000FD100BF002100910749096841F00201A9
:1051C000054A11601146096801F00201009100BF13
:1051D00000BF08BD000400404038024001460220E4
:1051E00081F839000868006840F001000A68106022
:1051F000012081F839000020704701460868C06826
:1052000040F001000A68D0600868006840F00100C2
:105210000A68106000207047704710B50446206887
:105220000069C0F34000D8B12068C068C0F34000F6
:10523000B0B16FF00200216808610120207620687B
:10524000806900F0030018B12046FFF7E5FF05E094
:10525000204600F003F9204600F0D2F90020207625
:1052600020680069C0F38000D8B12068C068C0F32E
:105270008000B0B16FF00400216808610220207640
:105280002068806900F4407018B12046FFF7C4FF21
:1052900005E0204600F0E2F8204600F0B1F90020D9
:1052A000207620680069C0F3C000D8B12068C068CB
:1052B000C0F3C000B0B16FF008002168086104209D
:1052C00020762068C06900F0030018B12046FFF77F
:1052D000A3FF05E0204600F0C1F8204600F090F959
:1052E0000020207620680069C0F30010D8B1206843
:1052F000C068C0F30010B0B16FF010002168086101
:10530000082020762068C06900F4407018B120465B
:10531000FFF782FF05E0204600F0A0F8204600F0ED
:105320006FF9002020762068006900F0010058B174
:105330002068C06800F0010030B16FF00100216802
:105340000861204600F084F920680069C0F3C010AD
:1053500058B12068C068C0F3C01030B16FF0800051
:10536000216808612046FFF793FE20680069C0F3BA
:10537000801058B12068C068C0F3801030B16FF061
:10538000400021680861204600F096F92068006915
:10539000C0F3401058B12068C068C0F3401030B16D
:1053A0006FF02000216808612046FFF772FE10BDF3
:1053B00010B586B004462249206888421AD13020B0
:1053C000019002200290002003900490022005909A
:1053D00001A91C48FEF762FF4FF4407001900220C3
:1053E00002900020039004900220059001A9164825
:1053F000FEF754FF1549206888420ED14FF4405003
:105400000190022002900020039004900220059059
:1054100001A90F48FEF742FF10E00E4920688842BC
:105420000CD1E4200190022002900020039004900F
:105430000320059001A90848FEF730FF06B010BD13
:105440000004004000040240000802400008004040
:10545000000C02400004014000200240704770B57B
:1054600004460D46164600BF94F83800012801D1C5
:10547000022070BD012084F8380000BF022084F8AB
:10548000390036B1042E1BD0082E31D00C2E5ED13F
:1054900045E02946206802F099FB2068806940F0C9
:1054A0000800216888612068806920F00400216874
:1054B000886120688069296908432168886147E01C
:1054C0002946206802F0BAFB2068806940F4006039
:1054D000216888612068806920F480602168886183
:1054E00020688069296940EA0120216888612FE0ED
:1054F0002946206802F0DEFB2068C06940F0080001
:105500002168C8612068C06920F004002168C86172
:105510002068C069296908432168C86118E02946E4
:10552000206802F003FC2068C06940F40060216834
:10553000C8612068C06920F480602168C861206863
:10554000C069296940EA01202168C86100E000BF04
:1055500000BF012084F8390000BF002084F8380023
:1055600000BF00BF85E710B504460CB9012010BD8F
:1055700094F8390028B9002084F83800204600F05B
:105580000DF8022084F83900211D206802F092FAFB
:10559000012084F839000020E9E7000008B5154A29
:1055A000016891420FD100BF0021009112490968A2
:1055B00041F00401104A11601146096801F004012C
:1055C000009100BF15E00D4A0168914211D100BF62
:1055D000002100910849091D096841F00201064AAD
:1055E000121D11601146096801F00201009100BF0F
:1055F00000BF08BD000800404038024000040140E0
:105600007047000030B504460D4601222946206847
:1056100002F0C2FA0C492068884203D00B49206886
:10562000884201D1012000E0002028B12068406CB0
:1056300040F40040216848642068006840F00100A0
:1056400021680860002030BD0000014000040140D6
:1056500010B504462068B0F1804F01D1FEF744FF39
:1056600010BD70B504460D4600BF94F838000128FF
:1056700001D1022070BD012084F8380000BF022053
:1056800084F839002946204602F080FB2068C06873
:1056900020F040002168C8602068C06820F4804085
:1056A0002168C860012084F8390000BF002084F818
:1056B000380000BF00BFDDE7704710B50446206822
:1056C000C06820F490702168C8602068406920F0AC
:1056D0000100216848612068406900F0400068B11D
:1056E0002068406920F0400021684861606B28B163
:1056F0000020616B0865606BFEF779FB0020E08598
:10570000202084F83A00002010BD704710B50446F0
:105710000CB9012010BDA06900B100E000BF94F8F1
:10572000390028B9002084F83800204600F028F815
:10573000242084F839002068C06820F400502168D3
:10574000C860204602F00EFD2068006920F49040F9
:10575000216808612068406920F02A0021684861BA
:105760002068C06840F400502168C8600020E063F1
:10577000202084F8390084F83A000020CAE70000AD
:1057800010B586B004467C49206888423FD100BFEE
:10579000002000907948006840F0100077490860C8
:1057A0000846006800F01000009000BF00BF802095
:1057B0000190022002900120039003200490072012
:1057C000059001A96E48FEF769FD6E486E490860B4
:1057D0004FF00060486000216B488160C1604FF469
:1057E000806101610021416181614FF48071C1617B
:1057F000002101624162FEF76FFC18B1B32163A082
:1058000002F0BCFF00BF604860638463B1E064499C
:10581000206888423ED100BF002000905748001FFA
:10582000006840F400305549091F086008460068C8
:1058300000F40030009000BF00BF60200190022003
:10584000029001200390032004900720059001A9F5
:105850005448FEF723FD5448544908604FF0006057
:105860004860002151488160C1604FF4806101614E
:10587000002141618161C16101624162FEF72CFC3E
:1058800018B1DE2141A002F079FF00BF47486063F4
:1058900084636EE04649206888426AD100BF0020D8
:1058A00000903648006840F02000344908600846FF
:1058B000006800F02000009000BF00BF4FF484405B
:1058C0000190022002900120039003200490082000
:1058D000059001A93748FEF7E1FC2A4818383649F7
:1058E000086080054860002133488160C1604FF442
:1058F00080610161002141618161C1610162042116
:105900004162032181620021C1620163FEF7E4FB71
:1059100020B140F207111DA002F030FF00BF264861
:105920006063846300BF17486030244908604FF00B
:10593000206048604021214881600021C1604FF40F
:10594000806101610021416181614FF48071C16119
:105950000021016204214162FEF7BEFB20B14FF439
:105960008D710AA002F00AFF00BF1448206384630F
:1059700000BF06B010BD00000010014044380240D6
:105980000004024040640240F01F00202E2E5C53B1
:1059900072635C4253505F55534152542E63000072
:1059A00000440040000C024088600240502000206B
:1059B0000014014000180240B020002010210020F7
:1059C00077B581B00446154694F83A00202844D1B2
:1059D000029800B115B9012004B070BD00BF94F861
:1059E0003800012801D10220F6E7012084F83800B0
:1059F00000BF0298A062A5850020E063222084F801
:105A00003A001748616BC8631648616B0864164812
:105A1000616BC8640020616B086502AE3268236860
:105A2000191D2B46606BFEF7CDFB00BF00200090D8
:105A300020680068009020684068009000BF00BFA8
:105A400000BF002084F8380000BF2068406940F0A3
:105A50004000216848610020BEE70220BCE700004A
:105A6000DD800008238100088D80000870477047A2
:105A700000BFFEE710B501F011FF10BD10B527E023
:105A80001649174803F092FBA52821D10422134997
:105A9000491C134803F0BDFB10484478052102F06F
:105AA000DFFD012813D104F1090032280FDA221D8D
:105AB0000A49491D0A4803F0ACFB04F109010748F3
:105AC00002F0AEFD012802D10448FCF78BFF00BFB5
:105AD000034803F0B2FB3C28D2DC10BD001A0020C2
