:020000040800F2
:10000000D86400207D02000845930008A161000823
:1000100041930008A9180008FDAB0008000000008B
:10002000000000000000000000000000C101000806
:10003000ED2E00080000000015020008379F0008A0
:10004000970200089702000897020008970200082C
:10005000970200089702000897020008970200081C
:10006000970200089702000845320008970200082E
:1000700097020008970200089702000897020008FC
:10008000052D00089702000897020008F9190008DA
:100090006919000897020008970200085D320008FD
:1000A00097020008970200089702000897020008CC
:1000B00085A0000897020008970200089702000830
:1000C00097020008970200089702000897020008AC
:1000D00097020008ADAA000819AB000897020008B3
:1000E000970200089702000897020008970200088C
:1000F000970200089702000897020008970200087C
:10010000970200089702000897020008970200086B
:10011000970200089702000897020008970200085B
:100120009702000897020008152D000897020008A2
:10013000970200089702000897020008F11B0008C8
:10014000411B000897020008970200089702000868
:1001500097020008970200089702000871AB000898
:10016000970200089702000897020008970200080B
:10017000970200089702000897020008000000009C
:1001800097020008970200089702000897020008EB
:1001900097020008970200089702000897020008DB
:1001A000000000000000000097020008DFF80CD0FB
:1001B00000F0E0FB00480047EDC10008D8640020D3
:1001C0002B4B19680868B0E8F04F80F30988BFF33B
:1001D0006F8F4FF0000080F311887047000000001F
:1001E00006480068006880F3088862B661B6BFF30D
:1001F0004F8FBFF36F8F00DF00BF00BF08ED00E03F
:10020000DFF80C00016841F470010160704700BF25
:1002100088ED00E0EFF30980BFF36F8F144B1A688D
:100220001EF0100F08BF20ED108A20E9F04F10607B
:1002300008B44FF0500080F31188BFF34F8FBFF325
:100240006F8F0CF097FE4FF0000080F3118808BC10
:1002500019680868B0E8F04F1EF0100F08BFB0EC46
:10026000108A80F30988BFF36F8F704700BF00BF0B
:10027000680D0020EFF305807047000006488047B6
:1002800006480047FEE7FEE7FEE7FEE7FEE7FEE77B
:10029000FEE7FEE7FEE7FEE721A00008AD0100084B
:1002A0002DE9F05F0546002092469B4688460646AB
:1002B000814640241BE0284641464746224600F03E
:1002C00052FA53465A46C01A914110D31146184665
:1002D000224600F039FA2D1A67EB01084F462246F4
:1002E0000120002100F030FA17EB00094E41201EDA
:1002F000A4F10104DFDC484631462A464346BDE806
:10030000F09F40EA01039B0703D009E008C9121FD0
:1003100008C0042AFAD203E011F8013B00F8013BBF
:10032000521EF9D27047D2B201E000F8012B491EEB
:10033000FBD270470022F6E710B513460A46044682
:100340001946FFF7F0FF204610BD2DE9FE4F80460D
:1003500081EA0300C00F0C46009021F0004123F019
:100360000045B8EB0200A94105D24046214690461F
:100370001C460B46024623F00040104347D0270D91
:10038000C7F30A00C3F30A510290401A01904028B3
:100390006BDAC3F3130040F4801B0098924620B13F
:1003A0000023D2EB030A63EB0B0B01985946C0F113
:1003B0004002504600F0C8F906460D4650465946E0
:1003C000019A00F0E0F910EB08006141002487EA8F
:1003D000115284EAE7731A4340D0009A62B3019A3B
:1003E000012A4FEA075215DC001B61EB02014FF0B6
:1003F000004202EA0752CDE90042001C41F580119B
:1004000032462B4600F017FA03B0BDE8F08F4046A5
:100410002146F9E7001B61EB0201001C41F5801346
:1004200000185B412018A2F5001747EB030140EAD2
:10043000D570B6196D4111E06D084FEA360645EAF0
:10044000C0754FEA0752001B61EB0201001C41F529
:10045000801149084FEA30000019514132462B46BD
:1004600003B0BDE8F04F00F0D7B90098012240007A
:100470000023D0EB020263EBE073009821464FEAC1
:10048000E074B8EB000061EB0401E9E783F000439E
:100490005BE781F0004158E72DE9FE4F81EA030454
:1004A00004F0004421F0004100944FF0000B23F0D1
:1004B000004350EA01045ED052EA03045BD0C3F368
:1004C0000A54C1F30A552C44A4F2F3340194A0FB5E
:1004D0000254C1F3130141F48011C3F3130343F435
:1004E000801301FB024400FB034E840A970A44EA8E
:1004F000815447EA8357A4FB076802958D0A05FBE0
:1005000007854FEA932C04FB0C542705029D4FEA04
:10051000065847EA1637B5EB08056EEB070C870E51
:10052000920E47EA811742EA8312A7FB0201B6EB5B
:100530000B0164EB00042B0D43EA0C335E1844EB13
:100540001C50DA465146E7FB0201C5F313044FEA9B
:100550000B3343EA14534FEA0432019C43EA060387
:10056000A4F10C040294009CCDE900B400F063F9FE
:1005700003B0BDE8F08F00200146F9E72DE9F04D0A
:1005800081EA030404F0004B21F0004514464FF0CB
:10059000000A23F0004150EA050220D054EA01028B
:1005A0001DD0C5F30A570246C5F31303C1F3130068
:1005B000C1F30A5640F4801543F48013A7EB0608F4
:1005C000101BD64608F2FD3873EB050002D308F184
:1005D000010801E092185B41B8F1000F03DA002036
:1005E0000146BDE8F08D00204FF480110646844698
:1005F0000EE0171B73EB050705D3121B63EB050316
:1006000006434CEA010C49084FEA300092185B415E
:1006100050EA0107EDD152EA030012D082EA040049
:1006200083EA0501084305D0101BAB4106D2012225
:10063000002306E000224FF0004302E06FF00102C9
:1006400053101AEB06004CEB085110EB0A0041EB7B
:100650000B01BDE8F04D00F0DFB80EB5C10F80EA28
:10066000E0700844CA07002140F233438DE80E00D1
:100670000A460B4600F0DFF803B000BD70B5C1F3C9
:100680000A5201F000450024C1F3130140F2FF3388
:1006900041F480119A4201DA002070BD40F23343E8
:1006A0009A42A2F2334203DC524200F05CF800E0CE
:1006B00090402C43F1D0404270BD00F0004230F039
:1006C00000400AD0C10D01F56071C0F3160042EA86
:1006D0000151C2084007114370470020014670478E
:1006E00030B5041E71F1000404DB4FF000444042B9
:1006F00064EB0101141E73F1000405DB1C464FF08E
:100700000043524263EB0403994208BF904230BD5C
:1007100001F0004330B421F0004150EA010206D05C
:100720000A0DA2F56072C1F31301002A02DC30BC8D
:1007300000207047440F44EAC104C100E01830BCF7
:1007400000EBC25000F031B8202A04DB203A00FA56
:1007500002F1002070479140C2F1200320FA03F318
:10076000194390407047202A04DB203A21FA02F016
:100770000021704721FA02F3D040C2F120029140DB
:10078000084319467047202A06DBCB17203A41FA66
:1007900002F043EAE07306E041FA02F3D040C2F10E
:1007A000200291400843194670470029A8BF7047AE
:1007B000401C490008BF20F00100704710B4B0FA97
:1007C00080FC00FA0CF050EA010404BF10BC704732
:1007D00049B1CCF1200421FA04F411FA0CF118BF4C
:1007E000012121430843A3EB0C01CB1D4FEA00611B
:1007F0004FEA102042BF002010BC704700EBC350EE
:1008000010440029A4BF10BC7047401C490008BF19
:1008100020F0010010BC704710B5141E73F10004E5
:1008200008DA401C41F1000192185B411A4301D1E2
:1008300020F0010010BD2DE9F04D92469B4611B10C
:10084000B1FA81F202E0B0FA80F220329046FFF76E
:100850007BFF04460F4640EA0A0041EA0B0153467B
:100860005A46084313D0114653EA010019D0C8F183
:1008700040025046FFF777FF05460E465046594660
:100880004246FFF761FF084305D0012004E02046FF
:100890003946BDE8F08D0020054346EAE0762C435A
:1008A00037430A986305E40AA0EB08000022FD0A1A
:1008B00044EA47540A3002D500200146E9E7010521
:1008C00010196941DDE9084500196941BDE8F04D9D
:1008D000A2E72DE9F04D00231A461B1A8A4103DBDB
:1008E00000200146BDE8F08DC1F30A52C1F31301A7
:1008F00041F480154FF0000BD10702D100186D4173
:10090000521E0027044640F2FF11384601EB620AEE
:100910003E468046024600204FF48011FFF723FF39
:10092000C2197141BB1846EB0100B4EB030C75EB27
:10093000000C04D3E41A65EB000517460E46241993
:1009400008F101006D4180463428E3DDF91946EBDA
:100950000600091BA84103D24FF0FF32134601E005
:10096000002213461BEB070046EB0A51BDE8F04D91
:10097000FFF752BF064C074D06E0E06840F0010368
:1009800094E8070098471034AC42F6D3FFF712FC06
:100990004CDF00086CDF00080EB540F233410291D5
:1009A0000021CDE900110A460B46FFF744FF03B0D2
:1009B00000BD70B58C1810F8015B15F0070301D16C
:1009C00010F8013B2A1106D110F8012B03E010F8B2
:1009D000016B01F8016B5B1EF9D12B0705D40023D5
:1009E000521E0DD401F8013BFAE710F8013BCB1A77
:1009F000921C03E013F8015B01F8015B521EF9D56C
:100A0000A142D8D3002070BD70B505460C46002623
:100A10000DB1022C00D870BDA11E064802882846E0
:100A200002F00CFF0646A01E2E54310A601E295407
:100A300000BFF0E7C00A002070B505460C4600264E
:100A40000DB1022C00D870BD611EFF22284602F0B5
:100A500015FF0646601E2E5400BFF4E770B5FE4B2E
:100A6000DA68002A01DB134600E05342FB4CE068E1
:100A7000002801DB044600E04442191901EBD17360
:100A80005B1000EE103AB8EEC00AF54B83ED000A99
:100A9000F448007801287AD0F24800780228FAD089
:100AA000F14800780028F6D0F048F1490978405C18
:100AB00016286DD2DFE800F06C0B2344576DB8E2C6
:100AC000FDFCFBFAF9F8F7F66CF5F4CDF3F2012230
:100AD0005102E84803F084FFE7480078401CE649EB
:100AE00008700CF057FDE5490968401AB0F5C87F59
:100AF00004D9DF480078401CDD49087012E200226A
:100B00004FF40071DB4803F06BFFDB480078401EB8
:100B1000D9490870D348007806280BD10CF03AFD6B
:100B2000D6490968401A0AD0D1480078401CD049FB
:100B3000087004E0CE480078401CCD490870F1E10F
:100B400001229102CE4803F04BFF0CF023FDCB496C
:100B50000968401AB0F5487F04D9C5480078401CA0
:100B6000C3490870DEE100224FF48061C44803F0FD
:100B700037FF0CF00FFDC1490968401AB0F5487FF6
:100B800004D9BB480078401CB9490870CAE1D8E1D3
:100B9000C7E1BC4DEC68002C01DB254600E0654256
:100BA000B94EF368002B01DB1E4600E05E422E4486
:100BB000B64DEA68002A01DB154600E055422E4496
:100BC000B34DE968002901DB0D4600E04D42701984
:100BD000C51700EB9575AD10AE4E35609FEDAE0AB2
:100BE000AE4880ED000A9F480078072803D09D4852
:100BF0000078052808D1A94890ED000ADFEDA80A81
:100C000030EE200A80ED000A954890ED000ADFEDF5
:100C1000A50AB4EEE00AF1EE10FA04DD944800787B
:100C2000401C934908707DE19FED9F0A9B4880ED31
:100C3000000A8B4890ED000ADFED9C0AB4EEE00A52
:100C4000F1EE10FA04DD8A480078401C88490870EB
:100C500068E19FED970A914880ED000A804890ED89
:100C6000000ADFED940AB4EEE00AF1EE10FA04D2C5
:100C70007F480078401C7E49087053E19FED8E0A42
:100C8000864880ED000A764890ED000ADFED8B0A79
:100C9000B4EEE00AF1EE10FA11D20BE08FE032E18F
:100CA00028E1A5E025E130E03FE01EE0B0E05CE0B7
:100CB0004BE005E06E480078401C6D49087031E15A
:100CC0009FED750A754880ED000A654890ED000AB1
:100CD000DFED7B0AB4EEE00AF1EE10FA04D26448CC
:100CE0000078401C624908701CE19FED730A75484A
:100CF00080ED000A7448C068B0F5FA6F04DA5C4809
:100D00000078401C5A4908700CE19FED6B0A6D4851
:100D100080ED000A6C48C06810F1C80F04DD54482B
:100D20000078401C52490870FCE09FED630A65485A
:100D300080ED000A6448C06810F5C87F04DD4C48A7
:100D40000078401C4A490870ECE09FED5B0A5F4860
:100D500080ED000A5E48C068B0F5967F04DA44482A
:100D60000078401C42490870DCE09FED5A0A574861
:100D700080ED000A3B480078062803D03948007807
:100D8000072808D1514890ED000ADFED4B0A30EEFC
:100D9000200A80ED000A4E48C06840F6165188428D
:100DA0000CDD0CF0F7FB35490968401AB0F5167FE9
:100DB00004D92F480078401C2D490870B2E09FEDFF
:100DC000460A424880ED000A4148C06840F6165184
:100DD00088420CDD0CF0DEFB28490968401AB0F5AA
:100DE000167F04D922480078401C2149087099E0F8
:100DF0009FED3A0A354880ED000A3548C068B0F5E5
:100E0000166F04DA1A480078401C1949087089E006
:100E10009FED330A2D4880ED000A1248007806281D
:100E200003D010480078072808D1284890ED000A20
:100E3000DFED210A30EE200A80ED000A2448C06868
:100E400040F2DC51884253DA0CF0A4FB0B490968EC
:100E5000401AB0F5FA7F45E0901900207C19002077
:100E6000240C00205C0B0020050000202E1B00201D
:100E70005D0B0020002002402C0C0020300C0020D4
:100E800000140240DC180020F01800200419002093
:100E900018190020180C002000A0BE45040C0020EA
:100EA000000016450040B545004003460020FD45C2
:100EB0000060B8450080BB4500000000000096437C
:100EC0000000C845080C0020E0190020000C00209C
:100ED000CC1900200080544500C05A4500C00F4581
:100EE0000000AF4404D917480078401C1549087029
:100EF00018E017E000201349087013490870022019
:100F0000124908700EE00CF045FB11490968401ABF
:100F1000B0F52F7F04D90B480078401C09490870B0
:100F200000BF00BF00BF0B4800780649097888421F
:100F300003D00CF02FFB06490860024800780549F1
:100F4000087070BD5D0B0020050000205C0B0020C8
:100F5000300C00202D0C002010B52DED028BB9486F
:100F6000007802287DD1B84890ED030AB8EEC00A97
:100F7000F0EE400AB54890ED000AB1EE400AB448E0
:100F800008F002FEB048B0F90000032190FBF1F038
:100F900000EE100AB8EEC00AB0EE408AAC48C06B52
:100FA00000EE100AF0EE480AAA4808F0EDFDAA4843
:100FB00090ED030AB8EEC00AF0EE400AA34890EDA7
:100FC000000AA64808F0E0FDA348B0F9000003219C
:100FD00090FBF1F000EE100AB8EEC00AB0EE408AC5
:100FE0009E48C06B00EE100AF0EE480A9C4808F0DC
:100FF000CBFD9C4890ED030AB8EEC00AF0EE400A23
:101000009FED990A994808F0BFFD9648B0F9000095
:10101000032190FBF1F000EE100AB8EEC00AB0EE2A
:10102000408A9248C06B00EE100AF0EE480A9048E1
:1010300008F0AAFD8F4890ED030AB8EEC00AF0EE62
:10104000400A9FED890A8C4808F09EFD8948B0F956
:101050000000032190FBF1F000EE100AB8EEC00A88
:1010600000E00BE0B0EE408A8348C06B00EE100A4F
:10107000F0EE480A814808F087FDDFE0714800780B
:10108000012851D17048B0F90000032190FBF1F024
:1010900000EE100AB8EEC00AB0EE408AF0EE480A40
:1010A000774890ED000A6B4808F06EFD6A48B0F989
:1010B0000000032190FBF1F000EE100AB8EEC00A28
:1010C000B0EE408AF0EE480A6D4890ED000AB1EEAD
:1010D000400A634808F058FD6648B0F90000032153
:1010E00090FBF1F000EE100AB8EEC00AB0EE408AB4
:1010F000F0EE480A634890ED000A604808F044FDAD
:101100005848B0F900000A2190FBF1F000EE100AF7
:10111000B8EEC00AB0EE408AF0EE480A9FED520ADF
:10112000534808F031FD89E0474890ED030AB8EED6
:10113000C00AF0EE400A454890ED000AB1EE400AC0
:10114000434808F021FD4048B0F90000032190FB1E
:10115000F1F000EE100AB8EEC00AB0EE408A3C484A
:10116000C06B00EE100AF0EE480A3A4808F00CFD99
:10117000394890ED030AB8EEC00AF0EE400A334851
:1011800090ED000A354808F0FFFC3348B0F9000044
:10119000032190FBF1F000EE100AB8EEC00AB0EEA9
:1011A000408A2E48C06B00EE100AF0EE480A2C4828
:1011B00008F0EAFC2B4890ED030AB8EEC00AF0EE06
:1011C000400A314890ED000A284808F0DDFC254827
:1011D000B0F90000032190FBF1F000EE100AB8EE28
:1011E000C00AB0EE408A2148C06B00EE100AF0EE53
:1011F000480A1F4808F0C8FC1E4890ED030AB8EEE4
:10120000C00AF0EE400A214890ED000A1A4808F0A2
:10121000BBFC1848B0F90000032190FBF1F000EE90
:10122000100AB8EEC00AB0EE408A1348C06B00EE58
:10123000100AF0EE480A114808F0A6FCBDEC028B3B
:1012400010BD00005C0B00207C190020040C002065
:10125000CA030020E4010020901900201B04002094
:1012600035020020CC190020000000006C04002092
:10127000A3060020E0190020BD040020F406002091
:10128000100C0020140C0020000C0020080C002082
:10129000AC480068AC498861AC498861B2EE000A8C
:1012A00010EE100AAA498861AA498861AA48806894
:1012B000AA498861AA488068AA498861B0EE000AF4
:1012C00010EE100AA8498861B2EE000A10EE100A6A
:1012D000A6498861B7EE000AA54880ED000AA54836
:1012E0000078032803D0A348007804287ED1A248C0
:1012F000A2490978405C092811D1A148007800284A
:101300000DDD97484068984988619348406897493F
:101310008861B0EE000A964880ED000A19E0964810
:1013200096490978405C092813D19548007880B91E
:10133000B1EE040A10EE100A8B498861B2EE080A79
:1013400010EE100A89498861B7EE000A884880EDDE
:10135000000A894889490978405C112814D18848D5
:101360000078012810D1B1EE040A10EE100A7E496F
:101370008861B2EE0C0A10EE100A7C498861B0EE6A
:10138000000A7B4880ED000A7B487C490978405C74
:101390000B280CD17248C068734988616E48C068D8
:1013A00072498861B0EE000A714880ED000A724807
:1013B00072490978405C0A280FD17148007860B9F9
:1013C00067480068684988616348006867498861C0
:1013D000B7EE000A664880ED000A67486749097859
:1013E000405C0A2816D16648007800E013E0002827
:1013F00010DDB1EE040A10EE100A5B498861B7EE09
:10140000000A5B4880ED000AB2EE000A10EE100AF6
:10141000564988617DE057480078062879D15648BA
:1014200056490978405C092811D1554800780028B0
:101430000DDD4B4840684C498861474840684B493E
:101440008861B0EE000A4A4880ED000A19E04A4877
:101450004A490978405C092813D14948007880B985
:10146000B1EE040A10EE100A3F498861B2EE080A94
:1014700010EE100A3D498861B7EE000A3C4880ED45
:10148000000A3D483D490978405C0B2810D1B2EE76
:10149000000A10EE100A34498861B3EE040A10EE17
:1014A000100A32498861B2EE020A314880ED000A22
:1014B000314832490978405C0A280FD13048007819
:1014C00060B927480068284988612348006827498F
:1014D0008861B7EE000A264880ED000A26482749B1
:1014E0000978405C0A2814D125480078002810DDCE
:1014F000B1EE0C0A10EE100A1B498861B0EE000A2A
:101500001B4880ED000AB2EE0E0A10EE100A1749D1
:1015100088619FED1C0A10EE100A1349C8610A4940
:10152000C8610A49C8610F49C8619FED160A10EEEB
:10153000100A0D4908620449086204490862094911
:1015400008627047340C002035020020E4010020BE
:101550001B040020CA030020400C0020BD04002012
:10156000540C0020F4060020A30600206C04002088
:101570003C0C00205C0B00202E1B00205D0B00208B
:101580002C0C00200000000010B5674800780828E7
:1015900071D2DFE800F03E4862040F311C270020C2
:1015A00005E06249095C624A1154411CC8B228280E
:1015B000F7DBB6E0002007E000215D4A11545D49E9
:1015C000095C1154411CC8B22828F5DBA9E00020B1
:1015D00005E05949095C564A1154411CC8B22828F3
:1015E000F7DB9EE0002004E00021514A1154411C29
:1015F000C8B22828F8DB94E0002007E000214C4A1C
:1016000011544E49095C1154411CC8B22828F5DB1D
:1016100087E0002004E00021454A1154411CC8B273
:101620002828F8DB7DE04648B0F9080000EE100AF3
:10163000B8EEC00A4348D0ED000A20EE200A424826
:1016400080ED000A3E48B0F9060000EE100AB8EE40
:10165000C00A3E4880ED000A63E0012008F04CFB20
:1016600050B13748407D012806D19FED390A3948ED
:1016700080ED000A0DE053E0022008F03DFB40B190
:101680002F48407D012804D19FED330A314880ED79
:10169000000A9FED310A314880ED000A9FED2E0AC5
:1016A0002F4880ED000A4FF4807008F025FB78B1D8
:1016B0002348407D60B92248007D012808D19FED74
:1016C000290A244880ED000A40F6C4102649086023
:1016D0004FF4807008F010FB08B31948407D0128D2
:1016E0001DD11748007DD0B91F48006840F6C411CD
:1016F000884203D10BF04EFF1C4908604FF49660FE
:10170000194908600BF046FF18490968401AB0F5FE
:10171000FA7F04D99FED100A0E4880ED000A00BF41
:1017200000BF00BF10BD00005C0B00205E0B00205E
:101730002E1B0020860B0020D60B0020AE0B0020B5
:10174000181B00200C0C0020100C0020140C002092
:1017500000A0BE45040C002000000000000C00208A
:10176000080C002000601F4634040140740C002067
:1017700010B53148C06B00EE100A3048D0ED000AB9
:1017800020EE200A2E4880ED000A90ED000ADFEDE1
:101790002D0AB4EEE00AF1EE10FA04DD9FED290AFD
:1017A00080ED000A0DE0264890ED000ADFED260AE4
:1017B000B4EEE00AF1EE10FA03D29FED230A80EDB9
:1017C000000A22480078032808D02048007828B171
:1017D0001F48007810B11F48007830B900231A461E
:1017E0001946184600F0DCF924E01B4AD26B00EEE3
:1017F000102ABDEEC00A10EE102A13B2174AD26B9F
:1018000000EE102ABDEEC00A10EE102A11B2144AE2
:10181000D26B00EE102ABDEEC00A10EE102A10B2F4
:10182000074A92ED000ABDEEC00A10EE102A12B26D
:1018300000F0B6F910BD0000A30600203C0C00200B
:101840006C0C002000606A4600606AC6020000203E
:10185000040000205C0B0020F4060020350200206C
:10186000E401002010B507F099F907F021F807F01E
:1018700089F807F0F1F807F0F9FA07F0C9FB07F06B
:1018800051FB07F01FFB07F01DFC07F0A9FC07F058
:1018900015FD07F0DDFC07F097FA10BD01494880FF
:1018A00008807047CE0A002000BFFEE700B526483A
:1018B0000068401C2449086024480088401C2349D3
:1018C000088023480068A0F2012030B1012818D018
:1018D00004282AD0052834D12DE01E480088401C59
:1018E0001C49088018480068C82804D21A48C088D3
:1018F00000B21949488216491C3117480AF00AFCFF
:1019000020E014484088401C124948800E48006876
:10191000C82804D21148C08800B2104948820C4936
:101920001C310E480AF0F6FB0CE009491C310C484A
:101930000AF0F0FB06E006491C310A480AF0EAFB0F
:1019400000E000BF00BF00BDA80A00206200002028
:10195000581B0020400000202C19002040190020B6
:10196000A4190020B819002010B5024802F0C8F9E7
:1019700010BD0000981C002030B585B004460D460F
:1019800040F2FF100A490860200A087608464476AB
:10199000290A8176C576142200F10C016846FEF70B
:1019A000B0FC03480EC8034800F051F905B030BD43
:1019B0007C1B00209013002030B585B004460D46F6
:1019C0004FF400700A490860200A087608464476F9
:1019D000290A8176C576142200F10C016846FEF7CB
:1019E00090FC03480EC8034800F031F905B030BD43
:1019F0007C1B00209013002010B5024802F080F9F3
:101A000010BD0000981C002000B541480068401C33
:101A10003F4908603F480068A0F20120082873D2BF
:101A2000DFE800F004141F2A354453623A48008866
:101A3000401C3949088039480088401C37490880D3
:101A400034491C3136480AF065FB5EE03348408873
:101A5000401C324948802F491C3132480AF05AFB59
:101A600053E02E488088401C2C49888029491C312D
:101A70002D480AF04FFB48E02848C088401C274901
:101A8000C88024491C3129480AF044FB3DE0204825
:101A90000068C82804D22648C08800B22449488279
:101AA0001C491C3122480AF035FB2EE0184800681A
:101AB000C82804D21F48C08800B21E494882154970
:101AC0001C311C480AF026FB1FE011480068C8289A
:101AD00004D21948C08800B2174948820D491C3108
:101AE00015480AF017FB10E009480068C82804D21E
:101AF0001248C08800B21149488206491C310F487B
:101B00000AF008FB01E0FFE700BF00BF00BD0000D6
:101B1000A80A0020BC1B00205E000020400000201E
:101B2000DC180020F01800200419002018190020EB
:101B30007C19002090190020CC190020E019002009
:101B400010B5024802F0DCF810BD0000481C00206F
:101B5000F0B585B004460D4616461F464FF400709A
:101B60000D490860200A087608464476290A8176DD
:101B7000C576310A01774677390A8177C77714220B
:101B800000F10C016846FEF7BCFB03480EC8034891
:101B900000F05DF805B0F0BDE01B00201416002039
:101BA000F0B585B004460D4616461F4640F2FF10BC
:101BB0000D490860200A087608464476290A81768D
:101BC000C576310A01774677390A8177C7771422BB
:101BD00000F10C016846FEF794FB03480EC8034869
:101BE00000F035F805B0F0BDE01B00201416002011
:101BF00010B5024802F084F810BD0000481C002017
:101C000030B589B004460D462088618888420CD1E1
:101C1000202101A8FEF78EFB202201A92846FEF70D
:101C200070FB4FF0FF3009B030BD2288201D00EB63
:101C3000421120222846FEF764FB2088401C80B217
:101C40002080142801DB002020800020EBE70FB467
:101C500010B504466288211D01EB4210202203A921
:101C6000FEF74FFB6088401C80B26080142801DBC7
:101C70000020608060882188884207D12088401C2D
:101C800080B22080142801DB0020208010BC5DF889
:101C900014FB014648880B88C21A002A01DB90B267
:101CA000704702F1140080B2FAE7000010B52DED84
:101CB000068BEE49B1F90000FEF7CFFC41EC1A0BA0
:101CC0009FEDEB0B53EC102BFEF758FC41EC190B7E
:101CD000FEF71EFD08EE100AE748B0F9040000EE1A
:101CE000900AF8EEE00AB0EE600AF0EE480AE34827
:101CF00007F04AFFE249B1F90000FEF7AEFC41EC03
:101D00001A0B9FEDDB0B53EC102BFEF737FC41EC6D
:101D1000190BFEF7FDFC08EE100AD748B0F90600D3
:101D200000EE900AF8EEE00AB0EE600AF0EE480A23
:101D3000D44807F029FFD449B1F90000FEF78DFC23
:101D400041EC1A0B9FEDCA0B53EC102BFEF716FC5F
:101D500041EC190BFEF7DCFC08EE100AC648B0F99E
:101D6000080000EE900AF8EEE00AB0EE600AF0EE2D
:101D7000480AC64807F008FFC549B1F90000FEF758
:101D80006CFC41EC1A0B9FEDBA0B53EC102BFEF7D9
:101D9000F5FB41EC190BFEF7BBFC08EE100AB64848
:101DA000B0F90A0000EE900AF8EEE00AB0EE600A20
:101DB000F0EE480AB74807F0E7FE012007F09CFF65
:101DC00040B2B5490870B548007802287ED1B448C1
:101DD00090F9000091F90010884206D0AE480078D2
:101DE00018B90120AF4908701FE0AB4800780128FE
:101DF00018D0042007F080FF012813D0022007F03C
:101E00007BFF01280ED0082007F076FF012809D0BB
:101E1000A548B0F90C40002C01DB204600E06042F0
:101E20000A2802DD00209F4908709E48007818B1FA
:101E300000219148018141819048C06B00EE100A59
:101E4000DFED9A0AB4EEE00AF1EE10FA10DD8B48ED
:101E5000C06B00EE100ADFED960AB4EEE00AF1EE78
:101E600010FA05D29FED930A10EE100A8349C86359
:101E70008448C06B00EE100ADFED8C0AB4EEE00A75
:101E8000F1EE10FA10DD7F48C06B00EE100ADFEDB6
:101E9000880AB4EEE00AF1EE10FA05D29FED850A49
:101EA00010EE100A7749C8637848C06B00EE100A3C
:101EB000DFED7E0AB4EEE00AF1EE10FA12DD7348AF
:101EC000C06B00EE100ADFED7A0A00E053E0B4EEDA
:101ED000E00AF1EE10FA05D29FED760A10EE100A34
:101EE0006A49C8636B48C06B00EE100ADFED720AE6
:101EF000B4EEE00AF1EE10FA10DD6648C06B00EEB9
:101F0000100ADFED6E0AB4EEE00AF1EE10FA05D227
:101F10009FED680A10EE100A5E49C86361480078B8
:101F2000002858D05C480078002854D1042007F0DD
:101F3000E3FE00284FD1022007F0DEFE00284AD140
:101F4000082007F0D9FE002845D15748B0F90C0009
:101F50000A2801DA012000E00020E0B39FED550AD5
:101F600010EE100A4549C8639FED520A10EE100AA0
:101F70004449C86371E04148C06B00EE100ADFEDD0
:101F80004B0AB4EEE00AF1EE10FA10DD3B48C06BEC
:101F900000EE100ADFED460AB4EEE00AF1EE10FAA8
:101FA00005D29FED440A10EE100A3449C863354843
:101FB000C06B00EE100ADFED3D0AB4EEE00AF1EE70
:101FC00010FA12DD2F48C06B00EE100ADFED380A60
:101FD000B4EEE00A00E040E0F1EE10FA05D29FED29
:101FE000350A10EE100A2749C8632848C06B00EE76
:101FF000100ADFED2E0AB4EEE00AF1EE10FA10DD61
:102000002248C06B00EE100ADFED290AB4EEE00AA8
:10201000F1EE10FA05D29FED270A10EE100A1B49C7
:10202000C8631C48C06B00EE100ADFED230AB4EE53
:10203000E00AF1EE10FA10DD1648C06B00EE100A4F
:10204000DFED1E0AB4EEE00AF1EE10FA05D29FEDC4
:10205000190A10EE100A0F49C8630F4890F90000E2
:102060000F490870BDEC068B10BD0000DC18002085
:102070000000000000002440041B00205F05002039
:10208000F0180020B00500200419002001060020EF
:102090001819002052060020000B0020EC0A002036
:1020A000FF0A0020080B0020181B002000002FC48E
:1020B00000002F44000000000080BBC40080BB442F
:1020C000B2EE0E0A10EE100A2C4988612C480078F6
:1020D00000EE100AB8EE400A10EE100A2949886195
:1020E0002948007800EE100AB8EE400A10EE100AF7
:1020F000264988612648007800EE100AB8EE400AAA
:1021000010EE100A234988612348007800EE100A77
:10211000B8EE400A10EE100A204988619FED200AAF
:1021200010EE100AC8611B49C8611849C8611549F9
:10213000C8619FED1B0A10EE100A18490862154984
:102140000862124908620F4908629FED150A10EEF5
:10215000100A124908610F4908610C4908610949D0
:1021600008619FED0F0A10EE100A0C49C861094979
:10217000C8610649C8610349C86170470E0500205F
:10218000FA0A00205F050020FB0A0020B0050020AD
:10219000FC0A002001060020FD0A00205206002053
:1021A000000000002DE9F0412DED068BFE4800787F
:1021B00058B90020FD4988810021FC48C181018275
:1021C0009FEDFB0A80ED000A69E2F74800780128DC
:1021D0007ED1F8488088F5498881F6484188F348DF
:1021E000C181F449B1F9060000EBD0714910EF4A02
:1021F00011829FEDEF0A104680ED000AED49B1F91A
:102200000410ED4AB2F90020881A002801DB0146CB
:1022100000E04142E94A1288914230DDE548B0F9D8
:102220000400E549B1F9001088420DDDE148B0F93C
:102230000400002808DDE0480088E04909880844D7
:1022400000B2DD4908801EE0DA48B0F90400DA493E
:10225000B1F9001088420DDAD648B0F90400002820
:1022600008DAD5480088D5490988401A00B2D24911
:10227000088008E0CF488088CF49088003E0CD4837
:102280008088CD490880CB49B1F90210CC4AB2F917
:102290000020881A002801DB014600E04142C74ABD
:1022A0001288914232DDC348B0F90200C449B1F945
:1022B000001088420FDDBF48B0F9020000280ADD97
:1022C000BF480088BD490988084400B2BC4900E005
:1022D0004FE008801EE0B748B0F90200B849B1F9F4
:1022E000001088420DDAB348B0F90200002808DA7D
:1022F000B3480088B1490988401A00B2B049088043
:1023000008E0AC484088AE49088003E0A94840880E
:10231000AB490880A848B0F9000000EE100AB8EEFA
:10232000C00AA848D0ED000A20EE200ABDEEC00A7F
:1023300010EE100A00B29D498881A148B0F9000052
:1023400000EE100AB8EEC00A9E48D0ED000A20EE5A
:10235000200ABDEEC00A10EE100A01B29348C181F6
:102360009449B1F9060000EBD07149108F4A1182EF
:1023700095E18D480078022861D14FF496714FF4B1
:10238000C87004F0DBFE102007F0B6FC30B14FF44B
:1023900016714FF42F7004F0D1FE07E0202007F0F3
:1023A000ABFC18B1B421084604F0C8FE814880890E
:1023B000C0EB001001B27D48018283480068032110
:1023C000B0FBF1F201FB12000028D1D07E4800687A
:1023D000B0FBF1F201FB1200012810D17348008A12
:1023E000404201B271480182C089404200B277493F
:1023F00008800846B0F900106C48C1814FE172486E
:1024000000680321B0FBF1F201FB12000228AFD1FA
:102410006648C089404200B26C49088063488089A0
:10242000404200B26A4908806848B0F900105F482D
:10243000C1816748B0F900005C4988812FE15A48A2
:102440000078032878D1634863490978405C1428F0
:1024500008D162480078052804D16FF03100534953
:10246000888102E00020514988815A485A490978F8
:10247000405C1428C2D1594800780428BED1584E77
:10248000F568002D01DB2E4600E06E42554FFC68DA
:10249000002C01DB274600E067423744524EF368C8
:1024A000002B01DB1E4600E05E4237444F4EF268CF
:1024B000002A01DB164600E05642B919CE1701EB9F
:1024C00096764B4F3F68C7EBA600002801DB064617
:1024D00000E0464240F63757BE4203DAA0213348B7
:1024E000C181DCE000213148C1813D4DEC68002C08
:1024F00001DB254600E065423A4EF368002B01DB24
:102500001E4600E05E422E44374DEA68002A01DB99
:10251000154600E055422E44344DE968002901DBA0
:102520000D4600E04D427019C51700EB9575AD10D2
:102530002F4E3560B3E0FFE71B480078042875D1C3
:102540002C48008898B12C4890ED000ADFED2B0A4A
:10255000B4EEE00AF1EE10FA09DD294890ED000A28
:10256000284880ED000A0BF015F827490860274835
:102570000078012805D182200C49888100210B4870
:10258000C1810BF007F820490968401A204908600A
:102590000846006840F6B831884241D91A480068B8
:1025A000C0B30020194937E0EC0A0020041B0020CA
:1025B00000000000181B00201E0B0020180B00203C
:1025C000200B0020F00A0020780C0020220B0020B5
:1025D000240B00202E1B00205D0B00205C0B002034
:1025E000DC180020F0180020041900201819002021
:1025F000180C0020560B0020E40A002000E02B46B7
:10260000100D00200C0B0020140B0020E00A00200D
:10261000040B002004E009E0087001203F49087025
:102620003F4890F900003F49087038E03E48007884
:10263000052829D13D48D0ED000A3D4890ED000A1B
:102640003C4807F0A1FAB1EE400ABDEEC00A10EE18
:10265000100A01B2384801826FF0C70036498881FC
:1026600000213548C1812E4890F90000401C20B956
:102670006FF063003049888111E02948007870B913
:1026800000202D4988810AE000202B498881002103
:102690002948C18101821FED3A0A80ED000A2648CF
:1026A00090ED000ADFED250A80EE201A11EE104AA7
:1026B0002046FEF702F841EC1A0B9FED210B53EC7C
:1026C000102BFDF7E9FE41EC190BFEF721F808EE9F
:1026D000100A1948B0F9100001EE900AF8EEE11A5C
:1026E000B0EE611A1448B0F90C0001EE900AF8EE51
:1026F000E11AF0EE610A1048B0F90E0001EE900AFE
:10270000F8EEE11AB0EE610A47F23050F0EE481AE6
:1027100000F070F8BDEC068BBDE8F0811A0B0020CC
:10272000E00A00201B0B0020EC0A0020100D002006
:102730000C0B00200E050020041B00200000344379
:1027400097D17E5AFB21094010B52448007830B15A
:1027500023480078032802D02148007830B90023AC
:102760001A4619461846FFF7F3F935E01D4CE46B9D
:1027700000EE104AF7EE000A20EE200ABDEEC00A75
:1027800010EE104A23B2184CE46B00EE104AF7EE3C
:10279000000A20EE200ABDEEC00A10EE104A22B256
:1027A000124CE46B00EE104AF7EE000A20EE200A0D
:1027B000BDEEC00A10EE104A21B20D4CE46B00EEE3
:1027C000104AF7EE000A20EE200ABDEEC00A10EE15
:1027D000104A20B2FFF7BCF910BD0000EC0A00203F
:1027E000020000205206002001060020B005002053
:1027F0005F05002010B52DED108B8CB0F0EE40AAD7
:10280000B0EE60DAF0EE418AB0EE619A04469FEDD8
:10281000F80AB0EE408A19EE100AFDF74EFF41ECBF
:102820001C0BB0EE4C0AF0EE6C0A08F035FFB0EE6F
:1028300040BAF0EE60BA1AEE900AFDF73EFF41ECA6
:102840001E0B53EC1B2BFDF727FECDE9000119EE03
:10285000100AFDF732FF41EC1C0BB0EE4C0AF0EE13
:102860006C0A08F0A9FEB0EE40EAF0EE60EA1DEE58
:10287000100AFDF722FF41EC1B0B53EC1E2BFDF75A
:102880000BFE41EC1F0B9DED000B53EC102BFDF7E5
:102890005CFDCDE902019DED020B51EC100BFDF743
:1028A00037FF09EE900A19EE100AFDF706FF41EC1A
:1028B0001C0BB0EE4C0AF0EE6C0A08F0EDFEB0EE28
:1028C00040BAF0EE60BA1DEE100AFDF7F6FE41ECDC
:1028D0001E0B53EC1B2BFDF7DFFD41EC1F0B19EE1C
:1028E000100AFDF7EAFE41EC1B0BB0EE4B0AF0EECE
:1028F0006B0A08F061FEB0EE40CAF0EE60CA1AEE54
:10290000900AFDF7DAFE41EC1E0B53EC1C2BFDF791
:10291000C3FD53EC1F2BCDE900019DED000B51ECE5
:10292000100BFDF7B3FDCDE902019DED020B51EC5B
:10293000100BFDF7EDFE0AEE100AB1EE690A30EE5B
:102940000A0A30EE280A8DED070A39EE8A0A30EEBF
:10295000280A8DED080A39EECA0A30EE280A8DEDF4
:10296000090AB1EE690A30EE4A0A30EE280A8DED06
:102970000A0A9DED070A10EE101A0846FDF79DFEA3
:1029800041EC1C0BB0EE4C0AF0EE6C0A08F078FE3D
:10299000B0EE40BAF0EE60BA51EC1B0BFDF7B8FE9A
:1029A00008EE100A18EE100AFDF787FE41EC1B0B2B
:1029B0009DED080A10EE101A0846FDF77EFE41EC68
:1029C0001E0BB0EE4E0AF0EE6E0A08F059FEB0EEA5
:1029D00040CAF0EE60CA53EC1B2B51EC1C0BFDF708
:1029E0007FFE18D29DED080A10EE101A0846FDF77A
:1029F00064FE41EC1B0BB0EE4B0AF0EE6B0A08F0E4
:102A00003FFEB0EE40CAF0EE60CA51EC1C0BFDF781
:102A10007FFE08EE100A18EE100AFDF74EFE41EC9C
:102A20001E0B9DED090A10EE101A0846FDF745FE33
:102A300041EC1C0BB0EE4C0AF0EE6C0A08F020FEE4
:102A4000B0EE40BAF0EE60BA53EC1E2B51EC1B0B0B
:102A5000FDF746FE18D29DED090A10EE101A084641
:102A6000FDF72BFE41EC1B0BB0EE4B0AF0EE6B0AB0
:102A700008F006FEB0EE40CAF0EE60CA51EC1C0B46
:102A8000FDF746FE08EE100A18EE100AFDF715FED7
:102A900041EC1B0B9DED0A0A10EE101A0846FDF7DB
:102AA0000CFE41EC1E0BB0EE4E0AF0EE6E0A08F082
:102AB000E7FDB0EE40CAF0EE60CA53EC1B2B51ECC0
:102AC0001C0BFDF70DFE18D29DED0A0A10EE101A30
:102AD0000846FDF7F2FD41EC1C0BB0EE4C0AF0EE9F
:102AE0006C0A08F0CDFDB0EE40BAF0EE60BA51ECE1
:102AF0001B0BFDF70DFE08EE100A00EE104AB8EEB3
:102B0000400AB4EEC08AF1EE10FA44DD00EE104A3D
:102B1000B8EE400AC0EE080A9DED070A20EE800AD2
:102B2000BDEEC00A10EE100A00B2ADF8100000EEC3
:102B3000104AF8EE400A80EE880ADDED080A20EE21
:102B4000200ABDEEC00A10EE100A00B2ADF8120065
:102B500000EE104AF8EE400A80EE880ADDED090A20
:102B600020EE200ABDEEC00A10EE100A00B2ADF849
:102B7000140000EE104AB8EE400AC0EE080A9DEDBF
:102B80000A0A20EE800ABDEEC00A10EE100A00B25A
:102B9000ADF8160023E09DED070ABDEEC00A10EE69
:102BA000100A00B2ADF810009DED080ABDEEC00A93
:102BB00010EE100A00B2ADF812009DED090ABDEE4C
:102BC000C00A10EE100A00B2ADF814009DED0A0A1A
:102BD000BDEEC00A10EE100A00B2ADF816000548AE
:102BE000DDE90412C0E901120CB0BDEC108B10BD80
:102BF00000000000041B002070B504F0E9F914483F
:102C0000FFF747F804461348FFF743F80546124913
:102C10000F48FEF7F5FF11490E48FEF7F1FF0123BB
:102C20000D4A18320C490E4800F060FE01230B4A91
:102C300018320A490B4800F059FE0B480088401C26
:102C400009490880074801F03EF80849086070BD4E
:102C500090130020141600209C1B0020001C002054
:102C6000981C0020481C00205A000020AC0A0020BC
:102C700008B50AF08FFC009000BFFFF7BDFF04F01D
:102C800073F904F0BFF904F0A3F9012168460AF0D2
:102C900081F8F2E710B5FFF713FAFFF783FAFFF7B1
:102CA00005F8FFF751FD10BD10B50020024908607E
:102CB00007F0B8F810BD00001800002010B510484B
:102CC0000068401C0E49086006F02EFB0C48007896
:102CD00000F0030018B9FFF7DDFF05F0C7FB084857
:102CE00000680A21B0FBF1F201FB120008B900F004
:102CF000DDFD04F0E7F904F033F903F09BFF10BDAC
:102D00001800002010B5024801F03AFB10BD000089
:102D10008C20002010B5024801F032FB10BD0000ED
:102D20002C2000200146087810381823B0FBF3F25D
:102D30000848805CC865032A05D908686FF3090054
:102D4000001D886503E008686FF309008865886DD9
:102D500070470000EADC0008014600208A6A8B699F
:102D6000CBB932B1012A0DD0022A03D0032A10D1E7
:102D70000EE000BFCB6A03F08073B3F1807F00D117
:102D8000012007E0CB6AB3F1C07F00D1012001E050
:102D900000E000BF34E08B69B3F5005F1AD132B1B7
:102DA000012A07D0022A03D0032A11D10AE000BF6A
:102DB00001200EE0CB6A03F08073B3F1807F00D175
:102DC000012006E0CB6AB3F1C07F00D1012000E012
:102DD00000BF15E032B1012A05D0022A04D0032A2F
:102DE0000CD103E000BF00BF012008E0CB6A03F074
:102DF0008073B3F1807F00D1012000E000BF00BFED
:102E0000704730B50468246824F4802405682C6079
:102E1000046863608468402C04D10468A26004687C
:102E2000E16003E00468A1600468E26030BD000076
:102E300070B50446B4F80150E61D60792749088052
:102E4000A07900022649088008460088234909889D
:102E50000843244908800846008840F20122811A6C
:102E6000904228D007DC01280AD002280ED0A0F218
:102E7000011070BB11E0012924D005292AD113E0EB
:102E80002A4631461848FDF73CFA24E02A463146E6
:102E90001548C01CFDF735FA1DE02A463146124898
:102EA000801DFDF72EFA16E02A4631460E484130C5
:102EB000FDF727FA0FE02A4631460B481130FDF79F
:102EC00020FA08E02A46314607482030FDF719FA73
:102ED00001E0FFE700BF00BF70BD0000C40A002092
:102EE000C20A0020C60A0020F41900207047000022
:102EF000C248007830B1012812D002287CD00328C3
:102F00007BD16EE10020BE490870BE490870BE4901
:102F10000870BE4908704FF49660BD4908606BE1C7
:102F20000120B7490870B7490870B7490870B74918
:102F30000870B848007800287AD0B64800780B2886
:102F400077D2DFE800F08313063A2D20475B6883D1
:102F500077000020AA4908700320AA4908700020C1
:102F6000A94908700420A949087070E00020A4490C
:102F700008700320A34908700020A34908700320AB
:102F8000A249087063E000209D49087003209D4914
:102F9000087000209C49087007209C49087056E082
:102FA0000020974908700320964908700020964930
:102FB000087006209549087049E000209049087083
:102FC00003209049087000208F49087005208F4920
:102FD00008703CE000208A49087002208949087086
:102FE0009FED8D0A8D4880ED000A0020864908700B
:102FF0000820864908702AE050E0F3E00320804969
:10300000087004207F49087003207F490870002061
:103010007E4908701BE00420794908700520794931
:1030200008700420784908700020784908700EE084
:103030000EE00BE00020724908700320714908700F
:103040000020714908707149087000E000BF24E059
:1030500073480078012809D16A49087068490870E6
:10306000694908700020694908700FE06C480078D1
:1030700003280BD1002062490870012061490870C3
:103080000020614908700120604908704FF4966083
:103090005F490860002063490870ADE0022058498C
:1030A00008705849087058490870584908705948BC
:1030B0000078002878D0574800780B2875D2DFE8D0
:1030C00000F08113063A2D204759668175000020D3
:1030D0004B49087003204B49087000204A4908708A
:1030E00004204A4908706EE000204549087003201A
:1030F000444908700020444908700320434908707F
:1031000061E000203E49087003203E49087000201D
:103110003D49087007203D49087054E000203849B7
:1031200008700320374908700020374908700620CE
:103130003649087047E000203149087003203149C2
:1031400008700020304908700520304908703AE0C6
:1031500000202B49087002202A4908709FED2E0A92
:103160002E4880ED000A00202749087008202749D2
:10317000087028E0032022490870042021490870C3
:103180000320214908700020204908701BE004201A
:103190001B49087005201B49087004201A49087053
:1031A00000201A4908700EE00EE00BE000201449E0
:1031B0000870032013490870002013490870134950
:1031C000087000E000BF0BE002200D4908700D49B7
:1031D00008700D4908700D490870002011490870E9
:1031E0000AE009E00020064908700649087006490F
:1031F00008700649087000BF00BF70470400002037
:10320000CC0A0020EC0A0020500B00205C0B0020B0
:103210003404014005000020CDCC4C3FF00A0020D2
:10322000181B00205D0B002008B50AF0B3F90090D0
:10323000FFF73AFD00BFFFF741FD0121684609F0A5
:10324000A9FDF8E710B5102001F0A2FA02480068C5
:10325000401C0149086010BD0800002010B5054859
:103260000088401C034908804FF4807001F090FAF8
:1032700010BD00001000002010B52DED068B3E495A
:10328000B1F90000FDF7E9F941EC1A0B9FED3B0B9A
:1032900053EC102BFDF772F941EC190BFDF738FADE
:1032A00008EE100A3748B0F9000000EE900AF8EE78
:1032B000E00AB0EE600AF0EE480A334806F064FC1B
:1032C0003249B1F90000FDF7C8F941EC1A0B9FED46
:1032D0002B0B53EC102BFDF751F941EC190BFDF7BB
:1032E00017FA08EE100A2748B0F9020000EE900A1B
:1032F000F8EEE00AB0EE600AF0EE480A244806F064
:1033000043FC2148C06B00EE100ADFED220AB4EE48
:10331000E00AF1EE10FA10DD1B48C06B00EE100A57
:10332000DFED1D0AB4EEE00AF1EE10FA05D29FEDD2
:103330001B0A10EE100A1449C8631548C06B00EE52
:10334000100ADFED140AB4EEE00AF1EE10FA10DD17
:103350000F48C06B00EE100ADFED0F0AB4EEE00A72
:10336000F1EE10FA05D29FED0D0A10EE100A084991
:10337000C863BDEC068B10BDA4190020000000003E
:1033800000005840460B002045070020B8190020D7
:10339000960700200000C8C30000C84300000000DA
:1033A0000E48007800EE100AB8EE400A10EE100A3F
:1033B0000B4988610B4988619FED0B0A10EE100ADA
:1033C0000749C8610749C8619FED070A10EE100A56
:1033D000034908620349086270470000510B00204E
:1033E00096070020450700200000000010B5424865
:1033F0000078052878D2DFE800F07203153B56000C
:103400003E49B1F9040000EBD07149103C4A1180EB
:103410003A49B1F90410484200EBD071491009B2A1
:10342000518066E04FF4007006F066FC012809D177
:103430003248007D012805D1C8203149088040422A
:10344000488014E04FF4804006F056FC01280AD171
:103450002A48007D012806D16FF0C700284908805E
:10346000C820488003E0002025490880488040E0CB
:1034700024480078012805D178202149088040425D
:1034800048800FE01F4890F90000401C30B96FF0F1
:1034900077001B4908807820488003E00020184905
:1034A0000880488025E017480078012805D1782059
:1034B00013490880404248800FE0124890F900000C
:1034C000401C30B96FF077000D49088078204880A3
:1034D00003E000200A49088048800AE004E0002058
:1034E00007490880488004E000200549088048809A
:1034F00000BF00BF10BD0000500B0020181B0020B3
:10350000460B0020E00A002070B52DED048B1E480C
:103510000078032808D01C48007828B11B480078A0
:1035200010B11B48007820B900210846FEF724FAA4
:1035300027E01848C16B0846FDF7BFF841EC190BAE
:103540009FED150B53EC102BFCF7A6FF41EC180B6D
:10355000FDF794F804B21248C16B0846FDF7ADF8C8
:1035600041EC190B9FED0C0B53EC102BFCF794FF67
:1035700041EC180BFDF782F805B221462846FEF70C
:10358000FBF9BDEC048B70BD02000020040000209C
:10359000500B002096070020000000000000F83FBC
:1035A0004507002010B592480088401C90490880CB
:1035B000904890ED020A904880ED000A8D4890ED09
:1035C000010A8D4880ED010A8A4890ED000A8A4878
:1035D00080ED020A874890ED050A874880ED040ACD
:1035E000844890ED040AB1EE400A834880ED050A54
:1035F000804890ED030AB1EE400A7F4880ED060A4C
:103600007E4890ED000A7E4880ED000A7D4890EDEE
:10361000000A7A4880ED000A90ED000A7848D0ED63
:10362000000A30EE600ADFED780AB4EEE00AF1EE4F
:1036300010FA05DB75480068401E7449086013E005
:103640006E4890ED000A6E48D0ED000A30EE600A38
:10365000DFED6F0AB4EEE00AF1EE10FA04D86B4821
:103660000068401C6949086009F094FF69490860D6
:1036700009F090FFB0F57A7F7ED909F08BFF66499B
:103680000968401A00EE100AB8EE400A5A48D0ED18
:10369000060A20EE200A9FED611AC0EE010A9FED96
:1036A0005F0A80EE801A9FED5E0AB4EEC01AF1EE5A
:1036B00010FA02DD00205749086009F06BFF5649F7
:1036C0000968401A00EE100AB8EE400A4A48D0EDE8
:1036D000050A20EE200A9FED511AC0EE010A51485A
:1036E00090ED000A30EE800A80ED000A09F052FFEA
:1036F00049490968401A00EE100AB8EE400A3E48EF
:10370000D0ED040A20EE200ADFED440A80EE201AF4
:10371000454890ED000A31EE000A80ED000A09F0FC
:1037200039FF3D490968401A00EE100AB8EE400A18
:103730003148D0ED060A20EE200ADFED380A80EE8F
:10374000201A3A4890ED000A31EE000A80ED000A96
:10375000344890ED000ADFED360AB4EEE00AF1EEEF
:1037600010FA08DC90ED000ADFED320AB4EEE00A50
:10377000F1EE10FA06D200E038E09FED2F0A29485A
:1037800080ED000A284890ED000ADFED290AB4EE2A
:10379000E00AF1EE10FA08DC90ED000ADFED250AF0
:1037A000B4EEE00AF1EE10FA04D29FED230A1E48AF
:1037B00080ED000A1D4890ED000ADFED1D0AB4EE11
:1037C000E00AF1EE10FA08DC90ED000ADFED190ACC
:1037D000B4EEE00AF1EE10FA04D29FED170A134896
:1037E00080ED000A09F0D6FE0B49086010BD00000C
:1037F0006A000020A4230020D0220020F40C002026
:10380000000D0020D82300200000A543180D002043
:103810000000A5C31C0D0020240D002000007A44E8
:103820000000C842140D0020100D00200C0D0020D7
:103830000000B4430000B4C30000000070B50346AC
:103840004FF4FA7513B94FF6FF7070BD09E013F825
:10385000014B82EA0400C0B2074E36F8100080EA3D
:103860002222081EA1F1010104D0281EA5F10106A3
:10387000B5B2ECDC1046E8E7BADA000870B50346EA
:103880004FF4FA7505E013F8010B80EA02040648CC
:10389000025D081EA1F1010104D0281EA5F1010658
:1038A000B5B2F0DC104670BDB9D9000810B5FFF70D
:1038B0009DFDFFF775FDFFF7DFFCFFF725FE10BD4F
:1038C000024692F82000012803D092F82000022836
:1038D00006D110684069084313685861002070479A
:1038E000506A40F4802050620120F8E770B5044629
:1038F0000D46A86800B900E000BF94F82000012838
:1039000003D094F8200002287FD12068806800F05E
:10391000806050B92068806800F0006028B9206895
:10392000806800F08050002869D020688068C0F36B
:103930000161012088401860A86850B92E88E868A5
:1039400040EA4656206800F5C07000EB01100660A2
:103950000BE0D5E9016040EAC600EE683043266816
:1039600006F5C07606EB011630602E69206800F57A
:10397000C07000EB01104660287D01280DD1206841
:1039800000F5C07000EB0110406840F480762068BC
:1039900000F5C07000EB01104660D0790006967902
:1039A00040EA0640567940EA062610790643206828
:1039B00000F5C07000EB0110C660D0780006967864
:1039C00040EA0640567840EA0620167830432668DA
:1039D00006F5C07606EB0116B060206800F5C070F1
:1039E00000EB0110006840F00106206800F5C0708F
:1039F00000EB01100660002070BD06E0FFE7606A82
:103A000040F4001060620120F6E7606A40F4802014
:103A100060620120F0E7000070B504460A4600230A
:103A2000216894F82000012803D094F8200002288F
:103A30007CD1414901F50071086840F0010008603F
:103A4000086820F47C5008600868556A40EA052040
:103A50000860157D012000FA05F3C8699843C86124
:103A6000A1F50071D069C8B9D1F80C029843C1F82A
:103A70000C02908880B2958940EA054501F51070E6
:103A8000566940F83650108880B2158940EA0545DD
:103A900001F51070566900EBC6004560D069012839
:103AA00019D1D1F80C021843C1F80C02908880B2E9
:103AB000158840EA054501F51070566940F8365002
:103AC000908980B2158940EA054501F51070566964
:103AD00000EBC6004560906928B9D1F8040298430C
:103AE000C1F8040204E0D1F804021843C1F804024A
:103AF000106928B9D1F814029843C1F8140204E0FF
:103B0000D1F814021843C1F81402106A012804D134
:103B1000D1F81C021843C1F81C02D1F8000220F0B1
:103B20000100C1F80002002070BDFFE7606A40F4A8
:103B3000802060620120F7E700640040704730B5E4
:103B4000044694F82000012803D094F820000228AD
:103B50007DD151B92068C06800F0030090B9606A57
:103B600040F400106062012030BD01290AD12068B4
:103B7000006900F0030028B9606A40F40010606238
:103B80000120F1E7206800F5D87000EB0110006813
:103B900000F004009060906840B9206800F5D8708B
:103BA00000EB01100068400D106007E0206800F590
:103BB000D87000EB01100068C0085060206800F564
:103BC000D87000EB0110006800F002004008D060DF
:103BD000206800F5D87000EB0110406800F00F007D
:103BE0001061206800F5D87000EB0110406800F407
:103BF0007F40000A9061206800F5D87000EB01104A
:103C00004068000C5061206800F5D87000EB01108E
:103C100080681870206800F5D87000EB011080688B
:103C200000F47F40000A5870206800F5D87000EB5F
:103C30000110806800F47F00000C9870206800F587
:103C4000D87000EB01108068000ED87000E034E0FE
:103C5000206800F5D87000EB0110C068187120686A
:103C600000F5D87000EB0110C06800F47F40000A36
:103C70005871206800F5D87000EB0110C06800F49E
:103C80007F00000C9871206800F5D87000EB0110DF
:103C9000C068000ED87131B92068C06840F02000BB
:103CA0002568E86007E0012905D12068006940F037
:103CB000200025682861002056E7606A40F48020D3
:103CC0006062012050E70146002091F82020012A7F
:103CD00003D091F82020022A11D10A68926802F0DC
:103CE000806202B1401C0A68926802F0006202B170
:103CF000401C0A68926802F0805202B1401C704772
:103D00002DE9F05F04460025206846692068D0F858
:103D10000490206887682068D0F80CA02068D0F84C
:103D200010B02068D0F8188006F00100002855D0A7
:103D300007F00100C0B101202168886007F002008F
:103D400018B1204600F082FA0EE007F0040010B12E
:103D500045F4006508E007F0080010B145F480550F
:103D600002E0204600F071FA07F48070C8B14FF409
:103D700080702168886007F4007018B1204600F058
:103D8000A6FA0EE007F4806010B145F4005508E093
:103D900007F4006010B145F4804502E0204600F0D1
:103DA00095FA07F48030C8B14FF4803021688860FC
:103DB00007F4003018B1204600F08BFA0EE007F44B
:103DC000802010B145F4004508E007F4002010B150
:103DD00045F4803502E0204600F07AFA06F008004B
:103DE00038B10AF0100020B145F4007510202168A8
:103DF000C86006F0040040B10AF0080028B10820AD
:103E00002168C860204600F0C1F906F0020038B110
:103E10002068C06800F0030010B1204600F0B8F937
:103E200006F0400038B10BF0100020B145F4806579
:103E300010202168086106F0200040B10BF0080056
:103E400028B1082021680861204600F0CBF906F06F
:103E5000100038B12068006900F0030010B120465E
:103E600000F0C1F906F4003040B109F0100028B1AB
:103E7000102021684860204600F0B6F906F4803032
:103E800040B109F0080028B10820216848602046A8
:103E900000F020FA06F4004088B309F0040078B37B
:103EA00006F4807020B108F0010008B145F001056A
:103EB00006F4007020B108F0020008B145F00205D8
:103EC00006F4806020B108F0040008B145F0040554
:103ED00006F40060A0B108F0700088B108F070002E
:103EE000402817D006DC10280BD020280CD0302812
:103EF00019D10CE0502810D0602814D110E01DE03A
:103F000019E045F008050FE045F010050CE045F01C
:103F1000200509E045F0400506E045F0800503E096
:103F200045F4807500E000BF00BF2068806920F084
:103F30007000216888610420216848602DB1606AA2
:103F4000284360622046FFF7F9FDBDE8F09F70B599
:103F5000044600250CB9012070BD94F8200010B96A
:103F6000204600F0AFF82068006820F002002168C9
:103F7000086000F03BFD05460DE000F037FD401BFA
:103F80000A2808D9606A40F400306062052084F88D
:103F900020000120E0E72068406800F002000028CF
:103FA000EBD12068006840F001002168086000F053
:103FB0001DFD05460DE000F019FD401B0A2808D93B
:103FC000606A40F400306062052084F8200001201F
:103FD000C2E72068406800F001000028EBD0207E96
:103FE000012806D12068006840F080002168086040
:103FF00005E02068006820F0800021680860607E8D
:10400000012806D12068006840F04000216808605F
:1040100005E02068006820F0400021680860A07E6C
:10402000012806D12068006840F02000216808605F
:1040300005E02068006820F0200021680860E07E2C
:10404000012806D12068006820F01000216808606F
:1040500005E02068006840F0100021680860207FBB
:10406000012806D12068006840F008002168086037
:1040700005E02068006820F0080021680860607F83
:10408000012806D12068006840F00400216808601B
:1040900005E02068006820F0040021680860D4E989
:1040A0000201084321690843616908436168491EA8
:1040B00008432168C86100206062012084F8200064
:1040C000002049E710B586B004462B492068884295
:1040D0001ED100BF002000902848006840F000700A
:1040E000264908600846006800F00070009000BF94
:1040F00000BF0320019002200290002003900320C3
:1041000004900920059001A91D4800F04FFB31E003
:104110001C49206888422DD100BF0020009017481C
:10412000006840F08060154908600846006800F0AB
:104130008060009000BF00BF00BF002000900846D4
:10414000006840F0007008600846006800F00070E9
:10415000009000BF00BF4FF4405001900220029039
:1041600000200390032004900920059001A906482F
:1041700000F01CFB06B010BD006400404038024057
:10418000000C02400068004000040240704700003C
:1041900010B504460D492068884209D10C4BA3F1A3
:1041A0001C0200210B48FFF7CAFCFDF77FFB0CE067
:1041B00009492068884208D1084BA3F11C0200215C
:1041C0000748FFF7BCFCFDF71FFC10BD0064004072
:1041D000741B0020981C002000680040D81B0020A1
:1041E000481C002070477047704770B50446002592
:1041F00094F82000012822D1022084F820002068B1
:10420000006820F001002168086000F0EFFB05461F
:104210000DE000F0EBFB401B0A2808D9606A40F46F
:1042200000306062052084F82000012070BD206805
:10423000406800F001000028EBD16062F6E7606A98
:1042400040F4002060620120F0E7704770B504463A
:1042500016492068884211D11548FDF71AFD054618
:10426000002D0ADD13491248FDF7CAFC0123114A4B
:10427000183210491048FFF739FB00BF0F4920687A
:10428000884211D10E48FDF704FD0546002D0ADDD8
:104290000C490B48FDF7B4FC01230A4A18320949BE
:1042A0000948FFF723FB00BF70BD00000064004019
:1042B000901300209C1B0020981C002000680040E8
:1042C00014160020001C0020481C00207047704776
:1042D00070477047704770B50446A56D00F086FBC7
:1042E000064694F83500022808D08020606500BF9B
:1042F000002084F8340000BF012070BD20680068F1
:1043000020F01600216808602068406920F08000D5
:1043100021684861206C08B9A06C28B12068006849
:1043200020F00800216808602068006820F0010083
:10433000216808600FE000F059FB801B05280AD9AE
:104340002020606500BF002084F8340000BF0320F7
:1043500084F83500D1E72068006800F001000028EB
:10436000E9D194F85C103F208840A86000BF00208D
:1043700084F8340000BF012084F835000020BCE739
:10438000F8B50446002000908C4800684FF41651A0
:10439000B0FBF1F7A56D2E6894F85C1008208840FA
:1043A000304098B12068006800F0040070B12068C7
:1043B000006820F004002168086094F85C10082070
:1043C0008840A860606D40F00100606594F85C1062
:1043D00001208840304068B12068406900F08000CA
:1043E00040B194F85C1001208840A860606D40F0F6
:1043F0000200606594F85C1004208840304068B189
:104400002068006800F0020040B194F85C100420BD
:104410008840A860606D40F00400606594F85C100E
:1044200010208840304078B32068006800F0080011
:1044300050B394F85C1010208840A8602068006891
:1044400000F4802080B12068006800F4002028B9C2
:10445000206CC8B12046216C884715E0A06C98B14B
:104460002046A16C88470FE02068006800F4807047
:1044700028B92068006820F0080021680860206CD6
:1044800010B12046216C884794F85C1020208840A9
:104490003040002865D02068006800F01000002837
:1044A0005FD094F85C1020208840A86094F8350014
:1044B000052828D12068006820F0160021680860CF
:1044C0002068406920F0800021684861206C08B9AC
:1044D000A06C28B12068006820F0080021680860FE
:1044E00094F85C103F208840A86000BF002084F84A
:1044F000340000BF012084F83500206D10B1204643
:10450000216D8847F8BD2068006800F4802080B1E4
:104510002068006800F4002028B9606C10B12046C3
:10452000616C88471DE0E06BD8B12046E16B88479D
:1045300017E02068006800F4807068B9206800689F
:1045400020F010002168086000BF002084F83400CB
:1045500000BF012084F83500E06B10B12046E16B0C
:104560008847606D38B3606D00F00100F0B1052040
:1045700084F835002068006820F001002168086098
:1045800000BF0098401C0090B84200D905E02068A8
:10459000006800F001000028F3D100BF00BF002038
:1045A00084F8340000BF012084F83500E06C10B1BD
:1045B0002046E16C884700BFA4E70000840C00207F
:1045C0002DE9F0410446002500F010FA074614B921
:1045D0000120BDE8F081606A00B100BF00BF00208B
:1045E00084F8340000BF022084F835002068006899
:1045F00020F00100216808600AE000F0F7F9C01B14
:10460000052805D920206065032084F83500E0E7FF
:104610002068006800F001000028EED120680568DD
:1046200021480540D4E901010843E16808432169B4
:10463000084361690843A1690843E1690843216AA5
:1046400008430543606A042803D1D4E90B010843F9
:104650000543206805602068456925F00705606A04
:104660000543606A04280DD1A06A0543E06A48B199
:104670002046FEF771FB28B140206065012084F8D8
:104680003500A6E7206845612046FEF74BFB06464D
:1046900094F85C103F208840B060002060650120E5
:1046A00084F83500002094E73F8010F02DE9F047B2
:1046B00004460D4616461F464FF00008D4F85890A1
:1046C00000BF94F83400012802D10220BDE8F08731
:1046D000012084F8340000BF94F8350001282BD164
:1046E000022084F83500002060653B4632462946AA
:1046F0002046FEF786FB94F85C103F208840C9F8FE
:1047000008002068006840F01600216808602068F2
:10471000406940F0800021684861206C28B1206821
:10472000006840F00800216808602068006840F0D8
:1047300001002168086006E000BF002084F8340012
:1047400000BF4FF002084046C0E7000070B50446C5
:1047500000F04CF906462546681C10B10448007864
:10476000054400BF00F042F9801BA842FAD370BD97
:10477000400D002010B50446B4F5807F04D101201F
:1047800002490870FEF70EFF10BD0000950C0020D6
:1047900010B5044604480068204020B10248046077
:1047A0002046FFF7E7FF10BD143C0140F8B5024674
:1047B0000B460025002400200021E6E0012606FA31
:1047C00001F51E6806EA0504AC4273D15E68022E4C
:1047D00002D05E68122E13D1CF0802F1200656F8DF
:1047E00027004E07F70E0F26BE40B0434F07FF0EBF
:1047F0001E69BE403043CF0802F1200646F827006C
:1048000010684F000326BE40B0431E7906F0030631
:104810004F00BE40304310605E68012E08D05E68D5
:10482000022E05D05E68112E02D05E68122E13D1C2
:1048300090684F000326BE40B0434F00DE68BE4084
:1048400030439060506801268E40B0431E79C6F315
:1048500000168E4030435060D0684F000326BE40A3
:10486000B0434F009E68BE403043D0605E6806F0A3
:104870008056B6F1805FA8D100BF00260096454E55
:10488000366846F48046434F3E603E46366806F43E
:104890008046009600BF00BF3F4E8F0856F82700A5
:1048A0008E07370F0F26BE40B0433C4EB24202D1B6
:1048B00000262EE068E03A4EB24201D1012628E0FF
:1048C000384EB24201D1022623E0374EB24201D126
:1048D00003261EE0354EB24201D1042619E0344EC3
:1048E000B24201D1052614E0324EB24201D1062671
:1048F0000FE0314EB24201D107260AE02F4EB242FC
:1049000001D1082605E02E4EB24201D1092600E071
:104910000A268F073F0FBE4030431F4E8F0846F8D0
:104920002700284E3068A0435E6806F48036B6F54E
:10493000803F00D12043234E3060361D3068A043B5
:104940005E6806F40036B6F5003F00D120431D4EE8
:10495000361D3060361D3068A0435E6806F4801650
:10496000B6F5801F00D12043164E08363060361D44
:104970003068A0435E6806F40016B6F5001F00D14B
:104980002043104E0C363060491C1029FFF416AF3E
:10499000F8BD0000443802400838014000000240E1
:1049A0000004024000080240000C024000100240D7
:1049B0000014024000180240001C02400020024087
:1049C00000240240003C0140024613690B400BB139
:1049D000012000E00020704742694A404261704770
:1049E0000AB1816101E00B048361704701480068EE
:1049F00070470000380D002003480068034909781B
:104A00000844014908607047380D0020400D00201F
:104A100010B50D48006840F400700B490860084666
:104A2000006840F4806008600846006840F48070C8
:104A30000860032000F0E8F8002000F007F800F01C
:104A400049F8002010BD0000003C024070B588B05D
:104A5000044600250026002221461C2000F095F87F
:104A60001C2000F085F800BF002001901648006867
:104A700040F00100144908600846006800F0010099
:104A8000019000BF00BF02A903A800F091F900F057
:104A9000B7F945000D48B5FBF0F0461E4FF08040D9
:104AA0000B49086040F2E7310948C16046600021C7
:104AB0000161816000F0F5FE20B9054800F035FF86
:104AC00008B070BD0120FBE74038024040420F00B3
:104AD0007422002008B500BF002000902348006821
:104AE00040F48040214908600846006800F4804096
:104AF000009000BF00BF00BF00200090081F0068AA
:104B000040F08050091F08600846006800F080509F
:104B1000009000BF00BF032000F076F8002211468D
:104B20006FF00B0000F031F8002211466FF00A0020
:104B300000F02BF8002211466FF0090000F025F874
:104B400000221146501F00F020F800221146101FCD
:104B500000F01BF800220F21901E00F016F8002232
:104B60000F21501E00F011F808BD0000443802402B
:104B700000BF00F01F02012191404209920002F1A2
:104B8000E022C2F8001100BF70472DE9F05F8046B7
:104B90000D461646002704F0D7FB074639462A463D
:104BA000334601F00700C0F1070ABAF1040F02D939
:104BB0004FF0040A01E0C0F1070AD14600F1040AEF
:104BC000BAF1070F02D24FF0000A01E0A0F1030A88
:104BD000D4464FF0010A0AFA09FAAAF1010A0AEAD0
:104BE000020A0AFA0CFA4FF0010B0BFA0CFBABF1BC
:104BF000010B0BEA030B4AEA0B042146404604F082
:104C0000ABFBBDE8F09F000000BF00F00702064BC1
:104C100019684FF6FF031940044B0B4343EA022186
:104C2000014B196000BF70470CED00E00000FA0571
:104C300070B504460D460CB9012070BD5848006897
:104C400000F00F00A84209D255490D7008460068CF
:104C500000F00F00A84201D00120EEE7207800F01C
:104C6000020002281DD1207800F00400042805D19C
:104C70004C48006840F4E0504A490860207800F051
:104C80000800082805D14748006840F460404549BD
:104C900008604448006820F0F000A16808434149DA
:104CA0000860207800F00100A8B36068012807D1EF
:104CB0003C4808380068C0F34040B8B90120BCE760
:104CC0006068022802D06068032807D13548083898
:104CD0000068C0F3406048B90120AEE731480838A9
:104CE0000068C0F3400008B90120A6E72D4800681D
:104CF00020F00300616808432A490860FFF776FE48
:104D0000064609E0FFF772FE801B41F288318842B7
:104D100002D9032091E707E02248006800F00C0068
:104D20006168B0EB810FEDD11D48006800F00F0005
:104D3000A84209D91A490D700846006800F00F0012
:104D4000A84201D0012078E7207800F00400042870
:104D500007D11448006820F4E050E1680843114985
:104D60000860207800F00800082808D10D48006885
:104D700020F46040216940EAC1000A49086000F05F
:104D80005FF808490968C1F30311074A515CC8403C
:104D9000064908600020FFF759FE00204DE700009B
:104DA000003C024008380240BADC0008840C0020B5
:104DB0000F2202600D4A126802F0030242600B4AA1
:104DC000126802F0F0028260084A126802F4E052AF
:104DD000C260064A126802F46042D2080261044AC4
:104DE000126802F00F020A607047000008380240A3
:104DF000003C02400148006870470000840C00201D
:104E000000B5FFF7F7FF04490968C1F38221034A9F
:104E1000515CC84000BD000008380240CADC0008F0
:104E200000B5FFF7E7FF04490968C1F34231034ABF
:104E3000515CC84000BD000008380240CADC0008D0
:104E40002DE9F047002400250026A14625480068EA
:104E500000F00C0020B1042805D008283AD105E064
:104E6000DFF8849039E0DFF8849036E01D48001FB9
:104E7000006800F03F041B48001F006800F4800039
:104E800078B11A481749091F0968C1F38811A0FBB6
:104E900001700146224600233846FBF701FA054619
:104EA0000EE011480F49091F0968C1F38811A0FBE2
:104EB00001700146224600233846FBF7F1F905460A
:104EC0000848001F0068C0F30140401C4600B5FBC5
:104ED000F6F902E0DFF8109000BF00BF4846BDE8D9
:104EE000F0870000083802400024F400001BB700DF
:104EF000F8B504460CB90120F8BD207800F0010097
:104F0000002874D0F948006800F00C0004280DD087
:104F1000F648006800F00C00082813D1F348001F81
:104F2000006800F48000B0F5800F0BD1EF4808381E
:104F30000068C0F34040002859D06068002856D16E
:104F40000120D9E700BF6068B0F5803F08D1E7488D
:104F50000838006840F48030E449083908601EE0F1
:104F60006068B0F5A02F0DD1E0480838006840F423
:104F70008020DE49083908600846006840F4803027
:104F800008600CE0D9480838006820F48030D74920
:104F9000083908600846006820F48020086000BFD7
:104FA000606890B1FFF722FD054606E0FFF71EFDA1
:104FB000401B642801D903209EE7CC4808380068CC
:104FC000C0F340400028F1D011E0FFF70FFD054687
:104FD00006E0FFF70BFD401B642801D903208BE797
:104FE000C24808380068C0F340400028F1D120785A
:104FF00000F0020002285FD1BC48006800F00C00FD
:1050000058B1BA48006800F00C0008281CD1B74815
:10501000001F006800F48000B0B9B4480838006888
:10502000C0F3400020B1E068012801D0012063E70F
:10503000AE480838006820F0F800216940EAC10055
:10504000AA490839086037E0E06800B30120A849A0
:105050000860FFF7CBFC054606E0FFF7C7FC401BE6
:10506000022801D9032047E7A04808380068C0F3A8
:1050700040000028F1D09D480838006820F0F80072
:10508000216940EAC10099490839086014E000200C
:1050900097490860FFF7AAFC054606E0FFF7A6FC63
:1050A000401B022801D9032026E7904808380068F1
:1050B000C0F340000028F1D1207800F00800082853
:1050C0002CD16069A8B101208A490860FFF78EFCE5
:1050D000054606E0FFF78AFC401B022801D90320A1
:1050E0000AE782486C300068C0F340000028F1D025
:1050F00014E000207F490860FFF778FC054606E0D1
:10510000FFF774FC401B022801D90320F4E677481E
:105110006C300068C0F340000028F1D1207800F026
:105120000400042870D1002670483830006800F070
:10513000805090B900BF002000906C483830006863
:1051400040F080506949383108600846006800F036
:105150008050009000BF00BF01266748006800F43F
:105160008070B0B96448006840F48070624908609B
:10517000FFF73CFC054606E0FFF738FC401B022821
:1051800001D90320B8E65C48006800F4807000286C
:10519000F2D000BFA068012808D1544868300068E8
:1051A00040F001005149683108601DE0A068052801
:1051B0000DD14E486830006840F004004B4968311A
:1051C00008600846006840F0010008600CE04748AD
:1051D0006830006820F001004449683108600846E2
:1051E000006820F00400086000BFA068A8B1FFF7C5
:1051F000FDFB054609E0FFF7F9FB401B41F2883152
:10520000884202D9032077E626E0384868300068F3
:10521000C0F340000028EED013E0FFF7E7FB05469F
:1052200008E0FFF7E3FB401B41F28831884201D9D7
:10523000032061E62D4868300068C0F34000002874
:10524000EFD1012E07D129483830006820F0805076
:1052500026493831086000BFA069B8B32348006808
:1052600000F00C0008285ED0A069022846D100207A
:105270001F490866FFF7BAFB054606E0FFF7B6FBD5
:10528000401B022801D9032036E618480838006878
:10529000C0F340600028F1D1D4E907010843616AF6
:1052A00040EA81110122A06AC2EB500041EA0041AC
:1052B0002C20005D41EA00600C49091F08600120B4
:1052C0000B490866FFF792FB054607E02DE0FFF764
:1052D0008DFB401B022801D903200DE60348083846
:1052E0000068C0F340600028F1D01EE0083802409A
:1052F00000004742800E47420070004000200C49E9
:105300000866FFF773FB054606E0FFF76FFB401BDF
:10531000022801D90320EFE506480068C0F3406089
:105320000028F2D101E00120E6E50020E4E50000DC
:10533000000047420038024010B504460CB9012075
:1053400010BD606A00B900BF0021A16294F851004D
:1053500028B9002084F85000204600F033F80220DD
:1053600084F851002068006820F04000216808603F
:10537000D4E901010843E1680843216908436169F0
:105380000843218B01F400710843E1690843216A55
:105390000843A16A0843216808600421A06901EA62
:1053A0001040616A0843216848602068C06920F4A1
:1053B00000602168C86100206065012084F8510008
:1053C0000020BDE710B586B00446514920688842E8
:1053D00078D100BF002000904E48006840F4005093
:1053E0004C4908600846006800F40050009000BF77
:1053F00000BF202001900220029000200390032093
:1054000004900520059001A94348FFF7CFF94FF418
:10541000825001900220029000200390032004900B
:105420000520059001A93C48FFF7C0F91020019024
:1054300003200490022002900120039001A9364825
:10544000FFF7B4F9354836490860C00548600021C7
:1054500033488160C1604FF4806101610021416186
:105460008161C16101624162FFF7AAF818B182212E
:105470002CA005F073FC00BF2948E064846300BFE2
:10548000264860302C4908604FF020604860402179
:10549000294881600021C1604FF4806101610021D1
:1054A00041618161C16101624162FFF789F818B110
:1054B00094211CA005F052FC00BF1F48A064846327
:1054C00023E0FFE71D49206888421ED100BF00206D
:1054D00000901048006840F480100E4908600846AB
:1054E000006800F48010009000BF00BF4FF46070AF
:1054F00001900220029000200390032004900520D8
:10550000059001A90E48FFF751F906B010BD000043
:105510000034014044380240001002401064024050
:10552000201D00202E2E5C5372635C4253505F534B
:1055300050492E6300000000801D002000500140F3
:10554000001402402DE9FE4F04460D4616461F4644
:10555000DDF830804FF0000A0020029081464FF0C5
:10556000010B019000BF94F85000012802D10220E5
:10557000BDE8FE8F012084F8500000BFFFF736FA27
:10558000814694F851A060680290BAF1010F0BD0E7
:105590000298B0F5827F04D1A06810B9BAF1040F67
:1055A00002D002200190D2E00DB106B117B901205E
:1055B0000190CCE094F85100012802D1052084F834
:1055C000510000206065A663E787A7872563E7860B
:1055D000A786206460642068006800F040004028CE
:1055E00005D02068006840F0400021680860E0684D
:1055F000B0F5006F43D1606810B1E08E012806D18C
:1056000028882168C860AD1CE08E401EE0862FE02F
:10561000BBF1000F10D0E08E70B12068806800F000
:105620000200022808D128882168C860AD1CE08EDD
:10563000401EE0864FF0000BE08F68B12068806864
:1056400000F0010040B12068C0683080B61CE08FD7
:10565000401EE0874FF0010B08F1010040B1FFF759
:10566000C5F9A0EB0900404502D3032001906EE08C
:10567000E08E0028CCD1E08F0028C9D142E06068DC
:1056800010B1E08E012806D12878216808736D1CBE
:10569000E08E401EE0862FE0BBF1000F10D0E08EC0
:1056A00070B12068806800F00200022808D115F867
:1056B000010B21680873E08E401EE0864FF0000B5E
:1056C000E08F68B12068806800F0010040B1206878
:1056D000C06806F8010BE08F401EE0874FF0010B19
:1056E00008F1010040B1FFF781F9A0EB0900404546
:1056F00002D3032001902AE0E08E0028CCD1E08F75
:105700000028C9D14346012202212046CDF800904D
:1057100004F01CFB10B10320019018E04A464146FA
:10572000204604F0FFFA20B101200190202060659E
:105730000DE0A06850B900BF002000902068C0684C
:10574000009020688068009000BF00BF00BF01206B
:1057500084F8510000BF002084F8500000BF019879
:1057600006E7042808D14FF0E021096941F004015F
:105770004FF0E022116107E04FF0E021096921F0CC
:1057800004014FF0E0221161704770B504462546D0
:10579000681EB0F1807F01D301200FE0681E4FF03A
:1057A000E02148610F214FF0FF3003F0D5FD0020CC
:1057B0004FF0E021886107200861002070BD70472C
:1057C000704710B50346002200BF93F83800012847
:1057D00001D1022010BD012083F8380000BF22F063
:1057E000FF00CC6840EA040222F440708C6840EA72
:1057F000040222F480604C6840EA040222F4006053
:105800000C6840EA040222F480500C6940EA040269
:1058100022F400504C6940EA040222F480408C6972
:1058200040EA040222F400408C6940EA040218684D
:10583000426400BF002083F8380000BF00BFC9E702
:10584000024600BF92F83800012801D102207047BB
:10585000012082F8380000BF022082F83900106869
:10586000406820F0700013685860106840680B684A
:105870001843136858601068806820F0800013682F
:105880009860106880684B6818431368986001201E
:1058900082F8390000BF002082F8380000BF00BF46
:1058A000D5E710B504460CB9012010BD94F83900B5
:1058B00028B9002084F83800204600F00DF80220B6
:1058C00084F83900211D206804F0E4FB012084F8ED
:1058D00039000020E9E7000008B50A4A0168914252
:1058E0000FD100BF002100910749096841F0020172
:1058F000054A11601146096801F00201009100BFDC
:1059000000BF08BD000400404038024001460220AC
:1059100081F839000868006840F001000A681060EA
:10592000012081F839000020704701460868C068EE
:1059300040F001000A68D0600868006840F001008B
:105940000A68106000207047704710B50446206850
:105950000069C0F34000D8B12068C068C0F34000BF
:10596000B0B16FF002002168086101202076206844
:10597000806900F0030018B12046FFF7E5FF05E05D
:10598000204600F003F9204600F0D2F900202076EE
:1059900020680069C0F38000D8B12068C068C0F3F7
:1059A0008000B0B16FF00400216808610220207609
:1059B0002068806900F4407018B12046FFF7C4FFEA
:1059C00005E0204600F0E2F8204600F0B1F90020A2
:1059D000207620680069C0F3C000D8B12068C06894
:1059E000C0F3C000B0B16FF0080021680861042066
:1059F00020762068C06900F0030018B12046FFF748
:105A0000A3FF05E0204600F0C1F8204600F090F921
:105A10000020207620680069C0F30010D8B120680B
:105A2000C068C0F30010B0B16FF0100021680861C9
:105A3000082020762068C06900F4407018B1204624
:105A4000FFF782FF05E0204600F0A0F8204600F0B6
:105A50006FF9002020762068006900F0010058B13D
:105A60002068C06800F0010030B16FF001002168CB
:105A70000861204600F084F920680069C0F3C01076
:105A800058B12068C068C0F3C01030B16FF080001A
:105A9000216808612046FFF792FE20680069C0F384
:105AA000801058B12068C068C0F3801030B16FF02A
:105AB000400021680861204600F096F920680069DE
:105AC000C0F3401058B12068C068C0F3401030B136
:105AD0006FF02000216808612046FFF771FE10BDBD
